:100000000C941E030C9465030C9465030C94DA2B7A
:100010000C9465030C9465030C9465030C946503C0
:100020000C9465030C9465030C94DD250C949925C0
:100030000C945B2A0C9465030C9465030C94650383
:100040000C9465030C9465030C9465030C94650390
:100050000C9465030C94372A0C9465030C94650387
:100060000C9465030C9465030C9465030C94650370
:100070000C9465030C9465030C9465030C94650360
:100080000C9465030C9465030C9465030C94650350
:100090000C9465030C9465030C9465030C94650340
:1000A0000C9465030C9465030C9465030102E061F4
:1000B000630103E0000102E061760103E00000005B
:1000C0000000000000000000000000000000000030
:1000D0000000000000000000000000000000000020
:1000E00000007E0F00D4FFFFFFC700000078000073
:1000F0000000000000002A2B280000000000000083
:1001000000000000000000000029000000002C1E7C
:100110003420212224342627252E362D3738271E39
:100120001F202122232425263333362E37381F045F
:1001300005060708090A0B0C0D0E0F1011121314F7
:1001400015161718191A1B1C1D2F3130232D3504B5
:1001500005060708090A0B0C0D0E0F1011121314D7
:1001600015161718191A1B1C1D2F3130354C005746
:10017000025703570457055706572B6314001A00FC
:100180000800150017002961040016000700090087
:100190000A00E1001D651B00060019000500695DED
:1001A000E300E20002512C621B010C570B570A5767
:1001B0000957085707572F63130012000C00180047
:1001C0001C00347133000F000E000D000B00E50021
:1001D0003865370036001000110031006545E60033
:1001E0002A432C42AE000C570257035704570557B9
:1001F00006572B00170014001A000800150029618B
:100200000A000400160007000900E1001D001B00A1
:1002100006001900050042002A00E20004512C00EB
:10022000A800065D2B5D055D045D085D075D2F0080
:10023000130012000C0018001C00340033000F00E3
:100240000E000D000B002A003800370036001000A9
:1002500011003100E700E6002A4328000153460060
:100260001E081F082008210822082B045F5D605D1E
:10027000300027023002075D645D615D2F002602B9
:100280002F02045D065D1B040604190405042B5DA2
:10029000E000010001000100665D440043004200EF
:1002A000410040003F004500560026002500240084
:1002B0005500570027002300220021006300655DE0
:1002C000540020001F001E0036000000000028001F
:1002D00000000100015301000100010001000100C4
:1002E000010001000100F100ED00F200F900010041
:1002F0006500EF00EE00F000FA00010001000100CF
:10030000010001000100010001000100FD00E50005
:10031000010023082208210820081F081E084B009E
:100320004E0049004D004A004C002A0128004F00B1
:100330005200510050002B04645D675D4F01500175
:10034000685D0100E4004C01010001000100075755
:10035000085709570A570B570C571C0018000C0078
:10036000120013002F000B000D000E000F003300D1
:100370003400110010003600370038002A00010058
:100380000100010001000100010001000100010065
:100390000100010001000100010001000100010055
:1003A0000100010001000100010001000100010045
:1003B0000100010001000100010001000100010035
:1003C0000100010001000100090A01000100010013
:1003D0000100010001000100010001000100010015
:1003E00001000100625D635D010001000100010088
:1003F00001000100010001000100010001000100F5
:100400000100A600A5000100010001000100005C40
:100410000100010001000100010001000100AB002A
:10042000AE00AC00010001000100A900A800AA0074
:10043000010001000100010065000100010000054C
:10044000010502050305040505050006010602066F
:100450000306040605060007010702070307040751
:100460000507000801080208030804080508000938
:10047000010902090309040905090000010002003D
:100480000300040005000001010102010301040151
:100490000501000201020202030204020502000338
:1004A000010302030303040305030004010402041F
:1004B0000304040405040102E201013D0103E2001A
:1004C0000102E00101500103E00102E10102E0014B
:1004D000014F0103E00103E1003C3E3C2F3E0024BC
:1004E0007B7D003D3E0021232450783130312100B6
:1004F000383731666635303039353161000102E018
:1005000061780103E00005010902A10185020901EA
:10051000A100050919012908150025019508750193
:1005200081020501093009311581257F9502750881
:10053000810609381581257F950175088106050C0E
:100540000A38021581257F950175088106C0C0050E
:10055000010980A101850319012AB700150126B7F9
:1005600000950175108100C0050C0901A1018504E9
:1005700019012AA002150126A0029501751081001B
:10058000C005010906A101050719E029E7150025A5
:10059000019508750181029501750881010507190A
:1005A0000029FF150026FF00950675088100050843
:1005B00019012905950575019102950175039101B0
:1005C000C009023B00020100A0FA09040000010377
:1005D00001010009211101000122400007058103EA
:1005E00008000A09040100010300000009211101AB
:1005F0000001227B000705820320000A120110017E
:100600000000000832FC87020100010200010C0317
:1006100053006F0066006C00650000001A034A007A
:100620006F007300650066004100640061006D00AA
:10063000630069006B0000000403090411241FBE5D
:10064000CFEFDAE0DEBFCDBF04B603FE27C0809156
:10065000C9069091CA06A091CB06B091CC0687300E
:10066000904BA740B04BD1F41092C9061092CA0625
:100670001092CB061092CC0614BE84B7877F84BF3D
:100680000FB6F894A895809160008861809360000F
:10069000109260000FBEE0E0F8E3099512E0A0E0E0
:1006A000B1E0ECE4FBE502C005900D92A43AB1077D
:1006B000D9F726E0A4EAB2E001C01D92A93CB20736
:1006C000E1F70E94B4260C94792D0C9400008D3033
:1006D00027E5920708F5823027E5920708F040C029
:1006E0008A3223E49207A9F060F4893F910530F043
:1006F0008B3F9105C0F18C32924459F08DE790E028
:100700000895811527E5920789F198F58533954479
:10071000A9F78AEF90E008958B3223E69207C9F398
:1007200070F4893221E69207A1F38C3222E6920717
:1007300081F385369D4511F784EF91E008958D3161
:1007400025E6920731F320F48F329346B9F6E1CFD4
:10075000883325E69207E9F28433914779F6D9CFB9
:1007600086E990E008958AE090E0089588EC90E0B2
:10077000089584EB90E00895E8EDF0E080818E7FAD
:1007800080831092E2001092DA001092E100A0EE55
:10079000B0E08C9181608C9380818F77808319BCCD
:1007A000A7EDB0E08C918E7F8C9380818F7E8083CB
:1007B0001092A40608952091E4003091E50095E69A
:1007C000A9012091EC00822F817020FF06C080914A
:1007D000E80080FF06C080E008952091E80022FD37
:1007E0001AC08091B106882389F0853089F0809104
:1007F000EB0085FD0FC02091E4003091E500421729
:100800005307F9F29150E1F684E0089582E00895EB
:1008100083E0089581E00895EF92FF920F931F9374
:10082000CF937C018B010E94DB03C82F811117C07D
:100830008091E80085FD0BC08091E8008E77809361
:10084000E8000E94DB03882399F3C82F08C0F70152
:1008500081917F018093F1000150110949F78C2F9C
:10086000CF911F910F91FF90EF9008958091B30663
:1008700087FF13C08091E80082FF06C08091E800E6
:100880008B778093E80004C08091B1068111F2CF8C
:1008900008958091B1068823D9F38091E80080FF04
:1008A000F8CF8091E8008E77ECCF982F9093E900F5
:1008B000242F762F50E0891731F07091EC002091B1
:1008C000ED005091F00021FD07C09F5F973071F758
:1008D0008093E90081E008953091EB003E7F3093F2
:1008E000EB003091ED003D7F3093ED003091EB0057
:1008F00031603093EB007093EC002093ED00509347
:10090000F0002091EE0027FDE0CF80E00895CF9227
:10091000DF92EF92FF920F931F93CF93DF93C8ED77
:10092000D0E088818F7E8883E7EDF0E08081816070
:10093000808384E082BF81E08093A40688818E7FDB
:10094000888302EE10E0F80110821092DA0081EE46
:10095000C82ED12CF601108288818F7788838881F8
:100960008068888388818F7D888319BC1092B10646
:100970001092B2061092B0061092AF0690EEE92ED9
:10098000F12CF70180818B7F80838881816088834F
:1009900042E060E080E00E945504F60180818E7F95
:1009A0008083F8018081816080838081886080837A
:1009B000F70180818E7F8083888180618883DF91C9
:1009C000CF911F910F91FF90EF90DF90CF900895FE
:1009D000FC018091B9069091BA0686179707A0F09E
:1009E0006115710529F49091E8009E779093E800D5
:1009F00090E06115710551F4911108C08091E800F3
:100A000082FF34C080E00895BC01F2CF8091B1062E
:100A10008823C1F18530C1F18091E80083FD30C0A9
:100A20008091E80082FDEACF8091E80080FFE1CF6D
:100A30008091F3002091F200382F6115710519F0B3
:100A40002830310558F091E02830310509F090E068
:100A50002091E8002E772093E800CBCF81918093FE
:100A6000F100615071092F5F3F4FE7CF8091B106D0
:100A7000882341F0853041F08091E80083FFBECFAC
:100A800081E0089582E0089583E0089580E008956C
:100A90008091A606089587E797E7909301088093D1
:100AA000000888E19AE00FB6F894A895809360005A
:100AB0000FBE90936000FFCF9C014FB7F8948091D8
:100AC0005F0690916006A0916106B09162064FBFEB
:100AD000821B930B08952FB7F89460915F06709175
:100AE000600680916106909162062FBF08952FB72E
:100AF000F89480915F0690916006A0916106B09194
:100B000062062FBF08959C01FC0132969FEF80E0A2
:100B10004191461751F09F3F19F4411101C0982FA0
:100B20008F5F8630A9F79F3F09F40895290F311D83
:100B300097FD3A95F9016283089580915A068823BA
:100B400031F010925A0610925906109258060895E4
:100B50008095909157069823909357060895809119
:100B6000570690915606892B90915506892B8093B4
:100B7000A60280915A06882319F10E9477052091D8
:100B8000580630915906821B930B883E934010F013
:100B90000E949D058091A60290915A06892B809310
:100BA000A60220E088EA92E0FC013191CF013111E8
:100BB0002F5FF2E08E3A9F07B9F721110E949D0541
:100BC000E0917A06F0917B06309731F00280F38154
:100BD000E02D86EA92E0099408951092540610924E
:100BE0005306109252060895809151068111109279
:100BF00051060895E92FEE0FE90FEE0F8E0F982F93
:100C0000977086958695869525E0829FF001112440
:100C1000E75DF94F50E040E080E0219130E0092E9F
:100C200002C0369527950A94E2F721703327042EE7
:100C300001C0220F0A94EAF7822B4F5F5F4F4530C5
:100C4000510559F70895E92FEE0FE90FEE0F8E0FBA
:100C5000982F977041E001C0440F9A95EAF7869566
:100C60008695869595E0899FF0011124E75DF94FFF
:100C700030E020E070E05191DF011197CB01022EAE
:100C800002C0969587950A94E2F781708195852731
:100C9000842385278C932F5F3F4F2530310559F7EB
:100CA00008954091670650916806609169067091B9
:100CB0006A06411551056105710529F441E081116C
:100CC00040E0842F089504C0769567955795479521
:100CD0008A95D2F74170F5CF209128069091F705BB
:100CE00056E0291302C080E0089530E0529FF001E1
:100CF000539FF00D1124E850FA4F7181761306C00E
:100D00007081781303C07281741304C02F5F3F4F4A
:100D10002770E7CF81E00895452B39F0682381E003
:100D20006F3F09F080E08170089581E0FCCF8091F1
:100D300028069091F705981301C008958F5F87707A
:100D4000FACF882341F080959091560689238093AD
:100D500056060C94AF050895882339F090915606F5
:100D6000982B909356060C94AF050895882321F094
:100D70000E94A8050C94AF050895882339F090913E
:100D80005706982B909357060C94AF0508950C9432
:100D90006B052091B7023091B8022817390771F01E
:100DA0009093B8028093B702E0917A06F0917B06A7
:100DB000309721F00084F185E02D09940895209169
:100DC000B5023091B6022817390771F09093B60238
:100DD0008093B502E0917A06F0917B06309721F07E
:100DE0000680F781E02D09940895E0917A06F0914C
:100DF0007B06309721F00190F081E02D099480E08E
:100E00000895CF93DF93EC0181E0898B80915706A1
:100E10009F81892B80935706809156069885892B50
:100E2000809356060E94AF05EA81FB81309739F026
:100E30006C897D89CE010696DF91CF910994DF916F
:100E4000CF910895EF92FF920F931F93CF93DF936B
:100E5000EC018A85811139C0EB80FC8087E5F81AA6
:100E600026E12E9DC0012F9D900D1124DC01A25E74
:100E7000BE4F1496ED91FC911597309731F0549632
:100E80006D917C918C5D9E4F099586E18E9D8001D0
:100E90008F9D100D1124025E1E4FF80187810E9464
:100EA000A805F8018085982F909580915606892392
:100EB000809356060E94AF05188219861B861E82F3
:100EC0001D821092E8051092E705DF91CF911F91E6
:100ED0000F91FF90EF9008950E9477059C019091EB
:100EE000940680919506982B21F0309391062093DB
:100EF00090069091960680919706982B21F030935A
:100F00008E0620938D06E0917A06F0917B0630974D
:100F100049F082E0809392060480F581E02D82E919
:100F200096E00994089590E080E00E94DF0690E04A
:100F300080E00E94C90610925606109255060E9443
:100F4000AF0586E0E2E9F6E0DF011D928A95E9F758
:100F500010928F0610928C061092EE050C946C077E
:100F600060936706709368068093690690936A069B
:100F70000C9493070F931F9341E050E060E070E002
:100F800004C0440F551F661F771F8A95D2F7CB0107
:100F9000BA016095709580959095009167061091C3
:100FA00068062091690630916A06602371238223C6
:100FB00093231F910F910C94B00790915406809544
:100FC000892380935406282F277039F4282F082E60
:100FD000000C330B9217130621F490916C0692FFCC
:100FE00007C08595859585950E94BA070C94ED05F7
:100FF00008950F931F9341E050E060E070E004C05B
:10100000440F551F661F771F8A95D2F78091670698
:1010100090916806A0916906B0916A068A019B01C9
:10102000082B192B2A2B3B2BC901B8011F910F91BB
:101030000C94B00790916C0692FD10C098E0899FC7
:1010400090011124622B609354060E94F9070E94BC
:101050007705909353068093520608950C94F907F0
:1010600060E070E0CB010C94B00760935B06709376
:101070005C0680935D0690935E060C949307409106
:1010800094068D3E59F48091950687FF0DC010920D
:10109000950641110BC010928F0608C08E3E81F458
:1010A0008091950618169CF3442381F08091960652
:1010B00090919706892B09F05AC010928C060895DA
:1010C0008F3E49F447FFF0CF109294068091950629
:1010D0008111ECCFE0CF803F19F41416ACF3E4CFCC
:1010E00090919606893F29F41916F4F61092960607
:1010F000DBCF8A3F19F497FFD7CFF8CF90919706AF
:101100008B3F29F497FFD0CF10929706CDCF8C3F1D
:1011100019F41916CCF3C8CF9FE0980F983090F4CB
:10112000815F990B21E030E0B90102C0660F771FA3
:101130008A95E2F7CB01809590919306892380935D
:101140009306B2CF8D3F31F48091EE058E7F809370
:10115000EE05AACF8E3F21F48091EE058D7FF7CF6B
:101160008F3F09F0A1CF8091EE058B7FF0CF0895DE
:101170008823B1F19CEF980F913A70F4E8EAF2E01D
:101180009191891303C0DF0111971C9292E0EE3A0E
:10119000F907B1F70C94AF0590E2980F983050F42E
:1011A000877091E001C0990F8A95EAF7892F0E9414
:1011B000A805F0CF9BE5980F933020F490E080E0F5
:1011C0000C94DF0698E5980F973120F490E080E0CA
:1011D0000C94C9068D3E20F00E943F080C946C07C9
:1011E00008959091EE05892F817090FD0BC091FDBF
:1011F00006C092FD06C080918C06811102C081E07C
:10120000089582E008958091EE0580FD16C081FD6D
:1012100016C082FD16C080918F06882381F0883227
:1012200080F42AE0829FC001112468E270E00E94ED
:10123000E72C862F672B39F0089582E0089585E02A
:1012400008958AE0089581E008958D3E31F40E946A
:10125000030981958093950608958E3E19F40E94A6
:101260000309F8CF8F3E31F40E94030981958093E2
:1012700094060895803F19F40E940309F8CF893F2E
:1012800029F40E94F1088093960608958A3F21F47C
:101290000E94F1088195F7CF8B3F31F40E94F1084D
:1012A00081958093970608958C3F19F40E94F10868
:1012B000F8CF9FE0980F983070F4815F990B21E090
:1012C00030E001C0220F8A95EAF780919306822BC5
:1012D0008093930608958D3F31F48091EE058160EF
:1012E0008093EE0508958E3F21F48091EE05826093
:1012F000F7CF8F3FB9F78091EE058460F1CFCF93A0
:10130000C82F882309F456C08CEF8C0F813AF8F46B
:10131000E8EAF2E08EEA92E0DF012D91C21759F07F
:101320008A179B07D1F76C2F86EA92E00E9483050B
:10133000CF910C94AF052191C21303C0DF01119727
:101340001C928E179F07B9F70E94AF05ECCF80E281
:101350008C0F883068F4C77021E030E001C0220FA4
:10136000CA95EAF780915706822B80935706E0CF03
:10137000EBE5EC0FE33040F4F0E0ED5AFD4F8081F7
:1013800090E0CF910C94DF06E8E5EC0FE73150F4E4
:10139000F0E0EE0FFF1FEA5AFD4F80819181CF915F
:1013A0000C94C906CD3E30F08C2F0E942509CF91B8
:1013B0000C946C07CF910895F894E82FE295EF70A4
:1013C000F0E031A1282F2F7081E090E001C0880F5C
:1013D0002A95EAF7982F9095932391A392A1892BB0
:1013E00082A37894089590916B0692FF06C0282FEF
:1013F00028712830F9F4877F846093FF06C0282F76
:1014000028712831F1F4877E846120916C0620FFD9
:1014100006C0382F38713830D9F4877F816021FFBA
:1014200006C0282F28712831D1F4877E816194FD70
:10143000877E0895282F24712430F9F68B7F8860E9
:10144000DCCF282F2471243101F78B7E8861DDCF1A
:10145000382F3171313019F78E7F8860E0CF282F17
:101460002171213121F78E7E8861E1CFCF93DF9307
:10147000972F70E026E0929F600D711D1124FB01F3
:101480003CE3839FE00DF11D1124EE0FFF1FE25995
:10149000FE4FC591D491CE01C238D105B9F1E8F51E
:1014A000C133D10509F499C050F5C932D10509F409
:1014B0008DC0CA32D10509F497C0C11542E5D407E1
:1014C00008F0C4C0C11521E5D20708F032C1C83EFA
:1014D000D10508F09DC0C03ED10568F5C83AD105D8
:1014E00008F089C0C53AD10508F0FFC0C130D10568
:1014F00011F1209709F443C02497E8F440C0C533A4
:10150000D10509F45CC0C933D105B9F620916B0649
:10151000237089F080EE90E00EC0C33ED10591F1BA
:1015200068F4C03ED105F9F0C23ED10531F62091F4
:101530006B0622FD20C0DF91CF910895C63ED105F4
:1015400061F1C73ED10581F1C43ED10509F0B5CFA7
:1015500020916C0621FFEFCF80916B0684FD0FC0B8
:1015600087EE90E0E8CF20916B0620FD14C130910A
:101570006C0630FFE0CF83EE90E024FFDCCF90E0FC
:1015800080E0D9CF20916B0622FD08C130916C0616
:1015900030FDC0CF24FFCFCFF2CF20916B0623FFC9
:1015A000CACF24FDECCFDCCF20916B0623FDF9C020
:1015B00030916C0631FFEECF84EE90E0BCCF2091ED
:1015C0006B0625FFB8CF89E290E0B5CF20916B067E
:1015D00025FFB1CF85E390E0AECF20916B0626FFCB
:1015E000AACF8AE290E0A7CF20916B0626FFA3CF77
:1015F00081E390E0A0CFCF3BD10508F6C85AD0E0F8
:10160000CC0FDD1FCA5ADD4F88819981946493CF36
:10161000C11530E2D30760F4C11541E0D40708F0EA
:101620008ACFCE019065CD3ED10508F084CFA7CFFB
:10163000C11580E4D80708F4A2CFC11590E5D907F9
:1016400008F05BC0CE019F70906A75CFC11526E58A
:10165000D20718F5C11535E5D30708F080C0C115CC
:1016600044E5D40708F076C09C2F96959695AE0178
:1016700043705527C115D34508F460C021E030E020
:1016800002C0220F331F4A95E2F740E2949FC00147
:101690001124822B932B9A684ECFC11599E5D90757
:1016A00070F4C11528E5D20708F063C0C11537E50D
:1016B000D30708F064CFCE01992790663CCFC115BF
:1016C0004AE5D40708F45AC0CE01905681159042DD
:1016D00008F055CF8D2F8F710E94F30990E0982F5D
:1016E000882788279F718C2B42C0C55AD0E0CD5ADD
:1016F000DD4F888190E090641ECF9E01E4E0369536
:101700002795EA95E1F723708C2F8695869583704F
:1017100030E2839FC0011124922BC37021E030E09E
:1017200002C0220F331FCA95E2F7822B932B9C68CD
:1017300002CF9C2F8827816F906AFDCE21E030E098
:1017400002C0220F331F4A95E2F740E2949FC00186
:101750001124EBCF9C2F8827846F906AECCE8C2FBE
:101760000E94F30990E0982F882788279F71906244
:10177000E2CE9C2F8827806F906ADDCE8C2F8F70F1
:101780000E94F30934E0D695C7953A95E1F7CF70FA
:101790009C2F9069D0CE89E390E0CDCE82EE90E090
:1017A000CACE86EE90E0C7CEBF92CF92DF92EF9284
:1017B000FF920F931F93CF93DF938C01C090670626
:1017C000D0906806E0906906F0906A0680915B060A
:1017D00090915C06A0915D06B0915E06C82AD92A58
:1017E000EA2AFB2ACFE1D0E0BC2ED701C6010C2E9D
:1017F00004C0B695A795979587950A94D2F780FD72
:101800000EC0219788F7B12C8B2DDF91CF911F91BE
:101810000F91FF90EF90DF90CF90BF900895B801A7
:101820008C2F0E94360A019761F3EECFCF93DF939E
:10183000EC010E94D40BBE01DF91CF910C94360ACB
:101840000E94160C292F2F7092959F7092509E30F7
:1018500078F4E92FF0E0E558F24D0C94FB2C803F32
:1018600019F020F4883E20F481E00895843FE1F3EC
:1018700080E00895883EC0F3813FD1F7F5CF822FF5
:1018800086958695869508951F93CF93DF9300D014
:1018900000D00F92CDB7DEB749835A8389819A81F0
:1018A000662331F1222321F10E94D40B182F682FD7
:1018B00089819A810E9423068A81E981F0E096E07D
:1018C000899FE00DF11D11248CE3189FE00DF11D9F
:1018D0001124EE0FFF1FE259FE4F859194910F9056
:1018E0000F900F900F900F90DF91CF911F9108955F
:1018F0000E94FA05182FE0CF9C019A9581159F410F
:1019000050F4832F817031FD826032FD846033FD9D
:101910008860FB0109940895CF93DF93EC010E9446
:10192000B808CE01805E910966EB76E0089710F06A
:1019300061EA76E0CE01DF91CF910C947C0CCF93DD
:10194000DF93EC01805E91096DEB76E0089710F073
:101950006CEA76E0CE010E947C0C8C2FDF91CF9157
:101960000C947F0980911901823029F0833041F075
:101970001092190108958EE290E00E948C0CF8CF2D
:1019800084E490E0FACF80911701823029F083300F
:1019900041F01092170108958DE290E00E948C0CA6
:1019A000F8CF83E490E0FACF80911501823029F0DE
:1019B000833041F010921501089586E290E00E9474
:1019C0008C0CF8CF82E490E0FACF80911301823042
:1019D00029F0833041F010921301089585E290E0E0
:1019E0000E948C0CF8CF81E490E0FACF8091110135
:1019F000823029F0833041F010921101089584E281
:101A000090E00E948C0CF8CF80E490E0FACF8091B7
:101A10000F01823029F0833041F010920F010895B8
:101A200083E290E00E948C0CF8CF8FE390E0FACF35
:101A300080910D01823029F0833041F010920D0128
:101A4000089582E290E00E948C0CF8CF8EE390E043
:101A5000FACF80910B01823029F0833041F010924F
:101A60000B01089581E290E00E948C0CF8CF8DE389
:101A700090E0FACF80910901823029F0833041F063
:101A800010920901089580E290E00E948C0CF8CF3A
:101A90008CE390E0FACF80910701823029F0833007
:101AA00041F01092070108958FE190E00E948C0CA4
:101AB000F8CF8BE390E0FACF80910501823029F0D6
:101AC000833041F01092050108958EE190E00E946C
:101AD0008C0CF8CF8AE390E0FACF8091030182303A
:101AE00029F0833041F010920301089583E390E0E0
:101AF0000E948C0CF8CF89E290E0FACF809101012E
:101B0000823029F0833041F010920101089587E27C
:101B100090E00E948C0CF8CF85E390E0FACFFC01B6
:101B20002081213029F48285811102C082E008954C
:101B300083E008950E948F0D80931901823019F07F
:101B4000833029F008958EE290E00C949F0C84E499
:101B500090E0FBCF0E948F0D80931701823019F027
:101B6000833029F008958DE290E00C949F0C83E47B
:101B700090E0FBCF0E948F0D80931501823019F009
:101B8000833029F0089586E290E00C949F0C82E463
:101B900090E0FBCF0E948F0D80931301823019F0EB
:101BA000833029F0089585E290E00C949F0C81E445
:101BB00090E0FBCF0E948F0D80931101823019F0CD
:101BC000833029F0089584E290E00C949F0C80E427
:101BD00090E0FBCF0E948F0D80930F01823019F0AF
:101BE000833029F0089583E290E00C949F0C8FE3FA
:101BF00090E0FBCF0E948F0D80930D01823019F091
:101C0000833029F0089582E290E00C949F0C8EE3DB
:101C100090E0FBCF0E948F0D80930B01823019F072
:101C2000833029F0089581E290E00C949F0C8DE3BD
:101C300090E0FBCF0E948F0D80930901823019F054
:101C4000833029F0089580E290E00C949F0C8CE39F
:101C500090E0FBCF0E948F0D80930701823019F036
:101C6000833029F008958FE190E00C949F0C8BE372
:101C700090E0FBCF0E948F0D80930501823019F018
:101C8000833029F008958EE190E00C949F0C8AE354
:101C900090E0FBCF0E948F0D80930301823019F0FA
:101CA000833029F0089583E390E00C949F0C89E23F
:101CB00090E0FBCF0E948F0D80930101823019F0DC
:101CC000833029F0089587E290E00C949F0C85E31F
:101CD00090E0FBCFCF9384E090E00E94372DC82F97
:101CE00082E290E00E94372D982F8C2FCF9108959B
:101CF000CF93DF9300D00F92CDB7DEB79091B106AE
:101D0000943019F589837B836A8382E08093E900AC
:101D10008FEF9091E800815095FD06C095ED9A9562
:101D2000F1F700008111F5CF8091E80085FF0DC02B
:101D300050E040E063E070E0CE0101960E940C04A8
:101D40008091E8008E778093E8000F900F900F90BD
:101D5000DF91CF910895BC0184E00C94780EBC0112
:101D600083E00C94780E9C0182E08093E9009FEF61
:101D70008091E800915085FD06C085ED8A95F1F7C8
:101D800000009111F5CF8091E80085FF0CC050E074
:101D900040E066E070E0C9010E940C048091E80018
:101DA0008E778093E8000895CF93DF93EC0181E074
:101DB0008093E9008FEF9091E800815095FD06C077
:101DC00095ED9A95F1F700008111F5CF8091E8002B
:101DD00085FF14C050E040E068E070E0CE010E9452
:101DE0000C048091E8008E778093E80088E0FE0183
:101DF000A7EAB6E001900D928A95E1F7DF91CF91C5
:101E000008951F93CF93DF93182FCAE0D0E0893352
:101E100011F4C0E5D0E0812F0E947F098FE99FE097
:101E20000197F1F700C000002197C1F7812FDF91E2
:101E3000CF911F910C94B808CF92DF92EF92FF924E
:101E40000F931F93CF93DF936B01C42FD22FFC010D
:101E500082818823C1F04093E9050E947705909321
:101E6000B4028093B302C77081E001C0880FCA95A5
:101E7000EAF7DF91CF911F910F91FF90EF90DF90E4
:101E8000CF900C94BD061091E90514133DC08091CC
:101E9000B3029091B4020E945C057C01C6010E94CD
:101EA0006703E816F90680F5C0E2CD0F1D17B9F0FB
:101EB00080E2810F883040F4177081E001C0880F04
:101EC0001A95EAF70E94B606C83048F481E09D2FC3
:101ED000977001C0880F9A95EAF70E94BD06802F7F
:101EE0000E94010FC830B8F4D77081E001C0880F9C
:101EF000DA95EAF7DF91CF911F910F91FF90EF9064
:101F0000DF90CF900C94B606C77081E001C0880FB7
:101F1000CA95EAF7EFCFDF91CF911F910F91FF9014
:101F2000EF90DF90CF9008958091B202811110C0A0
:101F30008091D80080618093D8008AE18A95F1F77A
:101F400000C08091D90080FF0AC081E08093B20276
:101F500081E09091B202913009F080E0089582E032
:101F60008093B2020E94BC031092B106F1CFAF92EF
:101F7000BF92CF92DF92EF92FF920F931F93CF9376
:101F8000DF93EC018AE0A82EFE012491222309F4BC
:101F900094C0213009F03EC031968491813031F4F3
:101FA0002296FE0184910E94010F07C0823039F40D
:101FB0002296FE0184910E947F092196E5CF83300D
:101FC00031F42296FE0184910E94B808F6CF843045
:101FD00009F071C02296FE01249190E080E0FE019C
:101FE00031962053330B2A30310548F0019728F3FE
:101FF000EFE9FFE03197F1F700C00000F7CFA89EAE
:10200000A001A99E500D1124C901840F951F249190
:10201000EF01E5CFE22FF0E0E251FF4FB490822FC5
:1020200086958695869590E0FC01E252FF4FE490FC
:102030002770F12C022E02C0F594E7940A94E2F77F
:1020400031E0E322FF24FC01E253FF4FC490D12C86
:10205000022E02C0D594C7940A94E2F7E1E0CE22A2
:10206000DD24FC01E254FF4F049110E002C01595FD
:1020700007952A95E2F701701127E114F10419F090
:1020800081EE0E947F09C114D10419F086EE0E94EE
:102090007F098B2D0E94010FCD2819F086EE0E943A
:1020A000B808EF2819F081EE0E94B808012B09F456
:1020B00084CF8CE278CFEF0180CFDF91CF911F9159
:1020C0000F91FF90EF90DF90CF90BF90AF90089569
:1020D000CF93DF93EC010E949F0C8FE39CE9019763
:1020E000F1F700C00000CE01DF91CF910C948C0C71
:1020F000CF93C62F811186C084E00E9451068111C2
:1021000011C083E00E945106882379F0109257068F
:102110008FE496E0C11102C080E596E00E9468104D
:102120001092570681E0CF91089582E00E945106F7
:102130008823C9F0809157068470CC2361F08823EE
:1021400029F082E59BE00E946810ECCF85EB90E0DF
:102150000E94B70FE7CF882319F081E59BE0F3CF0A
:102160008CEA90E0F5CF81E00E945106882339F097
:1021700082E490E0C111E7CF8EE390E0E4CF80915C
:102180005706982F9270CC2309F1992359F082E0D9
:102190000E94B6068CE191E00E94681082E00E94E5
:1021A000BD06C0CF85FF03C08FE498E0CCCF82FF8F
:1021B00003C08FE491E0C7CF86FF03C083E293E0C2
:1021C000C2CF84FDAFCF89E191E0BDCF992331F03B
:1021D00082E00E94B6068DE191E0DECF85FF03C06C
:1021E00080E598E0B0CF82FF03C080E591E0ABCFFF
:1021F00086FF03C081E293E0A6CF84FD93CF86E003
:1022000091E0A1CF813009F08DCF84E00E9451068A
:10221000882331F0CC2309F48EC08EE491E093CF73
:1022200083E00E9451068823F9F08091570680745C
:10223000CC2369F0811176CF89EA90E00E94681082
:1022400089EA90E00E94681089EA90E07CCF8111D1
:1022500069CF8AEA90E00E9468108AEA90E00E94C2
:1022600068108AEA90E06FCF82E00E9451068823CE
:1022700039F08FE494E0C11166CF80E594E063CF3C
:1022800081E00E945106882319F0CC2351F3DCCF62
:1022900080E00E945106882309F444CF80915706BC
:1022A000982F9270CC2321F1992359F081EE90E080
:1022B0000E948C0C8EE091E00E9468108FE293E007
:1022C00042CF82FF0BC082EE90E00E948C0C8EE029
:1022D00091E00E9468108DE091E035CF80FF03C04F
:1022E0008FE292E030CF86FD1DCF83FD62CF95CF88
:1022F000992359F081EE90E00E948C0C8EE091E0E1
:102300000E94681080E393E01ECF82FF0BC082EE34
:1023100090E00E948C0C8EE091E00E94681080E6B4
:1023200091E011CF86FDFECE80FF03C080E392E0F6
:102330000ACF83FD5ACF8BE491E005CF6AEE7EEFA2
:1023400090E080E00E94632D60E082E090E00E94D7
:10235000452D60E083E090E00E94452D10925B06E1
:1023600010925C0610925D0610925E0660E084E0BA
:1023700090E00E94452D60E082E290E00E94452DB1
:1023800060E085E090E00E94452D60E086E090E00E
:102390000E94452D6FEF87E090E00E94452D40E0C0
:1023A00050E0BA0188E090E00E94572D60E08DE097
:1023B00090E00E94452D40E050E0BA0188E190E0B5
:1023C0000E94572D60E087E190E00E94452D40E09B
:1023D00050E0BA018CE190E00E94572D70E060E07F
:1023E00080E290E00E94632D40E050E0BA0188E175
:1023F00090E00E94572D40E050E0BA018FE090E05D
:102400000E94572D40E050E0BA0183E190E00C9427
:10241000572DCF93C0916C06C2FB992790F998175E
:1024200081F080FBC2F9C0936C0660916B0684E07A
:1024300090E00E94452D6C2F82E290E0CF910C94A9
:10244000452DCF91089510925706E8EAF2E086E014
:10245000DF011D928A95E9F70C9493071F93CF93A0
:10246000DF93CDB7DEB7AA970FB6F894DEBF0FBEE5
:10247000CDBF83EB96E02091F100FC012193CF01C9
:10248000F6E08B3B9F07B9F78091B406833009F4DF
:102490006FC0B8F4813009F446C0823009F4B0C08E
:1024A0008091E80083FF7BC28091B3069091B406CF
:1024B0009A3008F074C2E92FF0E0E757F24D0C941F
:1024C000FB2C8A3009F48BC08B3009F46EC0893044
:1024D00039F78091B306813219F78091B706909150
:1024E000B8060297E8F68091E800877F8093E800BD
:1024F0008091E80082FF37C09091F3008091F20054
:10250000029729F48091F1008B7F813021F4809132
:10251000F1008093A6068091E8008B778093E80015
:102520000E943604BDCF8091B306813A09F0B8CF3E
:102530008091E800877F8093E8008091B7069091B2
:10254000B806892B61F468E087EA96E070E00E94A3
:10255000E8048091E8008B778093E800A1CF60E0E9
:1025600090E080E0F3CF8091B1068111C1CF98CF88
:102570008091B306813A09F093CF8091B70690918C
:10258000B806892B09F08CCF8091E800877F809373
:10259000E8008091E80080FFFCCF80914A028093A0
:1025A000F1008091E8008E77B9CF8091B306813237
:1025B00009F076CF8091B7069091B806892B09F083
:1025C0006FCF8091E800877F8093E8000E943604F7
:1025D0008091B50680934A020E94231261CF8091B8
:1025E000B306813209F05CCF8091E800877F809349
:1025F000E8000E9436048091B6068093A50650CF6D
:102600008091B306813A09F04BCF8091E800877F33
:102610008093E8008091E80080FFFCCF8091A506C0
:10262000BECF803899F0823809F0B9C18091B706E1
:102630008F70873008F0B3C18093E9008091EB0080
:1026400085FB882780F91092E90006C08091AF06CB
:102650009091B006911182609091E800977F9093DD
:10266000E8008093F1001092F1008091E8008E77ED
:1026700092C1882309F480C1823009F090C1809111
:10268000B506811183C18091B7068F702FEF280F97
:10269000263008F084C18093E9002091EB0020FFF0
:1026A00075C1933031F48091EB0080628093EB0030
:1026B0006DC19091EB0090619093EB0021E030E0D0
:1026C00001C0220F8A95EAF72093EA001092EA00EF
:1026D0008091EB008860EACF811161C11091B5064D
:1026E0001F778091E3008078812B8093E3008091B5
:1026F000E800877F8093E8000E9436048091E8001C
:1027000080FFFCCF8091E30080688093E30082E04B
:10271000111183E08093B10642C18058823008F0E5
:102720003EC18091B5069091B6068C3D23E092079C
:10273000A1F583E08A838AE289834FB7F894DE01AA
:10274000139620E03EE051E2E32FF0E05093570073
:10275000E49120FF03C0E295EF703F5FEF708E2F92
:1027600090E0EA30C0F0C7968D939D932F5F24319F
:1027700059F74FBF8091E800877F8093E8006AE2B5
:1027800070E0CE0101960E94E8048091E8008B770A
:102790008093E80004C1C096E7CF4091B7065091FE
:1027A000B806292F33272330310509F444C078F5C2
:1027B0002130310509F46FC08BE390E0E1ECF5E0E6
:1027C0002230310509F0EBC02091E800277F2093EB
:1027D000E8002091B9063091BA068217930708F4F1
:1027E0009C0140E02115310509F064C0411162C02F
:1027F0008091E80082FDC9CF8091B106882329F23B
:10280000853019F28091E80083FFF2CFBECF2132EC
:102810003105A9F12232310509F0C1C04115510538
:1028200009F443C04130510509F0B9C08BE790E08D
:10283000E6E0F5E0C9CF992781309105C1F0009716
:1028400059F0029709F0ABC0EEE0F6E0E4918E2F6C
:1028500090E0EEE0F6E007C0E8E3F6E0E4918E2FCA
:1028600090E0E8E3F6E0009709F499C0ADCFECE121
:10287000F6E0E4918E2F90E0ECE1F6E0F4CF411524
:10288000510571F04130510509F089C089E090E0AF
:10289000ECEEF5E099CF82E190E0ECEFF5E094CF3B
:1028A00089E090E0E3EDF5E08FCF80E490E0E1E8AF
:1028B000F5E08ACF8091B106882309F466CF853090
:1028C00009F463CF8091E80083FD5FCF8091E80039
:1028D00082FD8ECF8091E80080FF84CF9091F3003D
:1028E0008091F2002115310519F08830910550F0E2
:1028F00041E0089709F040E08091E8008E778093EE
:10290000E80070CF44914093F10031962150310995
:102910000196E8CF803809F042C08091E800877FB7
:102920008093E8008091B2068093F1009ECE8111E1
:1029300036C01091B506123090F58091E800877F7F
:102940008093E8001093B2060E943604112311F020
:1029500084E005C08091E30087FDFACF81E0809399
:10296000B10642E061EC81E00E94550442E261EC74
:1029700082E00E94550413C08091B506813079F43D
:1029800081E0933009F080E08093B0061092E90076
:102990008091E800877F8093E8000E943604809150
:1029A000E80083FF0AC08091E800877F8093E800F9
:1029B0008091EB0080628093EB00AA960FB6F894AA
:1029C000DEBF0FBECDBFDF91CF911F9108952F9233
:1029D0003F924F925F926F927F928F929F92AF92AF
:1029E000BF92CF92DF92EF92FF920F931F93CF93FC
:1029F000DF9300D00F92CDB7DEB74C01DC01139608
:102A00004D915C91149711966C9111978C910E9445
:102A10008C0681110C94B92021E0F4014081518190
:102A20006281738184810E94440C9B838A83D401D8
:102A300012968C91811101C18A819B8181509545AB
:102A4000AA81BB818F3F910508F43AC1F401F2815C
:102A5000F983FF2309F4A4C3AF3FB10509F008F4DB
:102A60005DC1AB32BD4509F42EC11092E3028091E5
:102A7000E60581118AC4A981A11110C04A805B803A
:102A800025E042162DE5520609F445C408F004C4B9
:102A900044E044164DE5540609F42FC44A805B8097
:102AA00023E642162DE5520609F48AC508F018C53A
:102AB00040E644164DE5540609F49DC508F0F5C4FA
:102AC000D201A23EB10509F44BC5EFE54E16EDE586
:102AD0005E0609F487C58A819B8197558F3F9105D2
:102AE00011F008F0CDC520913C02022E000C330BF2
:102AF0002817390714F480933C02D40112962C91C4
:102B0000129736E1389F7001399FF00C112487012C
:102B1000025E1E4FF801208B12969C9186819923AC
:102B200009F4A1C54A805B80528641868F5F868307
:102B30000E947705D8011E969C938E931D978091D5
:102B40005A0617968C9317978091560690915706C0
:102B5000892B18968C931897ED91FC9111973097CB
:102B600039F054966D917C91C7018C5D9E4F09950B
:102B70004A805B805092E8054092E705D4011296A6
:102B80008C91882311F40C9483201092E9054A80DB
:102B90005B8022E042162CE5520610F40C949E2035
:102BA00036E143163CE5530640F092012B5F3C456D
:102BB0002930310510F00C949E200E946A0E9093EB
:102BC0006C0680936B064A805B8020E142162CE500
:102BD000520609F472C608F0F1C548E044164CE507
:102BE000540609F45CC608F0B6C594E049169CE5A5
:102BF000590609F44CC608F096C5B2E04B16BCE580
:102C00005B0609F43EC680916B068260E3E04E16D7
:102C1000ECE55E0609F438C660916B0640906C06E0
:102C2000498284E090E00E94452D698182E290E033
:102C30000E94452D0E9423124CC080913C028F3F80
:102C400009F4FACE0EE111E0F12CE12CDD24D3944D
:102C500080913C02082E000C990B8E159F050CF4F8
:102C6000EBCEF8018681882329F1818592854A80FF
:102C70005B808415950539F48091E7059091E8050E
:102C800084159505B9F0D8011F96DC921F974A80EC
:102C90005B801C965C924E921B9751968C91811191
:102CA00003C0C8010E940107C80106960E942207BE
:102CB000109256062FEFE21AF20A0A5E1F4FC8CF93
:102CC00035E5B327C3CE8091E30291E08927809355
:102CD000E30280915406877011F40C94B920D4015A
:102CE00012968C91882311F40C94B92082E00F90F5
:102CF0000F900F90DF91CF911F910F91FF90EF9068
:102D0000DF90CF90BF90AF909F908F907F906F900B
:102D10005F904F903F902F900C94DD078091E302DD
:102D2000882309F4E9C01092E302A03CB105F0F554
:102D3000A038B10508F0AAC0A034B10508F070C0F1
:102D400021E030E040E050E060E070E080E090E0C2
:102D50000A2F0E94012DE091C3022E2BE091C402A4
:102D60003E2BE091C5024E2BE091C6025E2BE09116
:102D7000C7026E2BE091C8027E2BE091C9028E2B18
:102D8000E091CA029E2B2093C3023093C402409369
:102D9000C5025093C6026093C7027093C802809325
:102DA000C9029093CA02BB83AA8361CEAF3FB1052B
:102DB00009F030F68D01005C110921E030E040E0BF
:102DC00050E060E070E080E090E00E94012DE09132
:102DD000DB022E2BE091DC023E2BE091DD024E2B3C
:102DE000E091DE025E2BE091DF026E2BE091E002CB
:102DF0007E2BE091E1028E2BE091E2029E2B20934C
:102E0000DB023093DC024093DD025093DE026093DC
:102E1000DF027093E0028093E1029093E202C3CF5D
:102E20008D010054110921E030E040E050E060E005
:102E300070E080E090E00E94012DE091CB022E2B0B
:102E4000E091CC023E2BE091CD024E2BE091CE02E0
:102E50005E2BE091CF026E2BE091D0027E2BE091B1
:102E6000D1028E2BE091D2029E2B2093CB02309385
:102E7000CC024093CD025093CE026093CF02709368
:102E8000D0028093D1029093D2028DCF8D01005851
:102E9000110921E030E040E050E060E070E080E0C7
:102EA00090E00E94012DE091D3022E2BE091D402FC
:102EB0003E2BE091D5024E2BE091D6025E2BE091A5
:102EC000D7026E2BE091D8027E2BE091D9028E2B97
:102ED000E091DA029E2B2093D3023093D4024093E8
:102EE000D5025093D6026093D7027093D802809394
:102EF000D9029093DA0257CFA034B10508F067C029
:102F0000E091C302F091C4027090C5026090C602C5
:102F10005090C7024090C8023090C9022090CA0267
:102F200021E030E040E050E060E070E080E090E0E0
:102F30000A2F0E94012DAE2EA222BF2EB322C72C33
:102F4000C422D62CD522E52CE622F42CF722032D20
:102F50000823122D19230E941A2D09F088CDA03CB8
:102F6000B10508F08EC0A038B10508F0EBC0A03460
:102F7000B10508F0B9C021E030E040E050E060E089
:102F800070E080E090E00A2F0E94012D209530959E
:102F90004095509560957095809590952E233F2390
:102FA0004721562165217421832192212093C30258
:102FB0003093C4024093C5025093C6026093C70287
:102FC0007093C8028093C9029093CA0282CEA0383F
:102FD000B105E0F4E091CB02F091CC027090CD020B
:102FE0006090CE025090CF024090D0023090D1023B
:102FF0002090D20221E030E040E050E060E070E05C
:1030000080E090E08D010054110993CFA03CB10500
:10301000E0F4E091D302F091D4027090D502609078
:10302000D6025090D7024090D8023090D90220901A
:10303000DA0221E030E040E050E060E070E080E063
:1030400090E08D010058110974CFE091DB02F091FE
:10305000DC027090DD026090DE025090DF02409052
:10306000E0023090E1022090E20221E030E040E016
:1030700050E060E070E080E090E08D01005C1109BC
:1030800058CFAF3FB10511F008F075CF8D01005C4E
:10309000110921E030E040E050E060E070E080E0C5
:1030A00090E00E94012D20953095409550956095B7
:1030B0007095809590952E233F23472156216521B9
:1030C0007421832192212093DB023093DC02409310
:1030D000DD025093DE026093DF027093E002809382
:1030E000E1029093E202F5CD8D010054110921E037
:1030F00030E040E050E060E070E080E090E00E946E
:10310000012D20953095409550956095709580954E
:1031100090952E233F234721562165217421832139
:1031200092212093CB023093CC024093CD02509356
:10313000CE026093CF027093D0028093D10290931D
:10314000D202C7CD8D010058110921E030E040E0E6
:1031500050E060E070E080E090E00E94012D20955A
:1031600030954095509560957095809590952E235B
:103170003F234721562165217421832192212093E9
:10318000D3023093D4024093D5025093D602609379
:10319000D7027093D8028093D9029093DA0299CD26
:1031A000AF3FB10511F008F062CCA034B10550F585
:1031B000A090C302B090C402C090C502D090C602D5
:1031C000E090C702F090C802F091C902E091CA02F3
:1031D00021E030E040E050E060E070E080E090E02E
:1031E0000A2F0E94012DA222B322C422D522E62258
:1031F000F7220F2F08231E2F19230E941A2D09F0E2
:1032000036CC67CDA038B105E0F4A090CB02B090E9
:10321000CC02C090CD02D090CE02E090CF02F090D0
:10322000D002F091D102E091D2028D010054110937
:1032300021E030E040E050E060E070E080E090E0CD
:10324000D0CFA03CB105A0F4A090D302B090D4029E
:10325000C090D502D090D602E090D702F090D8026C
:10326000F091D902E091DA028D0100581109E0CF06
:10327000A090DB02B090DC02C090DD02D090DE02B4
:10328000E090DF02F090E002F091E102E091E202D2
:103290008D01005C1109CCCF4A805B8027E042168B
:1032A0002DE5520609F443C038E043163DE55306C8
:1032B00009F0F4CB00911A0110911B01C090670630
:1032C000D0906806E0906906F0906A060E9423128A
:1032D0000E9430082EED35E03B832A834A805B80D4
:1032E00004151505E9F18A819B810E94E7148A8102
:1032F0009B8106979B838A83F1CF0E9423120E94B1
:10330000300884EE92E09093E5058093E40581E037
:103310008093E605DECC0E9423120E9430088EEDD9
:1033200095E09093E5058093E40582E0F1CF00916C
:103330001C0110911D01C0906706D0906806E090B6
:103340006906F0906A060E9423120E94300884EEFB
:1033500092E09B838A834A805B800415150559F4AB
:103360000E942312C0926706D0926806E092690616
:10337000F0926A06AECC8A819B810E94E714AA81F2
:10338000BB811696BB83AA83E6CF2A813B8124505A
:103390003D4523303105E0F591E06A807B8026E0F1
:1033A00062162DE5720609F490E0A981A91709F4C7
:1033B00090CC813029F08230B9F01092E60589CCAA
:1033C0008091E4059091E505B2E0843E9B0729F0E9
:1033D000FC0136972281211105C090931D01809335
:1033E0001C01EBCFCF01F0CF8091E4059091E50572
:1033F000E5E08E3D9E0729F0FC01369622812111E1
:1034000005C090931B0180931A01D7CFCF01F0CF55
:10341000813029F1823009F041CB20911C0130919B
:103420001D01A091E405B091E505E981E11105C018
:10343000F5E0AE3DBF0709F431CBCD010696281764
:10344000390709F42BCB86E0F40101900D928A959F
:10345000E1F78091E4059091E505069721C0209160
:103460001A0130911B01A091E405B091E505F981A5
:10347000F11105C042E0A43EB40709F40FCBCD0121
:1034800006972817390709F409CB86E0F401019063
:103490000D928A95E1F78091E4059091E5050696F5
:1034A0009093E5058093E405F9CA4A805B8021E6A4
:1034B00042162DE5520609F4AAC032E643163DE550
:1034C000530609F008CB81EE90E00E946810D40109
:1034D00012968C91882309F4FECA80EF94E06DC0A7
:1034E0004A805B8026E642162DE5520609F45AC052
:1034F000A8F444E644164DE5540609F49DC085E65B
:1035000048168DE5580609F0E6CAD40112968C914A
:10351000882309F4E0CA86EB94E04FC04A805B80C0
:1035200028E642162DE55206A1F148F149E6441677
:103530004DE5540609F0CFCAF4018281882309F4CD
:1035400083C083EE90E00E949F0C80EE90E00E948A
:103550009F0C82EE90E00E949F0C81EE90E007C0ED
:10356000D40112968C91882329F082EE90E00E947B
:103570009F0CB1CA82EE90E00E948C0CACCAF401A0
:103580008281882309F4A7CA82E59FE00E9468101F
:10359000A2CAD40112968C91882309F49CCA81E5B1
:1035A0009FE0F4CFF4018281882309F494CA8091CA
:1035B000570682FDDFCF8DEF94E00E94B70F8BCAD4
:1035C00081EE90E00E946810F4018281882309F462
:1035D00082CA86EE94E00E94B70F80E591E00E94D7
:1035E000681012C0D40112968C91882309F473CA12
:1035F00083EE94E0E2CFF4018281882309F46BCA60
:103600008FED94E00E94B70F80E590E0BFCFD4012A
:1036100012968C91882309F45ECA89ED94E00E9489
:10362000B70F80E590E00E94681080E590E00E946E
:10363000681080E590E0D3CFF4018281882309F4FB
:103640004ACA80EC94E0B9CF83EE90E00E948C0CE3
:1036500080EE90E00E948C0C82EE90E00E948C0C38
:1036600081EE90E089CF882309F488CA8189882374
:1036700009F484CAC7018C5D9E4F0E9422077ECA4E
:103680004A805B8024EF42162CE55206A1F1C8F473
:1036900049ED44164CE5540641F18AED48168CE597
:1036A0005806D9F198ED49169CE5590609F066CA05
:1036B00006E221EE41EE68ED7CE5C4010E941C0F9C
:1036C00008CB4A805B8026EF42162CE55206F9F0C3
:1036D000C0F047EF44164CE5540609F04FCA07E224
:1036E00025EE46EE67EF7CE5E8CF07E225EE45EEF6
:1036F00069ED7CE5E2CF06E221EE40EE64EF7CE589
:10370000DCCF07E225EE44EE65EF7CE5D6CF06E29E
:1037100021EE42EE66EF7CE5D0CF08E221E045EEF7
:103720006AED7CE5CACF4A805B8080916B06806140
:1037300026E042162CE5520609F4A6C080916B06DD
:10374000886037E043163CE5530608F49DC080913D
:103750006B06806299C04A805B8080916B068D7F8A
:103760002CE042162CE5520609F48EC078F48091C4
:103770006B068C604AE044164CE5540609F484C09C
:1037800008F491C080916B068E7F7EC04A805B807A
:1037900080916B06877F2EE042162CE5520609F4D5
:1037A00073C080916B068B7F3FE043163CE5530668
:1037B00008F46AC080916B068F7E66C04A805B8089
:1037C0002CEF42162CE5520609F465C078F543E16A
:1037D00044164CE5540609F478C090F491E149167A
:1037E0009CE5590609F46DC0A2E14A16ACE55A06FB
:1037F00009F012CA0E94231280916B068F7744C091
:103800004A805B8025E142162CE5520609F465C02A
:1038100008F479C080916C0681604BEF44164CE54A
:10382000540609F0F9C980936C06F6C94A805B809A
:1038300041142DE5520609F44CC068F480916C06E1
:103840008D7F4EEF44164CE5540669F390F180915C
:103850006C068360E8CF4A805B8022E042162DE54B
:10386000520609F459C008F444C060E043E044162D
:103870004DE5540609F0D0C98EE090E00E94452D38
:10388000CBC980916B06816080936B06C5C980911E
:103890006B068460F9CF80916C068260C4CF809102
:1038A0006B068064F1CF0E94231280916B068068C2
:1038B000EBCF80916C068E7FB6CF80916B068F7DAB
:1038C000E3CF80916B068F7BDFCF80916B06837F88
:1038D000DBCF80916C068C7FA6CF80916B0682FB3C
:1038E000992790F921E0922790FB82F990FB83F9C8
:1038F000CBCF80916C06982F909591708E7F892BFD
:1039000090FB81F990CF0E94231290916B06892F32
:1039100097FB87F98058B8CF61E0AECF85E300C44C
:103920008823A9F06A807B802BE562162DE572065C
:1039300009F482C008F05AC061144CE5740609F419
:103940006BC08FED68168CE5780609F472C0F4013F
:103950008281408051805B824A82882309F470C052
:10396000C2010E94D40B182F682F8A819B810E946C
:1039700023066A817B81812F0E94360A8A83192F50
:10398000E82ED4011296BC91B983F4010581029509
:103990000F70809154068770C9F0DB2EBB23B9F0FD
:1039A000892F807F803449F09E2D905E983070F092
:1039B000803619F4F6EFEF1649F082E00E94DD0739
:1039C000809154068770DD24D3948111D12CC12EAF
:1039D000C2945FE0C5226BE0462E4C1408F469C027
:1039E000EC2DF0E0ED56F24D0C94FB2C4A805B8000
:1039F0002CE542162DE5520609F13DE54316530626
:103A000009F0A5CF80916C0682FB882780F991E0B0
:103A100089270E9409129BCF0E9423124FEF84E353
:103A20009CE0415080409040E1F700C000000E94BF
:103A30004B050E949E114DC981E0EBCF80E0E9CF9C
:103A40008A819B810E94FA05182F93CF012F0F7056
:103A5000812F807F11F00295007F59805520C9F099
:103A6000002369F08A81805E883010F0E1100BC07D
:103A700080915706082B009357060E94AF058A8154
:103A80000E947F0916C080915606082B00935606A7
:103A9000F4CF8A810E94B808002359F02A81205E61
:103AA000283010F0E11055C0802F0E94A8050E9418
:103AB000AF052C2D2850330B2430310510F40E9413
:103AC000F5064980442079F0107F103621F486EF06
:103AD000582EE51441F08091ED05823009F007C3BE
:103AE00083E08093ED05DD20B1F08091540680FDE8
:103AF00012C0D40112961C928595859585950E94D9
:103B0000F907C4010E94E7148091540685958595B4
:103B100085950E94BA0720E0F401408151816281BD
:103B2000738184810F900F900F90DF91CF911F913F
:103B30000F91FF90EF90DF90CF90BF90AF909F904C
:103B40008F907F906F905F904F903F902F900C944C
:103B5000440C009580915606082300935606A7CF83
:103B6000312F3F70F32E812F807F803219F0F29435
:103B700040EFF422EE2059F041E0E41609F448C089
:103B80006980662009F44FC0002351F178CF498045
:103B9000442041F1011106C080915A068F290E94EC
:103BA000BD0687CF013099F480916C0682FD81CFEC
:103BB00080915A06F82AF81609F47BCF0E947705FF
:103BC0009093590680935806F0925A0672CF0330AC
:103BD00019F70E949D0580915106F812F092510646
:103BE0008F2DDDCF011106C00E949D058F2D0E94F3
:103BF000B6065FCF013041F4809157068F2109F45A
:103C000058CF0E94F405F0CF033009F452CFECCF27
:103C10005980552021F0063008F04BCFE1CF053018
:103C200008F047CFE3CF002309F339E3732EE71001
:103C3000C3C12FEF37EE43E0215030404040E1F761
:103C400000C000008A810E94B80833CF812F86957A
:103C50008695837071F0813009F02BCF59808A816D
:103C6000912F9370511002C090E080E00E94C9062D
:103C700020CF49808A81912F9370411002C090E03B
:103C800080E00E94DF0615CF69808A81662029F0D6
:103C90000E9425090E946C070CCF0E943F08FACFB2
:103CA000812F837009F069C07980711002CF2A8159
:103CB000229526952770220F220F4A814F7050E0DF
:103CC00070E060E0022E04C0440F551F661F771F8E
:103CD0000A94D2F74A8080E090E0DC0144FE0FC0F5
:103CE0008FE090E0A0E0B0E004C0880F991FAA1F09
:103CF000BB1F2A95D2F780959095A095B095212F5E
:103D0000269526952370223029F1D8F440905B0641
:103D100050905C0660905D0670905E06213069F000
:103D2000842B952BA62BB72BBC01CD0164217521CB
:103D3000862197210E943508BCCE44295529662941
:103D400077292A013B01482A592A6A2A7B2AC3017A
:103D5000B201F0CF842B952BA62BB72B40905B069E
:103D600050905C0660905D0670905E06BC01CD01CF
:103D70006425752586259725DDCF598086955520A4
:103D800011F0812F8170882309F493CE2A81229526
:103D900026952770220F220F4A814F7050E070E065
:103DA00060E0022E04C0440F551F661F771F0A945F
:103DB000D2F76A8080E090E0DC0164FE0FC08FE003
:103DC00090E0A0E0B0E004C0880F991FAA1FBB1FBD
:103DD0002A95D2F780959095A095B095212F26959C
:103DE00026952370223029F1D8F440906706509030
:103DF00068066090690670906A06213069F0842B2D
:103E0000952BA62BB72BBC01CD01642175218621F2
:103E100097210E94B0074DCE44295529662977295C
:103E20002A013B01482A592A6A2A7B2AC301B20186
:103E3000F0CF842B952BA62BB72B40906706509084
:103E400068066090690670906A06BC01CD01642521
:103E5000752586259725DDCF012F0F7059805520B8
:103E600029F0802F0E94F9078A8199CE8A810E94C9
:103E7000B606802F0E94BA071CCE8A8122EF622EDE
:103E8000E61409F459C06E1488F090EF792EE71407
:103E900051F121EFE21609F446C04980442009F4AB
:103EA00086C00111ECCD812F8F7143C033EFE31633
:103EB00009F448C044EFE412F0CF809151064980E4
:103EC000442009F461C00E94A805809154068770BF
:103ED000843009F04BC00E94ED05812F8F710E9444
:103EE000BA07D12CE6CD49804420C9F0053008F04E
:103EF000E0CD212F2F7161E070E080E090E004C000
:103F0000660F771F881F991F2A95D2F74090670682
:103F1000509068066090690670906A0698CF0630E7
:103F200008F0C7CDE6CF812F8F715980552009F455
:103F3000A1CF0E94F907BDCD812F8F7169806620C6
:103F4000C1F398CF7980772071F0212F2F7161E034
:103F500070E080E090E004C0660F771F881F991F13
:103F60002A95D2F756CF0E943008A3CD033008F02F
:103F7000B8CF212F2F712A83822F0E94F90763E087
:103F80008A810E941A08ADCF90915706982B909382
:103F90005706033040F00E94ED050E94F40564E0EE
:103FA000812F8F71EECF81E00E94DD079ACF002331
:103FB00041F0893309F43DCE8FE39CE90197F1F795
:103FC0003FCE812F8F7156CFEA81E05FE73008F056
:103FD00061C0F0E0E156F24D0C94FB2C4980442086
:103FE00009F467CD8091F00591E0892707C05980D9
:103FF0005092F0055ECD81E0698086258093F005C2
:1040000058CD798081E07720C9F353CD49804110A4
:1040100050CD1092F0054DCD59805520C1F082E071
:104020008093ED0581E08093F0050E9477059093E1
:10403000EC058093EB052091520630915306232B1B
:1040400009F437CD909353068093520632CD809178
:10405000ED05823021F481E08093ED052ACD833097
:1040600009F027CD1092ED051092F0051092EC05A5
:104070001092EB051ECD6980662041F08091EF051E
:10408000882309F4AFCF1092EF0513CD053008F067
:1040900010CDA8CF8091EF050023E1F0882341F0F7
:1040A0008091F00591E089278093F0051092EF054B
:1040B00079807110E4CC8FE39CE90197F1F700C09F
:1040C00000008A810E94B80886E0D4011D928A957A
:1040D000E9F7EFCC882309F4ECCC49804110E9CC16
:1040E0008091F00591E089278093F005CCCF813055
:1040F00009F0F9CC1092ED051092F0051092EC0544
:104100001092EB05F0CC4A805B8026E142162CE54C
:10411000520609F01CCC8091EA058111FFCB89E29F
:10412000E8EAF2E02EEA32E09191891303C0DF0160
:1041300011971C922E173F07B9F717C04A805B8072
:1041400026E142162CE5520609F0EACB809157068B
:104150008A7A91E009F490E09093EA0569E281118E
:1041600065E386EA92E00E9483050E94AF050C9405
:1041700069160F900F900F90DF91CF911F910F91C3
:10418000FF90EF90DF90CF90BF90AF909F908F9077
:104190007F906F905F904F903F902F900895BF92C7
:1041A000CF92DF92EF92FF920F931F93CF93DF9303
:1041B0008091F605807F61F48091F305882341F0BA
:1041C000C091280686E0B82E8091F7058C130AC0AE
:1041D000DF91CF911F910F91FF90EF90DF90CF90E3
:1041E000BF900895F090F105E090F205C090F405BD
:1041F000D090F505A6016E2D8F2D0E948C06D0E083
:1042000081113FC0BC9E8001BD9E100D1124F8019C
:10421000E850FA4F51815E1134C040814F1131C0D6
:10422000828181112EC0E380F480EC18FD0820E02B
:104230006091F3057091F4058091F5050E94440C9E
:104240000E946703E816F906E0F48091F6058F7086
:1042500080618093F605F801E350FA4F80818F70FA
:104260008061808381EF95E00E94E714DF91CF9118
:104270001F910F91FF90EF90DF90CF90BF900C9423
:1042800097062196C770A0CF5F926F927F928F9210
:104290009F92AF92BF92CF92DF92EF92FF920F93D5
:1042A0001F93CF93DF93CDB7DEB761970FB6F89426
:1042B000DEBF0FBECDBF8C0185E0F801DE011D968B
:1042C00001900D928A95E1F7D8017C901196EC90BF
:1042D000119712966C9081EFA82E85E0B82E8090F1
:1042E000F4059090F505A4016091F2058091F10527
:1042F0000E948C0681119BC1F801C380D480F0908C
:10430000F305C601881999094C0120E04091F10597
:104310005091F205FF2009F443C16F2D7091F4050F
:104320008091F5050E94440C0E9467035090F605A9
:104330008816990608F0F5C04091F4055091F505EE
:10434000B090F105A090F205852D807F6A2D09F0CF
:10435000A1C08B2D0E948C06F62C81112BC0AE10B3
:1043600029C0B71027C0611025C0852D8F708061CE
:104370008093F60581EF95E00E94E7148091F605A1
:10438000D80115968C938F2D61960FB6F894DEBFE9
:104390000FBECDBFDF91CF911F910F91FF90EF9096
:1043A000DF90CF90BF90AF909F908F907F906F9055
:1043B0005F90089520E04091F1055091F2056091E1
:1043C000F3057091F4058091F5050E94440C0E945C
:1043D00067035C01A6016E2D872D0E948C06D82EE6
:1043E000B4EFAB16B1E0BB06D0F081E08625D1106A
:1043F00080E080FF14C0462D6E2D872D0E946C0634
:10440000882369F081EF95E00E94E71486E0E1EFF0
:10441000F5E0DF011D928A95E9F7F12CB4CF81E038
:104420008625D11080E0B82FB170CB2E80FF29C037
:10443000462D6E2D872D0E946C06D82E811121C02D
:104440007D86EE868D859E850E94160C292F2295ED
:104450002F70223050F0243078F49F7051F0F80122
:104460009581907F31F4FD2C8ECF9F7011F08823C1
:10447000D1F3805E8830B8F3C8010E94E714DC2CC9
:10448000F2CF662009F47FCF8091F605816080939A
:10449000F605C3CF8B2D0E948C06811115C0AE107E
:1044A00013C0B71011C061100FC0D80115965C92EF
:1044B000C8010E94E71486E0F801A1EFB5E0019081
:1044C0000D928A95E1F75FCF7D86EE868D859E857C
:1044D0000E94200C882309F16620F9F08091F605EE
:1044E000803270F02091F1053091F20538872F83EA
:1044F0001986DB86CA868C87CE0107960E94E71450
:1045000086E0F801A1EFB5E001900D928A95E1F700
:104510000E94CF20FF24F39436CFC8010E94E714F5
:10452000F9CF852D807F09F46DCF9090F1058090B3
:10453000F2054091F4055091F505682D892D0E94F2
:104540008C06811111C08E100FC097100DC0611024
:104550000BC0F8015582C8010E94E71486E0D5011E
:104560001D928A95E9F70FCF7D86EE868D859E8513
:104570000E94200C882389F2662079F28091F6054A
:10458000803208F4BDCF2091F1053091F2053A83D5
:1045900029831B82DD82CC828E83CE010196AECF31
:1045A00060E07091F4058091F5050E94440C0E9432
:1045B00067038816990690F6F62C662009F4ADCFAD
:1045C000D090F105C090F2054091F4055091F505A9
:1045D0006C2D8D2D0E948C06811118C0CE1016C036
:1045E000D71014C08091F60580FD65CF982F907F7D
:1045F00009F461CFF8018583903F09F459CF982FD2
:10460000907F905F8F70892B858352CF7D86EE8659
:104610008D859E850E94200C811172CF8091F605B8
:1046200081608093F605C8010E94E714ACCE662035
:1046300009F473CF7D86EE868D859E850E94200CC1
:10464000F82E882309F469CF86E0F801A1EFB5E0E0
:1046500001900D928A95E1F78091F1059091F20514
:104660000E94160C92959F70963051F4863F41F04F
:104670008091F00591E089278093F0059093EF05F4
:104680000E94CF2080CEFF920F931F93CF93DF9392
:10469000CDB7DEB767970FB6F894DEBF0FBECDBFBC
:1046A000F62E6D8B7E8B8F8B142F052F6111109240
:1046B00056064E895F89602F812F0E948C068111DA
:1046C00028C081E090E0012E01C0880F0A94EAF72B
:1046D000A02FB0E0A754BD4F2C913091F005F11000
:1046E00002C0322F3823332309F47FC0412F50E01A
:1046F00036E0039F400D511D1124440F551FFA0150
:10470000E15CFB4F0491FA01E25CFB4F1491822BB8
:104710008C931A8A198A1B8B0C8B85E0FE01739689
:10472000DE011D9601900D928A95E1F70E947705B2
:104730002091520630915306821B930B883E934082
:1047400020F08091540682FF9CC00E947705209142
:10475000580630915906821B930B883E934010F007
:104760000E949D050E9477052091EB053091EC0594
:10477000821B930B883E934028F08091ED05813099
:1047800009F476C086E0FE013D96DE0117960190A1
:104790000D928A95E1F7CE0107960E94442181117E
:1047A00011C086E0FE013796DE01119601900D9250
:1047B0008A95E1F74A855B8568858F810E948C0622
:1047C0008823B1F016E0809128069091F7058913AF
:1047D0003CC067960FB6F894DEBF0FBECDBFDF9129
:1047E000CF911F910F91FF9008958095822390CFD4
:1047F0002091F70530E0C901019687709927409113
:1048000028064817190699F096E0929FD001939FC9
:10481000B00D1124A850BA4FFE01319601900D92AF
:104820009A95E1F78093F7050E949706CBCF0E94F7
:1048300023121092F7051092280686E0E1EFF5E0CA
:10484000DF011D928A95E9F7BDCF819FC001112438
:1048500088509A4F0E944421882309F4BACF80914E
:10486000280690E001968770992780932806ABCFA1
:104870001092ED051092F0051092EC051092EB05E8
:1048800081CF82E00E94DD0760CF8F929F92AF922E
:10489000BF92CF92DF92EF92FF920F931F93CF932D
:1048A000DF9300D000D00F92CDB7DEB704E812E05E
:1048B0009DE6C92E96E0D92E4601F12CAA24A39498
:1048C000B12CD8018D918D01F894E82FE295EF700D
:1048D000F0E021A18F70A50102C0440F551F8A95F9
:1048E000E2F7CA01922F982B91A392A18095892378
:1048F00082A3789400C0EEE8F2E030E020E0E12C02
:104900004191A42FA295AF70B0E090968C9190E069
:104910004F7002C0959587954A95E2F780FD48C093
:104920008A2D022E01C0880F0A94EAF7E82A2F5F29
:104930003F4F2630310521F7F801319780810E94E1
:10494000DC0950EA5A95F1F7D4018C91E81691F1FF
:10495000EC9281E0F82ABFEF8B1A9B0AE2E009385B
:104960001E0709F0AECF10917806FF2029F181E0F3
:104970008093B0020E9477059093AF028093AE02BD
:104980008091AE029091AF020E945C050697C0F044
:10499000E12FF0E0E358F94FD6018D916D0181933D
:1049A000B2E7CB16B6E0DB06B9F71092B00208C04A
:1049B00080E0BCCF80E0CECF8091B0028111E0CF0B
:1049C0000E94940FE82E60917806882309F4A6C00F
:1049D0008E010F5F1F4F85E0F80111928A95E9F76C
:1049E000862F90E0B8018358994F0E94D62A8111F2
:1049F00030C08091B1028F5F8093B102863008F49D
:104A000043C0E0917706F0E0E358F94FD801CE01BA
:104A1000069611921D928A179B07D9F780913C0246
:104A20008F3F09F077C0F11001C0FE2C8F2D0F9041
:104A30000F900F900F900F90DF91CF911F910F91DA
:104A4000FF90EF90DF90CF90BF90AF909F908F90AE
:104A500008951092B102A0917706B0E0A358B94F23
:104A60009E012A5F3F4FE12C4D91F80191918F01FA
:104A7000491731F0AD0141505109FA019083E82EF8
:104A80000217130789F7CACFE12CC8CFC89CF001E1
:104A9000C99CF00D1124E25EFE4FA288B388A114D8
:104AA000B10429F4818592850E9467035C01C89C4A
:104AB0008001C99C100D1124025E1E4FD80116966C
:104AC0008C9116978823C9F01D968D919C910E9418
:104AD0005C05A816B90688F4DC9C50011124F80185
:104AE0008189811105C0C501825E9E4F0E94010728
:104AF000C5018C5D9E4F0E942207D3948D2C912C72
:104B000080913C02082E000C990B881599050CF039
:104B1000BDCF89CFD12C86E1C82EF0CF70E063588D
:104B2000794F8091770690E08358994F0E94032B2C
:104B30007ACF1F920F920FB60F9211242F933F93AB
:104B40004F935F936F937F938F939F93AF93BF9395
:104B5000CF93DF93EF93FF93D091E900DF708091C3
:104B6000EC00C82FC17080FDC0E81092E900809170
:104B7000F000877F8093F00078940E942E121092AC
:104B8000E9008091F00088608093F000CD2BCF7019
:104B9000C093E900FF91EF91DF91CF91BF91AF9169
:104BA0009F918F917F916F915F914F913F912F9145
:104BB0000F900FBE0F901F9018951F920F920FB677
:104BC0000F9211242F933F934F935F936F937F9393
:104BD0008F939F93AF93BF93EF93FF938091E100E7
:104BE00082FF09C08091E20082FF05C08091E10050
:104BF0008B7F8093E1008091DA0080FF24C0809158
:104C0000D80080FF20C08091DA008E7F8093DA0088
:104C10008091D90080FF9BC080E189BD82E189BD80
:104C200009B400FEFDCF81E08093B1068091A40617
:104C3000811109C00E94BC030E9487048091E20098
:104C400084608093E2008091E10080FF17C0809132
:104C5000E20080FF13C08091E2008E7F8093E2002B
:104C60008091E20080618093E2008091D8008062B0
:104C70008093D80019BC85E08093B1068091E10053
:104C800084FF29C08091E20084FF25C080E189BDB6
:104C900082E189BD89B5982F917080FFFBCF80910B
:104CA000D8008F7D8093D8008091E1008F7E809323
:104CB000E1008091E2008F7E8093E2008091E2002B
:104CC00081608093E2008091B206882309F445C098
:104CD00084E08093B1068091E10083FF27C080913A
:104CE000E20083FF23C08091E100877F8093E10091
:104CF00082E08093B1061092B2068091E1008E7F2F
:104D00008093E1008091E2008E7F8093E2008091A9
:104D1000E20080618093E20042E060E080E00E9477
:104D200055048091F00088608093F000FF91EF912E
:104D3000BF91AF919F918F917F916F915F914F91B3
:104D40003F912F910F900FBE0F901F90189519BC97
:104D50001092B1061092A40676CF8091E30087FDF1
:104D600093E09093B106B7CFCDB7DEB760970FB69B
:104D7000F894DEBF0FBECDBF84B7877F84BF0FB668
:104D8000F894A895809160008861809360001092EB
:104D900060000FBE80E890E00FB6F8948093610049
:104DA000909361000FBE85B7806885BF85B7806826
:104DB00085BF86E495E09093A5028093A4020E94AB
:104DC000BC030E9487048091E20084608093E2002B
:104DD00078948091B1068823A1F01091E9001F70AA
:104DE0009091EC00892F817090FD80E8182B109233
:104DF000E9008091E80083FD0E942E121F7010933D
:104E0000E90082E084BD93E095BD9AEF97BD809361
:104E10006E0010926306109264061092650610925E
:104E200066060E94940F80933D020E94940F8111A8
:104E30000E94CA2A80913D0280913D0295E0811135
:104E400090E09093780685E0891B8093770686E64C
:104E50000E94DC0987E90E94DC0986EC0E94DC09DB
:104E600084E30E94DC0985E30E94DC0986EF0E944E
:104E7000DC0987EF0E94DC0981E30E94DC0983E3FF
:104E80000E94DC0982E30E94DC0986E30E94DC09BF
:104E9000EDE6F6E087E796E0ADE7B6E011921D9209
:104EA0008E179F07D9F790E080E00E943F2D8A3E41
:104EB0009E4F11F00E949E1182E090E00E94372DDB
:104EC000809399060E946A0E90936C0680936B06FD
:104ED0000E9445248FE39CE90197F1F700C0000090
:104EE0000E94452480917D0680FF08C06FEF7FEF10
:104EF00090E080E00E94632D0E944B0583E090E0EB
:104F00000E94372D682F70E090E080E00E94350805
:104F10000E94940F811102C00E94D02A80913D020C
:104F2000811106C084EF80933F0285EF80933E029B
:104F300020913F02A22FA295AF70B0E091963C91D4
:104F400091972F7081E090E0BC01022E01C0660FA6
:104F50000A94EAF7462F4095432391964C939197F4
:104F600092963C919297362B92963C9392974091D1
:104F70003E02E42FE295EF70F0E031A14F70042E75
:104F800001C0880F0A94EAF7982F9095932391A374
:104F900092A1892B82A390968C9190E002C0959566
:104FA00087952A95E2F7817020A130E002C03595FF
:104FB00027954A95E2F792E020FF90E0892B8093B5
:104FC0008B0690913D0281E0982790938A06891B79
:104FD0008093790680E492E090937B0680937A0632
:104FE00008E110E020E4C22E8DE796E03AE0D32EEF
:104FF000D80E8091B106853069F480E1E82E92E107
:10500000F92E8091B106853009F478C10E942312EF
:105010000E94F5060E94452481110E946B05AAE9B1
:10502000B6E0EDE7F6E0F12CE12C8E2CA1908D910D
:105030008A1509F49CC18A25912CBB24B3949B2D1D
:10504000982309F48FC10E94940F882399F09F82BE
:105050008886AB2081E009F480E089870E9477058B
:105060008160782F9B878A874F81588569858B85DA
:105070000E944323F701E656F94F8081B826B0829B
:1050800080918B06E82FEE0FEE0F90913F02A92F33
:10509000A295AF70B0E090962C9130E09F7002C066
:1050A000359527959A95E2F72170332790913E0226
:1050B000A92FA295AF70B0E090964C9150E09F70F0
:1050C00002C0559547959A95E2F7CA0181709927D4
:1050D00040FF02C082E090E0822B8E2B80938B06F3
:1050E000F0908A068F70E82FF0E0EC56FD4F80813B
:1050F00090918906890F8093890620E0843064F0BE
:10510000EF2DF0E0E957F94F80818F5F808361E0F8
:105110008F2D0E94781021E0809189068D3F64F4E4
:10512000EF2DF0E0E957F94F80818150808360E0F6
:105130008F2D0E94781021E080918906082E000CA6
:10514000990B64E070E00E94E72C8093890621119E
:105150000E94C70686E0E2E9F6E0DE0111960190C2
:105160000D928A95E1F7B0909406A0909506F09084
:105170009606E0909706109294061092950610926B
:105180009606109297068B2D8A2909F448C08091C3
:105190009006909191060E945C059C0190918F066B
:1051A000992309F428C128303105C8F19F3F19F02F
:1051B0009F5F90938F06BB2059F00E9403099FEFD9
:1051C0001B140CF491E0899F802D11248093940688
:1051D000AA2059F00E9403099FEF1A140CF491E0E1
:1051E000899F802D11248093950630919406332356
:1051F000B1F020919506222391F045EB3403C001D4
:105200001124992309F4CCC09093940645EB240310
:1052100090011124332309F4C7C0309395068F2DD4
:105220008E2909F448C080918D0690918E060E94C7
:105230005C059C0190918C06992309F4D7C0253612
:105240003105C8F19F3F19F09F5F90938C06FF20B6
:1052500059F00E94F1089FEF1F140CF491E0899F10
:10526000802D112480939606EE2059F00E94F108BB
:105270009FEF1E140CF491E0899F802D11248093E0
:105280009706309196063323B1F02091970622239A
:1052900091F045EB3403C0011124992309F488C02F
:1052A0009093960645EB240390011124332309F4CF
:1052B00083C0309397068091940690919506892B30
:1052C00090919606892B90919706892B11F00E9458
:1052D0006C0786E0FE013196A2E9B6E001900D92DE
:1052E0008A95E1F70E94F50690919806891709F4CE
:1052F00080CE0E94F506809398067BCE8091B10601
:10530000843009F110927C060FB6F894A8950093AA
:1053100060000FBEC092600083B7817F846083BF4E
:1053200083B7816083BF7894889583B78E7F83BF6E
:105330000FB6F894A8958091600088618093600012
:10534000109260000FBE8091B006882309F459CEF8
:105350000E944524EDE7F6E08191811131C0DE1213
:10536000FBCF4FCE9394BB0C96E0991268CE2FEFF3
:10537000E21AF20A4AE0E416F10409F056CE8FEF81
:105380008C878D871E860E9477058160782F988B89
:105390008F874C855D856E8588890E94432370CEFA
:1053A00081E08093940632CF81E08093950637CFD9
:1053B00081E08093960676CF81E0809397067BCF3D
:1053C000E9BCF9BC09B400FEFDCF8091D8008F7D07
:1053D0008093D8008091E00082608093E00080910B
:1053E000E00081FDFCCF0E9423120BCE2D32314014
:1053F00008F02ACF60CF232B09F0DACE10CF0F931D
:105400001F930E94940F882321F01F910F910C94F9
:105410006B050E946B050091630610916406209154
:10542000650630916606600F711F821F931F1F91E2
:105430000F910895CF92DF92EF92FF926B017C0162
:105440000E94940F81110EC00E946B05C61AD70AE4
:10545000E80AF90AC0926306D0926406E0926506F3
:10546000F0926606FF90EF90DF90CF9008957894C9
:105470001F921FB61F9211248F939F93AF93BF93D8
:1054800080915F0690916006A0916106B0916206DE
:105490000196A11DB11D80935F0690936006A093B5
:1054A0006106B0936206BF91AF919F918F911F905B
:1054B0001FBE1F9018951F921FB61F9211248F9325
:1054C0009F93AF93BF9380917C06811113C080910D
:1054D0005F0690916006A0916106B09162064196C8
:1054E000A11DB11D80935F0690936006A093610695
:1054F000B0936206BF91AF919F918F911F901FBE95
:105500001F901895FF920F931F93CF93DF93D09125
:1055100079060D2F10E00957194FFC01C081F801E1
:105520008081C81BFC2E80E01F147CF09C2FC7FDDF
:1055300090E0C91BC11114C08823E9F0DF91CF911D
:105540001F910F91FF900C94C706FA94F801808187
:105550008F5F808361E08D2F0E94781081E0E4CF1F
:10556000CF5FF80180818150808360E08D2F0E94A1
:10557000781081E0DFCFDF91CF911F910F91FF90E5
:105580000895E0918A06F0E0E957F94F2081FC0187
:105590002083089561E070E08BE492E00C94872B07
:1055A00061E070E08BE492E00C94902BCF93DF935A
:1055B000D62FC72F90E080E00E94692C009709F554
:1055C000ED2FFC2FDC01A054B94F2C9121930196B3
:1055D00085309105B9F785EC96E00E94822A0E94F9
:1055E000FF296E5F7F4F8F4F9F4F6093BC06709374
:1055F000BD068093BE069093BF0681E0DF91CF91F8
:10560000089580E0FBCFCF93DF93D62FC72F609113
:10561000BC067091BD068091BE069091BF060E94A7
:105620001A2AED2FFC2F90E080E02191DC01A0549C
:10563000B94F2C93019685309105B9F785EC96E02A
:10564000DF91CF910C94C12A8EE14A9B02C0815018
:10565000E1F74A9BFECF08955A9880E28A95F1F7C8
:105660005A9A0895FC013BE03A95F1F720E090E06A
:1056700080E031E040E14A95F1F7880F4A9B02C093
:105680008160232742E04A95F1F7000040E14A9506
:10569000F1F79F5F6913EECF90E19A95F1F799B119
:1056A00032E03A95F1F7000040E14A95F1F792FBBC
:1056B000992790F992272081920F90830895EF9275
:1056C000FF920F931F93CF93DF930F92CDB7DEB767
:1056D00019828C017C01E60EF11C0E151F0561F488
:1056E00081E09981911180E00F90DF91CF911F911E
:1056F0000F91FF90EF9008950E94242B68E0CE0157
:1057000001960E94322BF80181938F01E6CF90938E
:10571000C8068093C7066093C606529A5A9A08959F
:105720009093C8068093C7066093C60652985A9A0B
:10573000EA9AE9E6F0E080818F7C808308956150E9
:10574000770B91E001C0990F6A95EAF720E031E00C
:10575000911108C0222391F05A9A80E28A95F1F7BC
:105760005A980895492F482339F05A9A232740E23E
:105770004A95F1F79695ECCF5A98F9CF5A98EDCF14
:10578000FF920F931F93CF93DF93EC018C01060FD1
:10579000111DC017D10731F4DF91CF911F910F91E7
:1057A000FF900895F9900E942C2B68E08F2D0E94A5
:1057B0009F2BEFCF1F920F920FB60F9211240F93D2
:1057C0001F932F933F934F935F936F937F938F9389
:1057D0009F93AF93BF93EF93FF93CF93DF930F927A
:1057E000CDB7DEB719820E94242B67E0CE01019667
:1057F0000E94322B082F069506950695982F9295B4
:105800009570202F2570920F292F237096959695CD
:105810008770920F891344C08981811141C08091A2
:10582000C6068017E8F120E12A95F1F75A9A529AB4
:1058300082E08A95F1F700C0A8E00A9FC001112418
:105840000091C7061091C806080F191F5A98F80151
:105850006581662321F0868197810E94C02B0E947A
:105860002C2BF0E1FA95F1F75A9852985A9A20E1C8
:105870002A95F1F7D80112966C911297662331F1AF
:1058800013968D919C910E945F2BD801ED91FC9114
:10589000882311F088E001C082E080830E94242BDD
:1058A0000F90DF91CF91FF91EF91BF91AF919F91B9
:1058B0008F917F916F915F914F913F912F911F91A8
:1058C0000F910F900FBE0F901F901895ED91FC91C6
:1058D000E1CF0F931F93CF93DF932091C606281734
:1058E00019060CF471C08C0193E0000F111F9A95FA
:1058F000E1F7C091C706D091C806C00FD11FF89438
:10590000529A5A9825E02A95F1F70000982F96951B
:1059100095708570980F892F837096959695980F3E
:10592000092B0E942C2B00C067E0802F0E949F2B28
:1059300080E18A95F1F752985A9A4A9B17C087E0FE
:1059400090E04A9915C06D81662321F18E819F8177
:105950000E945F2B81111EC0529A5A9AE881F981E8
:1059600082E08083789482E090E00DC000C0E5CFB3
:10597000019771F4529A5A9AE881F98181E0808303
:10598000789481E090E0DF91CF911F910F9108957D
:1059900000C0D7CF0E94242B20E22A95F1F75A9815
:1059A000529A80E18A95F1F76A81662321F08B8112
:1059B0009C810E94C02B0E942C2BE881F9811082CF
:1059C000789490E080E0DFCF84E090E0DCCF97FB3C
:1059D000072E16F4009407D077FD09D00E94232DDE
:1059E00007FC05D03EF4909581959F4F08957095E2
:1059F00061957F4F0895EE0FFF1F0590F491E02D04
:105A00000994002E083090F0982F872F762F652F5D
:105A1000542F432F322F22270850F4CF220F331F49
:105A2000441F551F661F771F881F991F0A95B2F7DD
:105A3000002D08952A153B054C055D056E057F0573
:105A4000800791070895AA1BBB1B51E107C0AA1F3D
:105A5000BB1FA617B70710F0A61BB70B881F991F0F
:105A60005A95A9F780959095BC01CD010895F999B3
:105A7000FECF92BD81BDF89A992780B50895A8E11F
:105A8000B0E042E050E00C946B2D262FF999FECF48
:105A900092BD81BDF89A019700B4021639F01FBA81
:105AA00020BD0FB6F894FA9AF99A0FBE089503969E
:105AB000272F0E94462D0E94452D252F0E94462DFE
:105AC000242F0C94462D0196272F0E94462D0C94CE
:105AD000452DDC01CB01FC01F999FECF06C0F2BDDA
