:100000000C94E8050C942F060C942F060C941134D4
:100010000C942F060C942F060C942F060C942F068C
:100020000C942F060C942F060C94CB0F0C94701587
:100030000C94A9310C942F060C942F060C942F06C7
:100040000C942F060C942F060C942F060C942F065C
:100050000C942F060C94DA100C942F060C942F0697
:100060000C942F060C942F060C942F060C942F063C
:100070000C942F060C942F060C942F060C942F062C
:100080000C942F060C942F060C942F060C942F061C
:100090000C942F060C942F060C942F060C942F060C
:1000A0000C942F060C942F060C942F066E007800EB
:1000B0000102E061630103E0000102E061780103F5
:1000C000E000000000000000000000000000000050
:1000D0000000000000000000000000000000000020
:1000E0000000000000007E0F00D4FFFFFFC70000EB
:1000F000007800000000000000002A2B280000000B
:1001000000000000000000000000000000290000C6
:1001100000002C1E3420212224342627252E362DA3
:100120003738271E1F202122232425263333362E3D
:1001300037381F0405060708090A0B0C0D0E0F10AF
:100140001112131415161718191A1B1C1D2F3130F4
:10015000232D350405060708090A0B0C0D0E0F1098
:100160001112131415161718191A1B1C1D2F3130D4
:10017000354C3544015702570357045705572B6335
:1001800014001A0008001500170029610400160069
:10019000070009000A00E1001D651B0006001900A8
:1001A0000500E3000100E20002512C621B010B5725
:1001B0000A5709570857075706572F6313001200AD
:1001C0000C0018001C00347100570F000E000D00C9
:1001D0000B00E500386537003600100011003100D3
:1001E0002844E6002A432C42AE0029001E001F00CE
:1001F0002000210022002B0014001A000800150026
:100200001700E00004001600070009000A00E100E2
:100210001D001B0006001900050042002A00E20034
:1002200004512C00A800065D2B5D055D045D085D92
:10023000075D2F00130012000C0018001C00340092
:1002400000570F000E000D000B002A003800370089
:10025000360010001100035D025DE4002A4328000F
:10026000015301003A003B003C003D003E003900D4
:100270005F5D3702300027023002065D625D3602A4
:100280002F0026022F02045D075D1B0406041904DB
:1002900005042B5D0100010001000100A6004400DF
:1002A00043004200410040003F004500550061000E
:1002B00060005F008500570062005E005D005C002A
:1002C0006300580054005B005A005900010001000F
:1002D000010056004C010100015301000100010022
:1002E00001000100010001004600F100ED000100E5
:1002F00001000100F200EF00EE00F000010001003B
:100300000100010001000100010001000100FD00E9
:100310004C01FD00A50023082208210820081F0821
:100320001E084B00490001004D004A004C004E00E1
:1003300028004F00520051005000635D625D6C5D0B
:100340004F0150016D5D010001000100010001003D
:1003500001000100090A0100010001000100005C28
:10036000010000520152015D0453045301000100D9
:10037000615D605D010001000100010001000100FC
:100380000100010001000100010001000100010065
:100390000100010001000100010001000100010055
:1003A00001000100010001000100AB00AE00AC0043
:1003B000010001000100A900A800AA00010001003D
:1003C0000451010001000100045307087F080700E1
:1003D0003E5B4F5B3E003E6B4F6B3E001C3E7C3EE7
:1003E0001C00183C7E3C18001C577D571C001C5EEE
:1003F0007F5E1C0000183C180000FFE7C3E7FF0009
:10040000001824180000FFE7DBE7FF0030483A0639
:100410000E00262979292600407F05050700407F28
:1004200005253F005A3CE73C5A007F3E1C1C080053
:10043000081C1C3E7F0014227F2214005F5F005FB7
:100440005F0006097F017F00006689956A00606091
:100450006060600094A2FFA2940008047E0408007B
:1004600010207E20100008082A1C0800081C2A08FA
:1004700008001E10101010000C1E0C1E0C0030384E
:100480003E383000060E3E0E060000000000000060
:1004900000005F000000000700070000147F147FC9
:1004A0001400242A7F2A12002313086462003649AC
:1004B00056205000000807030000001C22410000E5
:1004C0000041221C00002A1C7F1C2A0008083E084C
:1004D00008000080703000000808080808000000CC
:1004E000606000002010080402003E5149453E00B3
:1004F00000427F4000007249494946002141494D70
:1005000033001814127F10002745454539003C4A36
:10051000494931004121110907003649494936004E
:10052000464949291E000000140000000040340024
:100530000000000814224100141414141400004197
:10054000221408000201590906003E415D594E007F
:100550007C1211127C007F49494936003E414141DD
:1005600022007F4141413E007F49494941007F09C6
:10057000090901003E41415173007F0808087F00CE
:1005800000417F4100002040413F01007F081422CC
:1005900041007F40404040007F021C027F007F04FA
:1005A00008107F003E4141413E007F0909090600D5
:1005B0003E4151215E007F091929460026494949DB
:1005C000320003017F0103003F4040403F001F20F5
:1005D00040201F003F4038403F0063140814630070
:1005E0000304780403006159494D4300007F4141F1
:1005F0004100020408102000004141417F00040234
:100600000102040040404040400000030708000091
:100610002054547840007F284444380038444444EF
:100620002800384444287F003854545418000008E7
:100630007E09020018A4A49C78007F0804047800B6
:1006400000447D4000002040403D00007F102844D1
:10065000000000417F4000007C04780478007C08A2
:1006600004047800384444443800FC18242418005A
:1006700018242418FC007C0804040800485454542E
:10068000240004043F4424003C4040207C001C2003
:1006900040201C003C4030403C00442810284400CE
:1006A0004C9090907C004464544C440000083641C7
:1006B0000000000077000000004136080000020141
:1006C000020402003C2623263C000000000000003B
:1006D000404040F0F8F8FF38FFF8F83FF8F8FF38EE
:1006E000FFF8F8F040404000000000000080C0C06B
:1006F000C0800000C0C08000000080C0C000C0C03A
:10070000000080C0C00000000000C0C0C0C0C00029
:10071000C0C0000000000000000000000000000059
:1007200000000000000000000000000000000000C9
:1007300000000000000000000000000000000000B9
:10074000000000000000000000C0F0F8FC3E1E06A3
:10075000010000007F4141417F007F4141417F0016
:100760000080C0E07E5B4F5BFEC00000C000DCD7B5
:10077000DEDEDED7DC00C00000000000000000006C
:100780000000000000000000000000000000000069
:10079000494949FFFFFFFFE0DFBFBF00BFBFDFE008
:1007A000FFFFFFFF49494900000000001F3F606054
:1007B000E0BF1F007F7F071E381E077F7F007F7FFF
:1007C0000E1F3B716000000000007F7F0C0C0C00CE
:1007D0007E7E007F7E0303007F7E03037E7E030315
:1007E0007F7E000F3E703C063C703E0F00327B491E
:1007F000493F7E007F7E0303001E3F69696F26002C
:10080000000000000000000000030F1F3F3C787054
:10081000600000007F4141417F007F4141417F00F6
:10082000307B7F7830202030787F3B0003000F7FC3
:100830000F0F0F7F0F0003000000000000000000FA
:1008400000000000000000000000000000000000A8
:10085000010101070F0F7F0F7F0F0F7E0F0F7F0F1B
:100860007F0F0F07010101000000000000000000E1
:100870000001010000000000000000000000000076
:100880000000000000000000000000000000000068
:100890000000000000000000000000000000000058
:1008A0000000000000000000000000000000000048
:1008B0000000000000000000000000000000000038
:1008C0000000000000000000000000000000000028
:1008D0000000000000000000000000000000000018
:1008E0000000000000000000000000000000000008
:1008F00000000000000000000000000000000000F8
:1009000000000000000000000000002300000501BE
:100910000502050305040505050006010602060398
:10092000060406050600070107020703070407057A
:100930000700080108020803080408050800090167
:100940000902090309040905090000010002000366
:10095000000400050000010101020103010401057A
:100960000100020102020203020402050200030167
:100970000302030303040305030004010402040348
:1009800004040405040102E201013D0103E2000147
:1009900002E00101500103E00102E10102E0010176
:1009A0004F0103E00103E1003D3E000102E20102CC
:1009B000E10101500103E10103E2003625693249FA
:1009C000676C5E55312A764E444838673945430096
:1009D000383731666635303039353161000102E231
:1009E0000102E101014F0103E10103E20000DA022B
:1009F0008101D9F1DB20A4A62EAF00A0C000A1C8C0
:100A000000AED580A81FD300408D14200043505362
:100A10004C4B000A0A00556E646566005F464E3412
:100A2000004E6176004E756D0047616D650A0042AB
:100A30006173650A004C41594552000A0A004D6F26
:100A4000640A0047414D4521212121212100517790
:100A50007274000A0A00808182838485868788896F
:100A60008A8B8C8D8E8F9091929394A0A1A2A3A437
:100A7000A5A6A7A8A9AAABACADAEAFB0B1B2B3B4AE
:100A8000C0C1C2C3C4C5C6C7C8C9CACBCCCDCECFEE
:100A9000D0D1D2D3D40000232005010902A10185C1
:100AA000020901A100050919012908150025019570
:100AB00008750181020501093009311581257F95ED
:100AC000027508810609381581257F950175088111
:100AD00006050C0A38021581257F950175088106E7
:100AE000C0C005010980A101850319012AB70015BD
:100AF0000126B700950175108100C0050C0901A100
:100B000001850419012AA002150126A0029501758C
:100B1000108100C005010906A101050719E029E7B8
:100B2000150025019508750181029501750881015F
:100B30000507190029FF150026FF00950675088195
:100B400000050819012905950575019102950175A2
:100B5000039101C009023B00020100A0FA09040050
:100B600000010301010009211101000122400007D9
:100B700005810308000A09040100010300000009BF
:100B80002111010001227B000705820320000A12C7
:100B90000110010000000832FC8702010001020080
:100BA000010C0353006F0066006C00650000001A22
:100BB000034A006F00730065006600410064006135
:100BC000006D00630069006B00000004030904006D
:100BD00011241FBECFEFDAE0DEBFCDBF04B603FEA7
:100BE00027C08091F8089091F908A091FA08B09177
:100BF000FB088730904BA740B04BD1F41092F80817
:100C00001092F9081092FA081092FB0814BE84B7EB
:100C1000877F84BF0FB6F894A895809160008861A3
:100C200080936000109260000FBEE0E0F8E3099549
:100C300012E0A0E0B1E0ECE1FCE602C005900D920C
:100C4000AE39B107D9F728E0AEE9B2E001C01D9294
:100C5000A83FB207E1F70E94662C0C94D2350C94A1
:100C600000008C3027E5920750F4811527E59207A4
:100C700060F48230954549F086E990E00895833626
:100C80009D45D1F784EF91E0089588EC90E00895B8
:100C9000E8EDF0E080818E7F80831092E200109278
:100CA000DA001092E100A0EEB0E08C9181608C93AC
:100CB00080818F77808319BCA7EDB0E08C918E7F07
:100CC0008C9380818F7E80831092D3080895209129
:100CD000E4003091E50095E6A9012091EC00822F17
:100CE000817020FF06C08091E80080FF06C080E090
:100CF00008952091E80022FD1AC08091E008882321
:100D000089F0853089F08091EB0085FD0FC020913E
:100D1000E4003091E50042175307F9F29150E1F6F3
:100D200084E0089582E0089583E0089581E00895C5
:100D3000EF92FF920F931F93CF937C018B010E9440
:100D40006706C82F811117C08091E80085FD0BC090
:100D50008091E8008E778093E8000E9467068823E0
:100D600099F3C82F08C0F70181917F018093F100AA
:100D70000150110949F78C2FCF911F910F91FF90CE
:100D8000EF9008958091E20887FF13C08091E800FA
:100D900082FF06C08091E8008B778093E80004C052
:100DA0008091E0088111F2CF08958091E0088823B6
:100DB000D9F38091E80080FFF8CF8091E8008E772A
:100DC000ECCF982F9093E900242F762F50E08917CD
:100DD00031F07091EC002091ED005091F00021FD78
:100DE00007C09F5F973071F78093E90081E0089515
:100DF0003091EB003E7F3093EB003091ED003D7F72
:100E00003093ED003091EB0031603093EB00709344
:100E1000EC002093ED005093F0002091EE0027FDB0
:100E2000E0CF80E00895CF92DF92EF92FF920F9390
:100E30001F93CF93DF93C8EDD0E088818F7E8883A6
:100E4000E7EDF0E080818160808384E082BF81E013
:100E50008093D30888818E7F888302EE10E0F801AA
:100E600010821092DA0081EEC82ED12CF601108289
:100E700088818F77888388818068888388818F7D47
:100E8000888319BC1092E0081092E1081092DF08E4
:100E90001092DE0890EEE92EF12CF70180818B7F15
:100EA000808388818160888342E060E080E00E94E6
:100EB000E106F60180818E7F8083F8018081816068
:100EC0008083808188608083F70180818E7F80832A
:100ED000888180618883DF91CF911F910F91FF906E
:100EE000EF90DF90CF900895FC018091E8089091F9
:100EF000E90886179707A0F06115710529F490910C
:100F0000E8009E779093E80090E06115710551F438
:100F1000911108C08091E80082FF34C080E00895FC
:100F2000BC01F2CF8091E0088823C1F18530C1F186
:100F30008091E80083FD30C08091E80082FDEACF17
:100F40008091E80080FFE1CF8091F3002091F200D2
:100F5000382F6115710519F02830310558F091E0EE
:100F60002830310509F090E02091E8002E77209399
:100F7000E800CBCF81918093F100615071092F5F20
:100F80003F4FE7CF8091E008882341F0853041F062
:100F90008091E80083FFBECF81E0089582E008954C
:100FA00083E0089580E008958091D508089587E74B
:100FB00097E7909301088093000888E19AE00FB6C4
:100FC000F894A895809360000FBE90936000FFCFC7
:100FD0009C014FB7F89480915F0690916006A091B4
:100FE0006106B09162064FBF821B930B08952FB725
:100FF000F89460915F06709160068091610690910F
:1010000062062FBF08959C01FC0132969FEF80E09D
:101010004191461751F09F3F19F4411101C0982F9B
:101020008F5F8630A9F79F3F09F40895290F311D7E
:1010300097FD3A95F9016283089580915A068823B5
:1010400031F010925A0610925906109258060895DF
:101050008095909157069823909357060895109283
:10106000540610925306109252060895809151062C
:101070008111109251060895E92FEE0FE90FEE0F3E
:101080008E0F982F977086958695869525E0829F7E
:10109000F0011124E75DF94F50E040E080E021913C
:1010A00030E0092E02C0369527950A94E2F72170A8
:1010B0003327042E01C0220F0A94EAF7822B4F5FD8
:1010C0005F4F4530510559F70895E92FEE0FE90FAD
:1010D000EE0F8E0F982F977041E001C0440F9A9544
:1010E000EAF786958695869595E0899FF00111240B
:1010F000E75DF94F30E020E070E05191DF0111979A
:10110000CB01022E02C0969587950A94E2F7817072
:1011100081958527842385278C932F5F3F4F25302A
:10112000310559F7089540918B0650918C066091D6
:101130008D0670918E06411551056105710529F4E2
:1011400041E0811140E0842F089504C076956795B1
:10115000579547958A95D2F74170F5CF209128068B
:101160009091F70556E0291302C080E0089530E021
:10117000529FF001539FF00D1124E850FA4F7181F6
:10118000761306C07081781303C07281741304C093
:101190002F5F3F4F2770E7CF81E00895452B39F04F
:1011A000682381E06F3F09F080E08170089581E05D
:1011B000FCCF809128069091F705981301C00895FF
:1011C0008F5F8770FACF0C94F7072091B7023091A8
:1011D000B8022817390771F09093B8028093B702CC
:1011E000E0918906F0918A06309721F00084F1851C
:1011F000E02D099408952091B5023091B602281788
:10120000390771F09093B6028093B502E091890698
:10121000F0918A06309721F00680F781E02D09943D
:101220000895E0918906F0918A06309721F00190A7
:10123000F081E02D099480E008954091C3088D3E2F
:1012400059F48091C40887FF0DC01092C408411161
:101250000BC01092BE0808C08E3E81F48091C40875
:1012600018169CF3442381F08091C5089091C6081C
:10127000892B09F05AC01092BB0808958F3E49F49B
:1012800047FFF0CF1092C3088091C4088111ECCFC2
:10129000E0CF803F19F41416ACF3E4CF9091C50869
:1012A000893F29F41916F4F61092C508DBCF8A3F5E
:1012B00019F497FFD7CFF8CF9091C6088B3F29F448
:1012C00097FFD0CF1092C608CDCF8C3F19F41916D6
:1012D000CCF3C8CF9FE0980F983090F4815F990BC2
:1012E00021E030E0B90102C0660F771F8A95E2F76E
:1012F000CB0180959091C20889238093C208B2CF18
:101300008D3F31F48091EE058E7F8093EE05AACF5C
:101310008E3F21F48091EE058D7FF7CF8F3F09F04E
:10132000A1CF8091EE058B7FF0CF089581E00895E5
:101330008091EE0580FD16C081FD16C082FD18C0AB
:101340008091BE08882391F0883290F42FE0829F2C
:10135000C001112468E270E00E943E35862F672BA1
:1013600049F0089583E0089587E0089585E00895A1
:101370008FE0089581E008958D3E31F40E94980930
:1013800081958093C40808958E3E19F40E949809AF
:10139000F8CF8F3E31F40E94980981958093C3085D
:1013A0000895803F19F40E949809F8CF893F29F4E5
:1013B0000E9496098093C50808958A3F21F40E94EF
:1013C00096098195F7CF8B3F31F40E94960981955C
:1013D0008093C60808958C3F19F40E949609F8CFAF
:1013E0009FE0980F983070F4815F990B21E030E016
:1013F00001C0220F8A95EAF78091C208822B809360
:10140000C20808958D3F31F48091EE05816080938C
:10141000EE0508958E3F21F48091EE058260F7CFAE
:101420008F3FB9F78091EE058460F1CFF894E82FF3
:10143000E295EF70F0E031A1282F2F7081E090E06D
:1014400001C0880F2A95EAF7982F9095932391A3CE
:1014500092A1892B82A3789408959091670692FFB8
:1014600006C0282F28712830F9F4877F846093FF05
:1014700006C0282F28712831F1F4877E84612091DD
:10148000680620FF06C0382F38713830D9F4877FBE
:10149000816021FF06C0282F28712831D1F4877E72
:1014A000816194FD877E0895282F24712430F9F6F8
:1014B0008B7F8860DCCF282F2471243101F78B7E4D
:1014C0008861DDCF382F3171313019F78E7F886018
:1014D000E0CF282F2171213121F78E7E8861E1CF65
:1014E000CF93DF93972F70E026E0929F600D711DE0
:1014F0001124FB013CE3839FE00DF11D1124EE0F4D
:10150000FF1FEE58FE4FC591D491CE01C238D105D0
:10151000B9F1E8F5C133D10509F499C050F5C932E4
:10152000D10509F48DC0CA32D10509F497C0C1159F
:1015300042E5D40708F0C4C0C11521E5D20708F080
:1015400032C1C83ED10508F09DC0C03ED10568F546
:10155000C83AD10508F089C0C53AD10508F0FFC0E6
:10156000C130D10511F1209709F443C02497E8F464
:1015700040C0C533D10509F45CC0C933D105B9F603
:1015800020916706237089F080EE90E00EC0C33E84
:10159000D10591F168F4C03ED105F9F0C23ED10504
:1015A00031F62091670622FD20C0DF91CF9108958A
:1015B000C63ED10561F1C73ED10581F1C43ED105DA
:1015C00009F0B5CF2091680621FFEFCF8091670623
:1015D00084FD0FC087EE90E0E8CF2091670620FDE4
:1015E00014C13091680630FFE0CF83EE90E024FF15
:1015F000DCCF90E080E0D9CF2091670622FD08C1C2
:101600003091680630FDC0CF24FFCFCFF2CF2091BC
:10161000670623FFCACF24FDECCFDCCF20916706FD
:1016200023FDF9C03091680631FFEECF84EE90E0E3
:10163000BCCF2091670625FFB8CF89E290E0B5CFF7
:101640002091670625FFB1CF85E390E0AECF2091D2
:10165000670626FFAACF8AE290E0A7CF209167060F
:1016600026FFA3CF81E390E0A0CFCF3BD10508F6C2
:10167000C85AD0E0CC0FDD1FC95BDD4F888199814E
:10168000946493CFC11530E2D30760F4C11541E0F3
:10169000D40708F08ACFCE019065CD3ED10508F081
:1016A00084CFA7CFC11580E4D80708F4A2CFC11515
:1016B00090E5D90708F05BC0CE019F70906A75CFA6
:1016C000C11526E5D20718F5C11535E5D30708F091
:1016D00080C0C11544E5D40708F076C09C2F9695CC
:1016E0009695AE0143705527C115D34508F460C0E7
:1016F00021E030E002C0220F331F4A95E2F740E2BA
:10170000949FC0011124822B932B9A684ECFC11550
:1017100099E5D90770F4C11528E5D20708F063C030
:10172000C11537E5D30708F064CFCE01992790663D
:101730003CCFC1154AE5D40708F45AC0CE019056F3
:101740008115904208F055CF8D2F8F710E942D0A80
:1017500090E0982F882788279F718C2B42C0C55A0C
:10176000D0E0CC5BDD4F888190E090641ECF9E017D
:10177000E4E036952795EA95E1F723708C2F86955E
:101780008695837030E2839FC0011124922BC37031
:1017900021E030E002C0220F331FCA95E2F7822B0E
:1017A000932B9C6802CF9C2F8827816F906AFDCE77
:1017B00021E030E002C0220F331F4A95E2F740E2F9
:1017C000949FC0011124EBCF9C2F8827846F906ACF
:1017D000ECCE8C2F0E942D0A90E0982F8827882726
:1017E0009F719062E2CE9C2F8827806F906ADDCE39
:1017F0008C2F8F700E942D0A34E0D695C7953A95AC
:10180000E1F7CF709C2F9069D0CE89E390E0CDCEE8
:1018100082EE90E0CACE86EE90E0C7CEBF92CF9225
:10182000DF92EF92FF920F931F93CF93DF938C0180
:10183000C0908B06D0908C06E0908D06F0908E06BE
:1018400080915B0690915C06A0915D06B0915E066A
:10185000C82AD92AEA2AFB2ACFE1D0E0BC2ED70138
:10186000C6010C2E04C0B695A795979587950A9446
:10187000D2F780FD0EC0219788F7B12C8B2DDF9118
:10188000CF911F910F91FF90EF90DF90CF90BF907D
:101890000895B8018C2F0E94700A019761F3EECF72
:1018A000CF93DF93EC010E940E0CBE01DF91CF912C
:1018B0000C94700A0E94500C292F2F7092959F70E3
:1018C00092509E3078F4E92FF0E0EC52FA4C0C94F0
:1018D0005235803F19F020F4883E20F481E00895CD
:1018E000843FE1F380E00895883EC0F3813FD1F763
:1018F000F5CF822F8695869586950895CF92DF92B3
:10190000EF92FF926C01EE24FF2420E0C114D10479
:10191000E104F10419F0C701B60120E1C72ED82E69
:10192000E92EFF24C114D104E104F10419F0285F69
:10193000C701B6016B017C0154E0F694E794D7949B
:10194000C7945A95D1F7C114D104E104F10419F0F8
:101950002C5FC701B6016B017C0142E0F694E7946D
:10196000D794C7944A95D1F7C114D104E104F10486
:1019700019F02E5FC701B601969587957795679503
:10198000672B682B692B09F02F5F822FFF90EF9058
:10199000DF90CF9008951F93CF93DF9300D000D0B6
:1019A0000F92CDB7DEB749835A8389819A81662326
:1019B00031F1222321F10E940E0C182F682F89810A
:1019C0009A810E9465088A81E981F0E096E0899F0A
:1019D000E00DF11D11248CE3189FE00DF11D112481
:1019E000EE0FFF1FEE58FE4F859194910F900F90D0
:1019F0000F900F900F90DF91CF911F9108950E944B
:101A00003C08182FE0CFCF93DF939C013A95211526
:101A10003F4168F5EC01CC27D170DC01AA27B270F8
:101A2000AC01442754709C012227387094FF11C0E8
:101A300080E1CD2B09F480E0AB2B09F08062452BCF
:101A400009F08064232B09F08068FB01DF91CF91BE
:101A5000099481E0CD2B09F480E0AB2B09F0826082
:101A6000452B09F08460232B81F38860EECFDF9152
:101A7000CF910895FC018081813029F482858823EB
:101A800081F083E00895823029F4828581110BC0B2
:101A900084E00895833049F48285811106C087E08F
:101AA000089582E0089585E0089588E00895CF9232
:101AB000DF92EF92FF920F931F93CF93DF936C010E
:101AC0007B0164E670E088E70E947832EC0197FDC4
:101AD00012C010E000E0F601E00FF11F849164E60F
:101AE00070E00E94D432EC01892B29F40F5F1F4F64
:101AF0000E151F0581F70E945733CE01DF91CF915C
:101B00001F910F91FF90EF90DF90CF900895CF93AA
:101B1000C091B7088091BA088823D1F00E94F707D6
:101B2000605A75418F4F9F4F6093B3087093B4080C
:101B30008093B5089093B608C11108C063E070E0C7
:101B40008AE099E00E94570D892B29F0C091B708CF
:101B50008C2FCF91089581E08093B708F7CFCF9372
:101B600084E090E00E949035C82F82E290E00E94CD
:101B70009035982F8C2FCF910895CF93DF9300D07D
:101B80000F92CDB7DEB79091E008943019F58983B4
:101B90007B836A8382E08093E9008FEF9091E80075
:101BA000815095FD06C095ED9A95F1F700008111E1
:101BB000F5CF8091E80085FF0DC050E040E063E084
:101BC00070E0CE0101960E9498068091E8008E7721
:101BD0008093E8000F900F900F90DF91CF910895C0
:101BE000BC0184E00C94BD0DBC0183E00C94BD0DE0
:101BF0009C0182E08093E9009FEF8091E800915082
:101C000085FD06C085ED8A95F1F700009111F5CFAD
:101C10008091E80085FF0CC050E040E066E070E095
:101C2000C9010E9498068091E8008E778093E800B1
:101C30000895CF93DF93EC0181E08093E9008FEF6B
:101C40009091E800815095FD06C095ED9A95F1F7C9
:101C500000008111F5CF8091E80085FF14C050E0AD
:101C600040E068E070E0CE010E9498068091E800B4
:101C70008E778093E80088E0FE01A6EDB8E0019041
:101C80000D928A95E1F7DF91CF9108958091AC0292
:101C9000811110C08091D80080618093D8008AE1C2
:101CA0008A95F1F700C08091D90080FF0AC081E0D9
:101CB0008093AC0281E09091AC02913009F080E019
:101CC000089582E08093AC020E9448061092E008DA
:101CD000F1CF6AEE7EEF90E080E00E94BC3560E0DC
:101CE00082E090E00E949E3560E083E090E00E94F8
:101CF0009E3510925B0610925C0610925D06109263
:101D00005E0660E084E090E00E949E3560E082E242
:101D100090E00E949E3560E085E090E00E949E3554
:101D200060E086E090E00E949E356FEF87E090E0F3
:101D30000E949E3540E050E0BA0188E090E00E94A9
:101D4000B03560E08DE090E00E949E3540E050E0CC
:101D5000BA0188E190E00E94B03560E087E190E050
:101D60000E949E3540E050E0BA018CE190E00E9474
:101D7000B03570E060E080E290E00E94BC3540E069
:101D800050E0BA0188E190E00E94B03540E050E0B8
:101D9000BA018FE090E00E94B03540E050E0BA0117
:101DA00083E190E00C94B035CF93C0916806C2FBFC
:101DB000992790F9981781F080FBC2F9C0936806C3
:101DC0006091670684E090E00E949E356C2F82E26D
:101DD00090E0CF910C949E35CF9108951F93CF93AF
:101DE000DF93162F8A3031F481E0DF91CF911F917C
:101DF0000C94930F8D3011F480E0F7CFC0918606DC
:101E0000D091870696E0FE01ADEAB2E001900D9216
:101E10009A95E1F7803EA8F186E0FE0111928A953D
:101E2000E9F7C0918606D0918706111136C046E0C9
:101E300050E0BE018DEA92E00E9483359E012F5A48
:101E40003640892BA9F52A5F3F4F40918806642FC1
:101E500070E0C9010E942A35481B463010F4240F57
:101E6000311D211572E0370710F030E020E02155D8
:101E7000394F3093870620938606DF91CF911F91CB
:101E80000895F6E08F9FB001112466537C4F46E021
:101E900050E0CE010E947A35C4CF9E012A5F3F4FA9
:101EA000FE012E173F0719F2808180958193F9CFAB
:101EB000C90145E0969587954A95E1F741E050E0E4
:101EC000BA0102C0660F771F8A95E2F7CB016091D5
:101ED000B1087091B208862B972BB9016B5F7F4FC9
:101EE000E5E076956795EA95E1F702C0440F551F46
:101EF0006A95E2F7842B952B9093B2088093B108F2
:101F0000A2CF1F93CF93DF93EC01162FFE01849194
:101F1000811104C0DF91CF911F910895612F0E941C
:101F2000EE0E2196F3CFCF93382FE0918606F091F5
:101F30008706EF5AF64020918806622F70E0CF01A5
:101F40000E942A35281B822F332369F066E00E9405
:101F50001E35C82FC15010F4CF91089560E080E283
:101F60000E94EE0EF7CF9F01280F311D2115324040
:101F700018F080E0F0E0E0E08E0F9F2F911D81557A
:101F8000994F9093870680938606E6CF0E94810F33
:101F900081E00C94930F1F920F920FB60F921124B1
:101FA0002F933F934F935F936F937F938F939F9361
:101FB000AF93BF93EF93FF938091E10082FF09C03D
:101FC0008091E20082FF05C08091E1008B7F8093C9
:101FD000E1008091DA0080FF24C08091D80080FF6A
:101FE00020C08091DA008E7F8093DA008091D90042
:101FF00080FF9BC080E189BD82E189BD09B400FEFC
:10200000FDCF81E08093E0088091D308811109C061
:102010000E9448060E9413078091E200846080932A
:10202000E2008091E10080FF17C08091E20080FF14
:1020300013C08091E2008E7F8093E2008091E200E5
:1020400080618093E2008091D80080628093D80004
:1020500019BC85E08093E0088091E10084FF29C0ED
:102060008091E20084FF25C080E189BD82E189BDC5
:1020700089B5982F917080FFFBCF8091D8008F7D1C
:102080008093D8008091E1008F7E8093E100809161
:10209000E2008F7E8093E2008091E2008160809375
:1020A000E2008091E108882309F445C084E0809330
:1020B000E0088091E10083FF27C08091E20083FF68
:1020C00023C08091E100877F8093E10082E08093CC
:1020D000E0081092E1088091E1008E7F8093E1009A
:1020E0008091E2008E7F8093E2008091E200806127
:1020F0008093E20042E060E080E00E94E10680918F
:10210000F00088608093F000FF91EF91BF91AF9154
:102110009F918F917F916F915F914F913F912F91FF
:102120000F900FBE0F901F90189519BC1092E008E9
:102130001092D30876CF8091E30087FD93E09093CF
:10214000E008B7CF0F931F930E94460E882321F01B
:102150001F910F910C94F7070E94F70700916306F7
:10216000109164062091650630916606600F711F1C
:10217000821F931F1F910F910895CF92DF92EF92CC
:10218000FF926B017C010E94460E81110EC00E94DD
:10219000F707C61AD70AE80AF90AC0926306D0926E
:1021A0006406E0926506F0926606FF90EF90DF907D
:1021B000CF90089578941F921FB61F9211248F9389
:1021C0009F93AF93BF9380915F0690916006A0911B
:1021D0006106B09162060196A11DB11D80935F0654
:1021E00090936006A0936106B0936206BF91AF9191
:1021F0009F918F911F901FBE1F9018952FB7F89435
:1022000080915F0690916006A0916106B091620690
:102210002FBF08958091570690915606892B909173
:102220005506892B8093A00280915A06882319F1C4
:102230000E94FE102091580630915906821B930B84
:10224000883E934010F00E941D088091A00290915A
:102250005A06892B8093A00220E082EA92E0FC01DA
:102260003191CF0131112F5FF2E0883A9F07B9F722
:1022700021110E941D08E0918906F0918A0630978D
:1022800031F00280F381E02D80EA92E00994089514
:10229000882341F0809590915606892380935606B5
:1022A0000C940A110895882339F090915606982BC2
:1022B000909356060C940A110895882321F00E94E9
:1022C00028080C940A110895882339F09091570634
:1022D000982B909357060C940A110895CF93DF938F
:1022E000EC0181E0898B809157069F81892B809337
:1022F0005706809156069885892B809356060E9432
:102300000A11EA81FB81309739F06C897D89CE0111
:102310000696DF91CF910994DF91CF910895EF92C6
:10232000FF920F931F93CF93DF93EC018A85811166
:1023300039C0EB80FC8087E5F81A26E12E9DC001AC
:102340002F9D900D1124DC01A25EBE4F1496ED91DD
:10235000FC911597309731F054966D917C918C5D7E
:102360009E4F099586E18E9D80018F9D100D112451
:10237000025E1E4FF80187810E942808F8018085BF
:10238000982F9095809156068923809356060E9437
:102390000A11188219861B861E821D821092E8057A
:1023A0001092E705DF91CF911F910F91FF90EF9071
:1023B00008950E94FE109C019091C3088091C4086A
:1023C000982B21F03093C0082093BF089091C50846
:1023D0008091C608982B21F03093BD082093BC084B
:1023E000E0918906F0918A06309749F082E0809367
:1023F000C1080480F581E02D81EC98E009940895EE
:1024000090E080E00E94FB0890E080E00E94E508F8
:1024100010925606109255060E940A1186E0E1ECD1
:10242000F8E0DF011D928A95E9F71092BE0810923C
:10243000BB081092EE050C94D91160938B06709333
:102440008C0680938D0690938E060C9400120F9349
:102450001F9341E050E060E070E004C0440F551F5E
:10246000661F771F8A95D2F7CB01BA0160957095E8
:102470008095909500918B0610918C0620918D0689
:1024800030918E0660237123822393231F910F9135
:102490000C941D12909154068095892380935406C4
:1024A000282F277039F4282F082E000C330B921791
:1024B000130621F49091680692FF07C085958595D3
:1024C00085950E9427120C942F0808950F931F934F
:1024D00041E050E060E070E004C0440F551F661F0B
:1024E000771F8A95D2F780918B0690918C06A091E8
:1024F0008D06B0918E068A019B01082B192B2A2B81
:102500003B2BC901B8011F910F910C941D129091A2
:10251000680692FD10C098E0899F90011124622BFB
:10252000609354060E9466120E94FE109093530618
:102530008093520608950C94661260E070E0CB011F
:102540000C941D1260935B0670935C0680935D068D
:1025500090935E060C94001210925706E2EAF2E0A5
:1025600086E0DF011D928A95E9F70C9400121F9313
:10257000CF93DF93CDB7DEB7AA970FB6F894DEBF3F
:102580000FBECDBF82EE98E02091F100FC012193B7
:10259000CF01F8E08A3E9F07B9F78091E3088330C6
:1025A00009F46FC0B8F4813009F446C0823009F4F0
:1025B000B0C08091E80083FF7BC28091E2089091D7
:1025C000E3089A3008F074C2E92FF0E0EE51FA4CBB
:1025D0000C9452358A3009F48BC08B3009F46EC0EC
:1025E000893039F78091E208813219F78091E60845
:1025F0009091E7080297E8F68091E800877F809342
:10260000E8008091E80082FF37C09091F30080914C
:10261000F200029729F48091F1008B7F813021F440
:102620008091F1008093D5088091E8008B778093AA
:10263000E8000E94C206BDCF8091E208813A09F00D
:10264000B8CF8091E800877F8093E8008091E6080A
:102650009091E708892B61F468E086ED98E070E0DE
:102660000E9474078091E8008B778093E800A1CFE7
:1026700060E090E080E0F3CF8091E0088111C1CF6D
:1026800098CF8091E208813A09F093CF8091E608D3
:102690009091E708892B09F08CCF8091E800877F23
:1026A0008093E8008091E80080FFFCCF80913B029E
:1026B0008093F1008091E8008E77B9CF8091E20895
:1026C000813209F076CF8091E6089091E708892B56
:1026D00009F06FCF8091E800877F8093E8000E9427
:1026E000C2068091E40880933B020E94AC1261CF45
:1026F0008091E208813209F05CCF8091E800877F09
:102700008093E8000E94C2068091E5088093D40877
:1027100050CF8091E208813A09F04BCF8091E800D8
:10272000877F8093E8008091E80080FFFCCF809154
:10273000D408BECF803899F0823809F0B9C18091B1
:10274000E6088F70873008F0B3C18093E90080916C
:10275000EB0085FB882780F91092E90006C0809184
:10276000DE089091DF08911182609091E800977FD8
:102770009093E8008093F1001092F1008091E800BE
:102780008E7792C1882309F480C1823009F090C10C
:102790008091E408811183C18091E6088F702FEF4A
:1027A000280F263008F084C18093E9002091EB00C7
:1027B00020FF75C1933031F48091EB0080628093EB
:1027C000EB006DC19091EB0090619093EB0021E0E4
:1027D00030E001C0220F8A95EAF72093EA001092B8
:1027E000EA008091EB008860EACF811161C110910D
:1027F000E4081F778091E3008078812B8093E300C9
:102800008091E800877F8093E8000E94C206809153
:10281000E80080FFFCCF8091E30080688093E300B4
:1028200082E0111183E08093E00842C18058823039
:1028300008F03EC18091E4089091E5088C3D23E0CA
:102840009207A1F583E08A838AE289834FB7F894DF
:10285000DE01139620E03EE051E2E32FF0E05093DA
:102860005700E49120FF03C0E295EF703F5FEF70E7
:102870008E2F90E0EA30C0F0C7968D939D932F5F26
:10288000243159F74FBF8091E800877F8093E8009B
:102890006AE270E0CE0101960E9474078091E80020
:1028A0008B778093E80004C1C096E7CF4091E6089B
:1028B0005091E708292F33272330310509F444C00C
:1028C00078F52130310509F46FC08BE390E0E4E541
:1028D000FBE02230310509F0EBC02091E800277FB2
:1028E0002093E8002091E8083091E90882179307C7
:1028F00008F49C0140E02115310509F064C0411144
:1029000062C08091E80082FDC9CF8091E0088823F1
:1029100029F2853019F28091E80083FFF2CFBECF13
:1029200021323105A9F12232310509F0C1C041152A
:10293000510509F443C04130510509F0B9C08BE796
:1029400090E0E9E9FAE0C9CF992781309105C1F01B
:10295000009759F0029709F0ABC0E1EAFBE0E4917F
:102960008E2F90E0E1EAFBE007C0EBECFBE0E491A6
:102970008E2F90E0EBECFBE0009709F499C0ADCF0F
:10298000EFEAFBE0E4918E2F90E0EFEAFBE0F4CF7A
:102990004115510571F04130510509F089C089E0B8
:1029A00090E0EFE7FBE099CF82E190E0EFE8FBE019
:1029B00094CF89E090E0E6E6FBE08FCF80E490E002
:1029C000E4E1FBE08ACF8091E008882309F466CF38
:1029D000853009F463CF8091E80083FD5FCF80915B
:1029E000E80082FD8ECF8091E80080FF84CF909137
:1029F000F3008091F2002115310519F0883091051E
:102A000050F041E0089709F040E08091E8008E77AF
:102A10008093E80070CF44914093F10031962150AB
:102A200031090196E8CF803809F042C08091E80072
:102A3000877F8093E8008091E1088093F1009ECE2B
:102A4000811136C01091E408123090F58091E800B1
:102A5000877F8093E8001093E1080E94C20611234B
:102A600011F084E005C08091E30087FDFACF81E09A
:102A70008093E00842E061EC81E00E94E10642E2DE
:102A800061EC82E00E94E10613C08091E40881308D
:102A900079F481E0933009F080E08093DF081092B0
:102AA000E9008091E800877F8093E8000E94C206D9
:102AB0008091E80083FF0AC08091E800877F8093BF
:102AC000E8008091EB0080628093EB00AA960FB63D
:102AD000F894DEBF0FBECDBFDF91CF911F91089557
:102AE0001F920F920FB60F9211242F933F934F9383
:102AF0005F936F937F938F939F93AF93BF93CF9386
:102B0000DF93EF93FF93D091E900DF708091EC00A9
:102B1000C82FC17080FDC0E81092E9008091F000DC
:102B2000877F8093F00078940E94B7121092E9009A
:102B30008091F00088608093F000CD2BCF70C0931F
:102B4000E900FF91EF91DF91CF91BF91AF919F91FC
:102B50008F917F916F915F914F913F912F910F9046
:102B60000FBE0F901F9018958823B1F19CEF980F1E
:102B7000913A70F4E2EAF2E09191891303C0DF0127
:102B800011971C9292E0E83AF907B1F70C940A11F8
:102B900090E2980F983050F4877091E001C0990F3F
:102BA0008A95EAF7892F0E942808F0CF9BE5980FB5
:102BB000933020F490E080E00C94FB0898E5980FA7
:102BC000973120F490E080E00C94E5088D3E20F0F1
:102BD0000E941D090C94D9110895CF93DF93EC0145
:102BE0000E94B415CE01805E9109089720F068E438
:102BF00071E1209711F46DE571E1CE01DF91CF9184
:102C00000C94030DFC018081813029F4FB0180814B
:102C100091810C94ED15823021F4FB018281938126
:102C2000F8CF089581EE90E00E94ED1580EE90E0DF
:102C30000E94ED1582EE90E00E94ED1583EE90E08B
:102C40000C94ED15809119018430D1F038F4823064
:102C500091F0833069F0109219010895873099F04E
:102C60008830A1F08530B9F782EE90E00E94ED1532
:102C700084E490E002C08EE290E00E94ED15EBCF7C
:102C800080EE90E0F3CF81EE90E0F0CF0E9412163C
:102C9000EFCF809117018430D1F038F4823091F079
:102CA000833069F0109217010895873099F08830C9
:102CB000A1F08530B9F782EE90E00E94ED1583E433
:102CC00090E002C08DE290E00E94ED15EBCF80EE27
:102CD00090E0F3CF81EE90E0F0CF0E941216EFCF9C
:102CE000809115018430D1F038F4823091F0833036
:102CF00069F0109215010895873099F08830A1F09D
:102D00008530B9F782EE90E00E94ED1582E490E004
:102D100002C080E390E00E94ED15EBCF80EE90E0E2
:102D2000F3CF81EE90E0F0CF0E941216EFCF8091AA
:102D300013018430D1F038F4823091F0833069F09F
:102D4000109213010895873099F08830A1F08530F2
:102D5000B9F782EE90E00E94ED1581E490E002C0A8
:102D600085E292E00E94ED15EBCF80EE90E0F3CF8C
:102D700081EE90E0F0CF0E941216EFCF809111010A
:102D80008430D1F038F4823091F0833069F01092C1
:102D900011010895873099F08830A1F08530B9F796
:102DA00082EE90E00E94ED1580E490E002C084E2A3
:102DB00092E00E94ED15EBCF80EE90E0F3CF81EE34
:102DC00090E0F0CF0E941216EFCF80910F01843077
:102DD000D1F038F4823091F0833069F010920F0115
:102DE0000895873099F08830A1F08530B9F782EEE8
:102DF00090E00E94ED158FE390E002C083E292E044
:102E00000E94ED15EBCF80EE90E0F3CF81EE90E0E5
:102E1000F0CF0E941216EFCF80910D018430D1F0D7
:102E200038F4823091F0833069F010920D010895EA
:102E3000873099F08830A1F08530B9F782EE90E0C4
:102E40000E94ED158EE390E002C082E292E00E94C3
:102E5000ED15EBCF80EE90E0F3CF81EE90E0F0CF78
:102E60000E941216EFCF80910B018430D1F038F41C
:102E7000823091F0833069F010920B010895873011
:102E800099F08830A1F08530B9F782EE90E00E9489
:102E9000ED158DE390E002C081E292E00E94ED1515
:102EA000EBCF80EE90E0F3CF81EE90E0F0CF0E9488
:102EB0001216EFCF809109018430D1F038F48230BE
:102EC00091F0833069F0109209010895873099F0EC
:102ED0008830A1F08530B9F782EE90E00E94ED15C0
:102EE0008CE390E002C080E292E00E94ED15EBCF0F
:102EF00080EE90E0F3CF81EE90E0F0CF0E941216CA
:102F0000EFCF809107018430D1F038F4823091F016
:102F1000833069F0109207010895873099F0883066
:102F2000A1F08530B9F782EE90E00E94ED158BE3B9
:102F300090E002C08FE192E00E94ED15EBCF80EEB1
:102F400090E0F3CF81EE90E0F0CF0E941216EFCF29
:102F5000809105018430D1F038F4823091F08330D3
:102F600069F0109205010895873099F08830A1F03A
:102F70008530B9F782EE90E00E94ED158AE390E08B
:102F800002C08EE192E00E94ED15EBCF80EE90E062
:102F9000F3CF81EE90E0F0CF0E941216EFCFCF93E7
:102FA000C82F882309F456C08CEF8C0F813AF8F4AF
:102FB000E2EAF2E088EA92E0DF012D91C21759F0CF
:102FC0008A179B07D1F76C2F80EA92E00E940308D2
:102FD000CF910C940A112191C21303C0DF01119704
:102FE0001C928E179F07B9F70E940A11ECCF80E25E
:102FF0008C0F883068F4C77021E030E001C0220FE8
:10300000CA95EAF780915706822B80935706E0CF46
:10301000EBE5EC0FE33040F4F0E0EC5BFD4F80813A
:1030200090E0CF910C94FB08E8E5EC0FE73150F409
:10303000F0E0EE0FFF1FE95BFD4F80819181CF91A2
:103040000C94E508CD3E30F08C2F0E94BC09CF9146
:103050000C94D911CF9108951F93CF93DF93182F1C
:10306000CAE0D0E0893311F4C0E5D0E0812F0E949E
:10307000CF178FE99FE00197F1F700C0000021977B
:10308000C1F7812FDF91CF911F910C94B415CF928E
:10309000DF92EF92FF920F931F93CF93DF936B0119
:1030A000C42FD22FFC0182818823C1F04093E9050F
:1030B0000E94FE109093B4028093B302C77081E027
:1030C00001C0880FCA95EAF7DF91CF911F910F9148
:1030D000FF90EF90DF90CF900C9464111091E90570
:1030E00014133DC08091B3029091B4020E94E8078E
:1030F0007C01C6010E943106E816F90680F5C0E29F
:10310000CD0F1D17B9F080E2810F883040F41770A1
:1031100081E001C0880F1A95EAF70E945D11C8305E
:1031200048F481E09D2F977001C0880F9A95EAF7C7
:103130000E946411802F0E942C18C830B8F4D770F8
:1031400081E001C0880FDA95EAF7DF91CF911F91F6
:103150000F91FF90EF90DF90CF900C945D11C770AE
:1031600081E001C0880FCA95EAF7EFCFDF91CF91D8
:103170001F910F91FF90EF90DF90CF900895AF9245
:10318000BF92CF92DF92EF92FF920F931F93CF9354
:10319000DF93EC018AE0A82EFE012491222309F49A
:1031A00094C0213009F03EC031968491813031F4D1
:1031B0002296FE0184910E942C1807C0823039F4B7
:1031C0002296FE0184910E94CF172196E5CF83308D
:1031D00031F42296FE0184910E94B415F6CF84301A
:1031E00009F071C02296FE01249190E080E0FE017A
:1031F00031962053330B2A30310548F0019728F3DC
:10320000EFE9FFE03197F1F700C00000F7CFA89E8B
:10321000A001A99E500D1124C901840F951F24916E
:10322000EF01E5CFE22FF0E0EE50FF4FB490822F98
:1032300086958695869590E0FC01EE51FF4FE490CF
:103240002770F12C022E02C0F594E7940A94E2F75D
:1032500031E0E322FF24FC01EE52FF4FC490D12C59
:10326000022E02C0D594C7940A94E2F7E1E0CE2280
:10327000DD24FC01EE53FF4F049110E002C01595D0
:1032800007952A95E2F701701127E114F10419F06E
:1032900081EE0E94CF17C114D10419F086EE0E946E
:1032A000CF178B2D0E942C18CD2819F086EE0E9486
:1032B000B415EF2819F081EE0E94B415012B09F422
:1032C00084CF8CE278CFEF0180CFDF91CF911F9137
:1032D0000F91FF90EF90DF90CF90BF90AF90089547
:1032E000CF93DF93EC01805E9109089720F063E5AE
:1032F00071E1209711F464E671E1CE010E94030DA3
:103300008C2FDF91CF910C94CF17FC0180818130FD
:1033100029F4FB01808191810C947019823021F491
:10332000FB0182819381F8CF0895CF93DF93EC0165
:103330008881823039F4FB01828193810E94701967
:1033400081E08B87DF91CF910895CF93DF93EC01DC
:103350000E9470198FE39CE90197F1F700C000000B
:10336000CE01DF91CF910C94ED15CF93C62F811133
:1033700081C084E00E949308811141C083E00E94D3
:103380009308882331F0CC2309F499C089EA90E0AE
:1033900021C082E00E949308882389F0809157061B
:1033A0008074CC2339F081112AC089EB90E00E940F
:1033B000BF1825C0811123C080EB90E0F8CF81E0D9
:1033C0000E949308882349F082E490E0C11102C072
:1033D0008EE390E00E94A51912C080915706982FA5
:1033E0009270CC2339F1992369F082E00E945D113B
:1033F0008CE191E00E94A51982E00E94641181E0B5
:10340000CF91089585FF03C08FE498E0E3CF82FF5A
:1034100003C08FE491E0DECF86FF03C08DE591E02D
:10342000D9CF84FF04C081E10E945D11EDCF89E115
:1034300091E0D0CF992331F082E00E945D118DE1BF
:1034400091E0D8CF85FF03C080E598E0C3CF82FF2D
:1034500003C080E591E0BECF86FF03C08CE591E01C
:10346000B9CF84FF04C081E10E945D11EDCF86E0F9
:1034700091E0B0CF813019F684E00E949308882350
:1034800031F0CC2309F461C08EE491E0A3CF83E056
:103490000E9493088823B1F0CC2349F089EA90E098
:1034A0000E94A51989EA90E00E94A5196FCF8AEAC7
:1034B00090E00E94A5198AEA90E00E94A5198AEA84
:1034C00090E088CF82E00E949308882339F08FE44F
:1034D00094E0C1117FCF80E594E07CCF81E00E9431
:1034E0009308811150CF0E949308882309F487CF55
:1034F00080915706982F9674CC23A1F091117FCF1D
:1035000080FF0DC01092570681EE90E00E94A51931
:103510008CE294E00E94A5198EEA90E048CF83FDEA
:1035200078CFB2CF91116BCF80FF0DC010925706AC
:1035300081EE90E00E94A5198CE294E00E94A5190A
:103540008CEA90E034CF83FD84CF8BE491E042CFCE
:1035500081EE90E00E94701980EE90E00E94701958
:1035600082EE90E00E94701983EE90E00C94701946
:103570000E943A0D809319018430B9F028F482300A
:1035800081F0833059F00895873091F0883099F0B8
:103590008530A1F482EE90E00E94701984E490E0FE
:1035A00002C08EE290E00C94701980EE90E0F4CFAF
:1035B00081EE90E0F1CF0E94A81AF0CF08950E940A
:1035C0003A0D809317018430B9F028F4823081F0ED
:1035D000833059F00895873091F0883099F0853024
:1035E000A1F482EE90E00E94701983E490E002C0A2
:1035F0008DE290E00C94701980EE90E0F4CF81EEB3
:1036000090E0F1CF0E94A81AF0CF08950E943A0DE1
:10361000809315018430B9F028F4823081F0833032
:1036200059F00895873091F0883099F08530A1F4F1
:1036300082EE90E00E94701982E490E002C080E384
:1036400090E00C94701980EE90E0F4CF81EE90E061
:10365000F1CF0E94A81AF0CF08950E943A0D8093EE
:1036600013018430B9F028F4823081F0833059F0AE
:103670000895873091F0883099F08530A1F482EE7A
:1036800090E00E94701981E490E002C085E292E02F
:103690000C94701980EE90E0F4CF81EE90E0F1CFC1
:1036A0000E94A81AF0CF08950E943A0D809311014C
:1036B0008430B9F028F4823081F0833059F00895D5
:1036C000873091F0883099F08530A1F482EE90E057
:1036D0000E94701980E490E002C084E292E00C94B1
:1036E000701980EE90E0F4CF81EE90E0F1CF0E946F
:1036F000A81AF0CF08950E943A0D80930F018430EC
:10370000B9F028F4823081F0833059F00895873081
:1037100091F0883099F08530A1F482EE90E00E941B
:1037200070198FE390E002C083E292E00C9470196C
:1037300080EE90E0F4CF81EE90E0F1CF0E94A81AE5
:10374000F0CF08950E943A0D80930D018430B9F0B6
:1037500028F4823081F0833059F00895873091F059
:10376000883099F08530A1F482EE90E00E947019C3
:103770008EE390E002C082E292E00C94701980EE39
:1037800090E0F4CF81EE90E0F1CF0E94A81AF0CF44
:1037900008950E943A0D80930B018430B9F028F40B
:1037A000823081F0833059F00895873091F088306D
:1037B00099F08530A1F482EE90E00E9470198DE3BB
:1037C00090E002C081E292E00C94701980EE90E0EB
:1037D000F4CF81EE90E0F1CF0E94A81AF0CF0895C7
:1037E0000E943A0D809309018430B9F028F48230A8
:1037F00081F0833059F00895873091F0883099F046
:103800008530A1F482EE90E00E9470198CE390E084
:1038100002C080E292E00C94701980EE90E0F4CF48
:1038200081EE90E0F1CF0E94A81AF0CF08950E9497
:103830003A0D809307018430B9F028F4823081F08A
:10384000833059F00895873091F0883099F08530B1
:10385000A1F482EE90E00E9470198BE390E002C028
:103860008FE192E00C94701980EE90E0F4CF81EE3D
:1038700090E0F1CF0E94A81AF0CF08950E943A0D6F
:10388000809305018430B9F028F4823081F08330D0
:1038900059F00895873091F0883099F08530A1F47F
:1038A00082EE90E00E9470198AE390E002C08EE1FF
:1038B00092E00C94701980EE90E0F4CF81EE90E0ED
:1038C000F1CF0E94A81AF0CF08952F923F924F9205
:1038D0005F926F927F928F929F92AF92BF92CF92A0
:1038E000DF92EF92FF920F931F93CF93DF9300D05D
:1038F0000F92CDB7DEB74C01DC0113964D915C9170
:10390000149711966C9111978C910E94CE08811199
:103910000C94862721E0F4014081518162817381FA
:1039200084810E94CB0C9B838A83D40112968C9154
:1039300081113EC08A819B8181509545AA81BB81BE
:103940008F3F910508F477C0F401F281F983FF23DA
:1039500009F4E1C2AF3FB10509F008F49AC0AB32F7
:10396000BD4509F46BC01092E3028091E605811118
:10397000C7C3A981A11110C04A805B8025E042160F
:103980002DE5520609F482C308F041C344E0441611
:103990004DE5540609F46CC3EA81FB81EF55FD4502
:1039A000EF30F10508F045C4E451FA4C0C9452355F
:1039B000809126028F3F09F4BDCF0EE111E0F12C7A
:1039C000E12CDD24D39480912602082E000C990B63
:1039D0008E159F050CF4AECFF8018681882329F15E
:1039E000818592854A805B808415950539F48091A4
:1039F000E7059091E80584159505B9F0D8011F9663
:103A0000DC921F974A805B801C965C924E921B97BB
:103A100051968C91811103C0C8010E946E11C8019A
:103A200006960E948F11109256062FEFE21AF20AA4
:103A30000A5E1F4FC8CF35E5B32786CF8091E302DA
:103A400091E089278093E30280915406877011F4F6
:103A50000C948627D40112968C91882311F40C942F
:103A6000862782E00F900F900F90DF91CF911F91EA
:103A70000F91FF90EF90DF90CF90BF90AF909F900D
:103A80008F907F906F905F904F903F902F900C940D
:103A90004A128091E302882309F4E9C01092E302FC
:103AA000A03CB105F0F5A038B10508F0AAC0A034DB
:103AB000B10508F070C021E030E040E050E060E087
:103AC00070E080E090E00A2F0E945835E091C30238
:103AD0002E2BE091C4023E2BE091C5024E2BE091CB
:103AE000C6025E2BE091C7026E2BE091C8027E2BCE
:103AF000E091C9028E2BE091CA029E2B2093C30253
:103B00003093C4024093C5025093C6026093C7022B
:103B10007093C8028093C9029093CA02BB83AA83A0
:103B200024CFAF3FB10509F030F68D01005C1109DB
:103B300021E030E040E050E060E070E080E090E0C4
:103B40000E945835E091DB022E2BE091DC023E2BE7
:103B5000E091DD024E2BE091DE025E2BE091DF0270
:103B60006E2BE091E0027E2BE091E1028E2BE09142
:103B7000E2029E2B2093DB023093DC024093DD02B5
:103B80005093DE026093DF027093E0028093E102C3
:103B90009093E202C3CF8D010054110921E030E07F
:103BA00040E050E060E070E080E090E00E94583536
:103BB000E091CB022E2BE091CC023E2BE091CD0286
:103BC0004E2BE091CE025E2BE091CF026E2BE09166
:103BD000D0027E2BE091D1028E2BE091D2029E2B5F
:103BE0002093CB023093CC024093CD025093CE026F
:103BF0006093CF027093D0028093D1029093D2024F
:103C00008DCF8D010058110921E030E040E050E0F7
:103C100060E070E080E090E00E945835E091D302CF
:103C20002E2BE091D4023E2BE091D5024E2BE09159
:103C3000D6025E2BE091D7026E2BE091D8027E2B4C
:103C4000E091D9028E2BE091DA029E2B2093D302D1
:103C50003093D4024093D5025093D6026093D7029A
:103C60007093D8028093D9029093DA0257CFA03490
:103C7000B10508F067C0E091C302F091C4027090F2
:103C8000C5026090C6025090C7024090C8023090B2
:103C9000C9022090CA0221E030E040E050E060E03C
:103CA00070E080E090E00A2F0E945835AE2EA222EC
:103CB000BF2EB322C72CC422D62CD522E52CE62257
:103CC000F42CF722032D0823122D19230E9471359D
:103CD00009F04BCEA03CB10508F08EC0A038B1056C
:103CE00008F0EBC0A034B10508F0B9C021E030E025
:103CF00040E050E060E070E080E090E00A2F0E9439
:103D000058352095309540955095609570958095E3
:103D100090952E233F23472156216521742183212D
:103D200092212093C3023093C4024093C502509362
:103D3000C6026093C7027093C8028093C902909331
:103D4000CA0282CEA038B105E0F4E091CB02F09136
:103D5000CC027090CD026090CE025090CF02409085
:103D6000D0023090D1022090D20221E030E040E039
:103D700050E060E070E080E090E08D0100541109B7
:103D800093CFA03CB105E0F4E091D302F091D402CE
:103D90007090D5026090D6025090D7024090D80221
:103DA0003090D9022090DA0221E030E040E050E08B
:103DB00060E070E080E090E08D010058110974CF60
:103DC000E091DB02F091DC027090DD026090DE0297
:103DD0005090DF024090E0023090E1022090E20239
:103DE00021E030E040E050E060E070E080E090E012
:103DF0008D01005C110958CFAF3FB10511F008F0FB
:103E000075CF8D01005C110921E030E040E050E009
:103E100060E070E080E090E00E9458352095309599
:103E20004095509560957095809590952E233F23F1
:103E30004721562165217421832192212093DB02A1
:103E40003093DC024093DD025093DE026093DF0288
:103E50007093E0028093E1029093E202F5CD8D0130
:103E60000054110921E030E040E050E060E070E0F3
:103E700080E090E00E94583520953095409550950F
:103E800060957095809590952E233F23472156216C
:103E900065217421832192212093CB023093CC029F
:103EA0004093CD025093CE026093CF027093D00224
:103EB0008093D1029093D202C7CD8D010058110991
:103EC00021E030E040E050E060E070E080E090E031
:103ED0000E94583520953095409550956095709585
:103EE000809590952E233F234721562165217421EB
:103EF000832192212093D3023093D4024093D502A0
:103F00005093D6026093D7027093D8028093D9025F
:103F10009093DA0299CDAF3FB10511F008F025CDAD
:103F2000A034B10550F5A090C302B090C402C09077
:103F3000C502D090C602E090C702F090C802F0918E
:103F4000C902E091CA0221E030E040E050E060E0C8
:103F500070E080E090E00A2F0E945835A222B32240
:103F6000C422D522E622F7220F2F08231E2F192361
:103F70000E94713509F0F9CC67CDA038B105E0F4A5
:103F8000A090CB02B090CC02C090CD02D090CE02D7
:103F9000E090CF02F090D002F091D102E091D202F5
:103FA0008D010054110921E030E040E050E060E074
:103FB00070E080E090E0D0CFA03CB105A0F4A090EC
:103FC000D302B090D402C090D502D090D602E09037
:103FD000D702F090D802F091D902E091DA028D0177
:103FE00000581109E0CFA090DB02B090DC02C09035
:103FF000DD02D090DE02E090DF02F090E002F0916E
:10400000E102E091E2028D01005C1109CCCF4A800F
:104010005B8027E042162DE5520609F443C038E0E4
:1040200043163DE5530609F0B7CC00911A011091F3
:104030001B01C0908B06D0908C06E0908D06F0900E
:104040008E060E94AC120E949D122EED35E03B833D
:104050002A834A805B8004151505E9F18A819B81DA
:104060000E94651C8A819B8106979B838A83F1CF7E
:104070000E94AC120E949D1284EE92E09093E5059E
:104080008093E40581E08093E605DECC0E94AC12CB
:104090000E949D128EED95E09093E5058093E405D6
:1040A00082E0F1CF00911C0110911D01C0908B06A0
:1040B000D0908C06E0908D06F0908E060E94AC1297
:1040C0000E949D1284EE92E09B838A834A805B80EB
:1040D0000415150559F40E94AC12C0928B06D092BB
:1040E0008C06E0928D06F0928E06AECC8A819B8182
:1040F0000E94651CAA81BB811696BB83AA83E6CF6A
:104100002A813B8124503D4523303105E0F591E083
:104110006A807B8026E062162DE5720609F490E045
:10412000A981A91709F490CC813029F08230B9F027
:104130001092E60589CC8091E4059091E505B2E006
:10414000843E9B0729F0FC0136972281211105C08E
:1041500090931D0180931C01EBCFCF01F0CF809194
:10416000E4059091E505E5E08E3D9E0729F0FC0110
:1041700036962281211105C090931B0180931A016C
:10418000D7CFCF01F0CF813029F1823009F004CCB4
:1041900020911C0130911D01A091E405B091E5052D
:1041A000E981E11105C0F5E0AE3DBF0709F4F4CBAC
:1041B000CD0106962817390709F4EECB86E0F40105
:1041C00001900D928A95E1F78091E4059091E505C3
:1041D000069721C020911A0130911B01A091E4059E
:1041E000B091E505F981F11105C042E0A43EB407A4
:1041F00009F4D2CBCD0106972817390709F4CCCBA7
:1042000086E0F40101900D928A95E1F78091E40532
:104210009091E50506969093E5058093E405BCCB67
:10422000D40112968C91882321F08DED99E00E94A3
:10423000BF188A819B8197558F3F910511F008F037
:10424000ECC020912602022E000C330B28173907F0
:1042500014F480932602F401228136E1389F700124
:10426000399FF00C11248701025E1E4FD801509631
:104270002C935097928116968C911697992309F456
:10428000BEC04A805B801A965C924E9219978F5FEF
:1042900016968C930E94FE10D8011E969C938E93C6
:1042A0001D9780915A0617968C9317978091560602
:1042B00090915706892B18968C931897ED91FC9145
:1042C0001197309739F054966D917C91C7018C5DB0
:1042D0009E4F09954A805B805092E8054092E70521
:1042E000D40112968C91882309F4DAC51092E9055D
:1042F0004A805B8022E042162CE5520608F4EBC5AA
:1043000036E143163CE5530638F092012B5F3C45FD
:104310002930310508F0DFC50E94AF0D9093680683
:10432000809367064A805B8020E142162CE55206A6
:1043300009F490C108F00FC148E044164CE554065A
:1043400009F47AC108F0D4C094E049169CE55906F6
:1043500009F46AC108F0B4C0B2E04B16BCE55B06D4
:1043600009F45CC1809167068260E3E04E16ECE5DB
:104370005E0609F456C1609167064090680649825E
:1043800084E090E00E949E35698182E290E00E9484
:104390009E350E94AC1258CBF4018281882309F427
:1043A00048CF80ED99E043CFD40112968C918823B9
:1043B00009F43FCF8BEB99E03ACFF4018281882357
:1043C00009F437CF8BEA99E032CFD40112968C9161
:1043D000882309F42ECF88EA99E029CFF40182815D
:1043E000882309F426CF8FE899E021CFD4011296D3
:1043F0008C91882309F41DCF85E899E018CF882394
:1044000009F46ECF51968C91882309F469CFC701C6
:104410008C5D9E4F0E948F1163CF4A805B8024EF9A
:1044200042162CE55206A1F1C8F449ED44164CE5BC
:10443000540641F18AED48168CE55806D9F198EDFD
:1044400049169CE5590609F04BCF06E221EE41EEF4
:1044500068ED7CE5C4010E944718F6CA4A805B807B
:1044600026EF42162CE55206F9F0C0F047EF44164D
:104470004CE5540609F034CF07E225EE46EE67EF2F
:104480007CE5E8CF07E225EE45EE69ED7CE5E2CF7D
:1044900006E221EE40EE64EF7CE5DCCF07E225EE9C
:1044A00044EE65EF7CE5D6CF06E221EE42EE66EF04
:1044B0007CE5D0CF08E221E045EE6AED7CE5CACF8D
:1044C0004A805B8080916706806126E042162CE579
:1044D000520609F4A6C080916706886037E043164B
:1044E0003CE5530608F49DC080916706806299C040
:1044F0004A805B80809167068D7F2CE042162CE518
:10450000520609F48EC078F4809167068C604AE008
:1045100044164CE5540609F484C008F491C0809117
:1045200067068E7F7EC04A805B8080916706877FAA
:104530002EE042162CE5520609F473C080916706FE
:104540008B7F3FE043163CE5530608F46AC0809138
:1045500067068F7E66C04A805B802CEF42162CE592
:10456000520609F465C078F543E144164CE554065B
:1045700009F478C090F491E149169CE5590609F4D4
:104580006DC0A2E14A16ACE55A0609F0F4CE0E94CD
:10459000AC12809167068F7744C04A805B8025E12A
:1045A00042162CE5520609F465C008F479C08091E2
:1045B000680681604BEF44164CE5540609F0DBCEEB
:1045C00080936806D8CE4A805B8041142DE5520660
:1045D00009F44CC068F4809168068D7F4EEF441654
:1045E0004CE5540669F390F1809168068360E8CF4A
:1045F0004A805B8022E042162DE5520609F459C03C
:1046000008F444C060E043E044164DE5540609F068
:10461000B2CE8EE090E00E949E35ADCE80916706CE
:10462000816080936706A7CE809167068460F9CF8A
:10463000809168068260C4CF809167068064F1CF64
:104640000E94AC12809167068068EBCF809168066B
:104650008E7FB6CF809167068F7DE3CF809167060E
:104660008F7BDFCF80916706837FDBCF80916806E9
:104670008C7FA6CF8091670682FB992790F921E075
:10468000922790FB82F990FB83F9CBCF809168064B
:10469000982F909591708E7F892B90FB81F990CF08
:1046A0000E94AC1290916706892F97FB87F980587A
:1046B000B8CF61E0AECF85E300C48823A9F06A805B
:1046C0007B802BE562162DE5720609F482C008F0A6
:1046D0005AC061144CE5740609F46BC08FED68167E
:1046E0008CE5780609F472C0F40182814080518023
:1046F0005B824A82882309F470C0C2010E940E0CBA
:10470000182F682F8A819B810E9465086A817B81AE
:10471000812F0E94700A8A83192FE82ED4011296E5
:10472000BC91B983F401058102950F708091540604
:104730008770C9F0DB2EBB23B9F0892F807F8034CE
:1047400049F09E2D905E983070F0803619F4F6EFA7
:10475000EF1649F082E00E944A1280915406877059
:10476000DD24D3948111D12CC12EC2945FE0C522E7
:104770006BE0462E4C1408F469C0EC2DF0E0E550D7
:10478000FA4C0C9452354A805B802CE542162DE59C
:10479000520609F13DE54316530609F0A5CF809175
:1047A000680682FB882780F991E089270E94D40E51
:1047B0009BCF0E94AC124FEF84E39CE041508040BD
:1047C0009040E1F700C000000E94D7070E94690EE8
:1047D0003BC981E0EBCF80E0E9CF8A819B810E94D9
:1047E0003C08182F93CF012F0F70812F807F11F07D
:1047F0000295007F59805520C9F0002369F08A8115
:10480000805E883010F0E1100BC080915706082BB5
:10481000009357060E940A118A810E94CF1716C082
:1048200080915606082B00935606F4CF8A810E9489
:10483000B415002359F02A81205E283010F0E110D1
:1048400055C0802F0E9428080E940A112C2D285044
:10485000330B2430310510F40E94110949804420A3
:1048600079F0107F103621F486EF582EE51441F0D0
:104870008091ED05823009F007C383E08093ED0558
:10488000DD20B1F08091540680FD12C0D401129653
:104890001C928595859585950E946612C4010E949B
:1048A000651C809154068595859585950E942712F3
:1048B00020E0F401408151816281738184810F90F5
:1048C0000F900F90DF91CF911F910F91FF90EF907C
:1048D000DF90CF90BF90AF909F908F907F906F9020
:1048E0005F904F903F902F900C94CB0C009580914F
:1048F0005606082300935606A7CF312F3F70F32E9C
:10490000812F807F803219F0F29440EFF422EE2064
:1049100059F041E0E41609F448C06980662009F4C2
:104920004FC0002351F178CF4980442041F101115B
:1049300006C080915A068F290E94641187CF0130EA
:1049400099F48091680682FD81CF80915A06F82AF9
:10495000F81609F47BCF0E94FE10909359068093BD
:104960005806F0925A0672CF033019F70E941D08BC
:1049700080915106F812F09251068F2DDDCF011172
:1049800006C00E941D088F2D0E945D115FCF01306F
:1049900041F4809157068F2109F458CF0E943608C0
:1049A000F0CF033009F452CFECCF5980552021F0DD
:1049B000063008F04BCFE1CF053008F047CFE3CF0A
:1049C000002309F339E3732EE710C3C12FEF37EE4D
:1049D00043E0215030404040E1F700C000008A81B0
:1049E0000E94B41533CF812F86958695837071F020
:1049F000813009F02BCF59808A81912F937051100B
:104A000002C090E080E00E94E50820CF49808A81C2
:104A1000912F9370411002C090E080E00E94FB084B
:104A200015CF69808A81662029F00E94BC090E9406
:104A3000D9110CCF0E941D09FACF812F837009F084
:104A400069C07980711002CF2A812295269527703E
:104A5000220F220F4A814F7050E070E060E0022E7A
:104A600004C0440F551F661F771F0A94D2F74A806F
:104A700080E090E0DC0144FE0FC08FE090E0A0E019
:104A8000B0E004C0880F991FAA1FBB1F2A95D2F758
:104A900080959095A095B095212F26952695237009
:104AA000223029F1D8F440905B0650905C0660906B
:104AB0005D0670905E06213069F0842B952BA62B45
:104AC000B72BBC01CD0164217521862197210E945D
:104AD000A212BCCE44295529662977292A013B0117
:104AE000482A592A6A2A7B2AC301B201F0CF842BB3
:104AF000952BA62BB72B40905B0650905C066090E0
:104B00005D0670905E06BC01CD0164257525862585
:104B10009725DDCF59808695552011F0812F817022
:104B2000882309F493CE2A81229526952770220F97
:104B3000220F4A814F7050E070E060E0022E04C006
:104B4000440F551F661F771F0A94D2F76A8080E0D2
:104B500090E0DC0164FE0FC08FE090E0A0E0B0E0E8
:104B600004C0880F991FAA1FBB1F2A95D2F78095F2
:104B70009095A095B095212F2695269523702230EB
:104B800029F1D8F440908B0650908C0660908D06E9
:104B900070908E06213069F0842B952BA62BB72BB5
:104BA000BC01CD0164217521862197210E941D122F
:104BB0004DCE44295529662977292A013B01482AE7
:104BC000592A6A2A7B2AC301B201F0CF842B952B84
:104BD000A62BB72B40908B0650908C0660908D06CC
:104BE00070908E06BC01CD0164257525862597251C
:104BF000DDCF012F0F705980552029F0802F0E94A2
:104C000066128A8199CE8A810E945D11802F0E944E
:104C100027121CCE8A8122EF622EE61409F459C0B5
:104C20006E1488F090EF792EE71451F121EFE2161F
:104C300009F446C04980442009F486C00111ECCD36
:104C4000812F8F7143C033EFE31609F448C044EF5E
:104C5000E412F0CF809151064980442009F461C0EC
:104C60000E942808809154068770843009F04BC058
:104C70000E942F08812F8F710E942712D12CE6CD20
:104C800049804420C9F0053008F0E0CD212F2F7174
:104C900061E070E080E090E004C0660F771F881F3D
:104CA000991F2A95D2F740908B0650908C06609001
:104CB0008D0670908E0698CF063008F0C7CDE6CFEF
:104CC000812F8F715980552009F4A1CF0E9466125F
:104CD000BDCD812F8F7169806620C1F398CF798017
:104CE000772071F0212F2F7161E070E080E090E07B
:104CF00004C0660F771F881F991F2A95D2F756CFD9
:104D00000E949D12A3CD033008F0B8CF212F2F7140
:104D10002A83822F0E94661263E08A810E94871292
:104D2000ADCF90915706982B90935706033040F0E3
:104D30000E942F080E94360864E0812F8F71EECF09
:104D400081E00E944A129ACF002341F0893309F48E
:104D50003DCE8FE39CE90197F1F73FCE812F8F7114
:104D600056CFEA81E05FE73008F061C0F0E0E95F2C
:104D7000F94C0C9452354980442009F467CD809158
:104D8000F00591E0892707C059805092F0055ECD6B
:104D900081E0698086258093F00558CD798081E097
:104DA0007720C9F353CD4980411050CD1092F005C2
:104DB0004DCD59805520C1F082E08093ED0581E012
:104DC0008093F0050E94FE109093EC058093EB0514
:104DD0002091520630915306232B09F437CD90933E
:104DE00053068093520632CD8091ED05823021F436
:104DF00081E08093ED052ACD833009F027CD109214
:104E0000ED051092F0051092EC051092EB051ECD09
:104E10006980662041F08091EF05882309F4AFCFC7
:104E20001092EF0513CD053008F010CDA8CF80917A
:104E3000EF050023E1F0882341F08091F00591E037
:104E400089278093F0051092EF0579807110E4CCEA
:104E50008FE39CE90197F1F700C000008A810E946E
:104E6000B41586E0D4011D928A95E9F7EFCC88232A
:104E700009F4ECCC49804110E9CC8091F00591E037
:104E800089278093F005CCCF813009F0F9CC1092BE
:104E9000ED051092F0051092EC051092EB05F0CCA8
:104EA0004A805B8026E142162CE5520609F01CCCB4
:104EB0008091EA058111FFCB89E2E2EAF2E028EA7B
:104EC00032E09191891303C0DF0111971C922E17D4
:104ED0003F07B9F717C04A805B8026E142162CE5F0
:104EE000520609F0EACB809157068A7A91E009F4DC
:104EF00090E09093EA0569E2811165E380EA92E02F
:104F00000E9403080E940A110C94241D0F900F9018
:104F10000F90DF91CF911F910F91FF90EF90DF9055
:104F2000CF90BF90AF909F908F907F906F905F9049
:104F30004F903F902F900895BF92CF92DF92EF92C3
:104F4000FF920F931F93CF93DF938091F605807F9D
:104F500061F48091F305882341F0C091280686E032
:104F6000B82E8091F7058C130AC0DF91CF911F9165
:104F70000F91FF90EF90DF90CF90BF900895F09049
:104F8000F105E090F205C090F405D090F505A6017A
:104F90006E2D8F2D0E94CE08D0E081113FC0BC9EA7
:104FA0008001BD9E100D1124F801E850FA4F518187
:104FB0005E1134C040814F1131C0828181112EC0F9
:104FC000E380F480EC18FD0820E06091F305709117
:104FD000F4058091F5050E94CB0C0E943106E8167D
:104FE000F906E0F48091F6058F7080618093F605F4
:104FF000F801E350FA4F80818F708061808381EFE8
:1050000095E00E94651CDF91CF911F910F91FF9059
:10501000EF90DF90CF90BF900C94D9082196C77085
:10502000A0CF5F926F927F928F929F92AF92BF922A
:10503000CF92DF92EF92FF920F931F93CF93DF9364
:10504000CDB7DEB761970FB6F894DEBF0FBECDBF08
:105050008C0185E0F801DE011D9601900D928A9584
:10506000E1F7D8017C901196EC90119712966C9014
:1050700081EFA82E85E0B82E8090F4059090F5057C
:10508000A4016091F2058091F1050E94CE08811182
:105090009BC1F801C380D480F090F305C601881944
:1050A00099094C0120E04091F1055091F205FF2053
:1050B00009F443C16F2D7091F4058091F5050E94AC
:1050C000CB0C0E9431065090F6058816990608F020
:1050D000F5C04091F4055091F505B090F105A09010
:1050E000F205852D807F6A2D09F0A1C08B2D0E94CD
:1050F000CE08F62C81112BC0AE1029C0B71027C0E6
:10510000611025C0852D8F7080618093F60581EF39
:1051100095E00E94651C8091F605D80115968C9348
:105120008F2D61960FB6F894DEBF0FBECDBFDF9115
:10513000CF911F910F91FF90EF90DF90CF90BF9094
:10514000AF909F908F907F906F905F90089520E038
:105150004091F1055091F2056091F3057091F405CD
:105160008091F5050E94CB0C0E9431065C01A601DE
:105170006E2D872D0E94CE08D82EB4EFAB16B1E06D
:10518000BB06D0F081E08625D11080E080FF14C0FE
:10519000462D6E2D872D0E94AE08882369F081EF81
:1051A00095E00E94651C86E0E1EFF5E0DF011D92CD
:1051B0008A95E9F7F12CB4CF81E08625D11080E003
:1051C000B82FB170CB2E80FF29C0462D6E2D872DB4
:1051D0000E94AE08D82E811121C07D86EE868D8575
:1051E0009E850E94500C292F22952F70223050F05E
:1051F000243078F49F7051F0F8019581907F31F45C
:10520000FD2C8ECF9F7011F08823D1F3805E883003
:10521000B8F3C8010E94651CDC2CF2CF662009F4AB
:105220007FCF8091F60581608093F605C3CF8B2DEB
:105230000E94CE08811115C0AE1013C0B71011C066
:1052400061100FC0D80115965C92C8010E94651CC0
:1052500086E0F801A1EFB5E001900D928A95E1F7A3
:105260005FCF7D86EE868D859E850E945A0C8823B1
:1052700009F16620F9F08091F605803270F02091F6
:10528000F1053091F20538872F831986DB86CA86AF
:105290008C87CE0107960E94651C86E0F801A1EF7D
:1052A000B5E001900D928A95E1F70E949C27FF24BA
:1052B000F39436CFC8010E94651CF9CF852D807FFD
:1052C00009F46DCF9090F1058090F2054091F405BE
:1052D0005091F505682D892D0E94CE08811111C0CD
:1052E0008E100FC097100DC061100BC0F8015582D1
:1052F000C8010E94651C86E0D5011D928A95E9F7D8
:105300000FCF7D86EE868D859E850E945A0C882360
:1053100089F2662079F28091F605803208F4BDCFDB
:105320002091F1053091F2053A8329831B82DD82B9
:10533000CC828E83CE010196AECF60E07091F405F1
:105340008091F5050E94CB0C0E94310688169906C3
:1053500090F6F62C662009F4ADCFD090F105C09000
:10536000F2054091F4055091F5056C2D8D2D0E94AC
:10537000CE08811118C0CE1016C0D71014C080916D
:10538000F60580FD65CF982F907F09F461CFF80175
:105390008583903F09F459CF982F907F905F8F704D
:1053A000892B858352CF7D86EE868D859E850E94D2
:1053B0005A0C811172CF8091F60581608093F605B9
:1053C000C8010E94651CACCE662009F473CF7D86AF
:1053D000EE868D859E850E945A0CF82E882309F44E
:1053E00069CF86E0F801A1EFB5E001900D928A95B2
:1053F000E1F78091F1059091F2050E94500C929591
:105400009F70963051F4863F41F08091F00591E015
:1054100089278093F0059093EF050E949C2780CE0A
:10542000FF920F931F93CF93DF93CDB7DEB76797AC
:105430000FB6F894DEBF0FBECDBFF62E6D8B7E8B00
:105440008F8B142F052F6111109256064E895F899C
:10545000602F812F0E94CE08811128C081E090E04A
:10546000012E01C0880F0A94EAF7A02FB0E0A754DC
:10547000BD4F2C913091F005F11002C0322F38232E
:10548000332309F47FC0412F50E036E0039F400DE5
:10549000511D1124440F551FFA01E25FF64F04918C
:1054A000FA01E35FF64F1491822B8C931A8A198AC2
:1054B0001B8B0C8B85E0FE017396DE011D9601901F
:1054C0000D928A95E1F70E94FE10209152063091CC
:1054D0005306821B930B883E934020F08091540624
:1054E00082FF9CC00E94FE10209158063091590600
:1054F000821B930B883E934010F00E941D080E946F
:10550000FE102091EB053091EC05821B930B883E39
:10551000934028F08091ED05813009F476C086E053
:10552000FE013D96DE01179601900D928A95E1F7F6
:10553000CE0107960E941128811111C086E0FE015C
:105540003796DE01119601900D928A95E1F74A8512
:105550005B8568858F810E94CE088823B1F016E0B4
:10556000809128069091F70589133CC067960FB685
:10557000F894DEBF0FBECDBFDF91CF911F910F9189
:10558000FF9008958095822390CF2091F70530E019
:10559000C901019687709927409128064817190676
:1055A00099F096E0929FD001939FB00D1124A850DE
:1055B000BA4FFE01319601900D929A95E1F78093D2
:1055C000F7050E94D908CBCF0E94AC121092F705C4
:1055D0001092280686E0E1EFF5E0DF011D928A9542
:1055E000E9F7BDCF819FC001112488509A4F0E94D6
:1055F0001128882309F4BACF8091280690E00196FB
:105600008770992780932806ABCF1092ED051092F2
:10561000F0051092EC051092EB0581CF82E00E941C
:105620004A1260CF8F929F92AF92BF92CF92DF9239
:10563000EF92FF920F931F93CF93DF9300D000D090
:105640000F92CDB7DEB705E712E099E6C92E96E0D6
:10565000D92E4601F12CAA24A394B12CD8018D9106
:105660008D01F894E82FE295EF70F0E021A18F70A2
:10567000A50102C0440F551F8A95E2F7CA01922F77
:10568000982B91A392A18095892382A3789400C03E
:10569000EFE7F2E030E020E0E12C4191A42FA29569
:1056A000AF70B0E090968C9190E04F7002C09595ED
:1056B00087954A95E2F780FD48C08A2D022E01C0E9
:1056C000880F0A94EAF7E82A2F5F3F4F263031050A
:1056D00021F7F801319780810E94160A50EA5A9505
:1056E000F1F7D4018C91E81691F1EC9281E0F82A5F
:1056F000BFEF8B1A9B0AE2E00A371E0709F0AECF14
:1057000010917406FF2029F181E08093AA020E9483
:10571000FE109093A9028093A8028091A802909114
:10572000A9020E94E8070697C0F0E12FF0E0E958CF
:10573000F94FD6018D916D018193BEE6CB16B6E08F
:10574000DB06B9F71092AA0208C080E0BCCF80E067
:10575000CECF8091AA028111E0CF0E94460EE82EA2
:1057600060917406882309F4A6C08E010F5F1F4F55
:1057700085E0F80111928A95E9F7862F90E0B8014B
:105780008958994F0E942432811130C08091AB0218
:105790008F5F8093AB02863008F443C0E0917306BC
:1057A000F0E0E958F94FD801CE01069611921D920A
:1057B0008A179B07D9F7809126028F3F09F077C09F
:1057C000F11001C0FE2C8F2D0F900F900F900F90B5
:1057D0000F90DF91CF911F910F91FF90EF90DF908D
:1057E000CF90BF90AF909F908F9008951092AB0292
:1057F000A0917306B0E0A958B94F9E012A5F3F4FB0
:10580000E12C4D91F80191918F01491731F0AD01D3
:1058100041505109FA019083E82E0217130789F7C6
:10582000CACFE12CC8CFC89CF001C99CF00D11244F
:10583000E25EFE4FA288B388A114B10429F48185E9
:1058400092850E9431065C01C89C8001C99C100DA4
:105850001124025E1E4FD80116968C91169788234C
:10586000C9F01D968D919C910E94E807A816B90673
:1058700088F4DC9C50011124F8018189811105C054
:10588000C501825E9E4F0E946E11C5018C5D9E4FC8
:105890000E948F11D3948D2C912C80912602082E7A
:1058A000000C990B881599050CF0BDCF89CFD12C30
:1058B00086E1C82EF0CF70E06958794F8091730669
:1058C00090E08958994F0E9451327ACFCDB7DEB718
:1058D00062970FB6F894DEBF0FBECDBF84B7877F47
:1058E00084BF0FB6F894A89580916000886180937A
:1058F0006000109260000FBE80E890E00FB6F89450
:1059000080936100909361000FBE85B7806885BF6A
:1059100085B7806885BF82ED97E090939F02809362
:105920009E020E9448060E9413078091E200846054
:105930008093E20078948091E0088823A1F0109190
:10594000E9001F709091EC00892F817090FD80E834
:10595000182B1092E9008091E80083FD0E94B71295
:105960001F701093E90082E084BD93E095BD9AEF2B
:1059700097BD80936E001092630610926406109299
:105980006506109266060E94460E809327020E94CA
:10599000460E81110E9418328091270280912702C1
:1059A00095E0811190E09093740685E0891B8093C7
:1059B000730686E60E94160A87E90E94160A86EC9C
:1059C0000E94160A84E30E94160A85E30E94160AC2
:1059D00086EF0E94160A87EF0E94160A81E30E9452
:1059E000160A83E30E94160A82E30E94160A86E3DF
:1059F0000E94160AE9E6F6E083E796E0A7E7B6E03C
:105A000011921D928E179F07D9F790E080E00E94B7
:105A100098358A3E9E4F11F00E94690E82E090E018
:105A20000E9490358093C8080E94AF0D909368063D
:105A3000809367060E94122B8FE39CE90197F1F790
:105A400000C000000E94122B8091770680FF08C0E2
:105A50006FEF7FEF90E080E00E94BC350E94D70797
:105A600083E090E00E949035682F70E090E080E045
:105A70000E94A2120E94460E811102C00E941E3294
:105A80000E94460E811171C282E08093AF0880E8C7
:105A9000809388060E9472326DE070E080E09AE0A8
:105AA0000E94570D892BE9F58091AF0863E070E003
:105AB00081FD60C28DEF99E00E94570D892B89F519
:105AC0006DE070E08DEE99E00E94570D892B49F54D
:105AD0000E94F707605A75418F4F9F4F6093B3083C
