:100000000C9419030C9460030C9460030C94822DDF
:100010000C9460030C9460030C9460030C946003D4
:100020000C9460030C9460030C9485270C94412776
:100030000C94032C0C9460030C9460030C946003E8
:100040000C9460030C9460030C9460030C946003A4
:100050000C9460030C94DF2B0C9460030C946003ED
:100060000C9460030C9460030C9460030C94600384
:100070000C9460030C9460030C9460030C94600374
:100080000C9460030C9460030C9460030C94600364
:100090000C9460030C9460030C9460030C94600354
:1000A0000C9460030C9460030C9460030102E06103
:1000B000630103E0000102E061760103E00000005B
:1000C0000000000000000000000000000000000030
:1000D0000000000000000000000000000000000020
:1000E00000007E0F00D4FFFFFFC700000078000073
:1000F0000000000000002A2B280000000000000083
:1001000000000000000000000029000000002C1E7C
:100110003420212224342627252E362D3738271E39
:100120001F202122232425263333362E37381F045F
:1001300005060708090A0B0C0D0E0F1011121314F7
:1001400015161718191A1B1C1D2F3130232D3504B5
:1001500005060708090A0B0C0D0E0F1011121314D7
:1001600015161718191A1B1C1D2F3130354C354523
:10017000015702570357045705572B6314001A0001
:100180000800150017002961040016000700090087
:100190000A00E1001D651B00060019000500E300D0
:1001A0000100E20002512C621B010B570A5709574C
:1001B0000857075706572F63130012000C0018004A
:1001C0001C00347100570F000E000D000B00E500FD
:1001D0003865370036001000110031002845E60070
:1001E0002A432C42AE0029001E001F0020002100DF
:1001F00022002B0014001A00080015001700E00070
:1002000004001600070009000A00E1001D001B00A1
:1002100006001900050042002A00E20004512C00EB
:10022000A800065D2B5D055D045D085D075D2F0080
:10023000130012000C0018001C00340033000F00E3
:100240000E000D000B002A003800370036001000A9
:1002500011003100E700E6002A4328000153460060
:100260003A001F003C003D003E0039005F5D370250
:10027000300027023002065D625D36022F00260242
:100280002F02045D075D1B040604190405042B5DA1
:100290000100010001000100645D440043004200D0
:1002A000410040003F004500550026002500240085
:1002B000850057002700230022002100630058001A
:1002C000540020001F001E00010001000100560024
:1002D0004C01010001530100010001000100010077
:1002E000010001000100F100ED000100F900010032
:1002F000F200EF00EE00F000FA0001000100010042
:1003000001000100010001000100FD004C01FD00A1
:10031000010023082208210820081F081E084B009E
:10032000490001004D004A004C004E0028004F00DB
:10033000520051005000635D625D655D4F015001E8
:10034000665D0100E7004C010100010001000100B1
:100350000100010001000100010001000100010095
:100360000100010001000100010001000100010085
:100370000100010001000100010001000100010075
:100380000100010001000100010001000100010065
:100390000100010001000100010001000100010055
:1003A0000100010001000100010001000100010045
:1003B0000100010001000100010001000100010035
:1003C0000100010001000100090A01000100010013
:1003D0000100010001000100010001000100010015
:1003E00001000100605D615D01000100010001008C
:1003F00001000100010001000100010001000100F5
:100400000100A600A5000100010001000100005C40
:100410000100010001000100010001000100AB002A
:10042000AE00AC00010001000100A900A800AA0074
:1004300001000100010001000100010001000005B0
:10044000010502050305040505050006010602066F
:100450000306040605060007010702070307040751
:100460000507000801080208030804080508000938
:10047000010902090309040905090000010002003D
:100480000300040005000001010102010301040151
:100490000501000201020202030204020502000338
:1004A000010302030303040305030004010402041F
:1004B0000304040405040102E201013D0103E2001A
:1004C0000102E00101500103E00102E10102E0014B
:1004D000014F0103E00103E1003D3E0021232450D0
:1004E0007831303121003837316666353030393572
:1004F0003161000102E061780103E00005010902B9
:10050000A10185020901A1000509190129081500A9
:100510002501950875018102050109300931158110
:10052000257F95027508810609381581257F95017B
:1005300075088106050C0A38021581257F9501751D
:10054000088106C0C005010980A101850319012A9F
:10055000B700150126B700950175108100C0050C84
:100560000901A101850419012AA002150126A00292
:10057000950175108100C005010906A10105071943
:10058000E029E7150025019508750181029501759F
:100590000881010507190029FF150026FF009506AF
:1005A0007508810005081901290595057501910255
:1005B000950175039101C009023B00020100A0FAF8
:1005C00009040000010301010009211101000122B9
:1005D00040000705810308000A0904010001030027
:1005E0000000092111010001227B00070582032080
:1005F000000A120110010000000832FC870201000D
:10060000010200010C0353006F0066006C006500DE
:1006100000001A034A006F00730065006600410085
:10062000640061006D00630069006B00000004035A
:10063000090411241FBECFEFDAE0DEBFCDBF04B640
:1006400003FE27C08091B1069091B206A091B30637
:10065000B091B4068730904BA740B04BD1F41092C4
:10066000B1061092B2061092B3061092B40614BEF0
:1006700084B7877F84BF0FB6F894A89580916000F7
:10068000886180936000109260000FBEE0E0F8E3A4
:10069000099512E0A0E0B1E0ECE9FEE502C00590AA
:1006A0000D92AC38B107D9F726E0ACE8B2E001C052
:1006B0001D92A13BB207E1F70E945C280C94212F08
:1006C0000C9400008C3027E59207F0F4813027E588
:1006D0009207D8F58C3222E49207A1F138F4895FB1
:1006E0009109029770F48AE090E00895853325E43B
:1006F000920741F1811527E5920751F18A3293441F
:1007000009F18DE790E008958B3223E69207D1F04E
:1007100070F4893221E69207A9F08C3222E6920722
:1007200089F083369D4569F784EF91E008958D3116
:1007300025E6920739F0843321E7920719F08F32CA
:100740009346F9F68AEF90E0089588EC90E00895DA
:1007500084EB90E00895E8EDF0E080818E7F808367
:100760001092E2001092DA001092E100A0EEB0E0E8
:100770008C9181608C9380818F77808319BCA7EDE9
:10078000B0E08C918E7F8C9380818F7E80831092DD
:100790008C0608952091E4003091E50095E6A901CA
:1007A0002091EC00822F817020FF06C08091E8002C
:1007B00080FF06C080E008952091E80022FD1AC065
:1007C00080919906882389F0853089F08091EB002B
:1007D00085FD0FC02091E4003091E50042175307DA
:1007E000F9F29150E1F684E0089582E0089583E003
:1007F000089581E00895EF92FF920F931F93CF9396
:100800007C018B010E94CA03C82F811117C08091FF
:10081000E80085FD0BC08091E8008E778093E800AA
:100820000E94CA03882399F3C82F08C0F701819159
:100830007F018093F1000150110949F78C2FCF916E
:100840001F910F91FF90EF90089580919B0687FF75
:1008500013C08091E80082FF06C08091E8008B778A
:100860008093E80004C0809199068111F2CF089529
:10087000809199068823D9F38091E80080FFF8CF12
:100880008091E8008E77ECCF982F9093E900242F89
:10089000762F50E0891731F07091EC002091ED0037
:1008A0005091F00021FD07C09F5F973071F7809352
:1008B000E90081E008953091EB003E7F3093EB003A
:1008C0003091ED003D7F3093ED003091EB003160D1
:1008D0003093EB007093EC002093ED005093F00008
:1008E0002091EE0027FDE0CF80E00895CF92DF92C7
:1008F000EF92FF920F931F93CF93DF93C8EDD0E059
:1009000088818F7E8883E7EDF0E08081816080833D
:1009100084E082BF81E080938C0688818E7F88830B
:1009200002EE10E0F80110821092DA0081EEC82E7B
:10093000D12CF601108288818F7788838881806826
:10094000888388818F7D888319BC109299061092C4
:100950009A06109298061092970690EEE92EF12CC6
:10096000F70180818B7F808388818160888342E06A
:1009700060E080E00E944404F60180818E7F8083E5
:10098000F801808181608083808188608083F701A5
:1009900080818E7F8083888180618883DF91CF9181
:1009A0001F910F91FF90EF90DF90CF900895FC0181
:1009B0008091A1069091A20686179707A0F0611575
:1009C000710529F49091E8009E779093E80090E0FB
:1009D0006115710551F4911108C08091E80082FF02
:1009E00034C080E00895BC01F2CF8091990688233D
:1009F000C1F18530C1F18091E80083FD30C0809164
:100A0000E80082FDEACF8091E80080FFE1CF80918D
:100A1000F3002091F200382F6115710519F028308C
:100A2000310558F091E02830310509F090E020912F
:100A3000E8002E772093E800CBCF81918093F100DE
:100A4000615071092F5F3F4FE7CF8091990688234E
:100A500041F0853041F08091E80083FFBECF81E016
:100A6000089582E0089583E0089580E008958091DC
:100A70008E06089587E797E7909301088093000812
:100A800088E19AE00FB6F894A895809360000FBEB5
:100A900090936000FFCF9C014FB7F8948091470678
:100AA00090914806A0914906B0914A064FBF821B1B
:100AB000930B08952FB7F8946091470670914806FC
:100AC0008091490690914A062FBF08952FB7F89458
:100AD0008091470690914806A0914906B0914A0638
:100AE0002FBF08959C01FC0132969FEF80E0419159
:100AF000461751F09F3F19F4411101C0982F8F5FA5
:100B00008630A9F79F3F09F40895290F311D97FDFD
:100B10003A95F9016283089580914206882331F065
:100B20001092420610924106109240060895809558
:100B300090913F06982390933F06089580913F0639
:100B400090913E06892B90913D06892B80938E02D1
:100B500080914206882319F10E9466052091400683
:100B600030914106821B930B883E934010F00E9407
:100B70008C0580918E0290914206892B80938E0283
:100B800020E080E992E0FC013191CF0131112F5F2B
:100B9000F2E086399F07B9F721110E948C05E09198
:100BA0006206F0916306309731F00280F381E02D08
:100BB0008EE892E00994089510923C0610923B064C
:100BC00010923A06089580913906811110923906E3
:100BD0000895E92FEE0FE90FEE0F8E0F982F977003
:100BE00086958695869525E0829FF0011124EF5E1B
:100BF000F94F50E040E080E0219130E0092E02C042
:100C0000369527950A94E2F721703327042E01C008
:100C1000220F0A94EAF7822B4F5F5F4F4530510550
:100C200059F70895E92FEE0FE90FEE0F8E0F982F69
:100C3000977041E001C0440F9A95EAF78695869532
:100C4000869595E0899FF0011124EF5EF94F30E021
:100C500020E070E05191DF011197CB01022E02C01C
:100C6000969587950A94E2F781708195852784236C
:100C700085278C932F5F3F4F2530310559F7089515
:100C800040914F0650915006609151067091520666
:100C9000411551056105710529F441E0811140E0DC
:100CA000842F089504C076956795579547958A9542
:100CB000D2F74170F5CF209110069091DF0556E0F4
:100CC000291302C080E0089530E0529FF001539F45
:100CD000F00D1124E052FA4F7181761306C0708135
:100CE000781303C07281741304C02F5F3F4F2770C5
:100CF000E7CF81E00895452B39F0682381E06F3F0D
:100D000009F080E08170089581E0FCCF80911006A9
:100D10009091DF05981301C008958F5F8770FACF17
:100D2000882341F0809590913E06892380933E066A
:100D30000C949E050895882339F090913E06982BD7
:100D400090933E060C949E050895882321F00E94FE
:100D500097050C949E050895882339F090913F06DD
:100D6000982B90933F060C949E0508950C945A0579
:100D700020919F023091A0022817390771F09093BB
:100D8000A00280939F02E0916206F0916306309783
:100D900021F00084F185E02D0994089520919D02B1
:100DA00030919E022817390771F090939E0280932C
:100DB0009D02E0916206F0916306309721F0068073
:100DC000F781E02D09940895E0916206F0916306A1
:100DD000309721F00190F081E02D099480E0089592
:100DE000CF93DF93EC0181E0898B80913F069F8157
:100DF000892B80933F0680913E069885892B8093AE
:100E00003E060E949E05EA81FB81309739F06C898D
:100E10007D89CE010696DF91CF910994DF91CF9124
:100E20000895EF92FF920F931F93CF93DF93EC01FE
:100E30008A85811139C0EB80FC8087E5F81A26E1AC
:100E40002E9DC0012F9D900D1124DC01A45EBE4F8C
:100E50001496ED91FC911597309731F054966D9161
:100E60007C918E5D9E4F099586E18E9D80018F9DC0
:100E7000100D1124045E1E4FF80187810E94970512
:100E8000F8018085982F909580913E068923809364
:100E90003E060E949E05188219861B861E821D82B0
:100EA0001092D0051092CF05DF91CF911F910F9135
:100EB000FF90EF9008950E9466059C0190917C063A
:100EC00080917D06982B21F0309379062093780647
:100ED00090917E0680917F06982B21F030937606C4
:100EE00020937506E0916206F0916306309749F011
:100EF00082E080937A060480F581E02D8AE796E00F
:100F00000994089590E080E00E94CE0690E080E091
:100F10000E94B80610923E0610923D060E949E0561
:100F200086E0EAE7F6E0DF011D928A95E9F7109284
:100F30007706109274061092D6050C945B076093A6
:100F40004F067093500680935106909352060C946E
:100F500082070F931F9341E050E060E070E004C00F
:100F6000440F551F661F771F8A95D2F7CB01BA0130
:100F7000609570958095909500914F061091500660
:100F800020915106309152066023712382239323CE
:100F90001F910F910C949F0790913C068095892397
:100FA00080933C06282F277039F4282F082E000C38
:100FB000330B9217130621F49091540692FF07C049
:100FC0008595859585950E94A9070C94DC05089563
:100FD0000F931F9341E050E060E070E004C0440FC5
:100FE000551F661F771F8A95D2F780914F06909103
:100FF0005006A0915106B09152068A019B01082B20
:10100000192B2A2B3B2BC901B8011F910F910C946E
:101010009F079091540692FD10C098E0899F90011F
:101020001124622B60933C060E94E8070E9466052B
:1010300090933B0680933A0608950C94E80760E08D
:1010400070E0CB010C949F076093430670934406B5
:1010500080934506909346060C94820740917C0647
:101060008D3E59F480917D0687FF0DC010927D065C
:1010700041110BC01092770608C08E3E81F480911A
:101080007D0618169CF3442381F080917E06909192
:101090007F06892B09F05AC01092740608958F3E7E
:1010A00049F447FFF0CF10927C0680917D068111B4
:1010B000ECCFE0CF803F19F41416ACF3E4CF90915D
:1010C0007E06893F29F41916F4F610927E06DBCFCE
:1010D0008A3F19F497FFD7CFF8CF90917F068B3FC7
:1010E00029F497FFD0CF10927F06CDCF8C3F19F413
:1010F0001916CCF3C8CF9FE0980F983090F4815F19
:10110000990B21E030E0B90102C0660F771F8A9584
:10111000E2F7CB01809590917B06892380937B0633
:10112000B2CF8D3F31F48091D6058E7F8093D60566
:10113000AACF8E3F21F48091D6058D7FF7CF8F3FC8
:1011400009F0A1CF8091D6058B7FF0CF0895882339
:10115000B1F19CEF980F913A70F4E0E9F2E09191CF
:10116000891303C0DF0111971C9292E0E639F90759
:10117000B1F70C949E0590E2980F983050F4877068
:1011800091E001C0990F8A95EAF7892F0E9497058F
:10119000F0CF9BE5980F933020F490E080E00C9422
:1011A000CE0698E5980F973120F490E080E00C94FB
:1011B000B8068D3E20F00E942E080C945B0708951F
:1011C00081E008958091D60580FD16C081FD16C08E
:1011D00082FD18C080917706882391F0883290F4C0
:1011E0002FE0829FC001112468E270E00E948F2EE0
:1011F000862F672B49F0089583E0089587E00895CE
:1012000085E008958FE0089581E008958D3E31F4E2
:101210000E94E208819580937D0608958E3E19F420
:101220000E94E208F8CF8F3E31F40E94E2088195D7
:1012300080937C060895803F19F40E94E208F8CF5D
:10124000893F29F40E94E00880937E0608958A3F32
:1012500021F40E94E0088195F7CF8B3F31F40E9482
:10126000E008819580937F0608958C3F19F40E94D1
:10127000E008F8CF9FE0980F983070F4815F990BE9
:1012800021E030E001C0220F8A95EAF780917B06C9
:10129000822B80937B0608958D3F31F48091D60593
:1012A00081608093D60508958E3F21F48091D60504
:1012B0008260F7CF8F3FB9F78091D6058460F1CF78
:1012C000CF93C82F882309F456C08CEF8C0F813A36
:1012D000F8F4E0E9F2E086E992E0DF012D91C2172F
:1012E00059F08A179B07D1F76C2F8EE892E00E9485
:1012F0007205CF910C949E052191C21303C0DF01AA
:1013000011971C928E179F07B9F70E949E05ECCF8C
:1013100080E28C0F883068F4C77021E030E001C0B3
:10132000220FCA95EAF780913F06822B80933F06F1
:10133000E0CFEBE5EC0FE33040F4F0E0E55CFD4F8F
:10134000808190E0CF910C94CE06E8E5EC0FE73178
:1013500050F4F0E0EE0FFF1FE25CFD4F80819181C1
:10136000CF910C94B806CD3E30F08C2F0E94060928
:10137000CF910C945B07CF910895F894E82FE295F4
:10138000EF70F0E031A1282F2F7081E090E001C0D4
:10139000880F2A95EAF7982F9095932391A392A10D
:1013A000892B82A3789408959091530692FF06C0EA
:1013B000282F28712830F9F4877F846093FF06C0B6
:1013C000282F28712831F1F4877E846120915406FA
:1013D00020FF06C0382F38713830D9F4877F8160FC
:1013E00021FF06C0282F28712831D1F4877E816122
:1013F00094FD877E0895282F24712430F9F68B7F81
:101400008860DCCF282F2471243101F78B7E88611E
:10141000DDCF382F3171313019F78E7F8860E0CF02
:10142000282F2171213121F78E7E8861E1CFCF9362
:10143000DF93972F70E026E0929F600D711D1124BD
:10144000FB013CE3839FE00DF11D1124EE0FFF1F14
:10145000E259FE4FC591D491CE01C238D105B9F100
:10146000E8F5C133D10509F499C050F5C932D10569
:1014700009F48DC0CA32D10509F497C0C11542E5FF
:10148000D40708F0C4C0C11521E5D20708F032C165
:10149000C83ED10508F09DC0C03ED10568F5C83AE8
:1014A000D10508F089C0C53AD10508F0FFC0C130A8
:1014B000D10511F1209709F443C02497E8F440C006
:1014C000C533D10509F45CC0C933D105B9F6209103
:1014D0005306237089F080EE90E00EC0C33ED10524
:1014E00091F168F4C03ED105F9F0C23ED10531F664
:1014F0002091530622FD20C0DF91CF910895C63E72
:10150000D10561F1C73ED10581F1C43ED10509F095
:10151000B5CF2091540621FFEFCF8091530684FD73
:101520000FC087EE90E0E8CF2091530620FD14C154
:101530003091540630FFE0CF83EE90E024FFDCCF03
:1015400090E080E0D9CF2091530622FD08C1309170
:10155000540630FDC0CF24FFCFCFF2CF20915306E9
:1015600023FFCACF24FDECCFDCCF2091530623FD0F
:10157000F9C03091540631FFEECF84EE90E0BCCF3D
:101580002091530625FFB8CF89E290E0B5CF209196
:10159000530625FFB1CF85E390E0AECF20915306EF
:1015A00026FFAACF8AE290E0A7CF2091530626FF1C
:1015B000A3CF81E390E0A0CFCF3BD10508F6C85A76
:1015C000D0E0CC0FDD1FC25CDD4F8881998194642F
:1015D00093CFC11530E2D30760F4C11541E0D407C1
:1015E00008F08ACFCE019065CD3ED10508F084CFBA
:1015F000A7CFC11580E4D80708F4A2CFC11590E5A4
:10160000D90708F05BC0CE019F70906A75CFC115F5
:1016100026E5D20718F5C11535E5D30708F080C0D7
:10162000C11544E5D40708F076C09C2F9695969591
:10163000AE0143705527C115D34508F460C021E0C1
:1016400030E002C0220F331F4A95E2F740E2949F38
:10165000C0011124822B932B9A684ECFC11599E5B6
:10166000D90770F4C11528E5D20708F063C0C11589
:1016700037E5D30708F064CFCE01992790663CCFB9
:10168000C1154AE5D40708F45AC0CE019056811519
:10169000904208F055CF8D2F8F710E94D40990E0B1
:1016A000982F882788279F718C2B42C0C55AD0E07D
:1016B000C55CDD4F888190E090641ECF9E01E4E020
:1016C00036952795EA95E1F723708C2F86958695B8
:1016D000837030E2839FC0011124922BC37021E0FC
:1016E00030E002C0220F331FCA95E2F7822B932B02
:1016F0009C6802CF9C2F8827816F906AFDCE21E0E5
:1017000030E002C0220F331F4A95E2F740E2949F77
:10171000C0011124EBCF9C2F8827846F906AECCEF8
:101720008C2F0E94D40990E0982F882788279F71DA
:101730009062E2CE9C2F8827806F906ADDCE8C2F3E
:101740008F700E94D40934E0D695C7953A95E1F799
:10175000CF709C2F9069D0CE89E390E0CDCE82EE01
:1017600090E0CACE86EE90E0C7CEBF92CF92DF92D5
:10177000EF92FF920F931F93CF93DF938C01C09052
:101780004F06D0905006E0905106F090520680919E
:10179000430690914406A0914506B0914606C82A9A
:1017A000D92AEA2AFB2ACFE1D0E0BC2ED701C60114
:1017B0000C2E04C0B695A795979587950A94D2F7F5
:1017C00080FD0EC0219788F7B12C8B2DDF91CF9132
:1017D0001F910F91FF90EF90DF90CF90BF900895F1
:1017E000B8018C2F0E94170A019761F3EECFCF93B7
:1017F000DF93EC010E94B50BBE01DF91CF910C94F9
:10180000170A0E94F70B292F2F7092959F70925004
:101810009E3078F4E92FF0E0ED5DF04D0C94A32EAE
:10182000803F19F020F4883E20F481E00895843F41
:10183000E1F380E00895883EC0F3813FD1F7F5CF12
:10184000822F86958695869508951F93CF93DF9373
:1018500000D000D00F92CDB7DEB749835A8389817B
:101860009A81662331F1222321F10E94B50B182FB2
:10187000682F89819A810E9412068A81E981F0E0AD
:1018800096E0899FE00DF11D11248CE3189FE00D77
:10189000F11D1124EE0FFF1FE259FE4F8591949127
:1018A0000F900F900F900F900F90DF91CF911F919D
:1018B00008950E94E905182FE0CF9C019A958115A3
:1018C0009F4150F4832F817031FD826032FD84602E
:1018D00033FD8860FB0109940895CF93DF93EC01F9
:1018E0000E94A708CE01805E910965EA76E008971C
:1018F00010F060E976E0CE01DF91CF910C945D0CA1
:10190000CF93DF93EC01805E91096CEA76E0089753
:1019100010F06BE976E0CE010E945D0C8C2FDF9118
:10192000CF910C94600980910101833051F028F42B
:10193000823051F0109201010895843051F08530C9
:10194000C9F789E290E002C083E390E00E946D0C49
:10195000F1CF88E290E0FACF81EE90E00E946D0C2A
:1019600080EE90E00E946D0C82EE90E00E946D0C83
:1019700083EE90E00C946D0C809117018430D1F0CF
:1019800038F4823091F0833069F010921701089595
:10199000873099F08830A1F08530B9F782EE90E079
:1019A0000E946D0C84E490E002C08EE290E00E9400
:1019B0006D0CEBCF80EE90E0F3CF81EE90E0F0CFB6
:1019C0000E94AC0CEFCF809115018430D1F038F437
:1019D000823091F0833069F01092150108958730BC
:1019E00099F08830A1F08530B9F782EE90E00E943E
:1019F0006D0C83E490E002C08DE290E00E946D0CDB
:101A0000EBCF80EE90E0F3CF81EE90E0F0CF0E943C
:101A1000AC0CEFCF809113018430D1F038F48230D8
:101A200091F0833069F0109213010895873099F096
:101A30008830A1F08530B9F782EE90E00E946D0CFD
:101A400082E490E002C080E390E00E946D0CEBCF56
:101A500080EE90E0F3CF81EE90E0F0CF0E94AC0CEE
:101A6000EFCF809111018430D1F038F4823091F0C1
:101A7000833069F0109211010895873099F0883011
:101A8000A1F08530B9F782EE90E00E946D0C81E400
:101A900090E002C085E292E00E946D0CEBCF80EEF8
:101AA00090E0F3CF81EE90E0F0CF0E94AC0CEFCF4E
:101AB00080910F018430D1F038F4823091F083307E
:101AC00069F010920F010895873099F08830A1F0E5
:101AD0008530B9F782EE90E00E946D0C80E490E0D2
:101AE00002C084E292E00E946D0CEBCF80EE90E0A9
:101AF000F3CF81EE90E0F0CF0E94AC0CEFCF80915D
:101B00000D018430D1F038F4823091F0833069F0E7
:101B100010920D010895873099F08830A1F085303A
:101B2000B9F782EE90E00E946D0C8FE390E002C066
:101B300083E292E00E946D0CEBCF80EE90E0F3CF59
:101B400081EE90E0F0CF0E94AC0CEFCF80910B01C2
:101B50008430D1F038F4823091F0833069F0109203
:101B60000B010895873099F08830A1F08530B9F7DE
:101B700082EE90E00E946D0C8EE390E002C082E263
:101B800092E00E946D0CEBCF80EE90E0F3CF81EEFF
:101B900090E0F0CF0E94AC0CEFCF8091090184302F
:101BA000D1F038F4823091F0833069F0109209015D
:101BB0000895873099F08830A1F08530B9F782EE2A
:101BC00090E00E946D0C8DE390E002C081E292E013
:101BD0000E946D0CEBCF80EE90E0F3CF81EE90E0B1
:101BE000F0CF0E94AC0CEFCF809107018430D1F090
:101BF00038F4823091F0833069F010920701089533
:101C0000873099F08830A1F08530B9F782EE90E006
:101C10000E946D0C8CE390E002C080E292E00E9492
:101C20006D0CEBCF80EE90E0F3CF81EE90E0F0CF43
:101C30000E94AC0CEFCF809105018430D1F038F4D4
:101C4000823091F0833069F0109205010895873059
:101C500099F08830A1F08530B9F782EE90E00E94CB
:101C60006D0C8BE390E002C08FE192E00E946D0C5E
:101C7000EBCF80EE90E0F3CF81EE90E0F0CF0E94CA
:101C8000AC0CEFCF809103018430D1F038F4823076
:101C900091F0833069F0109203010895873099F034
:101CA0008830A1F08530B9F782EE90E00E946D0C8B
:101CB0008AE390E002C08EE192E00E946D0CEBCFCF
:101CC00080EE90E0F3CF81EE90E0F0CF0E94AC0C7C
:101CD000EFCF81EE90E00E94800C80EE90E00E94B9
:101CE000800C82EE90E00E94800C83EE90E00C94D9
:101CF000800CFC018081813029F48285882381F069
:101D000083E00895823029F4828581110BC084E03C
:101D10000895833049F48285811106C087E00895D3
:101D200082E0089585E0089588E008950E94790E84
:101D3000809317018430B9F028F4823081F0833029
:101D400059F00895873091F0883099F08530A1F4EA
:101D500082EE90E00E94800C84E490E002C08EE26B
:101D600090E00C94800C80EE90E0F4CF81EE90E057
:101D7000F1CF0E94690EF0CF08950E94790E8093F2
:101D800015018430B9F028F4823081F0833059F0A5
:101D90000895873091F0883099F08530A1F482EE73
:101DA00090E00E94800C83E490E002C08DE290E01D
:101DB0000C94800C80EE90E0F4CF81EE90E0F1CFB7
:101DC0000E94690EF0CF08950E94790E809313014E
:101DD0008430B9F028F4823081F0833059F00895CE
:101DE000873091F0883099F08530A1F482EE90E050
:101DF0000E94800C82E490E002C080E390E00C94AA
:101E0000800C80EE90E0F4CF81EE90E0F1CF0E9464
:101E1000690EF0CF08950E94790E809311018430ED
:101E2000B9F028F4823081F0833059F0089587307A
:101E300091F0883099F08530A1F482EE90E00E9414
:101E4000800C81E490E002C085E292E00C94800C6A
:101E500080EE90E0F4CF81EE90E0F1CF0E94690E29
:101E6000F0CF08950E94790E80930F018430B9F06D
:101E700028F4823081F0833059F00895873091F052
:101E8000883099F08530A1F482EE90E00E94800CB9
:101E900080E490E002C084E292E00C94800C80EE3A
:101EA00090E0F4CF81EE90E0F1CF0E94690EF0CF88
:101EB00008950E94790E80930D018430B9F028F4C2
:101EC000823081F0833059F00895873091F0883066
:101ED00099F08530A1F482EE90E00E94800C8FE3AF
:101EE00090E002C083E292E00C94800C80EE90E0DF
:101EF000F4CF81EE90E0F1CF0E94690EF0CF08950B
:101F00000E94790E80930B018430B9F028F482305E
:101F100081F0833059F00895873091F0883099F03E
:101F20008530A1F482EE90E00E94800C8EE390E078
:101F300002C082E292E00C94800C80EE90E0F4CF3C
:101F400081EE90E0F1CF0E94690EF0CF08950E94DB
:101F5000790E809309018430B9F028F4823081F041
:101F6000833059F00895873091F0883099F08530AA
:101F7000A1F482EE90E00E94800C8DE390E002C01C
:101F800081E292E00C94800C80EE90E0F4CF81EE40
:101F900090E0F1CF0E94690EF0CF08950E94790E73
:101FA000809307018430B9F028F4823081F08330C7
:101FB00059F00895873091F0883099F08530A1F478
:101FC00082EE90E00E94800C8CE390E002C080E200
:101FD00092E00C94800C80EE90E0F4CF81EE90E0E3
:101FE000F1CF0E94690EF0CF08950E94790E809380
:101FF00005018430B9F028F4823081F0833059F043
:102000000895873091F0883099F08530A1F482EE00
:1020100090E00E94800C8BE390E002C08FE192E0A0
:102020000C94800C80EE90E0F4CF81EE90E0F1CF44
:102030000E94690EF0CF08950E94790E80930301EB
:102040008430B9F028F4823081F0833059F008955B
:10205000873091F0883099F08530A1F482EE90E0DD
:102060000E94800C8AE390E002C08EE192E00C9422
:10207000800C80EE90E0F4CF81EE90E0F1CF0E94F2
:10208000690EF0CF08950E94790E8093010183308C
:1020900069F018F4823031F00895843051F08530C1
:1020A00029F0089583E390E00C94800C89E290E09D
:1020B000FBCF88E290E0F8CFCF9384E090E00E94DD
:1020C000DF2EC82F82E290E00E94DF2E982F8C2F07
:1020D000CF910895CF93DF9300D00F92CDB7DEB7A5
:1020E00090919906943019F589837B836A8382E005
:1020F0008093E9008FEF9091E800815095FD06C034
:1021000095ED9A95F1F700008111F5CF8091E800E7
:1021100085FF0DC050E040E063E070E0CE01019625
:102120000E94FB038091E8008E778093E8000F9077
:102130000F900F90DF91CF910895BC0184E00C9433
:102140006A10BC0183E00C946A109C0182E08093C9
:10215000E9009FEF8091E800915085FD06C085ED74
:102160008A95F1F700009111F5CF8091E80085FF85
:102170000CC050E040E066E070E0C9010E94FB0343
:102180008091E8008E778093E8000895CF93DF93E5
:10219000EC0181E08093E9008FEF9091E80081509D
:1021A00095FD06C095ED9A95F1F700008111F5CFE8
:1021B0008091E80085FF14C050E040E068E070E0E6
:1021C000CE010E94FB038091E8008E778093E800A7
:1021D00088E0FE01AFE8B6E001900D928A95E1F744
:1021E000DF91CF9108951F93CF93DF93182FCAE00B
:1021F000D0E0893311F4C0E5D0E0812F0E9460095E
:102200008FE99FE00197F1F700C000002197C1F727
:10221000812FDF91CF911F910C94A708CF92DF926D
:10222000EF92FF920F931F93CF93DF936B01C42F15
:10223000D22FFC0182818823C1F04093D1050E94F6
:10224000660590939C0280939B02C77081E001C059
:10225000880FCA95EAF7DF91CF911F910F91FF90F8
:10226000EF90DF90CF900C94AC061091D105141331
:102270003DC080919B0290919C020E944B057C0185
:10228000C6010E946203E816F90680F5C0E2CD0F90
:102290001D17B9F080E2810F883040F4177081E09B
:1022A00001C0880F1A95EAF70E94A506C83048F4C5
:1022B00081E09D2F977001C0880F9A95EAF70E94E0
:1022C000AC06802F0E94F310C830B8F4D77081E0BC
:1022D00001C0880FDA95EAF7DF91CF911F910F9136
:1022E000FF90EF90DF90CF900C94A506C77081E02F
:1022F00001C0880FCA95EAF7EFCFDF91CF911F9108
:102300000F91FF90EF90DF90CF90089580919A0207
:10231000811110C08091D80080618093D8008AE13B
:102320008A95F1F700C08091D90080FF0AC081E052
:1023300080939A0281E090919A02913009F080E0B6
:10234000089582E080939A020E94AB03109299064E
:10235000F1CFAF92BF92CF92DF92EF92FF920F93A5
:102360001F93CF93DF93EC018AE0A82EFE01249106
:10237000222309F494C0213009F03EC031968491A3
:10238000813031F42296FE0184910E94F31007C03F
:10239000823039F42296FE0184910E9460092196D0
:1023A000E5CF833031F42296FE0184910E94A70884
:1023B000F6CF843009F071C02296FE01249190E09E
:1023C00080E0FE0131962053330B2A30310548F06E
:1023D000019728F3EFE9FFE03197F1F700C0000023
:1023E000F7CFA89EA001A99E500D1124C901840F0A
:1023F000951F2491EF01E5CFE22FF0E0E251FF4F6E
:10240000B490822F86958695869590E0FC01E252E5
:10241000FF4FE4902770F12C022E02C0F594E79450
:102420000A94E2F731E0E322FF24FC01E253FF4F7C
:10243000C490D12C022E02C0D594C7940A94E2F71E
:10244000E1E0CE22DD24FC01E254FF4F049110E0D4
:1024500002C0159507952A95E2F701701127E1143E
:10246000F10419F081EE0E946009C114D10419F041
:1024700086EE0E9460098B2D0E94F310CD2819F082
:1024800086EE0E94A708EF2819F081EE0E94A708A7
:10249000012B09F484CF8CE278CFEF0180CFDF915C
:1024A000CF911F910F91FF90EF90DF90CF90BF9051
:1024B000AF900895CF93DF93EC010E94800C8FE3DF
:1024C0009CE90197F1F700C00000CE01DF91CF91A8
:1024D0000C946D0CCF93C62F81118AC084E00E94AA
:1024E0004006811111C083E00E944006882379F0E4
:1024F00010923F068FE496E0C11102C080E596E09D
:102500000E945A1210923F0681E0CF91089582E016
:102510000E9440068823E9F080913F068470CC2316
:1025200071F0882339F010923F0685EB90E00E940D
:10253000A911EACF82E59FE00E945A12E5CF8823D5
:1025400029F010923F068CEA90E0F1CF81E59FE000
:10255000F3CF81E00E944006882339F082E490E0C6
:10256000C111EACF8EE390E0E7CF80913F06982F2C
:102570009270CC2309F1992359F082E00E94A506BC
:102580008CE191E00E945A1282E00E94AC06BCCF1E
:1025900085FF03C08FE498E0CFCF82FF03C08FE4B4
:1025A00091E0CACF86FF03C083E293E0C5CF84FDEC
:1025B000ABCF89E191E0C0CF992331F082E00E9456
:1025C000A5068DE191E0DECF85FF03C080E598E0B0
:1025D000B3CF82FF03C080E591E0AECF86FF03C09A
:1025E0008BE290E0A9CF84FD8FCF86E091E0A4CF6D
:1025F000813009F089CF84E00E944006882331F0C1
:10260000CC2309F48EC08EE491E096CF83E00E9443
:1026100040068823F9F080913F068074CC2369F04E
:10262000811172CF89EA90E00E945A1289EA90E003
:102630000E945A1289EA90E07FCF811165CF8AEA21
:1026400090E00E945A128AEA90E00E945A128AEAA6
:1026500090E072CF82E00E944006882339F08FE438
:1026600094E0C11169CF80E594E066CF81E00E94DB
:102670004006882319F0CC2351F3DCCF80E00E9480
:102680004006882309F440CF80913F06982F92702E
:10269000CC2321F1992359F081EE90E00E946D0C3A
:1026A0008EE091E00E945A128FE293E045CF82FFC4
:1026B0000BC082EE90E00E946D0C8EE091E00E94D3
:1026C0005A128DE091E038CF80FF03C08FE292E094
:1026D00033CF86FD19CF83FD62CF95CF992359F073
:1026E00081EE90E00E946D0C8EE091E00E945A1203
:1026F00080E393E021CF82FF0BC082EE90E00E9446
:102700006D0C8EE091E00E945A1280E691E014CFA9
:1027100086FDFACE80FF03C080E392E00DCF83FDFB
:102720005ACF8BE491E008CF6AEE7EEF90E080E034
:102730000E940B2F60E082E090E00E94ED2E60E0AE
:1027400083E090E00E94ED2E109243061092440622
:10275000109245061092460660E084E090E00E94E8
:10276000ED2E60E082E290E00E94ED2E60E085E0D8
:1027700090E00E94ED2E60E086E090E00E94ED2E59
:102780006FEF87E090E00E94ED2E40E050E0BA014C
:1027900088E090E00E94FF2E60E08DE090E00E94D3
:1027A000ED2E40E050E0BA0188E190E00E94FF2E5B
:1027B00060E087E190E00E94ED2E40E050E0BA0139
:1027C0008CE190E00E94FF2E70E060E080E290E0FB
:1027D0000E940B2F40E050E0BA0188E190E00E9497
:1027E000FF2E40E050E0BA018FE090E00E94FF2E03
:1027F00040E050E0BA0183E190E00C94FF2ECF93CB
:10280000C0915406C2FB992790F9981781F080FB7C
:10281000C2F9C09354066091530684E090E00E9490
:10282000ED2E6C2F82E290E0CF910C94ED2ECF91A3
:10283000089510923F06E0E9F2E086E0DF011D9284
:102840008A95E9F70C9482071F93CF93DF93CDB756
:10285000DEB7AA970FB6F894DEBF0FBECDBF8BE9E7
:1028600096E02091F100FC012193CF01F6E0833A3C
:102870009F07B9F780919C06833009F46FC0B8F4C4
:10288000813009F446C0823009F4B0C08091E8007C
:1028900083FF7BC280919B0690919C069A3008F042
:1028A00074C2E92FF0E0EF5CF04D0C94A32E8A3057
:1028B00009F48BC08B3009F46EC0893039F78091F0
:1028C0009B06813219F780919F069091A00602978E
:1028D000E8F68091E800877F8093E8008091E80027
:1028E00082FF37C09091F3008091F200029729F4A3
:1028F0008091F1008B7F813021F48091F1008093F1
:102900008E068091E8008B778093E8000E94250472
:10291000BDCF80919B06813A09F0B8CF8091E80045
:10292000877F8093E80080919F069091A006892B75
:1029300061F468E08FE896E070E00E94D70480912F
:10294000E8008B778093E800A1CF60E090E080E022
:10295000F3CF809199068111C1CF98CF80919B06CA
:10296000813A09F093CF80919F069091A006892B20
:1029700009F08CCF8091E800877F8093E8008091F8
:10298000E80080FFFCCF809132028093F1008091BB
:10299000E8008E77B9CF80919B06813209F076CF1F
:1029A00080919F069091A006892B09F06FCF8091AE
:1029B000E800877F8093E8000E94250480919D06AF
:1029C000809332020E94191461CF80919B0681325C
:1029D00009F05CCF8091E800877F8093E8000E9437
:1029E000250480919E0680938D0650CF80919B0692
:1029F000813A09F04BCF8091E800877F8093E8000F
:102A00008091E80080FFFCCF80918D06BECF80389A
:102A100099F0823809F0B9C180919F068F70873094
:102A200008F0B3C18093E9008091EB0085FB882713
:102A300080F91092E90006C080919706909198065F
:102A4000911182609091E800977F9093E8008093C5
:102A5000F1001092F1008091E8008E7792C18823F6
:102A600009F480C1823009F090C180919D068111E6
:102A700083C180919F068F702FEF280F263008F0BA
:102A800084C18093E9002091EB0020FF75C1933051
:102A900031F48091EB0080628093EB006DC19091E6
:102AA000EB0090619093EB0021E030E001C0220F39
:102AB0008A95EAF72093EA001092EA008091EB00F1
:102AC0008860EACF811161C110919D061F778091C6
:102AD000E3008078812B8093E3008091E800877F7A
:102AE0008093E8000E9425048091E80080FFFCCFDD
:102AF0008091E30080688093E30082E0111183E01D
:102B00008093990642C18058823008F03EC180917E
:102B10009D0690919E068C3D23E09207A1F583E0EF
:102B20008A838AE289834FB7F894DE01139620E006
:102B30003EE051E2E32FF0E050935700E49120FF94
:102B400003C0E295EF703F5FEF708E2F90E0EA30A8
:102B5000C0F0C7968D939D932F5F243159F74FBFD7
:102B60008091E800877F8093E8006AE270E0CE0100
:102B700001960E94D7048091E8008B778093E8004B
:102B800004C1C096E7CF40919F065091A006292F1F
:102B900033272330310509F444C078F5213031055D
:102BA00009F46FC08BE390E0E7EBF5E022303105EC
:102BB00009F0EBC02091E800277F2093E8002091E6
:102BC000A1063091A2068217930708F49C0140E009
:102BD0002115310509F064C0411162C08091E800FF
:102BE00082FDC9CF80919906882329F2853019F298
:102BF0008091E80083FFF2CFBECF21323105A9F1E9
:102C00002232310509F0C1C04115510509F443C014
:102C10004130510509F0B9C08BE790E0ECEFF4E0EA
:102C2000C9CF992781309105C1F0009759F00297DB
:102C300009F0ABC0E4E0F6E0E4918E2F90E0E4E030
:102C4000F6E007C0EEE2F6E0E4918E2F90E0EEE2CF
:102C5000F6E0009709F499C0ADCFE2E1F6E0E49127
:102C60008E2F90E0E2E1F6E0F4CF4115510571F0CE
:102C70004130510509F089C089E090E0E2EEF5E0CD
:102C800099CF82E190E0E2EFF5E094CF89E090E027
:102C9000E9ECF5E08FCF80E490E0E7E7F5E08ACF5C
:102CA00080919906882309F466CF853009F463CFB3
:102CB0008091E80083FD5FCF8091E80082FD8ECF98
:102CC0008091E80080FF84CF9091F3008091F20022
:102CD0002115310519F08830910550F041E0089731
:102CE00009F040E08091E8008E778093E80070CF93
:102CF00044914093F1003196215031090196E8CF7B
:102D0000803809F042C08091E800877F8093E80016
:102D100080919A068093F1009ECE811136C0109169
:102D20009D06123090F58091E800877F8093E8003F
:102D300010939A060E942504112311F084E005C027
:102D40008091E30087FDFACF81E08093990642E00D
:102D500061EC81E00E94440442E261EC82E00E9466
:102D6000440413C080919D06813079F481E0933052
:102D700009F080E0809398061092E9008091E800C5
:102D8000877F8093E8000E9425048091E80083FFFC
:102D90000AC08091E800877F8093E8008091EB0073
:102DA00080628093EB00AA960FB6F894DEBF0FBE48
:102DB000CDBFDF91CF911F9108952F923F924F92F7
:102DC0005F926F927F928F929F92AF92BF92CF92BB
:102DD000DF92EF92FF920F931F93CF93DF9300D078
:102DE0000F92CDB7DEB74C01DC0113964D915C918B
:102DF000149711966C9111978C910E947B0681110A
:102E00000C94612221E0F40140815181628173813F
:102E100084810E94250C9B838A83D40112968C9115
:102E20008111FFC08A819B8181509545AA81BB8118
:102E30008F3F910508F438C1F401F281F983FF2333
:102E400009F4A2C3AF3FB10509F008F45BC1AB328E
:102E5000BD4509F42CC11092CB028091CE058111A1
:102E600088C4A981A11110C04A805B8025E0421668
:102E70002DE5520609F443C408F002C444E04416A8
:102E80004DE5540609F42DC44A805B8022E64216C3
:102E90002DE5520609F47DC508F01DC54FE5441621
:102EA0004DE5540609F46CC508F0F3C4D201A23E06
:102EB000B10509F42DC58A819B8197558F3F9105F6
:102EC00011F008F085C520912402022E000C330B6E
:102ED0002817390714F480932402F401228136E183
:102EE000389F7001399FF00C11248701045E1E4F3A
:102EF000D80150962C935097928116968C911697E4
:102F0000992309F457C54A805B801A965C924E92C9
:102F100019978F5F16968C930E946605D8011E96AE
:102F20009C938E931D978091420617968C931797CA
:102F300080913E0690913F06892B18968C931897A6
:102F4000ED91FC911197309739F054966D917C91E9
:102F5000C7018E5D9E4F09954A805B805092D005D7
:102F60004092CF05D40112968C91882311F40C94D1
:102F70002B221092D1054A805B8022E042162CE57C
:102F8000520610F40C94462236E143163CE55306F3
:102F900040F092012B5F3C452930310510F00C9434
:102FA00046220E945C1090935406809353064A80F8
:102FB0005B8020E142162CE5520609F426C608F093
:102FC000A5C548E044164CE5540609F410C608F0BF
:102FD0006AC594E049169CE5590609F400C608F054
:102FE0004AC5B2E04B16BCE55B0609F4F2C5809118
:102FF00053068260E3E04E16ECE55E0609F4ECC58C
:103000006091530640905406498284E090E00E940B
:10301000ED2E698182E290E00E94ED2E0E9419144B
:103020004CC0809124028F3F09F4FCCE0CE111E0EA
:10303000F12CE12CDD24D39480912402082E000C85
:10304000990B8E159F050CF4EDCEF801868188232F
:1030500029F1818592854A805B808415950539F434
:103060008091CF059091D00584159505B9F0D801D0
:103070001F96DC921F974A805B801C965C924E9252
:103080001B9751968C91811103C0C8010E94F006D4
:10309000C80106960E94110710923E062FEFE21A11
:1030A000F20A0A5E1F4FC8CF35E5B327C5CE80911F
:1030B000CB0291E089278093CB0280913C068770F8
:1030C00011F40C946122D40112968C91882311F48E
:1030D0000C94612282E00F900F900F90DF91CF91BE
:1030E0001F910F91FF90EF90DF90CF90BF90AF9026
:1030F0009F908F907F906F905F904F903F902F9018
:103100000C94CC078091CB02882309F4E9C010927B
:10311000CB02A03CB105F0F5A038B10508F0AAC07B
:10312000A034B10508F070C021E030E040E050E08C
:1031300060E070E080E090E00A2F0E94A92EE0910C
:10314000AB022E2BE091AC023E2BE091AD024E2B58
:10315000E091AE025E2BE091AF026E2BE091B002E7
:103160007E2BE091B1028E2BE091B2029E2B209338
:10317000AB023093AC024093AD025093AE02609329
:10318000AF027093B0028093B1029093B202BB83FE
:10319000AA8363CEAF3FB10509F030F68D01005C24
:1031A000110921E030E040E050E060E070E080E0B4
:1031B00090E00E94A92EE091C3022E2BE091C40260
:1031C0003E2BE091C5024E2BE091C6025E2BE091B2
:1031D000C7026E2BE091C8027E2BE091C9028E2BB4
:1031E000E091CA029E2B2093C3023093C402409305
:1031F000C5025093C6026093C7027093C8028093C1
:10320000C9029093CA02C3CF8D010054110921E075
:1032100030E040E050E060E070E080E090E00E944C
:10322000A92EE091B3022E2BE091B4023E2BE09147
:10323000B5024E2BE091B6025E2BE091B7026E2BE9
:10324000E091B8027E2BE091B9028E2BE091BA0298
:103250009E2B2093B3023093B4024093B502509357
:10326000B6026093B7027093B8028093B90290934C
:10327000BA028DCF8D010058110921E030E040E005
:1032800050E060E070E080E090E00E94A92EE091C4
:10329000BB022E2BE091BC023E2BE091BD024E2BD7
:1032A000E091BE025E2BE091BF026E2BE091C00266
:1032B0007E2BE091C1028E2BE091C2029E2B2093C7
:1032C000BB023093BC024093BD025093BE02609398
:1032D000BF027093C0028093C1029093C20257CF85
:1032E000A034B10508F067C0E091AB02F091AC02E8
:1032F0007090AD026090AE025090AF024090B0026C
:103300003090B1022090B20221E030E040E050E085
:1033100060E070E080E090E00A2F0E94A92EAE2EBF
:10332000A222BF2EB322C72CC422D62CD522E52C34
:10333000E622F42CF722032D0823122D19230E94D4
:10334000C22E09F08ACDA03CB10508F08EC0A0388D
:10335000B10508F0EBC0A034B10508F0B9C021E018
:1033600030E040E050E060E070E080E090E00A2F64
:103370000E94A92E209530954095509560957095A6
:10338000809590952E233F23472156216521742156
:10339000832192212093AB023093AC024093AD0283
:1033A0005093AE026093AF027093B0028093B1026B
:1033B0009093B20282CEA038B105E0F4E091B3025E
:1033C000F091B4027090B5026090B6025090B702CE
:1033D0004090B8023090B9022090BA0221E030E06B
:1033E00040E050E060E070E080E090E08D0100544B
:1033F000110993CFA03CB105E0F4E091BB02F0913C
:10340000BC027090BD026090BE025090BF0240901E
:10341000C0023090C1022090C20221E030E040E0C2
:1034200050E060E070E080E090E08D01005811090C
:1034300074CFE091C302F091C4027090C502609015
:10344000C6025090C7024090C8023090C902209036
:10345000CA0221E030E040E050E060E070E080E04F
:1034600090E08D01005C110958CFAF3FB10511F01C
:1034700008F075CF8D01005C110921E030E040E0DB
:1034800050E060E070E080E090E00E94A92E20957E
:1034900030954095509560957095809590952E2328
:1034A0003F234721562165217421832192212093B6
:1034B000C3023093C4024093C5025093C602609386
:1034C000C7027093C8028093C9029093CA02F5CDD7
:1034D0008D010054110921E030E040E050E060E04F
:1034E00070E080E090E00E94A92E209530954095F4
:1034F000509560957095809590952E233F23472198
:10350000562165217421832192212093B3023093A7
:10351000B4024093B5025093B6026093B702709321
:10352000B8028093B9029093BA02C7CD8D010058BA
:10353000110921E030E040E050E060E070E080E020
:1035400090E00E94A92E2095309540955095609569
:103550007095809590952E233F2347215621652114
:103560007421832192212093BB023093BC024093AB
:10357000BD025093BE026093BF027093C00280935D
:10358000C1029093C20299CDAF3FB10511F008F08E
:1035900064CCA034B10550F5A090AB02B090AC0261
:1035A000C090AD02D090AE02E090AF02F090B002B9
:1035B000F091B102E091B20221E030E040E050E051
:1035C00060E070E080E090E00A2F0E94A92EA22225
:1035D000B322C422D522E622F7220F2F08231E2F62
:1035E00019230E94C22E09F038CC67CDA038B1054E
:1035F000E0F4A090B302B090B402C090B502D090B5
:10360000B602E090B702F090B802F091B902E091F2
:10361000BA028D010054110921E030E040E050E091
:1036200060E070E080E090E0D0CFA03CB105A0F475
:10363000A090BB02B090BC02C090BD02D090BE0270
:10364000E090BF02F090C002F091C102E091C2028E
:103650008D0100581109E0CFA090C302B090C402C0
:10366000C090C502D090C602E090C702F090C80298
:10367000F091C902E091CA028D01005C1109CCCF22
:103680004A805B8027E042162DE5520609F443C0CC
:1036900038E043163DE5530609F0F6CB00911801DA
:1036A00010911901C0904F06D0905006E09051063D
:1036B000F09052060E9419140E941F0826EC35E073
:1036C0003B832A834A805B8004151505E9F18A81D2
:1036D0009B810E94DD168A819B8106979B838A834A
:1036E000F1CF0E9419140E941F088CEC92E0909375
:1036F000CD058093CC0581E08093CE05DECC0E9481
:1037000019140E941F0886EC95E09093CD058093D4
:10371000CC0582E0F1CF00911A0110911B01C090FD
:103720004F06D0905006E0905106F09052060E944D
:1037300019140E941F088CEC92E09B838A834A80B4
:103740005B800415150559F40E941914C0924F06A8
:10375000D0925006E0925106F0925206AECC8A8189
:103760009B810E94DD16AA81BB811696BB83AA832A
:10377000E6CF2A813B8124503D4523303105E0F5D9
:1037800091E06A807B8026E062162DE5720609F4DE
:1037900090E0A981A91709F490CC813029F08230FA
:1037A000B9F01092CE0589CC8091CC059091CD05D1
:1037B000B2E08C3C9B0729F0FC0136972281211155
:1037C00005C090931B0180931A01EBCFCF01F0CF7E
:1037D0008091CC059091CD05E5E0863C9E0729F0CF
:1037E000FC0136962281211105C090931901809326
:1037F0001801D7CFCF01F0CF813029F1823009F005
:1038000043CB20911A0130911B01A091CC05B091BE
:10381000CD05E981E11105C0F5E0A63CBF0709F43B
:1038200033CBCD0106962817390709F42DCB86E056
:10383000F40101900D928A95E1F78091CC05909169
:10384000CD05069721C02091180130911901A09152
:10385000CC05B091CD05F981F11105C042E0AC3C39
:10386000B40709F411CBCD0106972817390709F4DD
:103870000BCB86E0F40101900D928A95E1F78091DF
:10388000CC059091CD0506969093CD058093CC05FF
:10389000FBCA4A805B8020E642162DE5520609F4F9
:1038A00062C031E643163DE5530609F004CB81EED4
:1038B00090E00E945A12F4018281882309F4FBCA25
:1038C0008CED94E00E94A91180E591E00E945A12CB
:1038D00080E590E033C04A805B8024E642162DE507
:1038E000520679F108F45DC045E644164DE55406EC
:1038F000F1F086E648168DE5580609F0DCCAD401D9
:1039000012968C91882309F4D6CA81E59FE016C0EF
:10391000D40112968C91882329F082EE90E00E94C7
:10392000800CC9CA82EE90E00E946D0CC4CAF401FA
:103930008281882309F4BFCA82E59FE00E945A125F
:10394000BACAF4018281882309F4B5CA80913F067E
:1039500082FFB1CA82EE90E00E946D0C83EF94E08A
:103960000E94A911A8CA81EE90E00E945A12D401C7
:1039700012968C91882309F49ECA86EE94E0F0CFCB
:10398000D40112968C91882309F495CA89ED94E0AC
:10399000E7CFF4018281882309F48DCA80EC94E09A
:1039A000DFCFD40112968C91882309F484CA86EB68
:1039B00094E0D6CF882309F4D5CA51968C918823F8
:1039C00009F4D0CAC7018E5D9E4F0E941107CACA72
:1039D0004A805B8024EF42162CE55206A1F1C8F420
:1039E00049ED44164CE5540641F18AED48168CE544
:1039F0005806D9F198ED49169CE5590609F0B2CA66
:103A000006E221EE41EE68ED7CE5C4010E940E1154
:103A100054CB4A805B8026EF42162CE55206F9F023
:103A2000C0F047EF44164CE5540609F09BCA07E284
:103A300025EE46EE67EF7CE5E8CF07E225EE45EEA2
:103A400069ED7CE5E2CF06E221EE40EE64EF7CE535
:103A5000DCCF07E225EE44EE65EF7CE5D6CF06E24B
:103A600021EE42EE66EF7CE5D0CF08E221E045EEA4
:103A70006AED7CE5CACF4A805B8080915306806105
:103A800026E042162CE5520609F4A6C080915306A2
:103A9000886037E043163CE5530608F49DC08091EA
:103AA0005306806299C04A805B80809153068D7F67
:103AB0002CE042162CE5520609F48EC078F4809171
:103AC00053068C604AE044164CE5540609F484C061
:103AD00008F491C0809153068E7F7EC04A805B803F
:103AE00080915306877F2EE042162CE5520609F49A
:103AF00073C0809153068B7F3FE043163CE553062D
:103B000008F46AC0809153068F7E66C04A805B804D
:103B10002CEF42162CE5520609F465C078F543E116
:103B200044164CE5540609F478C090F491E1491626
:103B30009CE5590609F46DC0A2E14A16ACE55A06A7
:103B400009F05ECA0E941914809153068F7744C011
:103B50004A805B8025E142162CE5520609F465C0D7
:103B600008F479C08091540681604BEF44164CE50F
:103B7000540609F045CA8093540642CA4A805B80C5
:103B800041142DE5520609F44CC068F480915406A6
:103B90008D7F4EEF44164CE5540669F390F1809109
:103BA00054068360E8CF4A805B8022E042162DE510
:103BB000520609F459C008F444C060E043E04416DA
:103BC0004DE5540609F01CCA8EE090E00E94ED2EEF
:103BD00017CA8091530681608093530611CA809161
:103BE00053068460F9CF809154068260C4CF8091DF
:103BF00053068064F1CF0E941914809153068068A7
:103C0000EBCF809154068E7FB6CF809153068F7D87
:103C1000E3CF809153068F7BDFCF80915306837F64
:103C2000DBCF809154068C7FA6CF8091530682FB18
:103C3000992790F921E0922790FB82F990FB83F974
:103C4000CBCF80915406982F909591708E7F892BC1
:103C500090FB81F990CF0E94191490915306892FFF
:103C600097FB87F98058B8CF61E0AECF85E300C4F9
:103C70008823A9F06A807B802BE562162DE5720609
:103C800009F482C008F05AC061144CE5740609F4C6
:103C90006BC08FED68168CE5780609F472C0F401EC
:103CA0008281408051805B824A82882309F470C0FF
:103CB000C2010E94B50B182F682F8A819B810E9438
:103CC00012066A817B81812F0E94170A8A83192F2D
:103CD000E82ED4011296BC91B983F40105810295B6
:103CE0000F7080913C068770C9F0DB2EBB23B9F0C2
:103CF000892F807F803449F09E2D905E983070F03F
:103D0000803619F4F6EFEF1649F082E00E94CC07F6
:103D100080913C068770DD24D3948111D12CC12E73
:103D2000C2945FE0C5226BE0462E4C1408F469C0D3
:103D3000EC2DF0E0E55CF04D0C94A32E4A805B8006
:103D40002CE542162DE5520609F13DE543165306D2
:103D500009F0A5CF8091540682FB882780F991E075
:103D600089270E94FF139BCF0E9419144FEF84E311
:103D70009CE0415080409040E1F700C000000E946C
:103D80003A050E94941399C981E0EBCF80E0E9CF16
:103D90008A819B810E94E905182F93CF012F0F7014
:103DA000812F807F11F00295007F59805520C9F046
:103DB000002369F08A81805E883010F0E1100BC02A
:103DC00080913F06082B00933F060E949E058A8142
:103DD0000E94600916C080913E06082B00933E06A3
:103DE000F4CF8A810E94A708002359F02A81205E1F
:103DF000283010F0E11055C0802F0E9497050E94D6
:103E00009E052C2D2850330B2430310510F40E94D0
:103E1000E4064980442079F0107F103621F486EFC3
:103E2000582EE51441F08091D505823009F007C382
:103E300083E08093D505DD20B1F080913C0680FDC4
:103E400012C0D40112961C928595859585950E9485
:103E5000E807C4010E94DD1680913C068595859592
:103E600085950E94A90720E0F4014081518162817B
:103E7000738184810F900F900F90DF91CF911F91EC
:103E80000F91FF90EF90DF90CF90BF90AF909F90F9
:103E90008F907F906F905F904F903F902F900C94F9
:103EA000250C009580913E06082300933E06A7CF7F
:103EB000312F3F70F32E812F807F803219F0F294E2
:103EC00040EFF422EE2059F041E0E41609F448C036
:103ED0006980662009F44FC0002351F178CF4980F2
:103EE000442041F1011106C0809142068F290E94B1
:103EF000AC0687CF013099F48091540682FD81CFC2
:103F000080914206F82AF81609F47BCF0E946605D4
:103F10009093410680934006F092420672CF0330A0
:103F200019F70E948C0580913906F812F092390633
:103F30008F2DDDCF011106C00E948C058F2D0E94B0
:103F4000A5065FCF013041F480913F068F2109F42F
:103F500058CF0E94E305F0CF033009F452CFECCFE5
:103F60005980552021F0063008F04BCFE1CF0530C5
:103F700008F047CFE3CF002309F339E3732EE710AE
:103F8000C3C12FEF37EE43E0215030404040E1F70E
:103F900000C000008A810E94A70833CF812F869538
:103FA0008695837071F0813009F02BCF59808A811A
:103FB000912F9370511002C090E080E00E94B806EB
:103FC00020CF49808A81912F9370411002C090E0E8
:103FD00080E00E94CE0615CF69808A81662029F094
:103FE0000E9406090E945B070CCF0E942E08FACFA0
:103FF000812F837009F069C07980711002CF2A8106
:10400000229526952770220F220F4A814F7050E08B
:1040100070E060E0022E04C0440F551F661F771F3A
:104020000A94D2F74A8080E090E0DC0144FE0FC0A1
:104030008FE090E0A0E0B0E004C0880F991FAA1FB5
:10404000BB1F2A95D2F780959095A095B095212F0A
:10405000269526952370223029F1D8F44090430606
:10406000509044066090450670904606213069F0F5
:10407000842B952BA62BB72BBC01CD016421752178
:10408000862197210E942408BCCE442955296629FF
:1040900077292A013B01482A592A6A2A7B2AC30127
:1040A000B201F0CF842B952BA62BB72B4090430663
:1040B000509044066090450670904606BC01CD01C4
:1040C0006425752586259725DDCF59808695552051
:1040D00011F0812F8170882309F493CE2A812295D3
:1040E00026952770220F220F4A814F7050E070E012
:1040F00060E0022E04C0440F551F661F771F0A940C
:10410000D2F76A8080E090E0DC0164FE0FC08FE0AF
:1041100090E0A0E0B0E004C0880F991FAA1FBB1F69
:104120002A95D2F780959095A095B095212F269548
:1041300026952370223029F1D8F440904F065090F4
:1041400050066090510670905206213069F0842B21
:10415000952BA62BB72BBC01CD016421752186219F
:1041600097210E949F074DCE44295529662977291A
:104170002A013B01482A592A6A2A7B2AC301B20133
:10418000F0CF842B952BA62BB72B40904F06509049
:1041900050066090510670905206BC01CD01642516
:1041A000752586259725DDCF012F0F705980552065
:1041B00029F0802F0E94E8078A8199CE8A810E9487
:1041C000A506802F0E94A9071CCE8A8122EF622EAD
:1041D000E61409F459C06E1488F090EF792EE714B4
:1041E00051F121EFE21609F446C04980442009F458
:1041F00086C00111ECCD812F8F7143C033EFE316E0
:1042000009F448C044EFE412F0CF809139064980A8
:10421000442009F461C00E94970580913C06877094
:10422000843009F04BC00E94DC05812F8F710E9401
:10423000A907D12CE6CD49804420C9F0053008F00B
:10424000E0CD212F2F7161E070E080E090E004C0AC
:10425000660F771F881F991F2A95D2F740904F0647
:1042600050905006609051067090520698CF0630DC
:1042700008F0C7CDE6CF812F8F715980552009F402
:10428000A1CF0E94E807BDCD812F8F716980662084
:10429000C1F398CF7980772071F0212F2F7161E0E1
:1042A00070E080E090E004C0660F771F881F991FC0
:1042B0002A95D2F756CF0E941F08A3CD033008F0ED
:1042C000B8CF212F2F712A83822F0E94E80763E045
:1042D0008A810E940908ADCF90913F06982B909358
:1042E0003F06033040F00E94DC050E94E30564E0D5
:1042F000812F8F71EECF81E00E94CC079ACF0023EF
:1043000041F0893309F43DCE8FE39CE90197F1F741
:104310003FCE812F8F7156CFEA81E05FE73008F002
:1043200061C0F0E0E95BF04D0C94A32E498044207D
:1043300009F467CD8091D80591E0892707C059809D
:104340005092D8055ECD81E0698086258093D8059E
:1043500058CD798081E07720C9F353CD4980411051
:1043600050CD1092D8054DCD59805520C1F082E036
:104370008093D50581E08093D8050E9466059093CF
:10438000D4058093D30520913A0630913B06232B28
:1043900009F437CD90933B0680933A0632CD809155
:1043A000D505823021F481E08093D5052ACD833074
:1043B00009F027CD1092D5051092D8051092D4059A
:1043C0001092D3051ECD6980662041F08091D705FB
:1043D000882309F4AFCF1092D70513CD053008F02C
:1043E00010CDA8CF8091D7050023E1F0882341F0BC
:1043F0008091D80591E089278093D8051092D70540
:1044000079807110E4CC8FE39CE90197F1F700C04B
:1044100000008A810E94A70886E0D4011D928A9537
:10442000E9F7EFCC882309F4ECCC49804110E9CCC2
:104430008091D80591E089278093D805CCCF813031
:1044400009F0F9CC1092D5051092D8051092D40538
:104450001092D305F0CC4A805B8026E142162CE511
:10446000520609F01CCC8091D2058111FFCB89E264
:10447000E0E9F2E026E932E09191891303C0DF011F
:1044800011971C922E173F07B9F717C04A805B801F
:1044900026E142162CE5520609F0EACB80913F0650
:1044A0008A7A91E009F490E09093D20569E2811153
:1044B00065E38EE892E00E9472050E949E050C94CE
:1044C0005D180F900F900F90DF91CF911F910F917A
:1044D000FF90EF90DF90CF90BF90AF909F908F9024
:1044E0007F906F905F904F903F902F900895BF9274
:1044F000CF92DF92EF92FF920F931F93CF93DF93B0
:104500008091DE05807F61F48091DB05882341F096
:10451000C091100686E0B82E8091DF058C130AC08A
:10452000DF91CF911F910F91FF90EF90DF90CF908F
:10453000BF900895F090D905E090DA05C090DC05B1
:10454000D090DD05A6016E2D8F2D0E947B06D0E058
:1045500081113FC0BC9E8001BD9E100D1124F80149
:10456000E052FA4F51815E1134C040814F1131C089
:10457000828181112EC0E380F480EC18FD0820E0D8
:104580006091DB057091DC058091DD050E94250CB2
:104590000E946203E816F906E0F48091DE058F7050
:1045A00080618093DE05F801EB51FA4F80818F70B6
:1045B0008061808389ED95E00E94DD16DF91CF91C7
:1045C0001F910F91FF90EF90DF90CF90BF900C94D0
:1045D00086062196C770A0CF5F926F927F928F92CE
:1045E0009F92AF92BF92CF92DF92EF92FF920F9382
:1045F0001F93CF93DF93CDB7DEB761970FB6F894D3
:10460000DEBF0FBECDBF8C0185E0F801DE011D9637
:1046100001900D928A95E1F7D8017C901196EC906B
:10462000119712966C9089EDA82E85E0B82E809097
:10463000DC059090DD05A4016091DA058091D90533
:104640000E947B0681119BC1F801C380D480F09049
:10465000DB05C601881999094C0120E04091D90574
:104660005091DA05FF2009F443C16F2D7091DC05EC
:104670008091DD050E94250C0E9462035090DE05AA
:104680008816990608F0F5C04091DC055091DD05CB
:10469000B090D905A090DA05852D807F6A2D09F0AC
:1046A000A1C08B2D0E947B06F62C81112BC0AE1071
:1046B00029C0B71027C0611025C0852D8F7080617B
:1046C0008093DE0589ED95E00E94DD168091DE0580
:1046D000D80115968C938F2D61960FB6F894DEBF96
:1046E0000FBECDBFDF91CF911F910F91FF90EF9043
:1046F000DF90CF90BF90AF909F908F907F906F9002
:104700005F90089520E04091D9055091DA056091BD
:10471000DB057091DC058091DD050E94250C0E946F
:1047200062035C01A6016E2D872D0E947B06D82EA8
:10473000B4EFAB16B1E0BB06D0F081E08625D11016
:1047400080E080FF14C0462D6E2D872D0E945B06F1
:10475000882369F089ED95E00E94DD1686E0E9ED99
:10476000F5E0DF011D928A95E9F7F12CB4CF81E0E5
:104770008625D11080E0B82FB170CB2E80FF29C0E4
:10478000462D6E2D872D0E945B06D82E811121C0EB
:104790007D86EE868D859E850E94F70B292F2295BA
:1047A0002F70223050F0243078F49F7051F0F801CF
:1047B0009581907F31F4FD2C8ECF9F7011F088236E
:1047C000D1F3805E8830B8F3C8010E94DD16DC2C7E
:1047D000F2CF662009F47FCF8091DE05816080935F
:1047E000DE05C3CF8B2D0E947B06811115C0AE1054
:1047F00013C0B71011C061100FC0D80115965C929C
:10480000C8010E94DD1686E0F801A9EDB5E001902F
:104810000D928A95E1F75FCF7D86EE868D859E8528
:104820000E94010C882309F16620F9F08091DE05D1
:10483000803270F02091D9053091DA0538872F83C6
:104840001986DB86CA868C87CE0107960E94DD1604
:1048500086E0F801A9EDB5E001900D928A95E1F7A7
:104860000E947722FF24F39436CFC8010E94DD1600
:10487000F9CF852D807F09F46DCF9090D905809078
:10488000DA054091DC055091DD05682D892D0E94E7
:104890007B06811111C08E100FC097100DC06110E2
:1048A0000BC0F8015582C8010E94DD1686E0D501D3
:1048B0001D928A95E9F70FCF7D86EE868D859E85C0
:1048C0000E94010C882389F2662079F28091DE052E
:1048D000803208F4BDCF2091D9053091DA053A83B2
:1048E00029831B82DD82CC828E83CE010196AECFDE
:1048F00060E07091DC058091DD050E94250C0E942E
:1049000062038816990690F6F62C662009F4ADCF5E
:10491000D090D905C090DA054091DC055091DD05B5
:104920006C2D8D2D0E947B06811118C0CE1016C0F3
:10493000D71014C08091DE0580FD65CF982F907F41
:1049400009F461CFF8018583903F09F459CF982F7E
:10495000907F905F8F70892B858352CF7D86EE8606
:104960008D859E850E94010C811172CF8091DE059C
:1049700081608093DE05C8010E94DD16ACCE662002
:1049800009F473CF7D86EE868D859E850E94010C8D
:10499000F82E882309F469CF86E0F801A9EDB5E087
:1049A00001900D928A95E1F78091D9059091DA05F1
:1049B0000E94F70B92959F70963051F4863F41F01C
:1049C0008091D80591E089278093D8059093D705E9
:1049D0000E94772280CEFF920F931F93CF93DF9395
:1049E000CDB7DEB767970FB6F894DEBF0FBECDBF69
:1049F000F62E6D8B7E8B8F8B142F052F61111092ED
:104A00003E064E895F89602F812F0E947B068111AF
:104A100028C081E090E0012E01C0880F0A94EAF7D7
:104A2000A02FB0E0AF55BD4F2C913091D805F110BB
:104A300002C0322F3823332309F47FC0412F50E0C6
:104A400036E0039F400D511D1124440F551FFA01FC
:104A5000E15CFB4F0491FA01E25CFB4F1491822B65
:104A60008C931A8A198A1B8B0C8B85E0FE01739636
:104A7000DE011D9601900D928A95E1F70E94660570
:104A800020913A0630913B06821B930B883E93405F
:104A900020F080913C0682FF9CC00E946605209118
:104AA000400630914106821B930B883E934010F0E4
:104AB0000E948C050E9466052091D3053091D40593
:104AC000821B930B883E934028F08091D50581305E
:104AD00009F476C086E0FE013D96DE01179601904E
:104AE0000D928A95E1F7CE0107960E94EC22811182
:104AF00011C086E0FE013796DE01119601900D92FD
:104B00008A95E1F74A855B8568858F810E947B06DF
:104B10008823B1F016E0809110069091DF0589138B
:104B20003CC067960FB6F894DEBF0FBECDBFDF91D5
:104B3000CF911F910F91FF9008958095822390CF80
:104B40002091DF0530E0C9010196877099274091D7
:104B500010064817190699F096E0929FD001939F8E
:104B6000B00D1124A052BA4FFE01319601900D9262
:104B70009A95E1F78093DF050E948606CBCF0E94CD
:104B800019141092DF051092100686E0E9EDF5E0A9
:104B9000DF011D928A95E9F7BDCF819FC0011124E5
:104BA00080529A4F0E94EC22882309F4BACF809158
:104BB000100690E001968770992780931006ABCF7E
:104BC0001092D5051092D8051092D4051092D305F5
:104BD00081CF82E00E94CC0760CF8F929F92AF92EC
:104BE000BF92CF92DF92EF92FF920F931F93CF93DA
:104BF000DF9300D000D00F92CDB7DEB70CE612E005
:104C000095E5C92E96E0D92E4601F12CAA24A3944D
:104C1000B12CD8018D918D01F894E82FE295EF70B9
:104C2000F0E021A18F70A50102C0440F551F8A95A5
:104C3000E2F7CA01922F982B91A392A18095892324
:104C400082A3789400C0E6E7F2E030E020E0E12CB7
:104C50004191A42FA295AF70B0E090968C9190E016
:104C60004F7002C0959587954A95E2F780FD48C040
:104C70008A2D022E01C0880F0A94EAF7E82A2F5FD6
:104C80003F4F2630310521F7F801319780810E948E
:104C9000BD0950EA5A95F1F7D4018C91E81691F1CB
:104CA000EC9281E0F82ABFEF8B1A9B0AE2E0013711
:104CB0001E0709F0AECF10916006FF2029F181E0B8
:104CC000809398020E9466059093970280939602C3
:104CD00080919602909197020E944B050697C0F032
:104CE000E12FF0E0EB59F94FD6018D916D018193E1
:104CF000BAE5CB16B6E0DB06B9F71092980208C009
:104D000080E0BCCF80E0CECF809198028111E0CFCF
:104D10000E948611E82E60916006882309F4A6C0DF
:104D20008E010F5F1F4F85E0F80111928A95E9F718
:104D3000862F90E0B8018B59994F0E947E2C8111EB
:104D400030C0809199028F5F80939902863008F479
:104D500043C0E0915F06F0E0EB59F94FD801CE0176
:104D6000069611921D928A179B07D9F7809124020B
:104D70008F3F09F077C0F11001C0FE2C8F2D0F90EE
:104D80000F900F900F900F90DF91CF911F910F9187
:104D9000FF90EF90DF90CF90BF90AF909F908F905B
:104DA000089510929902A0915F06B0E0AB59B94FF7
:104DB0009E012A5F3F4FE12C4D91F80191918F01A7
:104DC000491731F0AD0141505109FA019083E82EA5
:104DD0000217130789F7CACFE12CC8CFC89CF0018E
:104DE000C99CF00D1124E45EFE4FA288B388A11483
:104DF000B10429F4818592850E9462035C01C89CFC
:104E00008001C99C100D1124045E1E4FD801169616
:104E10008C9116978823C9F01D968D919C910E94C4
:104E20004B05A816B90688F4DC9C50011124F80142
:104E30008189811105C0C501845E9E4F0E94F006E4
:104E4000C5018E5D9E4F0E941107D3948D2C912C2D
:104E500080912402082E000C990B881599050CF0FE
:104E6000BDCF89CFD12C86E1C82EF0CF70E06B5931
:104E7000794F80915F0690E08B59994F0E94AB2C3F
:104E80007ACF1F920F920FB60F9211242F933F9358
:104E90004F935F936F937F938F939F93AF93BF9342
:104EA000CF93DF93EF93FF93D091E900DF70809170
:104EB000EC00C82FC17080FDC0E81092E90080911D
:104EC000F000877F8093F00078940E942414109261
:104ED000E9008091F00088608093F000CD2BCF70C6
:104EE000C093E900FF91EF91DF91CF91BF91AF9116
:104EF0009F918F917F916F915F914F913F912F91F2
:104F00000F900FBE0F901F9018951F920F920FB623
:104F10000F9211242F933F934F935F936F937F933F
:104F20008F939F93AF93BF93EF93FF938091E10093
:104F300082FF09C08091E20082FF05C08091E100FC
:104F40008B7F8093E1008091DA0080FF24C0809104
:104F5000D80080FF20C08091DA008E7F8093DA0035
:104F60008091D90080FF9BC080E189BD82E189BD2D
:104F700009B400FEFDCF81E08093990680918C06F4
:104F8000811109C00E94AB030E9476048091E20067
:104F900084608093E2008091E10080FF17C08091DF
:104FA000E20080FF13C08091E2008E7F8093E200D8
:104FB0008091E20080618093E2008091D80080625D
:104FC0008093D80019BC85E0809399068091E10018
:104FD00084FF29C08091E20084FF25C080E189BD63
:104FE00082E189BD89B5982F917080FFFBCF8091B8
:104FF000D8008F7D8093D8008091E1008F7E8093D0
:10500000E1008091E2008F7E8093E2008091E200D7
:1050100081608093E20080919A06882309F445C05C
:1050200084E0809399068091E10083FF27C08091FE
:10503000E20083FF23C08091E100877F8093E1003D
:1050400082E08093990610929A068091E1008E7F0B
:105050008093E1008091E2008E7F8093E200809156
:10506000E20080618093E20042E060E080E00E9424
:1050700044048091F00088608093F000FF91EF91EC
:10508000BF91AF919F918F917F916F915F914F9160
:105090003F912F910F900FBE0F901F90189519BC44
:1050A0001092990610928C0676CF8091E30087FDCE
:1050B00093E090939906B7CFCDB7DEB760970FB660
:1050C000F894DEBF0FBECDBF84B7877F84BF0FB615
:1050D000F894A89580916000886180936000109298
:1050E00060000FBE80E890E00FB6F89480936100F6
:1050F000909361000FBE85B7806885BF85B78068D3
:1051000085BF85E395E090938D0280938C020E9489
:10511000AB030E9476048091E20084608093E200F9
:105120007894809199068823A1F01091E9001F706E
:105130009091EC00892F817090FD80E8182B1092DF
:10514000E9008091E80083FD0E9424141F701093F1
:10515000E90082E084BD93E095BD9AEF97BD80930E
:105160006E0010924B0610924C0610924D06109253
:105170004E060E948611809325020E94861181119D
:105180000E94722C809125028091250295E0811168
:1051900090E09093600685E0891B80935F0686E629
:1051A0000E94BD0987E90E94BD0986EC0E94BD09E5
:1051B00084E30E94BD0985E30E94BD0986EF0E9439
:1051C000BD0987EF0E94BD0981E30E94BD0983E309
:1051D0000E94BD0982E30E94BD0986E30E94BD09C9
:1051E000E5E5F6E08FE596E0A5E6B6E011921D92C2
:1051F0008E179F07D9F790E080E00E94E72E8A3E45
:105200009E4F11F00E94941382E090E00E94DF2EE6
:10521000809381060E945C109093540680935306FD
:105220000E94ED258FE39CE90197F1F700C0000093
:105230000E94ED258091650680FF08C06FEF7FEF2B
:1052400090E080E00E940B2F0E943A0583E090E0FE
:105250000E94DF2E682F70E090E080E00E9424081A
:105260000E948611811102C00E94782C8091250233
:10527000811106C084EF8093270285EF8093260278
:1052800020912702A22FA295AF70B0E091963C9199
:1052900091972F7081E090E0BC01022E01C0660F53
:1052A0000A94EAF7462F4095432391964C939197A1
:1052B00092963C919297362B92963C93929740917E
:1052C0002602E42FE295EF70F0E031A14F70042E3A
:1052D00001C0880F0A94EAF7982F9095932391A321
:1052E00092A1892B82A390968C9190E002C0959513
:1052F00087952A95E2F7817020A130E002C03595AC
:1053000027954A95E2F792E020FF90E0892B809361
:1053100073069091250281E0982790937206891B6D
:105320008093610688E292E0909363068093620620
:1053300008E110E020E4C22E85E696E03AE0D32EA4
:10534000D80E80919906853069F480E1E82E92E1CB
:10535000F92E80919906853009F478C10E941914BC
:105360000E94E4060E94ED2581110E945A05A2E8E0
:10537000B6E0E5E6F6E0F12CE12C8E2CA1908D91C3
:105380008A1509F49CC18A25912CBB24B3949B2DCA
:10539000982309F48FC10E948611882399F09F8277
:1053A0008886AB2081E009F480E089870E94660549
:1053B0008160782F9B878A874F81588569858B8587
:1053C0000E94EB24F701EE57F94F8081B826B08296
:1053D00080917306E82FEE0FEE0F90912702A92F10
:1053E000A295AF70B0E090962C9130E09F7002C013
:1053F000359527959A95E2F72170332790912602EB
:10540000A92FA295AF70B0E090964C9150E09F709C
:1054100002C0559547959A95E2F7CA018170992780
:1054200040FF02C082E090E0822B8E2B80937306B7
:10543000F09072068F70E82FF0E0E458FD4F808105
:1054400090917106890F8093710620E0843064F09A
:10545000EF2DF0E0E159F94F80818F5F808361E0AB
:105460008F2D0E946A1221E0809171068D3F64F4B5
:10547000EF2DF0E0E159F94F80818150808360E0A9
:105480008F2D0E946A1221E080917106082E000C77
:10549000990B64E070E00E948F2E809371062111B9
:1054A0000E94B60686E0EAE7F6E0DE01119601907A
:1054B0000D928A95E1F7B0907C06A0907D06F09061
:1054C0007E06E0907F0610927C0610927D06109278
:1054D0007E0610927F068B2D8A2909F448C08091A0
:1054E0007806909179060E944B059C019091770671
:1054F000992309F428C128303105C8F19F3F19F0DC
:105500009F5F90937706BB2059F00E94E2089FEFBF
:105510001B140CF491E0899F802D112480937C064C
:10552000AA2059F00E94E2089FEF1A140CF491E0AF
:10553000899F802D112480937D0630917C06332332
:10554000B1F020917D06222391F045EB3403C00198
:105550001124992309F4CCC090937C0645EB2403D5
:1055600090011124332309F4C7C030937D068F2D99
:105570008E2909F448C080917506909176060E94A4
:105580004B059C0190917406992309F4D7C02536E8
:105590003105C8F19F3F19F09F5F90937406FF207B
:1055A00059F00E94E0089FEF1F140CF491E0899FCE
:1055B000802D112480937E06EE2059F00E94E00891
:1055C0009FEF1E140CF491E0899F802D112480938D
:1055D0007F0630917E063323B1F020917F0622238F
:1055E00091F045EB3403C0011124992309F488C0DC
:1055F00090937E0645EB240390011124332309F494
:1056000083C030937F0680917C0690917D06892B24
:1056100090917E06892B90917F06892B11F00E9434
:105620005B0786E0FE013196AAE7B6E001900D9295
:105630008A95E1F70E94E40690918006891709F4A3
:1056400080CE0E94E406809380067BCE80919906EE
:10565000843009F1109264060FB6F894A89500936F
:1056600060000FBEC092600083B7817F846083BFFB
:1056700083B7816083BF7894889583B78E7F83BF1B
:105680000FB6F894A89580916000886180936000BF
:10569000109260000FBE80919806882309F459CEBD
:1056A0000E94ED25E5E6F6E08191811131C0DE1220
:1056B000FBCF4FCE9394BB0C96E0991268CE2FEFA0
:1056C000E21AF20A4AE0E416F10409F056CE8FEF2E
:1056D0008C878D871E860E9466058160782F988B47
:1056E0008F874C855D856E8588890E94EB2470CEFE
:1056F00081E080937C0632CF81E080937D0637CFB6
:1057000081E080937E0676CF81E080937F067BCF19
:10571000E9BCF9BC09B400FEFDCF8091D8008F7DB3
:105720008093D8008091E00082608093E0008091B7
:10573000E00081FDFCCF0E9419140BCE2D323140C8
:1057400008F02ACF60CF232B09F0DACE10CF0F93C9
:105750001F930E948611882321F01F910F910C94B2
:105760005A050E945A0500914B0610914C06209153
:105770004D0630914E06600F711F821F931F1F91BF
:105780000F910895CF92DF92EF92FF926B017C010F
:105790000E94861181110EC00E945A05C61AD70AAE
:1057A000E80AF90AC0924B06D0924C06E0924D06E8
:1057B000F0924E06FF90EF90DF90CF90089578948E
:1057C0001F921FB61F9211248F939F93AF93BF9385
:1057D0008091470690914806A0914906B0914A06EB
:1057E0000196A11DB11D8093470690934806A09392
:1057F0004906B0934A06BF91AF919F918F911F9038
:105800001FBE1F9018951F921FB61F9211248F93D1
:105810009F93AF93BF9380916406811113C08091D1
:10582000470690914806A0914906B0914A064196D4
:10583000A11DB11D8093470690934806A093490689
:10584000B0934A06BF91AF919F918F911F901FBE59
:105850001F901895FF920F931F93CF93DF93D091D2
:1058600061060D2F10E00159194FFC01C081F801AC
:105870008081C81BFC2E80E01F147CF09C2FC7FD8C
:1058800090E0C91BC11114C08823E9F0DF91CF91CA
:105890001F910F91FF900C94B606FA94F801808145
:1058A0008F5F808361E08D2F0E946A1281E0E4CFD8
:1058B000CF5FF80180818150808360E08D2F0E944E
:1058C0006A1281E0DFCFDF91CF911F910F91FF909E
:1058D0000895E0917206F0E0E159F94F2081FC0152
:1058E0002083089561E070E083E392E00C942F2D13
:1058F00061E070E083E392E00C94382DCF93DF9366
:10590000D62FC72F90E080E00E94112E009709F556
:10591000ED2FFC2FDC01A855B94F2C912193019656
:1059200085309105B9F78DEA96E00E942A2C0E94F5
:10593000A72B6E5F7F4F8F4F9F4F6093A40670938E
:10594000A5068093A6069093A70681E0DF91CF91EC
:10595000089580E0FBCFCF93DF93D62FC72F6091C0
:10596000A4067091A5068091A6069091A7060E94B4
:10597000C22BED2FFC2F90E080E02191DC01A85597
:10598000B94F2C93019685309105B9F78DEA96E0D1
:10599000DF91CF910C94692C8EE14A9B02C081501B
:1059A000E1F74A9BFECF08955A9880E28A95F1F775
:1059B0005A9A0895FC013BE03A95F1F720E090E017
:1059C00080E031E040E14A95F1F7880F4A9B02C040
:1059D0008160232742E04A95F1F7000040E14A95B3
:1059E000F1F79F5F6913EECF90E19A95F1F799B1C6
:1059F00032E03A95F1F7000040E14A95F1F792FB69
:105A0000992790F992272081920F90830895EF9221
:105A1000FF920F931F93CF93DF930F92CDB7DEB713
:105A200019828C017C01E60EF11C0E151F0561F434
:105A300081E09981911180E00F90DF91CF911F91CA
:105A40000F91FF90EF9008950E94CC2C68E0CE015A
:105A500001960E94DA2CF80181938F01E6CF909392
:105A6000B0068093AF066093AE06529A5A9A089594
:105A70009093B0068093AF066093AE0652985A9A00
:105A8000EA9AE9E6F0E080818F7C80830895615096
:105A9000770B91E001C0990F6A95EAF720E031E0B9
:105AA000911108C0222391F05A9A80E28A95F1F769
:105AB0005A980895492F482339F05A9A232740E2EB
:105AC0004A95F1F79695ECCF5A98F9CF5A98EDCFC1
:105AD000FF920F931F93CF93DF93EC018C01060F7E
