:100000000C9412060C9459060C9459060C94C034A6
:100010000C9459060C9459060C9459060C945906E4
:100020000C9459060C9459060C94E20F0C94871505
:100030000C9458320C9459060C9459060C94590699
:100040000C9459060C9459060C9459060C945906B4
:100050000C9459060C94F1100C9459060C94590602
:100060000C9459060C9459060C9459060C94590694
:100070000C9459060C9459060C9459060C94590684
:100080000C9459060C9459060C9459060C94590674
:100090000C9459060C9459060C9459060C94590664
:1000A0000C9459060C9459060C9459060102E0610F
:1000B000630103E0000102E061760103E00000005B
:1000C0000000000000000000000000000000000030
:1000D0000000000000000000000000000000000020
:1000E00000007E0F00D4FFFFFFC700000078000073
:1000F0000000000000002A2B280000000000000083
:1001000000000000000000000029000000002C1E7C
:100110003420212224342627252E362D3738271E39
:100120001F202122232425263333362E37381F045F
:1001300005060708090A0B0C0D0E0F1011121314F7
:1001400015161718191A1B1C1D2F3130232D3504B5
:1001500005060708090A0B0C0D0E0F1011121314D7
:1001600015161718191A1B1C1D2F3130354C354424
:10017000015702570357045705572B6314001A0001
:100180000800150017002961040016000700090087
:100190000A00E1001D651B00060019000500E300D0
:1001A0000100E20002512C621B010B570A5709574C
:1001B0000857075706572F63130012000C0018004A
:1001C0001C00347100570F000E000D000B00E500FD
:1001D0003865370036001000110031002845E60070
:1001E0002A432C42AE0029001E001F0020002100DF
:1001F00022002B0014001A00080015001700E00070
:1002000004001600070009000A00E1001D001B00A1
:1002100006001900050042002A00E20004512C00EB
:10022000A800065D2B5D055D045D085D075D2F0080
:10023000130012000C0018001C00340033000F00E3
:100240000E000D000B002A003800370036001000A9
:1002500011003100E700E6002A4328000153460060
:100260003A001F003C003D003E0039005F5D370250
:10027000300027023002065D625D36022F00260242
:100280002F02045D075D1B040604190405042B5DA1
:100290000100010001000100645D440043004200D0
:1002A000410040003F0045005500610060005F00D4
:1002B0008500570062005E005D005C00630058002E
:1002C00054005B005A005900010001000100560073
:1002D0004C01010001530100010001000100010077
:1002E000010001000100F100ED000100F900010032
:1002F000F200EF00EE00F000FA0001000100010042
:1003000001000100010001000100FD004C01FD00A1
:10031000010023082208210820081F081E084B009E
:10032000490001004D004A004C004E0028004F00DB
:10033000520051005000635D625D655D4F015001E8
:10034000665D0100010001000100010001000100E3
:100350000100010001000100010001000100010095
:100360000100010001000100010001000100010085
:100370000100010001000100010001000100010075
:100380000100010001000100010001000100010065
:100390000100010001000100010001000100010055
:1003A0000100010001000100010001000100010045
:1003B0000100010001000100010001000100010035
:1003C0000100010001000100090A01000100010013
:1003D0000100010001000100010001000100010015
:1003E00001000100605D615D01000100010001008C
:1003F00001000100010001000100010001000100F5
:100400000100A600A5000100010001000100005C40
:100410000100010001000100010001000100AB002A
:10042000AE00AC00010001000100A900A800AA0074
:1004300001000100010001000100010001000708A6
:100440007F0807003E5B4F5B3E003E6B4F6B3E00FC
:100450001C3E7C3E1C00183C7E3C18001C577D57FF
:100460001C001C5E7F5E1C0000183C180000FFE7AB
:10047000C3E7FF00001824180000FFE7DBE7FF00D8
:1004800030483A060E00262979292600407F0505C6
:100490000700407F05253F005A3CE73C5A007F3E5D
:1004A0001C1C0800081C1C3E7F0014227F22140024
:1004B0005F5F005F5F0006097F017F00006689952E
:1004C0006A0060606060600094A2FFA2940008046B
:1004D0007E04080010207E20100008082A1C080056
:1004E000081C2A0808001E10101010000C1E0C1EFC
:1004F0000C0030383E383000060E3E0E060000007C
:100500000000000000005F0000000007000700007E
:10051000147F147F1400242A7F2A120023130864F6
:100520006200364956205000000807030000001CF6
:10053000224100000041221C00002A1C7F1C2A00CE
:1005400008083E080800008070300000080808080D
:1005500008000000606000002010080402003E5106
:1005600049453E0000427F4000007249494946002B
:100570002141494D33001814127F1000274545458D
:1005800039003C4A494931004121110907003649E7
:1005900049493600464949291E0000001400000060
:1005A0000040340000000008142241001414141408
:1005B00014000041221408000201590906003E41BE
:1005C0005D594E007C1211127C007F49494936006A
:1005D0003E41414122007F4141413E007F4949491E
:1005E00041007F09090901003E41415173007F0824
:1005F00008087F0000417F4100002040413F01008A
:100600007F08142241007F40404040007F021C02CE
:100610007F007F0408107F003E4141413E007F097A
:10062000090906003E4151215E007F091929460053
:1006300026494949320003017F0103003F40404001
:100640003F001F2040201F003F4038403F00631400
:10065000081463000304780403006159494D430002
:10066000007F414141000204081020000041414147
:100670007F000402010204004040404040000003AB
:10068000070800002054547840007F284444380074
:10069000384444442800384444287F003854545493
:1006A000180000087E09020018A4A49C78007F08A6
:1006B0000404780000447D4000002040403D0000DC
:1006C0007F102844000000417F4000007C04780433
:1006D00078007C0804047800384444443800FC184E
:1006E0002424180018242418FC007C0804040800A2
:1006F00048545454240004043F4424003C40402007
:100700007C001C2040201C003C4030403C00442821
:10071000102844004C9090907C004464544C440059
:100720000008364100000000770000000041360854
:1007300000000201020402003C2623263C000000C7
:1007400000000000404040F0F8F8FF38FFF8F83FA4
:10075000F8F8FF38FFF8F8F04040400000000000D3
:100760000080C0C0C0800000C0C08000000080C009
:10077000C000C0C0000080C0C00000000000C0C0B9
:10078000C0C0C000C0C000000000000000000000A9
:100790000000000000000000000000000000000059
:1007A0000000000000000000000000000000000049
:1007B00000000000000000000000000000C0F0F891
:1007C000FC3E1E06010000007F4141417F007F4149
:1007D00041417F000080C0E07E5B4F5BFEC00000B7
:1007E000C000DCD7DEDEDED7DC00C0000000000089
:1007F00000000000000000000000000000000000F9
:1008000000000000494949FFFFFFFFE0DFBFBF00D4
:10081000BFBFDFE0FFFFFFFF4949490000000000C4
:100820001F3F6060E0BF1F007F7F071E381E077FED
:100830007F007F7F0E1F3B716000000000007F7F04
:100840000C0C0C007E7E007F7E0303007F7E030382
:100850007E7E03037F7E000F3E703C063C703E0FA1
:1008600000327B49493F7E007F7E0303001E3F69C3
:10087000696F2600000000000000000000030F1F49
:100880003F3C7870600000007F4141417F007F4124
:1008900041417F00307B7F7830202030787F3B00E3
:1008A00003000F7F0F0F0F7F0F00030000000000F9
:1008B0000000000000000000000000000000000038
:1008C00000000000010101070F0F7F0F7F0F0F7E57
:1008D0000F0F7F0F7F0F0F070101010000000000C5
:1008E0000000000000010100000000000000000006
:1008F00000000000000000000000000000000000F8
:1009000000000000000000000000000000000000E7
:1009100000000000000000000000000000000000D7
:1009200000000000000000000000000000000000C7
:1009300000000000000000000000000000000000B7
:1009400000000000000000000000000000000000A7
:100950000000000000000000000000000000000097
:100960000000000000000000000000000000000087
:100970000000000000000000000000000000002354
:100980000000050105020503050405050500060133
:100990000602060306040605060007010702070310
:1009A00007040705070008010802080308040805F2
:1009B00008000901090209030904090509000001E9
:1009C0000002000300040005000001010102010310
:1009D00001040105010002010202020302040205F2
:1009E00002000301030203030304030503000401DF
:1009F0000402040304040405040102E201013D01B0
:100A000003E2000102E00101500103E00102E10103
:100A100002E001014F0103E00103E1003D3E00213E
:100A20002324507831303121003837316666353033
:100A30003039353161000102E061780103E00000E6
:100A4000DA028101D9F1DB20A4A62EAF00A0C000FC
:100A5000A1C800AED580A81FD300408D142000434C
:100A600050534C4B000A0A00556E646566005F47A0
:100A7000504C5553004E6176004E756D0047616DC8
:100A8000650A00426173650A004C41594552000AEB
:100A90000A004D6F640A0047414D45212121212163
:100AA000210051777274000A0A0080818283848554
:100AB000868788898A8B8C8D8E8F9091929394A053
:100AC000A1A2A3A4A5A6A7A8A9AAABACADAEAFB09E
:100AD000B1B2B3B4C0C1C2C3C4C5C6C7C8C9CACB0A
:100AE000CCCDCECFD0D1D2D3D40000232005010964
:100AF00002A10185020901A10005091901290815B2
:100B0000002501950875018102050109300931159B
:100B100081257F95027508810609381581257F9505
:100B20000175088106050C0A38021581257F95019B
:100B300075088106C0C005010980A101850319015E
:100B40002AB700150126B700950175108100C00570
:100B50000C0901A101850419012AA002150126A092
:100B600002950175108100C005010906A101050764
:100B700019E029E715002501950875018102950105
:100B8000750881010507190029FF150026FF00954A
:100B9000067508810005081901290595057501915B
:100BA00002950175039101C009023B00020100A0FA
:100BB000FA090400000103010100092111010001EB
:100BC0002240000705810308000A0904010001030F
:100BD000000000092111010001227B0007058203AA
:100BE00020000A120110010000000832FC870201F7
:100BF00000010200010C0353006F0066006C0065E9
:100C00000000001A034A006F00730065006600418F
:100C100000640061006D00630069006B0000000467
:100C20000309040011241FBECFEFDAE0DEBFCDBF01
:100C300004B603FE27C08091F6089091F708A091B2
:100C4000F808B091F9088730904BA740B04BD1F429
:100C50001092F6081092F7081092F8081092F9080E
:100C600014BE84B7877F84BF0FB6F894A89580918F
:100C70006000886180936000109260000FBEE0E029
:100C8000F8E3099512E0A0E0B1E0ECE5FDE602C072
:100C900005900D92AC39B107D9F728E0ACE9B2E084
:100CA00001C01D92A63FB207E1F70E94152D0C94DA
:100CB00081360C940000823025E5920721F160F422
:100CC000893F910530F08B3F9105D0F08A329344F3
:100CD000D1F08DE790E008958C3027E5920750F42D
:100CE000813027E5920778F48115974591F784EBD9
:100CF00090E0089583369D4561F784EF91E0089573
:100D00008AE090E0089588EC90E00895E8EDF0E046
:100D100080818E7F80831092E2001092DA00109220
:100D2000E100A0EEB0E08C9181608C9380818F77A0
:100D3000808319BCA7EDB0E08C918E7F8C9380816D
:100D40008F7E80831092D10808952091E400309125
:100D5000E50095E6A9012091EC00822F817020FF2B
:100D600006C08091E80080FF06C080E008952091D1
:100D7000E80022FD1AC08091DE08882389F08530C2
:100D800089F08091EB0085FD0FC02091E400309147
:100D9000E50042175307F9F29150E1F684E0089517
:100DA00082E0089583E0089581E00895EF92FF9234
:100DB0000F931F93CF937C018B010E94A506C82F30
:100DC000811117C08091E80085FD0BC08091E8007B
:100DD0008E778093E8000E94A506882399F3C82F98
:100DE00008C0F70181917F018093F1000150110942
:100DF00049F78C2FCF911F910F91FF90EF9008959D
:100E00008091E00887FF13C08091E80082FF06C050
:100E10008091E8008B778093E80004C08091DE0821
:100E20008111F2CF08958091DE088823D9F3809153
:100E3000E80080FFF8CF8091E8008E77ECCF982F04
:100E40009093E900242F762F50E0891731F07091AC
:100E5000EC002091ED005091F00021FD07C09F5F54
:100E6000973071F78093E90081E008953091EB00AD
:100E70003E7F3093EB003091ED003D7F3093ED00ED
:100E80003091EB0031603093EB007093EC002093D5
:100E9000ED005093F0002091EE0027FDE0CF80E0C0
:100EA0000895CF92DF92EF92FF920F931F93CF930B
:100EB000DF93C8EDD0E088818F7E8883E7EDF0E096
:100EC00080818160808384E082BF81E08093D1084B
:100ED00088818E7F888302EE10E0F80110821092E4
:100EE000DA0081EEC82ED12CF601108288818F772E
:100EF000888388818068888388818F7D888319BCF6
:100F00001092DE081092DF081092DD081092DC08C3
:100F100090EEE92EF12CF70180818B7F8083888110
:100F20008160888342E060E080E00E941F07F60154
:100F300080818E7F8083F8018081816080838081C1
:100F400088608083F70180818E7F808388818061C3
:100F50008883DF91CF911F910F91FF90EF90DF90E9
:100F6000CF900895FC018091E6089091E7088617DC
:100F70009707A0F06115710529F49091E8009E771C
:100F80009093E80090E06115710551F4911108C04B
:100F90008091E80082FF34C080E00895BC01F2CF68
:100FA0008091DE088823C1F18530C1F18091E8008D
:100FB00083FD30C08091E80082FDEACF8091E80097
:100FC00080FFE1CF8091F3002091F200382F61156E
:100FD000710519F02830310558F091E028303105BD
:100FE00009F090E02091E8002E772093E800CBCF25
:100FF00081918093F100615071092F5F3F4FE7CFDE
:101000008091DE08882341F0853041F08091E8002E
:1010100083FFBECF81E0089582E0089583E00895C4
:1010200080E008958091D308089587E797E790932B
:1010300001088093000888E19AE00FB6F894A8951B
:10104000809360000FBE90936000FFCF9C014FB76C
:10105000F89480915D0690915E06A0915F06B09134
:1010600060064FBF821B930B08952FB7F8946091D1
:101070005D0670915E0680915F06909160062FBFBD
:1010800008959C01FC0132969FEF80E04191461744
:1010900051F09F3F19F4411101C0982F8F5F8630A6
:1010A000A9F79F3F09F40895290F311D97FD3A953F
:1010B000F9016283089580915806882331F01092D7
:1010C00058061092570610925606089580959091F2
:1010D0005506982390935506089510925206109243
:1010E000510610925006089580914F06811110927A
:1010F0004F060895E92FEE0FE90FEE0F8E0F982F90
:10110000977086958695869525E0829FF00111243B
:10111000E95DF94F50E040E080E0219130E0092E98
:1011200002C0369527950A94E2F721703327042EE2
:1011300001C0220F0A94EAF7822B4F5F5F4F4530C0
:10114000510559F70895E92FEE0FE90FEE0F8E0FB5
:10115000982F977041E001C0440F9A95EAF7869561
:101160008695869595E0899FF0011124E95DF94FF8
:1011700030E020E070E05191DF011197CB01022EA9
:1011800002C0969587950A94E2F78170819585272C
:10119000842385278C932F5F3F4F2530310559F7E6
:1011A00008954091890650918A0660918B0670914E
:1011B0008C06411551056105710529F441E0811145
:1011C00040E0842F089504C076956795579547951C
:1011D0008A95D2F74170F5CF209126069091F505BA
:1011E00056E0291302C080E0089530E0529FF001DC
:1011F000539FF00D1124EA50FA4F7181761306C007
:101200007081781303C07281741304C02F5F3F4F45
:101210002770E7CF81E00895452B39F0682381E0FE
:101220006F3F09F080E08170089581E0FCCF8091EC
:1012300026069091F505981301C008958F5F877079
:10124000FACF0C9435082091B5023091B6022817D8
:10125000390771F09093B6028093B502E09187064A
:10126000F0918806309721F00084F185E02D0994F3
:1012700008952091B3023091B4022817390771F014
:101280009093B4028093B302E0918706F0918806B0
:10129000309721F00680F781E02D09940895E091C0
:1012A0008706F0918806309721F00190F081E02DBB
:1012B000099480E008954091C1088D3E59F48091D1
:1012C000C20887FF0DC01092C20841110BC01092D6
:1012D000BC0808C08E3E81F48091C20818169CF3A9
:1012E000442381F08091C3089091C408892B09F0B0
:1012F0005AC01092B90808958F3E49F447FFF0CFC5
:101300001092C1088091C2088111ECCFE0CF803FDC
:1013100019F41416ACF3E4CF9091C308893F29F473
:101320001916F4F61092C308DBCF8A3F19F497FF21
:10133000D7CFF8CF9091C4088B3F29F497FFD0CF37
:101340001092C408CDCF8C3F19F41916CCF3C8CF36
:101350009FE0980F983090F4815F990B21E030E086
:10136000B90102C0660F771F8A95E2F7CB0180951D
:101370009091C00889238093C008B2CF8D3F31F48B
:101380008091EC058E7F8093EC05AACF8E3F21F4EF
:101390008091EC058D7FF7CF8F3F09F0A1CF809131
:1013A000EC058B7FF0CF089581E008958091EC05E6
:1013B00080FD16C081FD16C082FD18C08091BC085A
:1013C000882391F0883290F42FE0829FC00111248D
:1013D00068E270E00E94ED35862F672B49F0089592
:1013E00083E0089587E0089585E008958FE00895EB
:1013F00081E008958D3E31F40E94D6098195809355
:10140000C20808958E3E19F40E94D609F8CF8F3E87
:1014100031F40E94D60981958093C1080895803FD8
:1014200019F40E94D609F8CF893F29F40E94D40903
:101430008093C30808958A3F21F40E94D4098195BE
:10144000F7CF8B3F31F40E94D40981958093C40873
:1014500008958C3F19F40E94D409F8CF9FE0980FAB
:10146000983070F4815F990B21E030E001C0220FC9
:101470008A95EAF78091C008822B8093C00808956E
:101480008D3F31F48091EC0581608093EC050895E7
:101490008E3F21F48091EC058260F7CF8F3FB9F742
:1014A0008091EC058460F1CFF894E82FE295EF701D
:1014B000F0E031A1282F2F7081E090E001C0880F6B
:1014C0002A95EAF7982F9095932391A392A1892BBF
:1014D00082A3789408959091650692FF06C0282F04
:1014E00028712830F9F4877F846093FF06C0282F85
:1014F00028712831F1F4877E84612091660620FFEF
:1015000006C0382F38713830D9F4877F816021FFC9
:1015100006C0282F28712831D1F4877E816194FD7F
:10152000877E0895282F24712430F9F68B7F8860F8
:10153000DCCF282F2471243101F78B7E8861DDCF29
:10154000382F3171313019F78E7F8860E0CF282F26
:101550002171213121F78E7E8861E1CFCF93DF9316
:10156000972F70E026E0929F600D711D1124FB0102
:101570003CE3839FE00DF11D1124EE0FFF1FE259A4
:10158000FE4FC591D491CE01C238D105B9F1E8F52D
:10159000C133D10509F499C050F5C932D10509F418
:1015A0008DC0CA32D10509F497C0C11542E5D407F0
:1015B00008F0C4C0C11521E5D20708F032C1C83E09
:1015C000D10508F09DC0C03ED10568F5C83AD105E7
:1015D00008F089C0C53AD10508F0FFC0C130D10577
:1015E00011F1209709F443C02497E8F440C0C533B3
:1015F000D10509F45CC0C933D105B9F6209165065F
:10160000237089F080EE90E00EC0C33ED10591F1C9
:1016100068F4C03ED105F9F0C23ED10531F6209103
:10162000650622FD20C0DF91CF910895C63ED10509
:1016300061F1C73ED10581F1C43ED10509F0B5CFB6
:101640002091660621FFEFCF8091650684FD0FC0D3
:1016500087EE90E0E8CF2091650620FD14C130911F
:10166000660630FFE0CF83EE90E024FFDCCF90E011
:1016700080E0D9CF2091650622FD08C13091660631
:1016800030FDC0CF24FFCFCFF2CF2091650623FFDE
:10169000CACF24FDECCFDCCF2091650623FDF9C035
:1016A0003091660631FFEECF84EE90E0BCCF209102
:1016B000650625FFB8CF89E290E0B5CF2091650699
:1016C00025FFB1CF85E390E0AECF2091650626FFE0
:1016D000AACF8AE290E0A7CF2091650626FFA3CF8C
:1016E00081E390E0A0CFCF3BD10508F6C85AD0E007
:1016F000CC0FDD1FCB5BDD4F88819981946493CF44
:10170000C11530E2D30760F4C11541E0D40708F0F9
:101710008ACFCE019065CD3ED10508F084CFA7CF0A
:10172000C11580E4D80708F4A2CFC11590E5D90708
:1017300008F05BC0CE019F70906A75CFC11526E599
:10174000D20718F5C11535E5D30708F080C0C115DB
:1017500044E5D40708F076C09C2F96959695AE0187
:1017600043705527C115D34508F460C021E030E02F
:1017700002C0220F331F4A95E2F740E2949FC00156
:101780001124822B932B9A684ECFC11599E5D90766
:1017900070F4C11528E5D20708F063C0C11537E51C
:1017A000D30708F064CFCE01992790663CCFC115CE
:1017B0004AE5D40708F45AC0CE01905681159042EC
:1017C00008F055CF8D2F8F710E946B0A90E0982FF3
:1017D000882788279F718C2B42C0C55AD0E0CE5BEA
:1017E000DD4F888190E090641ECF9E01E4E0369545
:1017F0002795EA95E1F723708C2F8695869583705F
:1018000030E2839FC0011124922BC37021E030E0AD
:1018100002C0220F331FCA95E2F7822B932B9C68DC
:1018200002CF9C2F8827816F906AFDCE21E030E0A7
:1018300002C0220F331F4A95E2F740E2949FC00195
:101840001124EBCF9C2F8827846F906AECCE8C2FCD
:101850000E946B0A90E0982F882788279F719062DA
:10186000E2CE9C2F8827806F906ADDCE8C2F8F7000
:101870000E946B0A34E0D695C7953A95E1F7CF7090
:101880009C2F9069D0CE89E390E0CDCE82EE90E09F
:10189000CACE86EE90E0C7CEBF92CF92DF92EF9293
:1018A000FF920F931F93CF93DF938C01C090890613
:1018B000D0908A06E0908B06F0908C0680915906B5
:1018C00090915A06A0915B06B0915C06C82AD92A6D
:1018D000EA2AFB2ACFE1D0E0BC2ED701C6010C2EAC
:1018E00004C0B695A795979587950A94D2F780FD81
:1018F0000EC0219788F7B12C8B2DDF91CF911F91CE
:101900000F91FF90EF90DF90CF90BF900895B801B6
:101910008C2F0E94AE0A019761F3EECFCF93DF9335
:10192000EC010E944C0CBE01DF91CF910C94AE0AE9
:101930000E948E0C292F2F7092959F7092509E308E
:1019400078F4E92FF0E0ED57F94C0C940136803F24
:1019500019F020F4883E20F481E00895843FE1F3FB
:1019600080E00895883EC0F3813FD1F7F5CF822F04
:101970008695869586950895CF92DF92EF92FF9295
:101980006C01EE24FF2420E0C114D104E104F10431
:1019900019F0C701B60120E1C72ED82EE92EFF2489
:1019A000C114D104E104F10419F0285FC701B601A4
:1019B0006B017C0154E0F694E794D794C7945A9550
:1019C000D1F7C114D104E104F10419F02C5FC7016F
:1019D000B6016B017C0142E0F694E794D794C7947A
:1019E0004A95D1F7C114D104E104F10419F02E5F36
:1019F000C701B6019695879577956795672B682BF4
:101A0000692B09F02F5F822FFF90EF90DF90CF902E
:101A100008951F93CF93DF9300D000D00F92CDB7DE
:101A2000DEB749835A8389819A81662331F1222363
:101A300021F10E944C0C182F682F89819A810E94F5
:101A4000A3088A81E981F0E096E0899FE00DF11D0D
:101A500011248CE3189FE00DF11D1124EE0FFF1FE0
:101A6000E259FE4F859194910F900F900F900F9037
:101A70000F90DF91CF911F9108950E947A08182F3F
:101A8000E0CF9C019A9581159F4150F4832F81707E
:101A900031FD826032FD846033FD8860FB01099472
:101AA0000895FC018081813029F48285882381F0AA
:101AB00083E00895823029F4828581110BC084E08F
:101AC0000895833049F48285811106C087E0089526
:101AD00082E0089585E0089588E00895CF92DF922E
:101AE000EF92FF920F931F93CF93DF936C017B01D3
:101AF00064E670E088E70E942733EC0197FD12C08E
:101B000010E000E0F601E00FF11F849164E670E060
:101B10000E948333EC01892B29F40F5F1F4F0E15B0
:101B20001F0581F70E940634CE01DF91CF911F91EE
:101B30000F91FF90EF90DF90CF900895CF93C091D9
:101B4000B5088091B8088823D1F00E943508605A02
:101B500075418F4F9F4F6093B1087093B208809387
:101B6000B3089093B408C11108C063E070E08EE739
:101B700099E00E946E0D892B29F0C091B5088C2F39
:101B8000CF91089581E08093B508F7CFCF9384E09B
:101B900090E00E943F36C82F82E290E00E943F36DC
:101BA000982F8C2FCF910895CF93DF9300D00F9271
:101BB000CDB7DEB79091DE08943019F589837B8329
:101BC0006A8382E08093E9008FEF9091E800815072
:101BD00095FD06C095ED9A95F1F700008111F5CFBE
:101BE0008091E80085FF0DC050E040E063E070E0C8
:101BF000CE0101960E94D6068091E8008E778093F0
:101C0000E8000F900F900F90DF91CF910895BC01E5
:101C100084E00C94D40DBC0183E00C94D40D9C01A1
:101C200082E08093E9009FEF8091E800915085FD6C
:101C300006C085ED8A95F1F700009111F5CF8091EE
:101C4000E80085FF0CC050E040E066E070E0C901AC
:101C50000E94D6068091E8008E778093E800089570
:101C6000CF93DF93EC0181E08093E9008FEF9091B7
:101C7000E800815095FD06C095ED9A95F1F70000BA
:101C80008111F5CF8091E80085FF14C050E040E05D
:101C900068E070E0CE010E94D6068091E8008E7761
:101CA0008093E80088E0FE01A4EDB8E001900D9279
:101CB0008A95E1F7DF91CF9108958091AA02811171
:101CC00010C08091D80080618093D8008AE18A9505
:101CD000F1F700C08091D90080FF0AC081E08093B5
:101CE000AA0281E09091AA02913009F080E0089563
:101CF00082E08093AA020E9486061092DE08F1CF4D
:101D00006AEE7EEF90E080E00E946B3660E082E059
:101D100090E00E944D3660E083E090E00E944D36F6
:101D20001092590610925A0610925B0610925C06A9
:101D300060E084E090E00E944D3660E082E290E056
:101D40000E944D3660E085E090E00E944D3660E0F4
:101D500086E090E00E944D366FEF87E090E00E94B1
:101D60004D3640E050E0BA0188E090E00E945F36D6
:101D700060E08DE090E00E944D3640E050E0BA0116
:101D800088E190E00E945F3660E087E190E00E9489
:101D90004D3640E050E0BA018CE190E00E945F36A1
:101DA00070E060E080E290E00E946B3640E050E03E
:101DB000BA0188E190E00E945F3640E050E0BA014D
:101DC0008FE090E00E945F3640E050E0BA0183E18E
:101DD00090E00C945F36CF93C0916606C2FB9927C2
:101DE00090F9981781F080FBC2F9C0936606609164
:101DF000650684E090E00E944D366C2F82E290E010
:101E0000CF910C944D36CF9108951F93CF93DF93CC
:101E1000162F8A3031F481E0DF91CF911F910C941D
:101E2000AA0F8D3011F480E0F7CFC0918406D091D5
:101E3000850696E0FE01ABEAB2E001900D929A951C
:101E4000E1F7803EA8F186E0FE0111928A95E9F75C
:101E5000C0918406D0918506111136C046E050E04D
:101E6000BE018BEA92E00E9432369E012D5A364026
:101E7000892BA9F52A5F3F4F40918606642F70E0B9
:101E8000C9010E94D935481B463010F4240F311D7A
:101E9000211572E0370710F030E020E02355394F6C
:101EA0003093850620938406DF91CF911F9108958A
:101EB000F6E08F9FB0011124625C7B4F46E050E05A
:101EC000CE010E942936C4CF9E012A5F3F4FFE01FA
:101ED0002E173F0719F2808180958193F9CFC901B0
:101EE00045E0969587954A95E1F741E050E0BA01C3
:101EF00002C0660F771F8A95E2F7CB016091AF08A9
:101F00007091B008862B972BB9016B5F7F4FE5E08E
:101F100076956795EA95E1F702C0440F551F6A95DB
:101F2000E2F7842B952B9093B0088093AF08A2CF53
:101F30001F93CF93DF93EC01162FFE018491811143
:101F400004C0DF91CF911F910895612F0E94050F6A
:101F50002196F3CFCF93382FE0918406F091850638
:101F6000ED5AF64020918606622F70E0CF010E9464
:101F7000D935281B822F332369F066E00E94CD35C6
:101F8000C82FC15010F4CF91089560E080E20E9404
:101F9000050FF7CF9F01280F311D2115324018F092
:101FA00080E0F0E0E0E08E0F9F2F911D8355994F68
:101FB0009093850680938406E6CF0E94980F81E077
:101FC0000C94AA0F1F920F920FB60F9211242F9309
:101FD0003F934F935F936F937F938F939F93AF93B1
:101FE000BF93EF93FF938091E10082FF09C080913E
:101FF000E20082FF05C08091E1008B7F8093E100C9
:102000008091DA0080FF24C08091D80080FF20C03A
:102010008091DA008E7F8093DA008091D90080FF72
:102020009BC080E189BD82E189BD09B400FEFDCF7E
:1020300081E08093DE088091D108811109C00E945F
:1020400086060E9451078091E20084608093E2003E
:102050008091E10080FF17C08091E20080FF13C0F3
:102060008091E2008E7F8093E2008091E2008061A7
:102070008093E2008091D80080628093D80019BCE0
:1020800085E08093DE088091E10084FF29C0809183
:10209000E20084FF25C080E189BD82E189BD89B568
:1020A000982F917080FFFBCF8091D8008F7D809317
:1020B000D8008091E1008F7E8093E1008091E20062
:1020C0008F7E8093E2008091E20081608093E20045
:1020D0008091DF08882309F445C084E08093DE08FE
:1020E0008091E10083FF27C08091E20083FF23C03D
:1020F0008091E100877F8093E10082E08093DE0899
:102100001092DF088091E1008E7F8093E100809142
:10211000E2008E7F8093E2008091E20080618093F4
:10212000E20042E060E080E00E941F078091F00042
:1021300088608093F000FF91EF91BF91AF919F91E4
:102140008F917F916F915F914F913F912F910F9060
:102150000FBE0F901F90189519BC1092DE081092B8
:10216000D10876CF8091E30087FD93E09093DE085D
:10217000B7CF0F931F930E945D0E882321F01F910C
:102180000F910C9435080E9435080091610610915A
:1021900062062091630630916406600F711F821FF2
:1021A000931F1F910F910895CF92DF92EF92FF92AC
:1021B0006B017C010E945D0E81110EC00E943508EA
:1021C000C61AD70AE80AF90AC0926106D0926206D6
:1021D000E0926306F0926406FF90EF90DF90CF905C
:1021E000089578941F921FB61F9211248F939F9386
:1021F000AF93BF9380915D0690915E06A0915F06BC
:10220000B09160060196A11DB11D80935D0690936B
:102210005E06A0935F06B0936006BF91AF919F9159
:102220008F911F901FBE1F9018952FB7F894809123
:102230005D0690915E06A0915F06B09160062FBF8B
:1022400008958091550690915406892B90915306DC
:10225000892B80939E0280915806882319F10E9451
:1022600015112091560630915706821B930B883E1C
:10227000934010F00E945B0880919E029091580656
:10228000892B80939E0220E080EA92E0FC0131914C
:10229000CF0131112F5FF2E0863A9F07B9F7211184
:1022A0000E945B08E0918706F0918806309731F034
:1022B0000280F381E02D8EE992E00994089588234D
:1022C00041F08095909154068923809354060C9494
:1022D00021110895882339F090915406982B9093FA
:1022E00054060C9421110895882321F00E94660859
:1022F0000C9421110895882339F090915506982B5C
:10230000909355060C9421110895CF93DF93EC011F
:1023100081E0898B809155069F81892B809355069A
:10232000809154069885892B809354060E94211130
:10233000EA81FB81309739F06C897D89CE01069660
:10234000DF91CF910994DF91CF910895EF92FF92A1
:102350000F931F93CF93DF93EC018A85811139C0CE
:10236000EB80FC8087E5F81A26E12E9DC0012F9DA9
:10237000900D1124DC01A45EBE4F1496ED91FC91EA
:102380001597309731F054966D917C918E5D9E4FEC
:10239000099586E18E9D80018F9D100D1124045EAC
:1023A0001E4FF80187810E946608F8018085982FEA
:1023B0009095809154068923809354060E942111A0
:1023C000188219861B861E821D821092E6051092C5
:1023D000E505DF91CF911F910F91FF90EF90089548
:1023E0000E9415119C019091C1088091C208982B00
:1023F00021F03093BE082093BD089091C3088091CE
:10240000C408982B21F03093BB082093BA08E091C0
:102410008706F0918806309749F082E08093BF08E4
:102420000480F581E02D8FEB98E00994089590E009
:1024300080E00E94390990E080E00E942309109218
:102440005406109253060E94211186E0EFEBF8E04B
:10245000DF011D928A95E9F71092BC081092B90825
:102460001092EC050C94F0116093890670938A0623
:1024700080938B0690938C060C9417120F931F93E6
:1024800041E050E060E070E004C0440F551F661F5B
:10249000771F8A95D2F7CB01BA0160957095809528
:1024A00090950091890610918A0620918B063091B3
:1024B0008C0660237123822393231F910F910C9428
:1024C0003412909152068095892380935206282FCA
:1024D000277039F4282F082E000C330B921713069F
:1024E00021F49091660692FF07C0859585958595A4
:1024F0000E943E120C946D0808950F931F9341E0C3
:1025000050E060E070E004C0440F551F661F771F65
:102510008A95D2F78091890690918A06A0918B06C0
:10252000B0918C068A019B01082B192B2A2B3B2B7F
:10253000C901B8011F910F910C9434129091660655
:1025400092FD10C098E0899F90011124622B609346
:1025500052060E947D120E9415119093510680939D
:10256000500608950C947D1260E070E0CB010C944D
:1025700034126093590670935A0680935B069093C9
:102580005C060C94171210925506E0EAF2E086E021
:10259000DF011D928A95E9F70C9417121F93CF93D0
:1025A000DF93CDB7DEB7AA970FB6F894DEBF0FBEA4
:1025B000CDBF80EE98E02091F100FC012193CF0186
:1025C000F8E0883E9F07B9F78091E108833009F46D
:1025D0006FC0B8F4813009F446C0823009F4B0C04D
:1025E0008091E80083FF7BC28091E0089091E10830
:1025F0009A3008F074C2E92FF0E0EF56F94C0C94D1
:1026000001368A3009F48BC08B3009F46EC08930F2
:1026100039F78091E008813219F78091E4089091B0
:10262000E5080297E8F68091E800877F8093E8004C
:102630008091E80082FF37C09091F3008091F20012
:10264000029729F48091F1008B7F813021F48091F1
:10265000F1008093D3088091E8008B778093E800A5
:102660000E940007BDCF8091E008813A09F0B8CF01
:102670008091E800877F8093E8008091E408909142
:10268000E508892B61F468E084ED98E070E00E9431
:10269000B2078091E8008B778093E800A1CF60E0DB
:1026A00090E080E0F3CF8091DE088111C1CF98CF18
:1026B0008091E008813A09F093CF8091E4089091ED
:1026C000E508892B09F08CCF8091E800877F809303
:1026D000E8008091E80080FFFCCF80913902809370
:1026E000F1008091E8008E77B9CF8091E0088132C7
:1026F00009F076CF8091E4089091E508892B09F0E4
:102700006FCF8091E800877F8093E8000E940007E8
:102710008091E208809339020E94C31261CF8091B8
:10272000E008813209F05CCF8091E800877F8093D8
:10273000E8000E9400078091E3088093D20850CF00
:102740008091E008813A09F04BCF8091E800877FC3
:102750008093E8008091E80080FFFCCF8091D20850
:10276000BECF803899F0823809F0B9C18091E40871
:102770008F70873008F0B3C18093E9008091EB003F
:1027800085FB882780F91092E90006C08091DC085B
:102790009091DD08911182609091E800977F90936D
:1027A000E8008093F1001092F1008091E8008E77AC
:1027B00092C1882309F480C1823009F090C18091D0
:1027C000E208811183C18091E4088F702FEF280FF8
:1027D000263008F084C18093E9002091EB0020FFAF
:1027E00075C1933031F48091EB0080628093EB00EF
:1027F0006DC19091EB0090619093EB0021E030E08F
:1028000001C0220F8A95EAF72093EA001092EA00AD
:102810008091EB008860EACF811161C11091E208DC
:102820001F778091E3008078812B8093E300809173
:10283000E800877F8093E8000E9400078091E8000D
:1028400080FFFCCF8091E30080688093E30082E00A
:10285000111183E08093DE0842C18058823008F075
:102860003EC18091E2089091E3088C3D23E09207FD
:10287000A1F583E08A838AE289834FB7F894DE0169
:10288000139620E03EE051E2E32FF0E05093570032
:10289000E49120FF03C0E295EF703F5FEF708E2F51
:1028A00090E0EA30C0F0C7968D939D932F5F24315E
:1028B00059F74FBF8091E800877F8093E8006AE274
:1028C00070E0CE0101960E94B2078091E8008B77FC
:1028D0008093E80004C1C096E7CF4091E40850918E
:1028E000E508292F33272330310509F444C078F552
:1028F0002130310509F46FC08BE390E0E8EAFBE09A
:102900002230310509F0EBC02091E800277F2093A9
:10291000E8002091E6083091E7088217930708F451
:102920009C0140E02115310509F064C0411162C0ED
:102930008091E80082FDC9CF8091DE08882329F2CA
:10294000853019F28091E80083FFF2CFBECF2132AB
:102950003105A9F12232310509F0C1C041155105F7
:1029600009F443C04130510509F0B9C08BE790E04C
:10297000EDEEFAE0C9CF992781309105C1F00097BB
:1029800059F0029709F0ABC0E5EFFBE0E4918E2F20
:1029900090E0E5EFFBE007C0EFE1FCE0E4918E2F73
:1029A00090E0EFE1FCE0009709F499C0ADCFE3E0DF
:1029B000FCE0E4918E2F90E0E3E0FCE0F4CF4115E1
:1029C000510571F04130510509F089C089E090E06E
:1029D000E3EDFBE099CF82E190E0E3EEFBE094CF02
:1029E00089E090E0EAEBFBE08FCF80E490E0E8E65E
:1029F000FBE08ACF8091DE08882309F466CF85301A
:102A000009F463CF8091E80083FD5FCF8091E800F7
:102A100082FD8ECF8091E80080FF84CF9091F300FB
:102A20008091F2002115310519F08830910550F0A0
:102A300041E0089709F040E08091E8008E778093AC
:102A4000E80070CF44914093F10031962150310954
:102A50000196E8CF803809F042C08091E800877F76
:102A60008093E8008091DF088093F1009ECE811171
:102A700036C01091E208123090F58091E800877F0F
:102A80008093E8001093DF080E940007112311F0E3
:102A900084E005C08091E30087FDFACF81E0809358
:102AA000DE0842E061EC81E00E941F0742E261EC37
:102AB00082E00E941F0713C08091E208813079F400
:102AC00081E0933009F080E08093DD081092E90006
:102AD0008091E800877F8093E8000E940007809142
:102AE000E80083FF0AC08091E800877F8093E800B8
:102AF0008091EB0080628093EB00AA960FB6F89469
:102B0000DEBF0FBECDBFDF91CF911F9108951F9201
:102B10000F920FB60F9211242F933F934F935F9311
:102B20006F937F938F939F93AF93BF93CF93DF93D5
:102B3000EF93FF93D091E900DF708091EC00C82FF4
:102B4000C17080FDC0E81092E9008091F000877F9D
:102B50008093F00078940E94CE121092E900809148
:102B6000F00088608093F000CD2BCF70C093E90017
:102B7000FF91EF91DF91CF91BF91AF919F918F9195
:102B80007F916F915F914F913F912F910F900FBE69
:102B90000F901F9018958823B1F19CEF980F913AF0
:102BA00070F4E0EAF2E09191891303C0DF0111971C
:102BB0001C9292E0E63AF907B1F70C94211190E2E9
:102BC000980F983050F4877091E001C0990F8A9562
:102BD000EAF7892F0E946608F0CF9BE5980F9330A3
:102BE00020F490E080E00C94390998E5980F973133
:102BF00020F490E080E00C9423098D3E20F00E94A8
:102C00005B090C94F0110895CF93DF93EC010E94BF
:102C1000CB15CE01805E910964E771E1089710F051
:102C20006FE571E1CE01DF91CF910C94410D809160
:102C30000101833051F028F4823051F010920101EB
:102C40000895843051F08530C9F789E290E002C0E0
:102C500083E390E00E940416F1CF88E290E0FACF7F
:102C600081EE90E00E94041680EE90E00E9404162F
:102C700082EE90E00E94041683EE90E00C9404161D
:102C8000809117018430D1F038F4823091F0833094
:102C900069F0109217010895873099F08830A1F0FB
:102CA0008530B9F782EE90E00E94041684E490E04B
:102CB00002C08EE290E00E940416EBCF80EE90E01E
:102CC000F3CF81EE90E0F0CF0E943016EFCF8091ED
:102CD00015018430D1F038F4823091F0833069F0FE
:102CE000109215010895873099F08830A1F0853051
:102CF000B9F782EE90E00E94041683E490E002C0EF
:102D00008DE290E00E940416EBCF80EE90E0F3CFCE
:102D100081EE90E0F0CF0E943016EFCF809113014A
:102D20008430D1F038F4823091F0833069F0109221
:102D300013010895873099F08830A1F08530B9F7F4
:102D400082EE90E00E94041682E490E002C080E3EC
:102D500090E00E940416EBCF80EE90E0F3CF81EE7E
:102D600090E0F0CF0E943016EFCF809111018430B7
:102D7000D1F038F4823091F0833069F01092110173
:102D80000895873099F08830A1F08530B9F782EE48
:102D900090E00E94041681E490E002C085E292E097
:102DA0000E940416EBCF80EE90E0F3CF81EE90E02E
:102DB000F0CF0E943016EFCF80910F018430D1F018
:102DC00038F4823091F0833069F010920F01089549
:102DD000873099F08830A1F08530B9F782EE90E025
:102DE0000E94041680E490E002C084E292E00E9417
:102DF0000416EBCF80EE90E0F3CF81EE90E0F0CFC1
:102E00000E943016EFCF80910D018430D1F038F45C
:102E1000823091F0833069F010920D01089587306F
:102E200099F08830A1F08530B9F782EE90E00E94E9
:102E300004168FE390E002C083E292E00E94041641
:102E4000EBCF80EE90E0F3CF81EE90E0F0CF0E94E8
:102E50003016EFCF80910B018430D1F038F48230FE
:102E600091F0833069F010920B010895873099F04A
:102E70008830A1F08530B9F782EE90E00E94041608
:102E80008EE390E002C082E292E00E940416EBCF53
:102E900080EE90E0F3CF81EE90E0F0CF0E9430160C
:102EA000EFCF809109018430D1F038F4823091F075
:102EB000833069F0109209010895873099F08830C5
:102EC000A1F08530B9F782EE90E00E9404168DE300
:102ED00090E002C081E292E00E940416EBCF80EE07
:102EE00090E0F3CF81EE90E0F0CF0E943016EFCF6C
:102EF000809107018430D1F038F4823091F0833032
:102F000069F0109207010895873099F08830A1F098
:102F10008530B9F782EE90E00E9404168CE390E0D1
:102F200002C080E292E00E940416EBCF80EE90E0B7
:102F3000F3CF81EE90E0F0CF0E943016EFCF80917A
:102F400005018430D1F038F4823091F0833069F09B
:102F5000109205010895873099F08830A1F08530EE
:102F6000B9F782EE90E00E9404168BE390E002C075
:102F70008FE192E00E940416EBCF80EE90E0F3CF59
:102F800081EE90E0F0CF0E943016EFCF80910301E8
:102F90008430D1F038F4823091F0833069F01092AF
:102FA00003010895873099F08830A1F08530B9F792
:102FB00082EE90E00E9404168AE390E002C08EE167
:102FC00092E00E940416EBCF80EE90E0F3CF81EE0A
:102FD00090E0F0CF0E943016EFCFCF93C82F882318
:102FE00009F456C08CEF8C0F813AF8F4E0EAF2E075
:102FF00086EA92E0DF012D91C21759F08A179B07EC
:10300000D1F76C2F8EE992E00E944108CF910C9489
:1030100021112191C21303C0DF0111971C928E1759
:103020009F07B9F70E942111ECCF80E28C0F883006
:1030300068F4C77021E030E001C0220FCA95EAF7BA
:1030400080915506822B80935506E0CFEBE5EC0F7F
:10305000E33040F4F0E0EE5BFD4F808190E0CF91F3
:103060000C943909E8E5EC0FE73150F4F0E0EE0F8D
:10307000FF1FEB5BFD4F80819181CF910C94230961
:10308000CD3E30F08C2F0E94FA09CF910C94F011B4
:10309000CF9108951F93CF93DF93182FCAE0D0E00C
:1030A000893311F4C0E5D0E0812F0E94ED178FE93C
:1030B0009FE00197F1F700C000002197C1F7812F31
:1030C000DF91CF911F910C94CB15CF92DF92EF92AD
:1030D000FF920F931F93CF93DF936B01C42FD22FD7
:1030E000FC0182818823C1F04093E7050E941511FD
:1030F0009093B2028093B102C77081E001C0880F43
:10310000CA95EAF7DF91CF911F910F91FF90EF9051
:10311000DF90CF900C947B111091E70514133DC004
:103120008091B1029091B2020E9426087C01C601F2
:103130000E945B06E816F90680F5C0E2CD0F1D1768
:10314000B9F080E2810F883040F4177081E001C04F
:10315000880F1A95EAF70E947411C83048F481E08C
:103160009D2F977001C0880F9A95EAF70E947B11F6
:10317000802F0E944A18C830B8F4D77081E001C08F
:10318000880FDA95EAF7DF91CF911F910F91FF90A9
:10319000EF90DF90CF900C947411C77081E001C064
:1031A000880FCA95EAF7EFCFDF91CF911F910F916A
:1031B000FF90EF90DF90CF900895AF92BF92CF92A3
:1031C000DF92EF92FF920F931F93CF93DF93EC0167
:1031D0008AE0A82EFE012491222309F494C0213014
:1031E00009F03EC031968491813031F42296FE017F
:1031F00084910E944A1807C0823039F42296FE0159
:1032000084910E94ED172196E5CF833031F4229608
:10321000FE0184910E94CB15F6CF843009F071C075
:103220002296FE01249190E080E0FE013196205329
:10323000330B2A30310548F0019728F3EFE9FFE01E
:103240003197F1F700C00000F7CFA89EA001A99E1A
:10325000500D1124C901840F951F2491EF01E5CF72
:10326000E22FF0E0E251FF4FB490822F86958695D1
:10327000869590E0FC01E252FF4FE4902770F12C1C
:10328000022E02C0F594E7940A94E2F731E0E322BB
:10329000FF24FC01E253FF4FC490D12C022E02C048
:1032A000D594C7940A94E2F7E1E0CE22DD24FC0134
:1032B000E254FF4F049110E002C0159507952A953E
:1032C000E2F701701127E114F10419F081EE0E9478
:1032D000ED17C114D10419F086EE0E94ED178B2D65
:1032E0000E944A18CD2819F086EE0E94CB15EF28CF
:1032F00019F081EE0E94CB15012B09F484CF8CE2EA
:1033000078CFEF0180CFDF91CF911F910F91FF9088
:10331000EF90DF90CF90BF90AF900895CF93DF9361
:10332000EC01805E91096BE771E1089710F06AE6A5
:1033300071E1CE010E94410D8C2FDF91CF910C9451
:10334000ED17CF93DF93EC010E948E198FE39CE978
:103350000197F1F700C00000CE01DF91CF910C94EE
:103360000416CF93C62F81118AC084E00E94D10831
:10337000811111C083E00E94D108882379F0109256
:1033800055068FE496E0C11102C080E596E00E94E8
:10339000A1191092550681E0CF91089582E00E9414
:1033A000D1088823E9F0809155068470CC2371F010
:1033B000882339F01092550685EB90E00E94DD18C5
:1033C000EACF82E59FE00E94A119E5CF882329F08A
:1033D000109255068CEA90E0F1CF81E59FE0F3CFA3
:1033E00081E00E94D108882339F082E490E0C11185
:1033F000EACF8EE390E0E7CF80915506982F927048
:10340000CC2309F1992359F082E00E9474118CE1D8
:1034100091E00E94A11982E00E947B11BCCF85FF40
:1034200003C08FE498E0CFCF82FF03C08FE491E028
:10343000CACF86FF03C08EE591E0C5CF84FDABCF38
:1034400089E191E0C0CF992331F082E00E947411AC
:103450008DE191E0DECF85FF03C080E598E0B3CF3A
:1034600082FF03C080E591E0AECF86FF03C08CE50C
:1034700091E0A9CF84FD8FCF86E091E0A4CF813089
:1034800009F089CF84E00E94D108882331F0CC2351
:1034900009F48EC08EE491E096CF83E00E94D108BB
:1034A0008823F9F0809155068074CC2369F081114E
:1034B00072CF89EA90E00E94A11989EA90E00E9407
:1034C000A11989EA90E07FCF811165CF8AEA90E067
:1034D0000E94A1198AEA90E00E94A1198AEA90E06C
:1034E00072CF82E00E94D108882339F08FE494E003
:1034F000C11169CF80E594E066CF81E00E94D108D8
:10350000882319F0CC2351F3DCCF80E00E94D1084E
:10351000882309F440CF80915506982F9270CC23D0
:1035200021F1992359F081EE90E00E9404168EE07B
:1035300091E00E94A1198FE293E045CF82FF0BC07A
:1035400082EE90E00E9404168EE091E00E94A119A4
:103550008DE091E038CF80FF03C08FE292E033CF5F
:1035600086FD19CF83FD62CF95CF992359F081EE67
:1035700090E00E9404168EE091E00E94A11980E381
:1035800093E021CF82FF0BC082EE90E00E940416F0
:103590008EE091E00E94A11980E691E014CF86FDB3
:1035A000FACE80FF03C080E392E00DCF83FD5ACFB7
:1035B0008BE491E008CF0E94510D8093010183308C
:1035C00069F018F4823031F00895843051F085307C
:1035D00029F0089583E390E00C948E1989E290E03D
:1035E000FBCF88E290E0F8CF81EE90E00E948E1948
:1035F00080EE90E00E948E1982EE90E00E948E197B
:1036000083EE90E00C948E190E94510D8093170167
:103610008430B9F028F4823081F0833059F0089575
:10362000873091F0883099F08530A1F482EE90E0F7
:103630000E948E1984E490E002C08EE290E00C9427
:103640008E1980EE90E0F4CF81EE90E0F1CF0E94F1
:10365000F41AF0CF08950E94510D80931501843023
:10366000B9F028F4823081F0833059F00895873022
:1036700091F0883099F08530A1F482EE90E00E94BC
:103680008E1983E490E002C08DE290E00C948E19D4
:1036900080EE90E0F4CF81EE90E0F1CF0E94F41A3A
:1036A000F0CF08950E94510D809313018430B9F03A
:1036B00028F4823081F0833059F00895873091F0FA
:1036C000883099F08530A1F482EE90E00E948E1946
:1036D00082E490E002C080E390E00C948E1980EECA
:1036E00090E0F4CF81EE90E0F1CF0E94F41AF0CF99
:1036F00008950E94510D809311018430B9F028F48F
:10370000823081F0833059F00895873091F088300D
:1037100099F08530A1F482EE90E00E948E1981E448
:1037200090E002C085E292E00C948E1980EE90E069
:10373000F4CF81EE90E0F1CF0E94F41AF0CF08951B
:103740000E94510D80930F018430B9F028F482302B
:1037500081F0833059F00895873091F0883099F0E6
:103760008530A1F482EE90E00E948E1980E490E012
:1037700002C084E292E00C948E1980EE90E0F4CFC7
:1037800081EE90E0F1CF0E94F41AF0CF08950E94EC
:10379000510D80930D018430B9F028F4823081F00E
:1037A000833059F00895873091F0883099F0853052
:1037B000A1F482EE90E00E948E198FE390E002C0A7
:1037C00083E292E00C948E1980EE90E0F4CF81EECB
:1037D00090E0F1CF0E94F41AF0CF08950E94510DAD
:1037E00080930B018430B9F028F4823081F083306B
:1037F00059F00895873091F0883099F08530A1F420
:1038000082EE90E00E948E198EE390E002C082E288
:1038100092E00C948E1980EE90E0F4CF81EE90E06F
:10382000F1CF0E94F41AF0CF08950E94510D8093B9
:1038300009018430B9F028F4823081F0833059F0E6
:103840000895873091F0883099F08530A1F482EEA8
:1038500090E00E948E198DE390E002C081E292E038
:103860000C948E1980EE90E0F4CF81EE90E0F1CFD1
:103870000E94F41AF0CF08950E94510D8093070121
:103880008430B9F028F4823081F0833059F0089503
:10389000873091F0883099F08530A1F482EE90E085
:1038A0000E948E198CE390E002C080E292E00C94BA
:1038B0008E1980EE90E0F4CF81EE90E0F1CF0E947F
:1038C000F41AF0CF08950E94510D809305018430C1
:1038D000B9F028F4823081F0833059F008958730B0
:1038E00091F0883099F08530A1F482EE90E00E944A
:1038F0008E198BE390E002C08FE192E00C948E1958
:1039000080EE90E0F4CF81EE90E0F1CF0E94F41AC7
:10391000F0CF08950E94510D809303018430B9F0D7
:1039200028F4823081F0833059F00895873091F087
:10393000883099F08530A1F482EE90E00E948E19D3
:103940008AE390E002C08EE192E00C948E1980EE42
:1039500090E0F4CF81EE90E0F1CF0E94F41AF0CF26
:1039600008952F923F924F925F926F927F928F9223
:103970009F92AF92BF92CF92DF92EF92FF920F93FE
:103980001F93CF93DF9300D00F92CDB7DEB74C01DA
:10399000DC0113964D915C91149711966C911197DF
:1039A0008C910E940C0981110C94352821E0F401BE
:1039B000408151816281738184810E94090D9B83C2
:1039C0008A83D40112968C918111FFC08A819B81D8
:1039D00081509545AA81BB818F3F910508F438C17C
:1039E000F401F281F983FF2309F4A2C3AF3FB105CB
:1039F00009F008F45BC1AB32BD4509F42CC110924B
:103A0000E1028091E405811188C4A981A11110C04F
:103A10004A805B8025E042162DE5520609F443C436
:103A200008F002C444E044164DE5540609F42DC4E0
:103A30004A805B8022E642162DE5520609F47DC5D8
:103A400008F01DC54FE544164DE5540609F46CC554
:103A500008F0F3C4D201A23EB10509F42DC58A8154
:103A60009B8197558F3F910511F008F085C52091F6
:103A70002402022E000C330B2817390714F480930C
:103A80002402F401228136E1389F7001399FF00C45
:103A900011248701045E1E4FD80150962C93509735
:103AA000928116968C911697992309F457C54A80EE
:103AB0005B801A965C924E9219978F5F16968C9344
:103AC0000E941511D8011E969C938E931D9780918C
:103AD000580617968C931797809154069091550627
:103AE000892B18968C931897ED91FC91119730972C
:103AF00039F054966D917C91C7018E5D9E4F09956A
:103B00004A805B805092E6054092E505D40112960A
:103B10008C91882311F40C94FF271092E7054A80BA
:103B20005B8022E042162CE5520610F40C941A2811
:103B300036E143163CE5530640F092012B5F3C45CD
:103B40002930310510F00C941A280E94C60D90936C
:103B50006606809365064A805B8020E142162CE56C
:103B6000520609F426C608F0A5C548E044164CE5FF
:103B7000540609F410C608F06AC594E049169CE59D
:103B8000590609F400C608F04AC5B2E04B16BCE578
:103B90005B0609F4F2C5809165068260E3E04E168B
:103BA000ECE55E0609F4ECC560916506409066069A
:103BB000498284E090E00E944D36698182E290E083
:103BC0000E944D360E94C3124CC0809124028F3F48
:103BD00009F4FCCE0CE111E0F12CE12CDD24D394AE
:103BE00080912402082E000C990B8E159F050CF471
:103BF000EDCEF8018681882329F1818592854A805E
:103C00005B808415950539F48091E5059091E60572
:103C100084159505B9F0D8011F96DC921F974A804C
:103C20005B801C965C924E921B9751968C918111F1
:103C300003C0C8010E948511C80106960E94A61102
:103C4000109254062FEFE21AF20A0A5E1F4FC8CFF5
:103C500035E5B327C5CE8091E10291E089278093B5
:103C6000E10280915206877011F40C943528D4013A
:103C700012968C91882311F40C94352882E00F90D1
:103C80000F900F90DF91CF911F910F91FF90EF90C8
:103C9000DF90CF90BF90AF909F908F907F906F906C
:103CA0005F904F903F902F900C9461128091E102B1
:103CB000882309F4E9C01092E102A03CB105F0F5B7
:103CC000A038B10508F0AAC0A034B10508F070C052
:103CD00021E030E040E050E060E070E080E090E023
:103CE0000A2F0E940736E091C1022E2BE091C202FA
:103CF0003E2BE091C3024E2BE091C4025E2BE0917B
:103D0000C5026E2BE091C6027E2BE091C7028E2B7E
:103D1000E091C8029E2B2093C1023093C2024093CF
:103D2000C3025093C4026093C5027093C60280938D
:103D3000C7029093C802BB83AA8363CEAF3FB1058D
:103D400009F030F68D01005C110921E030E040E01F
:103D500050E060E070E080E090E00E940736E09183
:103D6000D9022E2BE091DA023E2BE091DB024E2BA2
:103D7000E091DC025E2BE091DD026E2BE091DE0231
:103D80007E2BE091DF028E2BE091E0029E2B2093B0
:103D9000D9023093DA024093DB025093DC02609345
:103DA000DD027093DE028093DF029093E002C3CFC6
:103DB0008D010054110921E030E040E050E060E066
:103DC00070E080E090E00E940736E091C9022E2B5F
:103DD000E091CA023E2BE091CB024E2BE091CC0247
:103DE0005E2BE091CD026E2BE091CE027E2BE09116
:103DF000CF028E2BE091D0029E2B2093C9023093EC
:103E0000CA024093CB025093CC026093CD027093D0
:103E1000CE028093CF029093D0028DCF8D010058B7
:103E2000110921E030E040E050E060E070E080E027
:103E300090E00E940736E091D1022E2BE091D20251
:103E40003E2BE091D3024E2BE091D4025E2BE09109
:103E5000D5026E2BE091D6027E2BE091D7028E2BFD
:103E6000E091D8029E2B2093D1023093D20240934E
:103E7000D3025093D4026093D5027093D6028093FC
:103E8000D7029093D80257CFA034B10508F067C08D
:103E9000E091C102F091C2027090C3026090C4022E
:103EA0005090C5024090C6023090C7022090C802D0
:103EB00021E030E040E050E060E070E080E090E041
:103EC0000A2F0E940736AE2EA222BF2EB322C72C85
:103ED000C422D62CD522E52CE622F42CF722032D81
:103EE0000823122D19230E94203609F08ACDA03C08
:103EF000B10508F08EC0A038B10508F0EBC0A034C1
:103F0000B10508F0B9C021E030E040E050E060E0E9
:103F100070E080E090E00A2F0E94073620953095EF
:103F20004095509560957095809590952E233F23F0
:103F30004721562165217421832192212093C102BA
:103F40003093C2024093C3025093C4026093C502EF
:103F50007093C6028093C7029093C80282CEA038A5
:103F6000B105E0F4E091C902F091CA027090CB0271
:103F70006090CC025090CD024090CE023090CF02A3
:103F80002090D00221E030E040E050E060E070E0BE
:103F900080E090E08D010054110993CFA03CB10561
:103FA000E0F4E091D102F091D2027090D3026090DF
:103FB000D4025090D5024090D6023090D702209083
:103FC000D80221E030E040E050E060E070E080E0C6
:103FD00090E08D010058110974CFE091D902F09161
:103FE000DA027090DB026090DC025090DD024090BB
:103FF000DE023090DF022090E00221E030E040E07D
:1040000050E060E070E080E090E08D01005C11091C
:1040100058CFAF3FB10511F008F075CF8D01005CAE
:10402000110921E030E040E050E060E070E080E025
:1040300090E00E9407362095309540955095609508
:104040007095809590952E233F2347215621652119
:104050007421832192212093D9023093DA02409374
:10406000DB025093DC026093DD027093DE028093EA
:10407000DF029093E002F5CD8D010054110921E09B
:1040800030E040E050E060E070E080E090E00E94CE
:1040900007362095309540955095609570958095A0
:1040A00090952E233F23472156216521742183219A
:1040B00092212093C9023093CA024093CB025093BD
:1040C000CC026093CD027093CE028093CF02909386
:1040D000D002C7CD8D010058110921E030E040E049
:1040E00050E060E070E080E090E00E9407362095AC
:1040F00030954095509560957095809590952E23BC
:104100003F23472156216521742183219221209349
:10411000D1023093D2024093D3025093D4026093E1
:10412000D5027093D6028093D7029093D80299CD8E
:10413000AF3FB10511F008F064CCA034B10550F5E3
:10414000A090C102B090C202C090C302D090C4023D
:10415000E090C502F090C602F091C702E091C8025B
:1041600021E030E040E050E060E070E080E090E08E
:104170000A2F0E940736A222B322C422D522E622A9
:10418000F7220F2F08231E2F19230E94203609F033
:1041900038CC67CDA038B105E0F4A090C902B0904A
:1041A000CA02C090CB02D090CC02E090CD02F09039
:1041B000CE02F091CF02E091D0028D01005411099E
:1041C00021E030E040E050E060E070E080E090E02E
:1041D000D0CFA03CB105A0F4A090D102B090D20203
:1041E000C090D302D090D402E090D502F090D602D5
:1041F000F091D702E091D8028D0100581109E0CF6B
:10420000A090D902B090DA02C090DB02D090DC021C
:10421000E090DD02F090DE02F091DF02E091E0023A
:104220008D01005C1109CCCF4A805B8027E04216EB
:104230002DE5520609F443C038E043163DE5530628
:1042400009F0F6CB0091180110911901C090890670
:10425000D0908A06E0908B06F0908C060E94C312E4
:104260000E94B4122CED35E03B832A834A805B80A8
:1042700004151505E9F18A819B810E94B11C8A8190
:104280009B8106979B838A83F1CF0E94C3120E9471
:10429000B41282EE92E09093E3058093E20581E010
:1042A0008093E405DECC0E94C3120E94B4128CED10
:1042B00095E09093E3058093E20582E0F1CF0091D1
:1042C0001A0110911B01C0908906D0908A06E090D7
:1042D0008B06F0908C060E94C3120E94B41282EEEC
:1042E00092E09B838A834A805B800415150559F40C
:1042F0000E94C312C0928906D0928A06E0928B0671
:10430000F0928C06AECC8A819B810E94B11CAA815E
:10431000BB811696BB83AA83E6CF2A813B812450BA
:104320003D4523303105E0F591E06A807B8026E051
:1043300062162DE5720609F490E0A981A91709F427
:1043400090CC813029F08230B9F01092E40589CC0C
:104350008091E2059091E305B2E0823E9B0729F04F
:10436000FC0136972281211105C090931B01809397
:104370001A01EBCFCF01F0CF8091E2059091E305D8
:10438000E5E08C3D9E0729F0FC0136962281211143
:1043900005C09093190180931801D7CFCF01F0CFBA
:1043A000813029F1823009F043CB20911A013091FC
:1043B0001B01A091E205B091E305E981E11105C07F
:1043C000F5E0AC3DBF0709F433CBCD0106962817C5
:1043D000390709F42DCB86E0F40101900D928A95FE
:1043E000E1F78091E2059091E305069721C02091C5
:1043F000180130911901A091E205B091E305F9810E
:10440000F11105C042E0A23EB40709F411CBCD0181
:1044100006972817390709F40BCB86E0F4010190C1
:104420000D928A95E1F78091E2059091E305069659
:104430009093E3058093E205FBCA4A805B8020E607
:1044400042162DE5520609F462C031E643163DE5F9
:10445000530609F004CB81EE90E00E94A119F4010B
:104460008281882309F4FBCA8FE19AE00E94DD185B
:1044700080E591E00E94A11980E590E033C04A8078
:104480005B8024E642162DE5520679F108F45DC002
:1044900045E644164DE55406F1F086E648168DE5EE
:1044A000580609F0DCCAD40112968C91882309F4CD
:1044B000D6CA81E59FE016C0D40112968C9188235C
:1044C00029F082EE90E00E948E19C9CA82EE90E037
:1044D0000E940416C4CAF4018281882309F4BFCA69
:1044E00082E59FE00E94A119BACAF4018281882363
:1044F00009F4B5CA8091550682FFB1CA82EE90E0F8
:104500000E94041686E39AE00E94DD18A8CA81EE94
:1045100090E00E94A119D40112968C91882309F48D
:104520009ECA89E29AE0F0CFD40112968C9188233A
:1045300009F495CA8CE19AE0E7CFF40182818823DF
:1045400009F48DCA83E09AE0DFCFD40112968C91F2
:10455000882309F484CA89EF99E0D6CF882309F427
:10456000D5CA51968C91882309F4D0CAC7018E5DB3
:104570009E4F0E94A611CACA4A805B8024EF421651
:104580002CE55206A1F1C8F449ED44164CE5540659
:1045900041F18AED48168CE55806D9F198ED491697
:1045A0009CE5590609F0B2CA06E221EE41EE68ED3B
:1045B0007CE5C4010E94651854CB4A805B8026EFDD
:1045C00042162CE55206F9F0C0F047EF44164CE5D0
:1045D000540609F09BCA07E225EE46EE67EF7CE53C
:1045E000E8CF07E225EE45EE69ED7CE5E2CF06E295
:1045F00021EE40EE64EF7CE5DCCF07E225EE44EEF1
:1046000065EF7CE5D6CF06E221EE42EE66EF7CE573
:10461000D0CF08E221E045EE6AED7CE5CACF4A80C2
:104620005B8080916506806126E042162CE552068B
:1046300009F4A6C080916506886037E043163CE522
:10464000530608F49DC080916506806299C04A8037
:104650005B80809165068D7F2CE042162CE552062A
:1046600009F48EC078F4809165068C604AE04416A7
:104670004CE5540609F484C008F491C080916506A5
:104680008E7F7EC04A805B8080916506877F2EE0AA
:1046900042162CE5520609F473C0809165068B7FA3
:1046A0003FE043163CE5530608F46AC08091650676
:1046B0008F7E66C04A805B802CEF42162CE5520646
:1046C00009F465C078F543E144164CE5540609F455
:1046D00078C090F491E149169CE5590609F46DC043
:1046E000A2E14A16ACE55A0609F05ECA0E94C3125E
:1046F000809165068F7744C04A805B8025E1421631
:104700002CE5520609F465C008F479C0809166066C
:1047100081604BEF44164CE5540609F045CA80937E
:10472000660642CA4A805B8041142DE5520609F4B0
:104730004CC068F4809166068D7F4EEF44164CE5C0
:10474000540669F390F1809166068360E8CF4A8051
:104750005B8022E042162DE5520609F459C008F4A8
:1047600044C060E043E044164DE5540609F01CCA1D
:104770008EE090E00E944D3617CA809165068160F8
:104780008093650611CA809165068460F9CF809197
:1047900066068260C4CF809165068064F1CF0E9476
:1047A000C312809165068068EBCF809166068E7F8C
:1047B000B6CF809165068F7DE3CF809165068F7BB4
:1047C000DFCF80916506837FDBCF809166068C7F8B
:1047D000A6CF8091650682FB992790F921E0922768
:1047E00090FB82F990FB83F9CBCF80916606982FDE
:1047F000909591708E7F892B90FB81F990CF0E94CC
:10480000C31290916506892F97FB87F98058B8CF1E
:1048100061E0AECF85E300C48823A9F06A807B8085
:104820002BE562162DE5720609F482C008F05AC025
:1048300061144CE5740609F46BC08FED68168CE5C5
:10484000780609F472C0F4018281408051805B8255
:104850004A82882309F470C0C2010E944C0C182FB0
:10486000682F8A819B810E94A3086A817B81812FA6
:104870000E94AE0A8A83192FE82ED4011296BC91A9
:10488000B983F401058102950F70809152068770FB
:10489000C9F0DB2EBB23B9F0892F807F803449F02B
:1048A0009E2D905E983070F0803619F4F6EFEF167A
:1048B00049F082E00E946112809152068770DD24E7
:1048C000D3948111D12CC12EC2945FE0C5226BE03C
:1048D000462E4C1408F469C0EC2DF0E0E556F94C76
:1048E0000C9401364A805B802CE542162DE5520679
:1048F00009F13DE54316530609F0A5CF8091660600
:1049000082FB882780F991E089270E94EB0E9BCFDC
:104910000E94C3124FEF84E39CE0415080409040DE
:10492000E1F700C000000E9415080E94800E99C99E
:1049300081E0EBCF80E0E9CF8A819B810E947A08F9
:10494000182F93CF012F0F70812F807F11F00295C8
:10495000007F59805520C9F0002369F08A81805E6C
:10496000883010F0E1100BC080915506082B0093A1
:1049700055060E9421118A810E94ED1716C0809170
:104980005406082B00935406F4CF8A810E94CB155D
:10499000002359F02A81205E283010F0E11055C024
:1049A000802F0E9466080E9421112C2D2850330B65
:1049B0002430310510F40E944F094980442079F0D9
:1049C000107F103621F486EF582EE51441F08091C7
:1049D000EB05823009F007C383E08093EB05DD200F
:1049E000B1F08091520680FD12C0D40112961C9243
:1049F0008595859585950E947D12C4010E94B11C04
:104A0000809152068595859585950E943E1220E0FD
:104A1000F401408151816281738184810F900F90F4
:104A20000F90DF91CF911F910F91FF90EF90DF904A
:104A3000CF90BF90AF909F908F907F906F905F903E
:104A40004F903F902F900C94090D00958091540643
:104A5000082300935406A7CF312F3F70F32E812FE8
:104A6000807F803219F0F29440EFF422EE2059F06A
:104A700041E0E41609F448C06980662009F44FC09B
:104A8000002351F178CF4980442041F1011106C043
:104A9000809158068F290E947B1187CF013099F4AD
:104AA0008091660682FD81CF80915806F82AF8161B
:104AB00009F47BCF0E9415119093570680935606F8
:104AC000F092580672CF033019F70E945B0880916C
:104AD0004F06F812F0924F068F2DDDCF011106C060
:104AE0000E945B088F2D0E9474115FCF013041F44A
:104AF000809155068F2109F458CF0E947408F0CF99
:104B0000033009F452CFECCF5980552021F0063004
:104B100008F04BCFE1CF053008F047CFE3CF0023BB
:104B200009F339E3732EE710C3C12FEF37EE43E0EB
:104B3000215030404040E1F700C000008A810E94CF
:104B4000CB1533CF812F86958695837071F0813098
:104B500009F02BCF59808A81912F9370511002C098
:104B600090E080E00E94230920CF49808A81912F24
:104B70009370411002C090E080E00E94390915CF87
:104B800069808A81662029F00E94FA090E94F0114A
:104B90000CCF0E945B09FACF812F837009F069C0A6
:104BA0007980711002CF2A81229526952770220FD5
:104BB000220F4A814F7050E070E060E0022E04C086
:104BC000440F551F661F771F0A94D2F74A8080E072
:104BD00090E0DC0144FE0FC08FE090E0A0E0B0E088
:104BE00004C0880F991FAA1FBB1F2A95D2F7809572
:104BF0009095A095B095212F26952695237022306B
:104C000029F1D8F44090590650905A0660905B06FE
:104C100070905C06213069F0842B952BA62BB72B66
:104C2000BC01CD0164217521862197210E94B91212
:104C3000BCCE44295529662977292A013B01482AF7
:104C4000592A6A2A7B2AC301B201F0CF842B952B03
:104C5000A62BB72B4090590650905A0660905B06E1
:104C600070905C06BC01CD016425752586259725CD
:104C7000DDCF59808695552011F0812F81708823D2
:104C800009F493CE2A81229526952770220F220FB0
:104C90004A814F7050E070E060E0022E04C0440F83
:104CA000551F661F771F0A94D2F76A8080E090E054
:104CB000DC0164FE0FC08FE090E0A0E0B0E004C033
:104CC000880F991FAA1FBB1F2A95D2F78095909530
:104CD000A095B095212F269526952370223029F195
:104CE000D8F44090890650908A0660908B067090A8
:104CF0008C06213069F0842B952BA62BB72BBC0199
:104D0000CD0164217521862197210E9434124DCE58
:104D100044295529662977292A013B01482A592A1D
:104D20006A2A7B2AC301B201F0CF842B952BA62BD4
:104D3000B72B4090890650908A0660908B06709041
:104D40008C06BC01CD016425752586259725DDCF10
:104D5000012F0F705980552029F0802F0E947D125D
:104D60008A8199CE8A810E947411802F0E943E12FE
:104D70001CCE8A8122EF622EE61409F459C06E140B
:104D800088F090EF792EE71451F121EFE21609F443
:104D900046C04980442009F486C00111ECCD812F22
:104DA0008F7143C033EFE31609F448C044EFE412B7
:104DB000F0CF80914F064980442009F461C00E94E1
:104DC0006608809152068770843009F04BC00E94BB
:104DD0006D08812F8F710E943E12D12CE6CD498043
:104DE0004420C9F0053008F0E0CD212F2F7161E09B
:104DF00070E080E090E004C0660F771F881F991F65
:104E00002A95D2F74090890650908A0660908B06CA
:104E100070908C0698CF063008F0C7CDE6CF812F72
:104E20008F715980552009F4A1CF0E947D12BDCD0C
:104E3000812F8F7169806620C1F398CF79807720A8
:104E400071F0212F2F7161E070E080E090E004C0EC
:104E5000660F771F881F991F2A95D2F756CF0E9499
:104E6000B412A3CD033008F0B8CF212F2F712A83BD
:104E7000822F0E947D1263E08A810E949E12ADCF34
:104E800090915506982B90935506033040F00E9460
:104E90006D080E94740864E0812F8F71EECF81E06D
:104EA0000E9461129ACF002341F0893309F43DCE6C
:104EB0008FE39CE90197F1F73FCE812F8F7156CF99
:104EC000EA81E05FE73008F061C0F0E0E955F94CB5
:104ED0000C9401364980442009F467CD8091EE0599
:104EE00091E0892707C059805092EE055ECD81E0A0
:104EF000698086258093EE0558CD798081E0772002
:104F0000C9F353CD4980411050CD1092EE054DCDDF
:104F100059805520C1F082E08093EB0581E08093B9
:104F2000EE050E9415119093EA058093E905209102
:104F3000500630915106232B09F437CD909351063A
:104F40008093500632CD8091EB05823021F481E0D0
:104F50008093EB052ACD833009F027CD1092EB0525
:104F60001092EE051092EA051092E9051ECD6980B7
:104F7000662041F08091ED05882309F4AFCF1092AF
:104F8000ED0513CD053008F010CDA8CF8091ED05CB
:104F90000023E1F0882341F08091EE0591E089271C
:104FA0008093EE051092ED0579807110E4CC8FE3CB
:104FB0009CE90197F1F700C000008A810E94CB159F
:104FC00086E0D4011D928A95E9F7EFCC882309F495
:104FD000ECCC49804110E9CC8091EE0591E0892725
:104FE0008093EE05CCCF813009F0F9CC1092EB051F
:104FF0001092EE051092EA051092E905F0CC4A8075
:105000005B8026E142162CE5520609F01CCC80910B
:10501000E8058111FFCB89E2E0EAF2E026EA32E01E
:105020009191891303C0DF0111971C922E173F073E
:10503000B9F717C04A805B8026E142162CE552067C
:1050400009F0EACB809155068A7A91E009F490E064
:105050009093E80569E2811165E38EE992E00E9490
:1050600041080E9421110C94311E0F900F900F9057
:10507000DF91CF911F910F91FF90EF90DF90CF9034
:10508000BF90AF909F908F907F906F905F904F9068
:105090003F902F900895BF92CF92DF92EF92FF92B0
:1050A0000F931F93CF93DF938091F405807F61F47A
:1050B0008091F105882341F0C091260686E0B82E44
:1050C0008091F5058C130AC0DF91CF911F910F914C
:1050D000FF90EF90DF90CF90BF900895F090EF0594
:1050E000E090F005C090F205D090F305A6016E2D7A
:1050F0008F2D0E940C09D0E081113FC0BC9E800121
:10510000BD9E100D1124F801EA50FA4F51815E1135
:1051100034C040814F1131C0828181112EC0E380A3
:10512000F480EC18FD0820E06091F1057091F20523
:105130008091F3050E94090D0E945B06E816F906AE
:10514000E0F48091F4058F7080618093F405F8019C
:10515000E550FA4F80818F70806180838FEE95E0FB
:105160000E94B11CDF91CF911F910F91FF90EF90A2
:10517000DF90CF90BF900C9417092196C770A0CFF5
:105180005F926F927F928F929F92AF92BF92CF92D7
:10519000DF92EF92FF920F931F93CF93DF93CDB7E0
:1051A000DEB761970FB6F894DEBF0FBECDBF8C019E
:1051B00085E0F801DE011D9601900D928A95E1F7D8
:1051C000D8017C901196EC90119712966C908FEE0E
:1051D000A82E85E0B82E8090F2059090F305A401EA
:1051E0006091F0058091EF050E940C0981119BC12F
:1051F000F801C380D480F090F105C601881999099F
:105200004C0120E04091EF055091F005FF2009F49A
:1052100043C16F2D7091F2058091F3050E94090D35
:105220000E945B065090F4058816990608F0F5C0B8
:105230004091F2055091F305B090EF05A090F00574
:10524000852D807F6A2D09F0A1C08B2D0E940C094D
:10525000F62C81112BC0AE1029C0B71027C06110E9
:1052600025C0852D8F7080618093F4058FEE95E0C9
:105270000E94B11C8091F405D80115968C938F2D56
:1052800061960FB6F894DEBF0FBECDBFDF91CF9110
:105290001F910F91FF90EF90DF90CF90BF90AF9054
:1052A0009F908F907F906F905F90089520E0409145
:1052B000EF055091F0056091F1057091F205809134
:1052C000F3050E94090D0E945B065C01A6016E2D8C
:1052D000872D0E940C09D82EB4EFAB16B1E0BB06A7
:1052E000D0F081E08625D11080E080FF14C0462DEB
:1052F0006E2D872D0E94EC08882369F08FEE95E0D3
:105300000E94B11C86E0EFEEF5E0DF011D928A9568
:10531000E9F7F12CB4CF81E08625D11080E0B82FD9
:10532000B170CB2E80FF29C0462D6E2D872D0E9497
:10533000EC08D82E811121C07D86EE868D859E8554
:105340000E948E0C292F22952F70223050F024308D
:1053500078F49F7051F0F8019581907F31F4FD2C25
:105360008ECF9F7011F08823D1F3805E8830B8F320
:10537000C8010E94B11CDC2CF2CF662009F47FCF5B
:105380008091F40581608093F405C3CF8B2D0E943A
:105390000C09811115C0AE1013C0B71011C06110F7
:1053A0000FC0D80115965C92C8010E94B11C86E01E
:1053B000F801AFEEB5E001900D928A95E1F75FCF6D
:1053C0007D86EE868D859E850E94980C882309F146
:1053D0006620F9F08091F405803270F02091EF059D
:1053E0003091F00538872F831986DB86CA868C8733
:1053F000CE0107960E94B11C86E0F801AFEEB5E041
:1054000001900D928A95E1F70E944B28FF24F394B6
:1054100036CFC8010E94B11CF9CF852D807F09F4D9
:105420006DCF9090EF058090F0054091F20550917E
:10543000F305682D892D0E940C09811111C08E1071
:105440000FC097100DC061100BC0F8015582C80144
:105450000E94B11C86E0D5011D928A95E9F70FCF15
:105460007D86EE868D859E850E94980C882389F224
:10547000662079F28091F405803208F4BDCF209146
:10548000EF053091F0053A8329831B82DD82CC82BF
:105490008E83CE010196AECF60E07091F2058091CF
:1054A000F3050E94090D0E945B068816990690F686
:1054B000F62C662009F4ADCFD090EF05C090F00532
:1054C0004091F2055091F3056C2D8D2D0E940C0931
:1054D000811118C0CE1016C0D71014C08091F405E9
:1054E00080FD65CF982F907F09F461CFF801858307
:1054F000903F09F459CF982F907F905F8F70892B40
:10550000858352CF7D86EE868D859E850E94980C80
:10551000811172CF8091F40581608093F405C801F8
:105520000E94B11CACCE662009F473CF7D86EE8656
:105530008D859E850E94980CF82E882309F469CFEA
:1055400086E0F801AFEEB5E001900D928A95E1F7A3
:105550008091EF059091F0050E948E0C92959F70BE
:10556000963051F4863F41F08091EE0591E0892715
:105570008093EE059093ED050E944B2880CEFF921C
:105580000F931F93CF93DF93CDB7DEB767970FB617
:10559000F894DEBF0FBECDBFF62E6D8B7E8B8F8B4A
:1055A000142F052F6111109254064E895F89602FC8
:1055B000812F0E940C09811128C081E090E0012E0A
:1055C00001C0880F0A94EAF7A02FB0E0A954BD4F9C
:1055D0002C913091EE05F11002C0322F3823332385
:1055E00009F47FC0412F50E036E0039F400D511D6C
:1055F0001124440F551FFA01EE57F64F0491FA019A
:10560000EF57F64F1491822B8C931A8A198A1B8BB1
:105610000C8B85E0FE017396DE011D9601900D92C4
:105620008A95E1F70E94151120915006309151069C
:10563000821B930B883E934020F08091520682FF9C
:105640009CC00E9415112091560630915706821B6E
:10565000930B883E934010F00E945B080E94151146
:105660002091E9053091EA05821B930B883E934017
:1056700028F08091EB05813009F476C086E0FE01C8
:105680003D96DE01179601900D928A95E1F7CE01C5
:1056900007960E94C028811111C086E0FE0137964E
:1056A000DE01119601900D928A95E1F74A855B859E
:1056B00068858F810E940C098823B1F016E08091E3
:1056C00026069091F50589133CC067960FB6F894AD
:1056D000DEBF0FBECDBFDF91CF911F910F91FF9025
:1056E00008958095822390CF2091F50530E0C9017F
:1056F000019687709927409126064817190699F058
:1057000096E0929FD001939FB00D1124AA50BA4FFA
:10571000FE01319601900D929A95E1F78093F5057F
:105720000E941709CBCF0E94C3121092F505109268
:10573000260686E0EFEEF5E0DF011D928A95E9F797
:10574000BDCF819FC00111248A509A4F0E94C0286A
:10575000882309F4BACF8091260690E001968770DD
:10576000992780932606ABCF1092EB051092EE0599
:105770001092EA051092E90581CF82E00E94611241
:1057800060CF8F929F92AF92BF92CF92DF92EF92B3
:10579000FF920F931F93CF93DF9300D000D00F920F
:1057A000CDB7DEB703E712E097E6C92E96E0D92E13
:1057B0004601F12CAA24A394B12CD8018D918D011E
:1057C000F894E82FE295EF70F0E021A18F70A50129
:1057D00002C0440F551F8A95E2F7CA01922F982BF9
:1057E00091A392A18095892382A3789400C0EDE7CC
:1057F000F2E030E020E0E12C4191A42FA295AF70BF
:10580000B0E090968C9190E04F7002C0959587958E
:105810004A95E2F780FD48C08A2D022E01C0880F0C
:105820000A94EAF7E82A2F5F3F4F2630310521F727
:10583000F801319780810E94540A50EA5A95F1F795
:10584000D4018C91E81691F1EC9281E0F82ABFEF37
:105850008B1A9B0AE2E008371E0709F0AECF1091C1
:105860007206FF2029F181E08093A8020E941511A1
:105870009093A7028093A6028091A6029091A7021E
:105880000E9426080697C0F0E12FF0E0EB58F94F90
:10589000D6018D916D018193BCE6CB16B6E0DB0697
:1058A000B9F71092A80208C080E0BCCF80E0CECF4C
:1058B0008091A8028111E0CF0E945D0EE82E6091D8
:1058C0007206882309F4A6C08E010F5F1F4F85E082
:1058D000F80111928A95E9F7862F90E0B8018B586C
:1058E000994F0E94D332811130C08091A9028F5FFD
:1058F0008093A902863008F443C0E0917106F0E07D
:10590000EB58F94FD801CE01069611921D928A17D5
:105910009B07D9F7809124028F3F09F077C0F110DF
:1059200001C0FE2C8F2D0F900F900F900F900F90B5
:10593000DF91CF911F910F91FF90EF90DF90CF906B
:10594000BF90AF909F908F9008951092A902A09160
:105950007106B0E0AB58B94F9E012A5F3F4FE12C72
:105960004D91F80191918F01491731F0AD014150EE
:105970005109FA019083E82E0217130789F7CACF5D
:10598000E12CC8CFC89CF001C99CF00D1124E45E45
:10599000FE4FA288B388A114B10429F481859285B1
:1059A0000E945B065C01C89C8001C99C100D1124FB
:1059B000045E1E4FD80116968C9116978823C9F065
:1059C0001D968D919C910E942608A816B90688F410
:1059D000DC9C50011124F8018189811105C0C501A9
:1059E000845E9E4F0E948511C5018E5D9E4F0E9470
:1059F000A611D3948D2C912C80912402082E000C9A
:105A0000990B881599050CF0BDCF89CFD12C86E173
:105A1000C82EF0CF70E06B58794F8091710690E0FE
:105A20008B58994F0E9400337ACFCDB7DEB762977B
:105A30000FB6F894DEBF0FBECDBF84B7877F84BF9B
:105A40000FB6F894A89580916000886180936000FB
:105A5000109260000FBE80E890E00FB6F89480933B
:105A60006100909361000FBE85B7806885BF85B7E0
:105A7000806885BF80E198E090939D0280939C02AE
:105A80000E9486060E9451078091E2008460809304
:105A9000E20078948091DE088823A1F01091E9005B
:105AA0001F709091EC00892F817090FD80E8182B79
:105AB0001092E9008091E80083FD0E94CE121F70D1
:105AC0001093E90082E084BD93E095BD9AEF97BD05
:105AD00080936E0010926106109262061092630627
