:100000000C94DE050C9425060C9425060C942532E0
:100010000C9425060C9425060C9425060C942506B4
:100020000C9425060C9425060C94DB0F0C9480157B
:100030000C94BD2F0C9425060C9425060C942506D3
:100040000C9425060C9425060C9425060C94250684
:100050000C9425060C94EA100C9425060C942506A5
:100060000C9425060C9425060C9425060C94250664
:100070000C9425060C9425060C9425060C94250654
:100080000C9425060C9425060C9425060C94250644
:100090000C9425060C9425060C9425060C94250634
:1000A0000C9425060C9425060C9425060102E061AB
:1000B000630103E0000102E061780103E000010256
:1000C000E061630103E0000102E061780103E00008
:1000D0000000000000000000000000000000000020
:1000E0000000000000000000000000000000000010
:1000F000000000007E0F00D4FFFFFFC70000007863
:1001000000000000000000002A2B28000000000072
:1001100000000000000000000000002900000000B6
:100120002C1E3420212224342627252E362D373824
:10013000271E1F202122232425263333362E37382D
:100140001F0405060708090A0B0C0D0E0F101112EB
:10015000131415161718191A1B1C1D2F3130232DB7
:10016000350405060708090A0B0C0D0E0F101112B5
:10017000131415161718191A1B1C1D2F3130354C66
:100180003544625D635D645D655D665D2B6314008F
:100190001A00080015001700296104001600070066
:1001A00009000A0002551D651B0006001900050024
:1001B000E3000100006402512C621B012E002D009F
:1001C0003000695D685D675D2F63130012000C00ED
:1001D00018001C00347102570F000E000D000B00B8
:1001E00002553865370036001000110031002844F0
:1001F00000742A432C42AE0029001E001F0020007C
:10020000210022002B0014001A000800150017001E
:10021000E00004001600070009000A00E1001D00CC
:100220001B0006001900050042002A00E2000451EC
:100230002C00A800065D2B5D055D045D085D075D73
:100240002F00130012000C0018001C00340002578D
:100250000F000E000D000B002A003800370036009A
:1002600010001100035D025DE4002A4328000153E1
:1002700001003A003B003C003D003E0039005F5D5C
:100280003702300027023002065D605D36022F0023
:1002900026022F02045D075D1B04060419040504F1
:1002A0002B5D0100010001000100A6004400430095
:1002B0004200410040003F004500550061006000E1
:1002C0005F008500570056005E005D005C00630023
:1002D000580054005B005A00590001000100010061
:1002E00062006200010001530100010001000100F1
:1002F0000100010001004600F100ED0001000100D5
:100300000100F200EF00EE00F0000100010001002A
:10031000010001000100010001000100FD00FD00DD
:10032000FD00A50023082208210820081F081E0838
:100330004B00490001004D004A004C004E002800CF
:100340004F00520051005000615D605D6A5D4F01D9
:1003500050016B5D0100010001000100000001007F
:10036000000000000000000000000000005C000031
:1003700000520152015D04530453000000000100CB
:100380000100010000000000000001000100010068
:100390000100010001000100010001000000000057
:1003A000000000000000000000000000000000004D
:1003B0000000000000000000AB00AE00AC00000038
:1003C00000000000A900A800AA00000001000451DC
:1003D000010001000100045307087F0807003E5B8D
:1003E0004F5B3E003E6B4F6B3E001C3E7C3E1C0054
:1003F000183C7E3C18001C577D571C001C5E7F5E1D
:100400001C0000183C180000FFE7C3E7FF000018BD
:1004100024180000FFE7DBE7FF0030483A060E0033
:10042000262979292600407F05050700407F0525FC
:100430003F005A3CE73C5A007F3E1C1C0800081C49
:100440001C3E7F0014227F2214005F5F005F5F006C
:1004500006097F017F00006689956A006060606020
:10046000600094A2FFA2940008047E0408001020FB
:100470007E20100008082A1C0800081C2A08080012
:100480001E10101010000C1E0C1E0C0030383E38D0
:100490003000060E3E0E06000000000000000000C6
:1004A0005F000000000700070000147F147F1400A5
:1004B000242A7F2A1200231308646200364956203A
:1004C0005000000807030000001C2241000000410A
:1004D000221C00002A1C7F1C2A0008083E08080075
:1004E0000080703000000808080808000000606004
:1004F00000002010080402003E5149453E00004221
:100500007F4000007249494946002141494D33006E
:100510001814127F10002745454539003C4A4949C7
:100520003100412111090700364949493600464941
:1005300049291E00000014000000004034000000A3
:100540000008142241001414141414000041221451
:1005500008000201590906003E415D594E007C1217
:1005600011127C007F49494936003E414141220039
:100570007F4141413E007F49494941007F090909C6
:1005800001003E41415173007F0808087F0000418F
:100590007F4100002040413F01007F0814224100BC
:1005A0007F40404040007F021C027F007F04081013
:1005B0007F003E4141413E007F09090906003E415E
:1005C00051215E007F091929460026494949320018
:1005D00003017F0103003F4040403F001F204020B7
:1005E0001F003F4038403F006314081463000304B9
:1005F000780403006159494D4300007F41414100A7
:10060000020408102000004141417F000402010261
:100610000400404040404000000307080000205410
:10062000547840007F28444438003844444428002B
:10063000384444287F0038545454180000087E0978
:10064000020018A4A49C78007F08040478000044E9
:100650007D4000002040403D00007F102844000005
:1006600000417F4000007C04780478007C0804048A
:100670007800384444443800FC1824241800182416
:100680002418FC007C080404080048545454240036
:1006900004043F4424003C4040207C001C204020B7
:1006A0001C003C4030403C004428102844004C9042
:1006B00090907C004464544C440000083641000093
:1006C000000077000000004136080000020102042B
:1006D00002003C2623263C000000000000004040B1
:1006E00040F0F8F8FF38FFF8F83FF8F8FF38FFF867
:1006F000F8F040404000000000000080C0C0C08012
:100700000000C0C08000000080C0C000C0C0000069
:1007100080C0C00000000000C0C0C0C0C000C0C099
:1007200000000000000000000000000000000000C9
:1007300000000000000000000000000000000000B9
:1007400000000000000000000000000000000000A9
:1007500000000000000000C0F0F8FC3E1E06010092
:1007600000007F4141417F007F4141417F00008087
:10077000C0E07E5B4F5BFEC00000C000DCD7DEDE69
:10078000DED7DC00C0000000000000000000000018
:1007900000000000000000000000000000004949C7
:1007A00049FFFFFFFFE0DFBFBF00BFBFDFE0FFFF8C
:1007B000FFFF49494900000000001F3F6060E0BFA3
:1007C0001F007F7F071E381E077F7F007F7F0E1F61
:1007D0003B716000000000007F7F0C0C0C007E7EEF
:1007E000007F7E0303007F7E03037E7E03037F7E04
:1007F000000F3E703C063C703E0F00327B49493F83
:100800007E007F7E0303001E3F69696F26000000A3
:1008100000000000000000030F1F3F3C78706000E4
:1008200000007F4141417F007F4141417F00307B9B
:100830007F7830202030787F3B0003000F7F0F0F40
:100840000F7F0F0003000000000000000000000008
:100850000000000000000000000000000000010196
:1008600001070F0F7F0F7F0F0F7E0F0F7F0F7F0F7F
:100870000F0701010100000000000000000000015E
:100880000100000000000000000000000000000067
:100890000000000000000000000000000000000058
:1008A0000000000000000000000000000000000048
:1008B0000000000000000000000000000000000038
:1008C0000000000000000000000000000000000028
:1008D0000000000000000000000000000000000018
:1008E0000000000000000000000000000000000008
:1008F00000000000000000000000000000000000F8
:1009000000000000000000000000000000000000E7
:1009100000000000000000000023000005010502A7
:100920000503050405050500060106020603060485
:10093000060506000701070207030704070507006D
:100940000801080208030804080508000901090253
:10095000090309040905090000010002000300045D
:10096000000500000101010201030104010501006D
:100970000201020202030204020502000301030253
:100980000303030403050300040104020403040435
:100990000405040102E20102E10101500103E10149
:1009A00003E2000102E20102E101014F0103E10162
:1009B00003E2000102E00101500103E00102E10154
:1009C00002E001014F0103E00103E1003D3E0001AF
:1009D00002E001014C0103E00000DA028101D9F1DB
:1009E000DB20A4A62EAF00A0C000A1C800AED58019
:1009F000A81FD300408D1420004350534C4B000AD5
:100A00000A00556E646566005F464E34004E61769E
:100A1000004E756D0047616D650A00426173650A9D
:100A2000004C41594552000A0A004D6F640A0047C4
:100A3000414D452121212121210051777274000A65
:100A40000A00808182838485868788898A8B8C8D41
:100A50008E8F9091929394A0A1A2A3A4A5A6A7A8DB
:100A6000A9AAABACADAEAFB0B1B2B3B4C0C1C2C352
:100A7000C4C5C6C7C8C9CACBCCCDCECFD0D1D2D3BE
:100A8000D40000232005010902A10185020901A16A
:100A9000000509190129081500250195087501812E
:100AA000020501093009311581257F9502750881FC
:100AB0000609381581257F950175088106050C0A00
:100AC00038021581257F950175088106C0C0050192
:100AD0000980A101850319012AB700150126B70075
:100AE000950175108100C0050C0901A1018504194B
:100AF000012AA002150126A002950175108100C0EF
:100B000005010906A101050719E029E715002501DE
:100B10009508750181029501750881010507190085
:100B200029FF150026FF00950675088100050819A4
:100B3000012905950575019102950175039101C083
:100B400009023B00020100A0FA09040000010301B0
:100B5000010009211101000122400007058103085D
:100B6000000A09040100010300000009211101002D
:100B700001227B000705820320000A1201100100F8
:100B800000000832FC87020100010200010C03533F
:100B9000006F0066006C00650000001A034A006FD9
:100BA000007300650066004100640061006D006331
:100BB0000069006B000000040309040011241FBE3B
:100BC000CFEFDAE0DEBFCDBF04B603FE27C08091D1
:100BD0001C0890911D08A0911E08B0911F08873035
:100BE000904BA740B04BD1F410921C0810921D08F6
:100BF00010921E0810921F0814BE84B7877F84BF0E
:100C00000FB6F894A8958091600088618093600089
:100C1000109260000FBEE0E0F8E3099511E0A0E05B
:100C2000B1E0E6E2F8E602C005900D92A23CB10701
:100C3000D9F728E0A2ECB1E001C01D92AC31B207B7
:100C4000E1F70E9489290C94E6330C94000082306D
:100C500025E5920731F08230974519F086E990E05A
:100C6000089588EC90E00895E8EDF0E080818E7FB3
:100C700080831092E2001092DA001092E100A0EE60
:100C8000B0E08C9181608C9380818F77808319BCD8
:100C9000A7EDB0E08C918E7F8C9380818F7E8083D6
:100CA0001092F70708952091E4003091E50095E651
:100CB000A9012091EC00822F817020FF06C0809155
:100CC000E80080FF06C080E008952091E80022FD42
:100CD0001AC080910408882389F0853089F08091BA
:100CE000EB0085FD0FC02091E4003091E500421734
:100CF0005307F9F29150E1F684E0089582E00895F7
:100D000083E0089581E00895EF92FF920F931F937F
:100D1000CF937C018B010E945306C82F811117C00D
:100D20008091E80085FD0BC08091E8008E7780936C
:100D3000E8000E945306882399F3C82F08C0F701E2
:100D400081917F018093F1000150110949F78C2FA7
:100D5000CF911F910F91FF90EF9008958091060819
:100D600087FF13C08091E80082FF06C08091E800F1
:100D70008B778093E80004C0809104088111F2CF42
:100D80000895809104088823D9F38091E80080FFBA
:100D9000F8CF8091E8008E77ECCF982F9093E90000
:100DA000242F762F50E0891731F07091EC002091BC
:100DB000ED005091F00021FD07C09F5F973071F763
:100DC0008093E90081E008953091EB003E7F3093FD
:100DD000EB003091ED003D7F3093ED003091EB0062
:100DE00031603093EB007093EC002093ED00509352
:100DF000F0002091EE0027FDE0CF80E00895CF9233
:100E0000DF92EF92FF920F931F93CF93DF93C8ED82
:100E1000D0E088818F7E8883E7EDF0E0808181607B
:100E2000808384E082BF81E08093F70788818E7F92
:100E3000888302EE10E0F80110821092DA0081EE51
:100E4000C82ED12CF601108288818F778883888103
:100E50008068888388818F7D888319BC10920408FC
:100E600010920508109203081092020890EEE92EE5
:100E7000F12CF70180818B7F80838881816088835A
:100E800042E060E080E00E94CD06F60180818E7F26
:100E90008083F80180818160808380818860808385
:100EA000F70180818E7F8083888180618883DF91D4
:100EB000CF911F910F91FF90EF90DF90CF90089509
:100EC000FC0180910C0890910D0886179707A0F0FF
:100ED0006115710529F49091E8009E779093E800E0
:100EE00090E06115710551F4911108C08091E800FE
:100EF00082FF34C080E00895BC01F2CF80910408E5
:100F00008823C1F18530C1F18091E80083FD30C0B4
:100F10008091E80082FDEACF8091E80080FFE1CF78
:100F20008091F3002091F200382F6115710519F0BE
:100F30002830310558F091E02830310509F090E073
:100F40002091E8002E772093E800CBCF8191809309
:100F5000F100615071092F5F3F4FE7CF8091040886
:100F6000882341F0853041F08091E80083FFBECFB7
:100F700081E0089582E0089583E0089580E0089577
:100F80008091F907089587E797E790930108809388
:100F9000000888E19AE00FB6F894A8958093600065
:100FA0000FBE90936000FFCF9C014FB7F8948091E3
:100FB000830590918405A0918505B09186054FBF6A
:100FC000821B930B08952FB7F8946091830570915D
:100FD000840580918505909186052FBF08959C0119
:100FE000FC0132969FEF80E04191461751F09F3F00
:100FF00019F4411101C0982F8F5F8630A9F79F3FE8
:1010000009F40895290F311D97FD3A95F90162837E
:10101000089580917E05882331F010927E0510920C
:101020007D0510927C050895809590917B0598230D
:1010300090937B0508951092780510927705109291
:1010400076050895809175058111109275050895B2
:10105000E92FEE0FE90FEE0F8E0F982F9770869500
:101060008695869525E0829FF0011124E35BFA4F77
:1010700050E040E080E0219130E0092E02C036953A
:1010800027950A94E2F721703327042E01C0220F1E
:101090000A94EAF7822B4F5F5F4F4530510559F7AD
:1010A0000895E92FEE0FE90FEE0F8E0F982F97702E
:1010B00041E001C0440F9A95EAF78695869586959A
:1010C00095E0899FF0011124E35BFA4F30E020E0C6
:1010D00070E05191DF011197CB01022E02C096956D
:1010E00087950A94E2F78170819585278423852767
:1010F0008C932F5F3F4F2530310559F70895282FE6
:101100008091AF059091B005A091B105B091B20565
:101110000097A105B10549F004C0B695A79597952C
:1011200087952A95D2F78170089580E008952091DF
:101130004C0590911B0556E0291302C080E00895EC
:1011400030E0529FF001539FF00D1124E45EFA4FFE
:101150007181761306C07081781303C07281741395
:1011600004C02F5F3F4F2770E7CF81E00895452BE4
:1011700039F0682381E06F3F09F080E081700895C5
:1011800081E0FCCF80914C0590911B05981301C024
:1011900008958F5F8770FACF0C94E3072091DB01ED
:1011A0003091DC012817390771F09093DC018093AE
:1011B000DB01E091AD05F091AE05309721F00084A0
:1011C000F185E02D099408952091D9013091DA013B
:1011D0002817390771F09093DA018093D901E091D3
:1011E000AD05F091AE05309721F00680F781E02D36
:1011F00009940895E091AD05F091AE05309721F086
:101200000190F081E02D099480E008954091E70776
:101210008D3E59F48091E80787FF0DC01092E807D2
:1012200041110BC01092E20708C08E3E81F48091FC
:10123000E80718169CF3442381F08091E907909108
:10124000EA07892B09F05AC01092DF0708958F3EF4
:1012500049F447FFF0CF1092E7078091E80781112A
:10126000ECCFE0CF803F19F41416ACF3E4CF9091AB
:10127000E907893F29F41916F4F61092E907DBCF44
:101280008A3F19F497FFD7CFF8CF9091EA078B3FA9
:1012900029F497FFD0CF1092EA07CDCF8C3F19F4F5
:1012A0001916CCF3C8CF9FE0980F983090F4815F67
:1012B000990B21E030E0B90102C0660F771F8A95D3
:1012C000E2F7CB0180959091E60789238093E607AA
:1012D000B2CF8D3F31F4809112058E7F809312053D
:1012E000AACF8E3F21F4809112058D7FF7CF8F3FDB
:1012F00009F0A1CF809112058B7FF0CF089581E096
:1013000008958091120580FD16C081FD16C082FDF2
:1013100018C08091E207882391F0883290F42FE082
:10132000829FC001112468E270E00E945233862F30
:10133000672B49F0089583E0089587E0089585E0DC
:1013400008958FE0089581E008958D3E31F40E9464
:10135000810981958093E80708958E3E19F40E94D3
:101360008109F8CF8F3E31F40E94810981958093E5
:10137000E7070895803F19F40E948109F8CF893F5B
:1013800029F40E947F098093E90708958A3F21F498
:101390000E947F098195F7CF8B3F31F40E947F092E
:1013A00081958093EA0708958C3F19F40E947F0984
:1013B000F8CF9FE0980F983070F4815F990B21E08F
:1013C00030E001C0220F8A95EAF78091E607822B70
:1013D0008093E60708958D3F31F480911205816076
:1013E0008093120508958E3F21F48091120582604A
:1013F000F7CF8F3FB9F7809112058460F1CFF89451
:10140000E82FE295EF70F0E031A1282F2F7081E0F6
:1014100090E001C0880F2A95EAF7982F90959323C2
:1014200091A392A1892B82A3789408950F931F937F
:10143000CF9340E851E0ABE9B5E090E0CAE0CA0FD5
:101440006D9130E020E070E0FB01022E02C0F595C6
:10145000E7950A94E2F7E0FD0EC02F5F3F4F26307C
:10146000310591F7445F5F4FCA13EACF80E0CF9117
:101470001F910F910895F901EE0FFF1FE40FF51F63
:10148000059114918017910741F781E0F0CFCF9338
:10149000C82F8EE00E94160A882321F08C2FCF914E
:1014A0000C94160A80E0CF91089590918B0592FFDD
:1014B00006C0282F28712830F9F4877F846093FFB5
:1014C00006C0282F28712831F1F4877E846120918D
:1014D0008C0520FF06C0382F38713830D9F4877F4B
:1014E000816021FF06C0282F28712831D1F4877E22
:1014F000816194FD877E0895282F24712430F9F6A8
:101500008B7F8860DCCF282F2471243101F78B7EFC
:101510008861DDCF382F3171313019F78E7F8860C7
:10152000E0CF282F2171213121F78E7E8861E1CF14
:10153000CF93DF93972F70E026E0929F600D711D8F
:101540001124FB013CE3839FE00DF11D1124EE0FFC
:10155000FF1FE058FE4FC591D491CE01C238D1058E
:10156000B9F1E8F5C133D10509F499C050F5C93294
:10157000D10509F48DC0CA32D10509F497C0C1154F
:1015800042E5D40708F0C4C0C11521E5D20708F030
:1015900032C1C83ED10508F09DC0C03ED10568F5F6
:1015A000C83AD10508F089C0C53AD10508F0FFC096
:1015B000C130D10511F1209709F443C02497E8F414
:1015C00040C0C533D10509F45CC0C933D105B9F6B3
:1015D00020918B05237089F080EE90E00EC0C33E11
:1015E000D10591F168F4C03ED105F9F0C23ED105B4
:1015F00031F620918B0522FD20C0DF91CF91089517
:10160000C63ED10561F1C73ED10581F1C43ED10589
:1016100009F0B5CF20918C0521FFEFCF80918B058C
:1016200084FD0FC087EE90E0E8CF20918B0520FD70
:1016300014C130918C0530FFE0CF83EE90E024FFA1
:10164000DCCF90E080E0D9CF20918B0522FD08C14E
:1016500030918C0530FDC0CF24FFCFCFF2CF209149
:101660008B0523FFCACF24FDECCFDCCF20918B0567
:1016700023FDF9C030918C0531FFEECF84EE90E070
:10168000BCCF20918B0525FFB8CF89E290E0B5CF84
:1016900020918B0525FFB1CF85E390E0AECF20915F
:1016A0008B0526FFAACF8AE290E0A7CF20918B0579
:1016B00026FFA3CF81E390E0A0CFCF3BD10508F672
:1016C000C85AD0E0CC0FDD1FC559DE4F8881998103
:1016D000946493CFC11530E2D30760F4C11541E0A3
:1016E000D40708F08ACFCE019065CD3ED10508F031
:1016F00084CFA7CFC11580E4D80708F4A2CFC115C5
:1017000090E5D90708F05BC0CE019F70906A75CF55
:10171000C11526E5D20718F5C11535E5D30708F040
:1017200080C0C11544E5D40708F076C09C2F96957B
:101730009695AE0143705527C115D34508F460C096
:1017400021E030E002C0220F331F4A95E2F740E269
:10175000949FC0011124822B932B9A684ECFC11500
:1017600099E5D90770F4C11528E5D20708F063C0E0
:10177000C11537E5D30708F064CFCE0199279066ED
:101780003CCFC1154AE5D40708F45AC0CE019056A3
:101790008115904208F055CF8D2F8F710E94550A08
:1017A00090E0982F882788279F718C2B42C0C55ABC
:1017B000D0E0C859DE4F888190E090641ECF9E0132
:1017C000E4E036952795EA95E1F723708C2F86950E
:1017D0008695837030E2839FC0011124922BC370E1
:1017E00021E030E002C0220F331FCA95E2F7822BBE
:1017F000932B9C6802CF9C2F8827816F906AFDCE27
:1018000021E030E002C0220F331F4A95E2F740E2A8
:10181000949FC0011124EBCF9C2F8827846F906A7E
:10182000ECCE8C2F0E94550A90E0982F88278827AD
:101830009F719062E2CE9C2F8827806F906ADDCEE8
:101840008C2F8F700E94550A34E0D695C7953A9533
:10185000E1F7CF709C2F9069D0CE89E390E0CDCE98
:1018600082EE90E0CACE86EE90E0C7CEBF92CF92D5
:10187000DF92EF92FF920F931F93CF93DF938C0130
:10188000C090AF05D090B005E090B105F090B205E2
:1018900080917F0590918005A0918105B09182058E
:1018A000C82AD92AEA2AFB2ACFE1D0E0BC2ED701E8
:1018B000C6010C2E04C0B695A795979587950A94F6
:1018C000D2F780FD0EC0219788F7B12C8B2DDF91C8
:1018D000CF911F910F91FF90EF90DF90CF90BF902D
:1018E0000895B8018C2F0E94980A019761F3EECFFA
:1018F000CF93DF93EC010E94360CBE01DF91CF91B4
:101900000C94980A0E94780C292F2F7092959F7042
:1019100092509E3078F4E92FF0E0E851FC4C0C94A2
:101920006633803F19F020F4883E20F481E008956A
:10193000843FE1F380E00895883EC0F3813FD1F712
:10194000F5CF822F8695869586950895CF92DF9262
:10195000EF92FF926C01EE24FF2420E0C114D10429
:10196000E104F10419F0C701B60120E1C72ED82E19
:10197000E92EFF24C114D104E104F10419F0285F19
:10198000C701B6016B017C0154E0F694E794D7944B
:10199000C7945A95D1F7C114D104E104F10419F0A8
:1019A0002C5FC701B6016B017C0142E0F694E7941D
:1019B000D794C7944A95D1F7C114D104E104F10436
:1019C00019F02E5FC701B6019695879577956795B3
:1019D000672B682B692B09F02F5F822FFF90EF9008
:1019E000DF90CF9008951F93CF93DF9300D000D066
:1019F0000F92CDB7DEB749835A8389819A816623D6
:101A000031F1222321F10E94360C182F682F898191
:101A10009A810E9451088A81E981F0E096E0899FCD
:101A2000E00DF11D11248CE3189FE00DF11D112430
:101A3000EE0FFF1FE058FE4F859194910F900F908D
:101A40000F900F900F90DF91CF911F9108950E94FA
:101A50002808182FE0CFCF93DF939C013A952115EA
:101A60003F4168F5EC01CC27D170DC01AA27B270A8
:101A7000AC01442754709C012227387094FF11C098
:101A800080E1CD2B09F480E0AB2B09F08062452B7F
:101A900009F08064232B09F08068FB01DF91CF916E
:101AA000099481E0CD2B09F480E0AB2B09F0826032
:101AB000452B09F08460232B81F38860EECFDF9102
:101AC000CF910895CF92DF92EF92FF920F931F93E1
:101AD000CF93DF936C017B0164E670E088E70E949E
:101AE0008C30EC0197FD12C010E000E0F601E00F31
:101AF000F11F849164E670E00E94E830EC01892BCC
:101B000029F40F5F1F4F0E151F0581F70E946B31DF
:101B1000CE01DF91CF911F910F91FF90EF90DF9059
:101B2000CF900895CF93C091DB078091DE07882383
:101B3000D1F00E94E307605A75418F4F9F4F609329
:101B4000D7077093D8078093D9079093DA07C1110C
:101B500008C063E070E088E199E00E94620D892B83
:101B600029F0C091DB078C2FCF91089581E08093FD
:101B7000DB07F7CFCF9384E090E00E94A433C82F17
:101B800082E290E00E94A433982F8C2FCF91089589
:101B9000CF93DF9300D00F92CDB7DEB790910408BA
:101BA000943019F589837B836A8382E08093E9000E
:101BB0008FEF9091E800815095FD06C095ED9A95C4
:101BC000F1F700008111F5CF8091E80085FF0DC08D
:101BD00050E040E063E070E0CE0101960E94840690
:101BE0008091E8008E778093E8000F900F900F901F
:101BF000DF91CF910895BC0184E00C94C80DBC0125
:101C000083E00C94C80D9C0182E08093E9009FEF73
:101C10008091E800915085FD06C085ED8A95F1F729
:101C200000009111F5CF8091E80085FF0CC050E0D5
:101C300040E066E070E0C9010E9484068091E800FF
:101C40008E778093E8000895CF93DF93EC0181E0D5
:101C50008093E9008FEF9091E800815095FD06C0D8
:101C600095ED9A95F1F700008111F5CF8091E8008C
:101C700085FF14C050E040E068E070E0CE010E94B3
:101C800084068091E8008E778093E80088E0FE016A
:101C9000AAEFB7E001900D928A95E1F7DF91CF911D
:101CA00008958091D001811110C08091D800806189
:101CB0008093D8008AE18A95F1F700C08091D9001D
:101CC00080FF0AC081E08093D00181E09091D00133
:101CD000913009F080E0089582E08093D0010E9465
:101CE000340610920408F1CFCF93C92F682F84E0F7
:101CF00090E00E94B2336C2F82E290E0CF910C947E
:101D0000B23390918C0592FB222720F9281751F0CD
:101D100080FB92F990938C0580918B0590918C05B6
:101D20000C94740E08956AEE7EEF90E080E00E94BD
:101D3000D03360E082E090E00E94B23360E083E064
:101D400090E00E94B23310927F05109280051092AD
:101D500081051092820560E084E090E00E94B23339
:101D600060E082E290E00E94B23360E085E090E0C3
:101D70000E94B23360E086E090E00E94B2336FEFE1
:101D800087E090E00E94B23340E050E0BA0188E082
:101D900090E00E94C43360E08DE090E00E94B23396
:101DA00040E050E0BA0188E190E00E94C43360E076
:101DB00087E190E00E94B23340E050E0BA018CE14C
:101DC00090E00E94C43370E060E080E290E00E9406
:101DD000D03340E050E0BA0188E190E00E94C43383
:101DE00040E050E0BA018FE090E00E94C43340E050
:101DF00050E0BA0183E190E00C94C4331F93CF9379
:101E0000DF93162F8A3031F481E0DF91CF911F915B
:101E10000C94A30F8D3011F480E0F7CFC091AA0588
:101E2000D091AB0596E0FE01A1EDB1E001900D92DD
:101E30009A95E1F7803EA8F186E0FE0111928A951D
:101E4000E9F7C091AA05D091AB05111136C046E063
:101E500050E0BE0181ED91E00E9497339E01235D29
:101E60003540892BA9F52A5F3F4F4091AC05642F7F
:101E700070E0C9010E943E33481B463010F4240F25
:101E8000311D211572E0370710F030E020E02D52AF
:101E90003A4F3093AB052093AA05DF91CF911F9164
:101EA0000895F6E08F9FB001112468527C4F46E000
:101EB00050E0CE010E948E33C4CF9E012A5F3F4F77
:101EC000FE012E173F0719F2808180958193F9CF8B
:101ED000C90145E0969587954A95E1F741E050E0C4
:101EE000BA0102C0660F771F8A95E2F7CB016091B5
:101EF000D5077091D607862B972BB9016B5F7F4F63
:101F0000E5E076956795EA95E1F702C0440F551F25
:101F10006A95E2F7842B952B9093D6078093D5078B
:101F2000A2CF1F93CF93DF93EC01162FFE01849174
:101F3000811104C0DF91CF911F910895612F0E94FC
:101F4000FE0E2196F3CFCF93382FE091AA05F091A2
:101F5000AB05E35DF5402091AC05622F70E0CF0149
:101F60000E943E33281B822F332369F066E00E94D3
:101F70003233C82FC15010F4CF91089560E080E251
:101F80000E94FE0EF7CF9F01280F311D2115324010
:101F900018F080E0F0E0E0E08E0F9F2F911D8D5251
:101FA0009A4F9093AB058093AA05E6CF0E94910FBC
:101FB00081E00C94A30F1F920F920FB60F92112481
:101FC0002F933F934F935F936F937F938F939F9341
:101FD000AF93BF93EF93FF938091E10082FF09C01D
:101FE0008091E20082FF05C08091E1008B7F8093A9
:101FF000E1008091DA0080FF24C08091D80080FF4A
:1020000020C08091DA008E7F8093DA008091D90021
:1020100080FF9BC080E189BD82E189BD09B400FEDB
:10202000FDCF81E0809304088091F707811109C0FA
:102030000E9434060E94FF068091E2008460809333
:10204000E2008091E10080FF17C08091E20080FFF4
:1020500013C08091E2008E7F8093E2008091E200C5
:1020600080618093E2008091D80080628093D800E4
:1020700019BC85E0809304088091E10084FF29C0A9
:102080008091E20084FF25C080E189BD82E189BDA5
:1020900089B5982F917080FFFBCF8091D8008F7DFC
:1020A0008093D8008091E1008F7E8093E100809141
:1020B000E2008F7E8093E2008091E2008160809355
:1020C000E20080910508882309F445C084E08093EC
:1020D00004088091E10083FF27C08091E20083FF24
:1020E00023C08091E100877F8093E10082E08093AC
:1020F0000408109205088091E1008E7F8093E10032
:102100008091E2008E7F8093E2008091E200806106
:102110008093E20042E060E080E00E94CD06809182
:10212000F00088608093F000FF91EF91BF91AF9134
:102130009F918F917F916F915F914F913F912F91DF
:102140000F900FBE0F901F90189519BC10920408A5
:102150001092F70776CF8091E30087FD93E090938C
:102160000408B7CF0F931F930E94510E882321F0CC
:102170001F910F910C94E3070E94E30700918705DC
:10218000109188052091890530918A05600F711F93
:10219000821F931F1F910F910895CF92DF92EF92AC
:1021A000FF926B017C010E94510E81110EC00E94B2
:1021B000E307C61AD70AE80AF90AC0928705D0923F
:1021C0008805E0928905F0928A05FF90EF90DF90F4
:1021D000CF90089578941F921FB61F9211248F9369
:1021E0009F93AF93BF938091830590918405A091B5
:1021F0008505B09186050196A11DB11D80938305CB
:1022000090938405A0938505B0938605BF91AF9107
:102210009F918F911F901FBE1F9018952FB7F89414
:102220008091830590918405A0918505B0918605E4
:102230002FBF089580917B0590917A05892B90910D
:102240007905892B8093C40180917E05882319F13B
:102250000E940E1120917C0530917D05821B930B0D
:10226000883E934010F00E9409088091C40190912B
:102270007E05892B8093C40120E086EC91E0FC016F
:102280003191CF0131112F5FF1E08C3C9F07B9F7FD
:1022900021110E940908E091AD05F091AE0530973B
:1022A00031F00280F381E02D84EC91E009940895EF
:1022B000882341F0809590917A05892380937A054F
:1022C0000C941A110895882339F090917A05982B6F
:1022D00090937A050C941A110895882321F00E9496
:1022E00014080C941A110895882339F090917B05F5
:1022F000982B90937B050C941A110895CF93DF933C
:10230000EC0181E0898B80917B059F81892B8093F3
:102310007B0580917A059885892B80937A050E94A8
:102320001A11EA81FB81309739F06C897D89CE01E1
:102330000696DF91CF910994DF91CF910895EF92A6
:10234000FF920F931F93CF93DF93EC018A85811146
:1023500039C0EB80FC8087E5F81A26E12E9DC0018C
:102360002F9D900D1124DC01A85FBE4F1496ED91B6
:10237000FC911597309731F054966D917C91825F66
:102380009E4F099586E18E9D80018F9D100D112431
:10239000085F1E4FF80187810E941408F8018085AC
:1023A000982F909580917A05892380937A050E94D1
:1023B0001A11188219861B861E821D8210920C0526
:1023C00010920B05DF91CF911F910F91FF90EF902D
:1023D00008950E940E119C019091E7078091E807F3
:1023E000982B21F03093E4072093E3079091E907BD
:1023F0008091EA07982B21F03093E1072093E007C2
:10240000E091AD05F091AE05309749F082E0809300
:10241000E5070480F581E02D85EE97E009940895A5
:1024200090E080E00E94E40890E080E00E94CE0806
:1024300010927A05109279050E941A1186E0E5EE55
:10244000F7E0DF011D928A95E9F71092E2071092FA
:10245000DF07109212050C94E9116093AF05709399
:10246000B0058093B1059093B2050C9410120F93B0
:102470001F9341E050E060E070E004C0440F551F3E
:10248000661F771F8A95D2F7CB01BA0160957095C8
:10249000809590950091AF051091B0052091B10500
:1024A0003091B20560237123822393231F910F91F2
:1024B0000C942D129091780580958923809378054E
:1024C000282F277039F4282F082E000C330B921771
:1024D000130621F490918C0592FF07C08595859590
:1024E00085950E9437120C941B0808950F931F9333
:1024F00041E050E060E070E004C0440F551F661FEB
:10250000771F8A95D2F78091AF059091B005A09181
:10251000B105B091B2058A019B01082B192B2A2B1A
:102520003B2BC901B8011F910F910C942D12909172
:102530008C0592FD10C098E0899F90011124622BB8
:10254000609378050E9476120E940E119093770591
:102550008093760508950C94761260E070E0CB01CC
:102560000C942D1260937F057093800580938105F4
:10257000909382050C94101210927B05E6ECF1E02A
:1025800086E0DF011D928A95E9F70C9410121F93E3
:10259000CF93DF93CDB7DEB7AA970FB6F894DEBF1F
:1025A0000FBECDBF86E098E02091F100FC012193A1
:1025B000CF01F8E08E309F07B9F78091070883308C
:1025C00009F46FC0B8F4813009F446C0823009F4D0
:1025D000B0C08091E80083FF7BC280910608909193
:1025E00007089A3008F074C2E92FF0E0EA50FC4C7A
:1025F0000C9466338A3009F48BC08B3009F46EC0BA
:10260000893039F780910608813219F780910A08DC
:1026100090910B080297E8F68091E800877F8093FD
:10262000E8008091E80082FF37C09091F30080912C
:10263000F200029729F48091F1008B7F813021F420
:102640008091F1008093F9078091E8008B77809367
:10265000E8000E94AE06BDCF80910608813A09F0DD
:10266000B8CF8091E800877F8093E80080910A08C6
:1026700090910B08892B61F468E08AEF97E070E095
:102680000E9460078091E8008B778093E800A1CFDB
:1026900060E090E080E0F3CF809104088111C1CF29
:1026A00098CF80910608813A09F093CF80910A086B
:1026B00090910B08892B09F08CCF8091E800877FDF
:1026C0008093E8008091E80080FFFCCF80915F015B
:1026D0008093F1008091E8008E77B9CF8091060851
:1026E000813209F076CF80910A0890910B08892BEE
:1026F00009F06FCF8091E800877F8093E8000E9407
:10270000AE068091080880935F010E94BC1261CFE1
:1027100080910608813209F05CCF8091E800877FC4
:102720008093E8000E94AE06809109088093F80724
:1027300050CF80910608813A09F04BCF8091E80094
:10274000877F8093E8008091E80080FFFCCF809134
:10275000F807BECF803899F0823809F0B9C180916E
:102760000A088F70873008F0B3C18093E900809128
:10277000EB0085FB882780F91092E90006C0809164
:10278000020890910308911182609091E800977F70
:102790009093E8008093F1001092F1008091E8009E
:1027A0008E7792C1882309F480C1823009F090C1EC
:1027B00080910808811183C180910A088F702FEFE2
:1027C000280F263008F084C18093E9002091EB00A7
:1027D00020FF75C1933031F48091EB0080628093CB
:1027E000EB006DC19091EB0090619093EB0021E0C4
:1027F00030E001C0220F8A95EAF72093EA00109298
:10280000EA008091EB008860EACF811161C11091EC
:1028100008081F778091E3008078812B8093E30084
:102820008091E800877F8093E8000E94AE06809147
:10283000E80080FFFCCF8091E30080688093E30094
:1028400082E0111183E08093040842C180588230F5
:1028500008F03EC180910808909109088C3D23E062
:102860009207A1F583E08A838AE289834FB7F894BF
:10287000DE01139620E03EE051E2E32FF0E05093BA
:102880005700E49120FF03C0E295EF703F5FEF70C7
:102890008E2F90E0EA30C0F0C7968D939D932F5F06
:1028A000243159F74FBF8091E800877F8093E8007B
:1028B0006AE270E0CE0101960E9460078091E80014
:1028C0008B778093E80004C1C096E7CF40910A0857
:1028D00050910B08292F33272330310509F444C0C8
:1028E00078F52130310509F46FC08BE390E0E0E426
:1028F000FBE02230310509F0EBC02091E800277F92
:102900002093E80020910C0830910D08821793075E
:1029100008F49C0140E02115310509F064C0411123
:1029200062C08091E80082FDC9CF809104088823AD
:1029300029F2853019F28091E80083FFF2CFBECFF3
:1029400021323105A9F12232310509F0C1C041150A
:10295000510509F443C04130510509F0B9C08BE776
:1029600090E0E5E8FAE0C9CF992781309105C1F000
:10297000009759F0029709F0ABC0EDE8FBE0E49155
:102980008E2F90E0EDE8FBE007C0E7EBFBE0E49181
:102990008E2F90E0E7EBFBE0009709F499C0ADCFF4
:1029A000EBE9FBE0E4918E2F90E0EBE9FBE0F4CF64
:1029B0004115510571F04130510509F089C089E098
:1029C00090E0EBE6FBE099CF82E190E0EBE7FBE003
:1029D00094CF89E090E0E2E5FBE08FCF80E490E0E7
:1029E000E0E0FBE08ACF80910408882309F466CFF9
:1029F000853009F463CF8091E80083FD5FCF80913B
:102A0000E80082FD8ECF8091E80080FF84CF909116
:102A1000F3008091F2002115310519F088309105FD
:102A200050F041E0089709F040E08091E8008E778F
:102A30008093E80070CF44914093F100319621508B
:102A400031090196E8CF803809F042C08091E80052
:102A5000877F8093E800809105088093F1009ECEE7
:102A6000811136C010910808123090F58091E8006D
:102A7000877F8093E800109305080E94AE0611231B
:102A800011F084E005C08091E30087FDFACF81E07A
:102A90008093040842E061EC81E00E94CD0642E2AE
:102AA00061EC82E00E94CD0613C08091080881305D
:102AB00079F481E0933009F080E08093030810926C
:102AC000E9008091E800877F8093E8000E94AE06CD
:102AD0008091E80083FF0AC08091E800877F80939F
:102AE000E8008091EB0080628093EB00AA960FB61D
:102AF000F894DEBF0FBECDBFDF91CF911F91089537
:102B00001F920F920FB60F9211242F933F934F9362
:102B10005F936F937F938F939F93AF93BF93CF9365
:102B2000DF93EF93FF93D091E900DF708091EC0089
:102B3000C82FC17080FDC0E81092E9008091F000BC
:102B4000877F8093F00078940E94C7121092E9006A
:102B50008091F00088608093F000CD2BCF70C093FF
:102B6000E900FF91EF91DF91CF91BF91AF919F91DC
:102B70008F917F916F915F914F913F912F910F9026
:102B80000FBE0F901F9018958823B1F19CEF980FFE
:102B9000913A70F4E6ECF1E09191891303C0DF0102
:102BA00011971C9291E0EC3CF907B1F70C941A11C3
:102BB00090E2980F983050F4877091E001C0990F1F
:102BC0008A95EAF7892F0E941408F0CF9BE5980FA9
:102BD000933020F490E080E00C94E40898E5980F9E
:102BE000973120F490E080E00C94CE088D3E20F0E8
:102BF0000E9406090C94E9110895CF93DF93EC012C
:102C00000E94C415CE01805E9109089720F068E506
:102C100071E1209711F46DE671E1CE01DF91CF9162
:102C20000C942B0DFC018081813029F4FB01808103
:102C300091810C94FD15823021F4FB0182819381F6
:102C4000F8CF0895CF93C82F882309F456C08CEF8E
:102C50008C0F813AF8F4E6ECF1E08CEC91E0DF01C6
:102C60002D91C21759F08A179B07D1F76C2F84EC6E
:102C700091E00E94EF07CF910C941A112191C21399
:102C800003C0DF0111971C928E179F07B9F70E94AE
:102C90001A11ECCF80E28C0F883068F4C77021E005
:102CA00030E001C0220FCA95EAF780917B05822BA4
:102CB00080937B05E0CFEBE5EC0FE33040F4F0E0F0
:102CC000E859FE4F808190E0CF910C94E408E8E54C
:102CD000EC0FE73150F4F0E0EE0FFF1FE559FE4F27
:102CE00080819181CF910C94CE08CD3E30F08C2F15
:102CF0000E94A509CF910C94E911CF9108951F93DB
:102D0000CF93DF93182FCAE0D0E0893311F4C0E5E8
:102D1000D0E0812F0E9422168FE99FE00197F1F702
:102D200000C000002197C1F7812FDF91CF911F9143
:102D30000C94C415CF92DF92EF92FF920F931F93E2
:102D4000CF93DF936B01C42FD22FFC0182818823A4
:102D5000C1F040930D050E940E119093D80180930D
:102D6000D701C77081E001C0880FCA95EAF7DF91EB
:102D7000CF911F910F91FF90EF90DF90CF900C9427
:102D8000741110910D0514133DC08091D7019091DD
:102D9000D8010E94D4077C01C6010E942706E816CC
:102DA000F90680F5C0E2CD0F1D17B9F080E2810F62
:102DB000883040F4177081E001C0880F1A95EAF757
:102DC0000E946D11C83048F481E09D2F977001C0BA
:102DD000880F9A95EAF70E947411802F0E947F163F
:102DE000C830B8F4D77081E001C0880FDA95EAF7EF
:102DF000DF91CF911F910F91FF90EF90DF90CF90D7
:102E00000C946D11C77081E001C0880FCA95EAF774
:102E1000EFCFDF91CF911F910F91FF90EF90DF9057
:102E2000CF900895AF92BF92CF92DF92EF92FF9230
:102E30000F931F93CF93DF93EC018AE0A82EFE013E
:102E40002491222309F494C0213009F03EC0319628
:102E50008491813031F42296FE0184910E947F1684
:102E600007C0823039F42296FE0184910E94221616
:102E70002196E5CF833031F42296FE0184910E94A1
:102E8000C415F6CF843009F071C02296FE0124915A
:102E900090E080E0FE0131962053330B2A3031055B
:102EA00048F0019728F3EFE9FFE03197F1F700C010
:102EB0000000F7CFA89EA001A99E500D1124C901C2
:102EC000840F951F2491EF01E5CFE22FF0E0E05051
:102ED000FF4FB490822F86958695869590E0FC01F1
:102EE000E051FF4FE4902770F12C022E02C0F594C0
:102EF000E7940A94E2F731E0E322FF24FC01E05278
:102F0000FF4FC490D12C022E02C0D594C7940A94CE
:102F1000E2F7E1E0CE22DD24FC01E053FF4F049113
:102F200010E002C0159507952A95E2F70170112768
:102F3000E114F10419F081EE0E942216C114D104AB
:102F400019F086EE0E9422168B2D0E947F16CD2846
:102F500019F086EE0E94C415EF2819F081EE0E9448
:102F6000C415012B09F484CF8CE278CFEF0180CF18
:102F7000DF91CF911F910F91FF90EF90DF90CF9055
:102F8000BF90AF900895CF93DF93EC01805E9109DD
:102F9000089720F063E671E1209711F464E771E18E
:102FA000CE010E942B0D8C2FDF91CF910C94221615
:102FB000FC018081813029F4FB01808191810C9496
:102FC000C317823021F4FB0182819381F8CF0895E9
:102FD000CF93DF93EC018881823039F4FB01828149
:102FE00093810E94C31781E08B87DF91CF91089571
:102FF000CF93DF93EC010E94C3178FE39CE9019705
:10300000F1F700C00000CE01DF91CF910C94FD15C7
:10301000CF93C62F81117BC084E00E947F08882354
:1030200029F08BE294E00E94F81724C083E00E940C
:103030007F08882331F0CC2309F490C089EA90E01E
:10304000F2CF82E00E947F08882311F180917B05F6
:103050008470CC2391F0882349F084E00E946D11A4
:103060008FE499E00E94F81784E02EC087EC90E08E
:103070000E94121781E0CF910895882331F084E0F7
:103080000E946D1180E599E0EDCF8EEB90E0F0CFDE
:1030900081E00E947F08882339F082E490E0C1112A
:1030A000C2CF8EE390E0BFCF80917B05982F9270C6
:1030B000CC23D1F0992359F082E00E946D118CE16C
:1030C00091E00E94F81782E00E947411D3CF82FF32
:1030D00008C084E00E946D1185EB90E00E941217F9
:1030E000C3CF89E191E09FCF992331F082E00E9424
:1030F0006D118DE191E0E5CF82FF06C084E00E9472
:103100006D118CEA90E0EACF86E091E08CCF8130BF
:1031100009F0B0CF84E00E947F08882339F08EE464
:1031200091E0C11180CF8BE491E07DCF83E00E94DC
:103130007F088823B1F0CC2349F089EA90E00E940F
:10314000F81789EA90E00E94F81778CF8AEA90E0B1
:103150000E94F8178AEA90E00E94F8178AEA90E045
:1031600062CF82E00E947F08882339F08FE494E0E8
:10317000C11159CF80E594E056CF81E00E947F08CD
:10318000811159CFCCCF2F923F924F925F926F9285
:103190007F928F929F92AF92BF92CF92DF92EF92E7
:1031A000FF920F931F93CF93DF9300D00F92CDB771
:1031B000DEB74C01DC0113964D915C91149711968A
:1031C0006C9111978C910E94B70881110C94A924DD
:1031D00021E0F401408151816281738184810E94E8
:1031E000F30C9B838A83D40112968C918111F8C0D1
:1031F0008A819B8181509545AA81BB818F3F910532
:1032000008F431C1F401F281F983FF2309F49BC36F
:10321000AF3FB10509F008F454C1AB32BD4509F424
:1032200025C11092070280910A05811181C4A981EC
:10323000A11110C04A805B8025E042162DE55206A0
:1032400009F43CC408F0FBC344E044164DE55406C1
:1032500009F426C44A805B8024E642162DE5520616
:1032600009F48EC508F015C540E644164DE5540630
:1032700009F468C508F0ECC4D2019A9709F443C573
:10328000EFE54E16EDE55E0609F454C58A819B8193
:1032900097558F3F910511F008F0E2C520914A0142
:1032A000022E000C330B2817390714F480934A01BF
:1032B000D40112962C91129736E1389F7001399FF4
:1032C000F00C11248701085F1E4FF801208B129625
:1032D0009C918681992309F4B6C54A805B80528609
:1032E00041868F5F86830E940E11D8011E969C93A3
:1032F0008E931D9780917E0517968C9317978091DA
:103300007A0590917B05892B18968C931897ED91EF
:10331000FC911197309739F054966D917C91C701CB
:10332000825F9E4F09954A805B8050920C054092C7
:103330000B05D40112968C91882311F40C947324FC
:1033400010920D054A805B8022E042162CE5520661
:1033500010F40C948E2436E143163CE5530640F0FD
:1033600092012B5F3C452930310510F00C948E24DE
:103370000E94BA0D90938C0580938B054A805B80E8
:1033800020E142162CE5520609F487C608F006C66D
:1033900048E044164CE5540609F471C608F0CBC564
:1033A00094E049169CE5590609F461C608F0ABC5DE
:1033B000B2E04B16BCE55B0609F453C680918B0561
:1033C0008260E3E04E16ECE55E0609F44DC680919E
:1033D0008B0590918C050E94740E0E94BC124CC00B
:1033E00080914A018F3F09F403CF08E011E0F12CEE
:1033F000E12CDD24D39480914A01082E000C990B16
:103400008E159F050CF4F4CEF8018681882329F1EE
:10341000818592854A805B808415950539F4809179
:103420000B0590910C0584159505B9F0D8011F96F0
:10343000DC921F974A805B801C965C924E921B9791
:1034400051968C91811103C0C8010E947E11C80160
:1034500006960E949F1110927A052FEFE21AF20A47
:103460000A5E1F4FC8CF35E5B327CCCE8091070247
:1034700091E089278093070280917805877011F485
:103480000C94A924D40112968C91882311F40C94E5
:10349000A92482E00F900F900F90DF91CF911F91A0
:1034A0000F91FF90EF90DF90CF90BF90AF909F90E3
:1034B0008F907F906F905F904F903F902F900C94E3
:1034C0005A1280910702882309F4E9C0109207027A
:1034D000A03CB105F0F5A038B10508F0AAC0A034B1
:1034E000B10508F070C021E030E040E050E060E05D
:1034F00070E080E090E00A2F0E946C33E091E701D9
:103500002E2BE091E8013E2BE091E9014E2BE0915A
:10351000EA015E2BE091EB016E2BE091EC017E2B3A
:10352000E091ED018E2BE091EE019E2B2093E701BF
:103530003093E8014093E9015093EA016093EB0175
:103540007093EC018093ED019093EE01BB83AA830D
:103550006ACEAF3FB10509F030F68D01005C11096C
:1035600021E030E040E050E060E070E080E090E09A
:103570000E946C33E091FF012E2BE09100023E2B64
:10358000E09101024E2BE09102025E2BE0910302DA
:103590006E2BE09104027E2BE09105028E2BE091D0
:1035A00006029E2B2093FF013093000240930102FC
:1035B0005093020260930302709304028093050209
:1035C00090930602C3CF8D010054110921E030E031
:1035D00040E050E060E070E080E090E00E946C33FA
:1035E000E091EF012E2BE091F0013E2BE091F101F3
:1035F0004E2BE091F2015E2BE091F3016E2BE091F6
:10360000F4017E2BE091F5018E2BE091F6019E2BCB
:103610002093EF013093F0014093F1015093F201B8
:103620006093F3017093F4018093F5019093F60198
:103630008DCF8D010058110921E030E040E050E0CD
:1036400060E070E080E090E00E946C33E091F70170
:103650002E2BE091F8013E2BE091F9014E2BE091E9
:10366000FA015E2BE091FB016E2BE091FC017E2BB9
:10367000E091FD018E2BE091FE019E2B2093F7013E
:103680003093F8014093F9015093FA016093FB01E4
:103690007093FC018093FD019093FE0157CFA034FD
:1036A000B10508F067C0E091E701F091E801709082
:1036B000E9016090EA015090EB014090EC013090FC
:1036C000ED012090EE0121E030E040E050E060E0CC
:1036D00070E080E090E00A2F0E946C33AE2EA222B0
:1036E000BF2EB322C72CC422D62CD522E52CE6222D
:1036F000F42CF722032D0823122D19230E94853361
:1037000009F091CDA03CB10508F08EC0A038B105FC
:1037100008F0EBC0A034B10508F0B9C021E030E0FA
:1037200040E050E060E070E080E090E00A2F0E940E
:103730006C332095309540955095609570958095A7
:1037400090952E233F234721562165217421832103
:1037500092212093E7013093E8014093E9015093CF
:10376000EA016093EB017093EC018093ED0190937B
:10377000EE0182CEA038B105E0F4E091EF01F091C6
:10378000F0017090F1016090F2015090F3014090CF
:10379000F4013090F5012090F60121E030E040E0A6
:1037A00050E060E070E080E090E08D01005411098D
:1037B00093CFA03CB105E0F4E091F701F091F8015E
:1037C0007090F9016090FA015090FB014090FC016B
:1037D0003090FD012090FE0121E030E040E050E01B
:1037E00060E070E080E090E08D010058110974CF36
:1037F000E091FF01F09100027090010260900202DE
:10380000509003024090040230900502209006027E
:1038100021E030E040E050E060E070E080E090E0E7
:103820008D01005C110958CFAF3FB10511F008F0D0
:1038300075CF8D01005C110921E030E040E050E0DF
:1038400060E070E080E090E00E946C33209530955D
:103850004095509560957095809590952E233F23C7
:103860004721562165217421832192212093FF0154
:1038700030930002409301025093020260930302CE
:10388000709304028093050290930602F5CD8D019A
:103890000054110921E030E040E050E060E070E0C9
:1038A00080E090E00E946C332095309540955095D3
:1038B00060957095809590952E233F234721562142
:1038C00065217421832192212093EF013093F0012F
:1038D0004093F1015093F2016093F3017093F4016E
:1038E0008093F5019093F601C7CD8D010058110921
:1038F00021E030E040E050E060E070E080E090E007
:103900000E946C3320953095409550956095709548
:10391000809590952E233F234721562165217421C0
:10392000832192212093F7013093F8014093F9010C
:103930005093FA016093FB017093FC018093FD01A9
:103940009093FE0199CDAF3FB10511F008F06BCC1B
:10395000A034B10550F5A090E701B090E801C09007
:10396000E901D090EA01E090EB01F090EC01F091D8
:10397000ED01E091EE0121E030E040E050E060E058
:1039800070E080E090E00A2F0E946C33A222B32204
:10399000C422D522E622F7220F2F08231E2F192337
:1039A0000E94853309F03FCC67CDA038B105E0F423
:1039B000A090EF01B090F001C090F101D090F20121
:1039C000E090F301F090F401F091F501E091F6013F
:1039D0008D010054110921E030E040E050E060E04A
:1039E00070E080E090E0D0CFA03CB105A0F4A090C2
:1039F000F701B090F801C090F901D090FA01E09081
:103A0000FB01F090FC01F091FD01E091FE018D01C0
:103A100000581109E0CFA090FF01B0900002C090C3
:103A20000102D0900202E0900302F0900402F091B3
:103A30000502E09106028D01005C1109CCCF4A809D
:103A40005B8027E042162DE5520609F443C038E0BA
:103A500043163DE5530609F0FDCB0091040110919A
:103A60000501C090AF05D090B005E090B105F09091
:103A7000B2050E94BC120E94AD1222E035E03B83E9
:103A80002A834A805B8004151505E9F18A819B81B0
:103A90000E94C3188A819B8106979B838A83F1CFFA
:103AA0000E94BC120E94AD1288E092E0909309053A
:103AB0008093080581E080930A05DECC0E94BC1249
:103AC0000E94AD1282E095E090930905809308056D
:103AD00082E0F1CF0091060110910701C090AF057F
:103AE000D090B005E090B105F090B2050E94BC12F4
:103AF0000E94AD1288E092E09B838A834A805B80BB
:103B00000415150559F40E94BC12C092AF05D0925D
:103B1000B005E092B105F092B205AECC8A819B81EE
:103B20000E94C318AA81BB811696BB83AA83E6CFE5
:103B30002A813B8124503D4523303105E0F591E059
:103B40006A807B8026E062162DE5720609F490E01B
:103B5000A981A91709F490CC813029F08230B9F0FD
:103B600010920A0589CC8091080590910905B2E070
:103B700088309B0729F0FC0136972281211105C06E
:103B80009093070180930601EBCFCF01F0CF809196
:103B9000080590910905E5E082309E0729F0FC01B7
:103BA00036962281211105C090930501809304016E
:103BB000D7CFCF01F0CF813029F1823009F04ACB45
:103BC0002091060130910701A0910805B0910905E7
:103BD000E981E11105C0F5E0A230BF0709F43ACB55
:103BE000CD0106962817390709F434CB86E0F40195
:103BF00001900D928A95E1F7809108059091090551
:103C0000069721C02091040130910501A09108057B
:103C1000B0910905F981F11105C042E0A830B4075F
:103C200009F418CBCD0106972817390709F412CBF0
:103C300086E0F40101900D928A95E1F780910805E4
:103C4000909109050696909309058093080502CB8B
:103C50004A805B8022E642162DE5520609F47BC0BD
:103C60008DE394E033E643163DE5530608F45FC068
:103C7000D40112968C91882309F408CB80917B059E
:103C8000827209F47AC082E20E946D118FE190E0A5
:103C90004EC04A805B8028E642162DE5520609F4A4
:103CA000A4C0C8F4D40112968C91B6E64B16BDE5BB
:103CB0005B0609F487C008F475C0882309F4E6CAD6
:103CC00080917B05827209F48DC082E20E946D11A1
:103CD00083E290E02CC04A805B802AE642162DE504
:103CE000520609F4A7C008F493C04BE644164DE50C
:103CF000540609F0CBCAF4018281882309F4C6CAAC
:103D000083E999E00FC0D40112968C91882309F4BD
:103D1000BDCA80917B05847441F084E40E946D11DA
:103D20008FEC99E00E941217B1CA8AE293E40E94D4
:103D3000F817ACCAF4018281882309F4A7CA8CEC75
:103D400099E0F0CFD40112968C91882309F49ECA91
:103D500083EB99E0E7CFF4018281882309F496CAC6
:103D600080917B05827231F082E20E946D118EE1BA
:103D700090E0DDCF8EE192E0DACF8FE192E0D7CF15
:103D8000F4018281882309F481CA80917B058272C3
:103D900031F082E20E946D1180E290E0C8CF80E2B3
:103DA00092E0C5CF882309F471CA80917B058272A5
:103DB00031F082E20E946D1181E290E0B8CF81E2A1
:103DC00092E0B5CF882309F461CA80917B058272A5
:103DD00031F082E20E946D1182E290E0A8CF82E28F
:103DE00092E0A5CF83E292E0A2CFD40112968C910B
:103DF000882309F44BCA80917B05827231F082E2FC
:103E00000E946D1184E290E092CF84E292E08FCF25
:103E1000F4018281882309F439CA80917B0582727A
:103E200031F082E20E946D1185E290E080CF85E260
:103E300092E07DCFD40112968C91882309F426CA92
:103E400083EA99E06FCF882309F473CA81898823B4
:103E500009F46FCAC701825F9E4F0E949F1169CA11
:103E60004A805B8024EF42162CE55206A1F1C8F48B
:103E700049ED44164CE5540641F18AED48168CE5AF
:103E80005806D9F198ED49169CE5590609F051CA32
:103E900006E221EE41EE68ED7CE5C4010E949A162F
:103EA000EBCA4A805B8026EF42162CE55206F9F0F9
:103EB000C0F047EF44164CE5540609F03ACA07E251
:103EC00025EE46EE67EF7CE5E8CF07E225EE45EE0E
:103ED00069ED7CE5E2CF06E221EE40EE64EF7CE5A1
:103EE000DCCF07E225EE44EE65EF7CE5D6CF06E2B7
:103EF00021EE42EE66EF7CE5D0CF08E221E045EE10
:103F00006AED7CE5CACF4A805B8080918B05806139
:103F100026E042162CE5520609F4A6C080918B05D6
:103F2000886037E043163CE5530608F49DC0809155
:103F30008B05806299C04A805B8080918B058D7F64
:103F40002CE042162CE5520609F48EC078F48091DC
:103F50008B058C604AE044164CE5540609F484C095
:103F600008F491C080918B058E7F7EC04A805B8073
:103F700080918B05877F2EE042162CE5520609F4CE
:103F800073C080918B058B7F3FE043163CE5530661
:103F900008F46AC080918B058F7E66C04A805B8082
:103FA0002CEF42162CE5520609F465C078F543E182
:103FB00044164CE5540609F478C090F491E1491692
:103FC0009CE5590609F46DC0A2E14A16ACE55A0613
:103FD00009F0FDC90E94BC1280918B058F7744C007
:103FE0004A805B8025E142162CE5520609F465C043
:103FF00008F479C080918C0581604BEF44164CE544
:10400000540609F0E4C980938C05E1C94A805B80BD
:1040100041142DE5520609F44CC068F480918C05DA
:104020008D7F4EEF44164CE5540669F390F1809174
:104030008C058360E8CF4A805B8022E042162DE544
:10404000520609F459C008F444C060E043E0441645
:104050004DE5540609F0BBC98EE090E00E94B233F2
:10406000B6C980918B05816080938B05B0C9809122
:104070008B058460F9CF80918C058260C4CF8091DC
:104080008B058064F1CF0E94BC1280918B05806803
:10409000EBCF80918C058E7FB6CF80918B058F7D85
:1040A000E3CF80918B058F7BDFCF80918B05837F62
:1040B000DBCF80918C058C7FA6CF80918B0582FB16
:1040C000992790F921E0922790FB82F990FB83F9E0
:1040D000CBCF80918C05982F909591708E7F892BF6
:1040E00090FB81F990CF0E94BC1290918B05892F93
:1040F00097FB87F98058B8CF61E0AECF85E300C465
:104100008823A9F04A805B802BE542162DE55206F4
:1041100009F482C008F05AC041144CE5540609F471
:104120006BC08FED48168CE5580609F472C0F40197
:104130008281408051805B824A82882309F470C06A
:10414000C2010E94360C182F682F8A819B810E9421
:1041500051086A817B81812F0E94980A8A83192FD6
:10416000E82ED4011296BC91B983F4010581029521
:104170000F70809178058770C9F0DB2EBB23B9F0F2
:10418000892F807F803449F09E2D905E983070F0AA
:10419000803619F4F6EFEF1649F082E00E945A12C9
:1041A000809178058770DD24D3948111D12CC12EA4
:1041B000C2945FE0C5226BE0462E4C1408F469C03F
:1041C000EC2DF0E0E050FC4C0C9466334A805B80B0
:1041D0002CE542162DE5520609F13DE5431653063E
:1041E00009F0A5CF80918C0582FB882780F991E0AA
:1041F00089270E94810E9BCF0E94BC124FEF84E35F
:104200009CE0415080409040E1F700C000000E94D7
:10421000C3070E94930E30C981E0EBCF80E0E9CF65
:104220008A819B810E942808182F93CF012F0F703D
:10423000812F807F11F00295007F59805520C9F0B1
:10424000002369F08A81805E883010F0E1100BC095
:1042500080917B05082B00937B050E941A118A81AF
:104260000E94221616C080917A05082B00937A05C9
:10427000F4CF8A810E94C415002359F02A81205E60
:10428000283010F0E11055C0802F0E9414080E94C1
:104290001A112C2D2850330B2430310510F40E94B4
:1042A000FA084980442079F0107F103621F486EF17
:1042B000582EE51441F080911105823009F007C3B2
:1042C00083E080931105DD20B1F08091780580FDB9
:1042D00012C0D40112961C928595859585950E94F1
:1042E0007612C4010E94C318809178058595859542
:1042F00085950E94371220E0F4014081518162814E
:10430000738184810F900F900F90DF91CF911F9157
:104310000F91FF90EF90DF90CF90BF90AF909F9064
:104320008F907F906F905F904F903F902F900C9464
:10433000F30C009580917A05082300937A05A7CFA6
:10434000312F3F70F32E812F807F803219F0F2944D
:1043500040EFF422EE2059F041E0E41609F448C0A1
:104360006980662009F44FC0002351F178CF49805D
:10437000442041F1011106C080917E058F290E94E1
:10438000741187CF013099F480918C0582FD81CF23
:1043900080917E05F82AF81609F47BCF0E940E1151
:1043A00090937D0580937C05F0927E0572CF03305B
:1043B00019F70E94090880917505F812F0927505A9
:1043C0008F2DDDCF011106C00E9409088F2D0E949C
:1043D0006D115FCF013041F480917B058F2109F48D
:1043E00058CF0E942208F0CF033009F452CFECCF0F
:1043F0005980552021F0063008F04BCFE1CF053031
:1044000008F047CFE3CF002309F339E3732EE71019
:10441000C3C12FEF37EE43E0215030404040E1F779
:1044200000C000008A810E94C41533CF812F869579
:104430008695837071F0813009F02BCF59808A8185
:10444000912F9370511002C090E080E00E94CE083E
:1044500020CF49808A81912F9370411002C090E053
:1044600080E00E94E40815CF69808A81662029F0E7
:104470000E94A5090E94E9110CCF0E940609FACFFB
:10448000812F837009F069C07980711002CF2A8171
:10449000229526952770220F220F4A814F7050E0F7
:1044A00070E060E0022E04C0440F551F661F771FA6
:1044B0000A94D2F74A8080E090E0DC0144FE0FC00D
:1044C0008FE090E0A0E0B0E004C0880F991FAA1F21
:1044D000BB1F2A95D2F780959095A095B095212F76
:1044E000269526952370223029F1D8F440907F0537
:1044F000509080056090810570908205213069F0B0
:10450000842B952BA62BB72BBC01CD0164217521E3
:10451000862197210E94B212BCCE442955296629D2
:1045200077292A013B01482A592A6A2A7B2AC30192
:10453000B201F0CF842B952BA62BB72B40907F0593
:10454000509080056090810570908205BC01CD017E
:104550006425752586259725DDCF598086955520BC
:1045600011F0812F8170882309F493CE2A8122953E
:1045700026952770220F220F4A814F7050E070E07D
:1045800060E0022E04C0440F551F661F771F0A9477
:10459000D2F76A8080E090E0DC0164FE0FC08FE01B
:1045A00090E0A0E0B0E004C0880F991FAA1FBB1FD5
:1045B0002A95D2F780959095A095B095212F2695B4
:1045C00026952370223029F1D8F44090AF05509001
:1045D000B0056090B1057090B205213069F0842B70
:1045E000952BA62BB72BBC01CD016421752186210B
:1045F00097210E942D124DCE4429552966297729ED
:104600002A013B01482A592A6A2A7B2AC301B2019E
:10461000F0CF842B952BA62BB72B4090AF05509055
:10462000B0056090B1057090B205BC01CD01642564
:10463000752586259725DDCF012F0F7059805520D0
:1046400029F0802F0E9476128A8199CE8A810E9459
:104650006D11802F0E9437121CCE8A8122EF622EAC
:10466000E61409F459C06E1488F090EF792EE7141F
:1046700051F121EFE21609F446C04980442009F4C3
:1046800086C00111ECCD812F8F7143C033EFE3164B
:1046900009F448C044EFE412F0CF809175054980D9
:1046A000442009F461C00E94140880917805877045
:1046B000843009F04BC00E941B08812F8F710E942B
:1046C0003712D12CE6CD49804420C9F0053008F0DE
:1046D000E0CD212F2F7161E070E080E090E004C018
:1046E000660F771F881F991F2A95D2F74090AF0554
:1046F0005090B0056090B1057090B20598CF06302B
:1047000008F0C7CDE6CF812F8F715980552009F46D
:10471000A1CF0E947612BDCD812F8F716980662056
:10472000C1F398CF7980772071F0212F2F7161E04C
:1047300070E080E090E004C0660F771F881F991F2B
:104740002A95D2F756CF0E94AD12A3CD033008F0C0
:10475000B8CF212F2F712A83822F0E94761263E017
:104760008A810E949712ADCF90917B05982B9093F0
:104770007B05033040F00E941B080E94220864E081
:10478000812F8F71EECF81E00E945A129ACF0023C1
:1047900041F0893309F43DCE8FE39CE90197F1F7AD
:1047A0003FCE812F8F7156CFEA81E05FE73008F06E
:1047B00061C0F0E0E45FFB4C0C9466334980442018
:1047C00009F467CD8091140591E0892707C05980CD
:1047D000509214055ECD81E0698086258093140592
:1047E00058CD798081E07720C9F353CD49804110BD
:1047F00050CD109214054DCD59805520C1F082E066
:104800008093110581E0809314050E940E1190930E
:10481000100580930F052091760530917705232BA5
:1048200009F437CD909377058093760532CD80914A
:104830001105823021F481E0809311052ACD833067
:1048400009F027CD10921105109214051092100551
:1048500010920F051ECD6980662041F080911305EE
:10486000882309F4AFCF1092130513CD053008F05B
:1048700010CDA8CF809113050023E1F0882341F0EB
:104880008091140591E089278093140510921305F7
:1048900079807110E4CC8FE39CE90197F1F700C0B7
:1048A00000008A810E94C41586E0D4011D928A9579
:1048B000E9F7EFCC882309F4ECCC49804110E9CC2E
:1048C0008091140591E0892780931405CCCF813025
:1048D00009F0F9CC109211051092140510921005F0
:1048E00010920F05F0CC4A805B8026E142162CE541
:1048F000520609F01CCC80910E058111FFCB89E294
:10490000E6ECF1E02CEC31E09191891303C0DF017A
:1049100011971C922E173F07B9F717C04A805B808A
:1049200026E142162CE5520609F0EACB80917B0580
:104930008A7A91E009F490E090930E0569E2811182
:1049400065E384EC91E00E94EF070E941A110C9439
:104950003C1A0F900F900F90DF91CF911F910F9104
:10496000FF90EF90DF90CF90BF90AF909F908F908F
:104970007F906F905F904F903F902F900895BF92DF
:10498000CF92DF92EF92FF920F931F93CF93DF931B
:1049900080911A05807F61F480911705882341F08A
:1049A000C0914C0586E0B82E80911B058C130AC07F
:1049B000DF91CF911F910F91FF90EF90DF90CF90FB
:1049C000BF900895F0901505E0901605C090180569
:1049D000D0901905A6016E2D8F2D0E94B708D0E04A
:1049E00081113FC0BC9E8001BD9E100D1124F801B5
:1049F000E45EFA4F51815E1134C040814F1131C0E5
:104A0000828181112EC0E380F480EC18FD0820E043
:104A10006091170570911805809119050E94F30C9B
:104A20000E942706E816F906E0F480911A058F70B7
:104A3000806180931A05F801EF5DFA4F80818F70D5
:104A40008061808385E195E00E94C318DF91CF915A
:104A50001F910F91FF90EF90DF90CF90BF900C943B
:104A6000C2082196C770A0CF5F926F927F928F92FB
:104A70009F92AF92BF92CF92DF92EF92FF920F93ED
:104A80001F93CF93DF93CDB7DEB761970FB6F8943E
:104A9000DEBF0FBECDBF8C0185E0F801DE011D96A3
:104AA00001900D928A95E1F7D8017C901196EC90D7
:104AB000119712966C9085E1A82E85E0B82E809013
:104AC000180590901905A4016091160580911505AF
:104AD0000E94B70881119BC1F801C380D480F09077
:104AE0001705C601881999094C0120E04091150568
:104AF00050911605FF2009F443C16F2D70911805E0
:104B0000809119050E94F30C0E94270650901A0507
:104B10008816990608F0F5C04091180550911905BE
:104B2000B0901505A0901605852D807F6A2D09F09F
:104B3000A1C08B2D0E94B708F62C81112BC0AE109E
:104B400029C0B71027C0611025C0852D8F708061E6
:104B500080931A0585E195E00E94C31880911A059B
:104B6000D80115968C938F2D61960FB6F894DEBF01
:104B70000FBECDBFDF91CF911F910F91FF90EF90AE
:104B8000DF90CF90BF90AF909F908F907F906F906D
:104B90005F90089520E040911505509116056091B1
:104BA000170570911805809119050E94F30C0E9459
:104BB00027065C01A6016E2D872D0E94B708D82E0E
:104BC000B4EFAB16B1E0BB06D0F081E08625D11082
:104BD00080E080FF14C0462D6E2D872D0E9497081F
:104BE000882369F085E195E00E94C31886E0E5E13D
:104BF000F5E0DF011D928A95E9F7F12CB4CF81E051
:104C00008625D11080E0B82FB170CB2E80FF29C04F
:104C1000462D6E2D872D0E949708D82E811121C018
:104C20007D86EE868D859E850E94780C292F2295A3
:104C30002F70223050F0243078F49F7051F0F8013A
:104C40009581907F31F4FD2C8ECF9F7011F08823D9
:104C5000D1F3805E8830B8F3C8010E94C318DC2C01
:104C6000F2CF662009F47FCF80911A05816080938E
:104C70001A05C3CF8B2D0E94B708811115C0AE1045
:104C800013C0B71011C061100FC0D80115965C9207
:104C9000C8010E94C31886E0F801A5E1B5E00190C3
:104CA0000D928A95E1F75FCF7D86EE868D859E8594
:104CB0000E94820C882309F16620F9F080911A0580
:104CC000803270F0209115053091160538872F83BA
:104CD0001986DB86CA868C87CE0107960E94C31888
:104CE00086E0F801A5E1B5E001900D928A95E1F723
:104CF0000E94BF24FF24F39436CFC8010E94C3183A
:104D0000F9CF852D807F09F46DCF909015058090A7
:104D100016054091180550911905682D892D0E949E
:104D2000B708811111C08E100FC097100DC061100F
:104D30000BC0F8015582C8010E94C31886E0D50156
:104D40001D928A95E9F70FCF7D86EE868D859E852B
:104D50000E94820C882389F2662079F280911A05DC
:104D6000803208F4BDCF20911505309116053A83A5
:104D700029831B82DD82CC828E83CE010196AECF49
:104D800060E070911805809119050E94F30C0E9453
:104D900027068816990690F6F62C662009F4ADCF02
:104DA000D0901505C0901605409118055091190531
:104DB0006C2D8D2D0E94B708811118C0CE1016C021
:104DC000D71014C080911A0580FD65CF982F907F71
:104DD00009F461CFF8018583903F09F459CF982FEA
:104DE000907F905F8F70892B858352CF7D86EE8672
:104DF0008D859E850E94820C811172CF80911A054B
:104E0000816080931A05C8010E94C318ACCE662049
:104E100009F473CF7D86EE868D859E850E94820C77
:104E2000F82E882309F469CF86E0F801A5E1B5E002
:104E300001900D928A95E1F78091150590911605E4
:104E40000E94780C92959F70963051F4863F41F005
:104E50008091140591E089278093140590931305A0
:104E60000E94BF2480CEFF920F931F93CF93DF93B6
:104E7000CDB7DEB767970FB6F894DEBF0FBECDBFD4
:104E8000F62E6D8B7E8B8F8B142F052F6111109258
:104E90007A054E895F89602F812F0E94B7088111A2
:104EA00028C081E090E0012E01C0880F0A94EAF743
:104EB000A02FB0E0A352BE4F2C9130911405F110F9
:104EC00002C0322F3823332309F47FC0412F50E032
:104ED00036E0039F400D511D1124440F551FFA0168
:104EE000E45EF64F0491FA01E55EF64F1491822BD1
:104EF0008C931A8A198A1B8B0C8B85E0FE017396A2
:104F0000DE011D9601900D928A95E1F70E940E1127
:104F10002091760530917705821B930B883E934054
:104F200020F08091780582FF9CC00E940E11209194
:104F30007C0530917D05821B930B883E934010F0D9
:104F40000E9409080E940E1120910F053091100552
:104F5000821B930B883E934028F08091110581308D
:104F600009F476C086E0FE013D96DE0117960190B9
:104F70000D928A95E1F7CE0107960E9434258111A2
:104F800011C086E0FE013796DE01119601900D9268
:104F90008A95E1F74A855B8568858F810E94B7080D
:104FA0008823B1F016E080914C0590911B05891380
:104FB0003CC067960FB6F894DEBF0FBECDBFDF9141
:104FC000CF911F910F91FF9008958095822390CFEC
:104FD00020911B0530E0C901019687709927409107
:104FE0004C054817190699F096E0929FD001939FBF
:104FF000B00D1124A45EBA4FFE01319601900D92BE
:105000009A95E1F780931B050E94C208CBCF0E94BE
:10501000BC1210921B0510924C0586E0E5E1F5E00C
:10502000DF011D928A95E9F7BDCF819FC001112450
:10503000845E9A4F0E943425882309F4BACF809168
:105040004C0590E001968770992780934C05ABCF73
:1050500010921105109214051092100510920F0570
:1050600081CF82E00E945A1260CF8F929F92AF92BE
:10507000BF92CF92DF92EF92FF920F931F93CF9345
:10508000DF9300D000D00F92CDB7DEB709E911E071
:105090009DE8C92E95E0D92E4601F12CAA24A394AF
:1050A000B12CD8018D918D01F894E82FE295EF7025
:1050B000F0E021A18F70A50102C0440F551F8A9511
:1050C000E2F7CA01922F982B91A392A18095892390
:1050D00082A3789400C0E3EAF1E030E020E0E12C24
:1050E0004191A42FA295AF70B0E090968C9190E082
:1050F0004F7002C0959587954A95E2F780FD48C0AC
:105100008A2D022E01C0880F0A94EAF7E82A2F5F41
:105110003F4F2630310521F7F801319780810E94F9
:10512000FF0950EA5A95F1F7D4018C91E81691F1F4
:10513000EC9281E0F82ABFEF8B1A9B0AE1E00E396E
:105140001E0709F0AECF10919805FF2029F181E0EC
:105150008093CE010E940E119093CD018093CC01DB
:105160008091CC019091CD010E94D4070697C0F0A8
:10517000E12FF0E0E556FA4FD6018D916D01819354
:10518000B2E9CB16B5E0DB06B9F71092CE0108C044
:1051900080E0BCCF80E0CECF8091CE018111E0CF06
:1051A0000E94510EE82E60919805882309F4A6C04C
:1051B0008E010F5F1F4F85E0F80111928A95E9F784
:1051C000862F90E0B80185569A4F0E9438308111A1
:1051D00030C08091CF018F5F8093CF01863008F47B
:1051E00043C0E0919705F0E0E556FA4FD801CE01B3
:1051F000069611921D928A179B07D9F780914A0152
:105200008F3F09F077C0F11001C0FE2C8F2D0F9059
:105210000F900F900F900F90DF91CF911F910F91F2
:10522000FF90EF90DF90CF90BF90AF909F908F90C6
:1052300008951092CF01A0919705B0E0A556BA4FFE
:105240009E012A5F3F4FE12C4D91F80191918F0112
:10525000491731F0AD0141505109FA019083E82E10
:105260000217130789F7CACFE12CC8CFC89CF001F9
:10527000C99CF00D1124E85FFE4FA288B388A114E9
:10528000B10429F4818592850E9427065C01C89C9F
:105290008001C99C100D1124085F1E4FD80116967D
:1052A0008C9116978823C9F01D968D919C910E9430
:1052B000D407A816B90688F4DC9C50011124F80123
:1052C0008189811105C0C501885F9E4F0E947E11B2
:1052D000C501825F9E4F0E949F11D3948D2C912C0B
:1052E00080914A01082E000C990B881599050CF045
:1052F000BDCF89CFD12C86E1C82EF0CF70E06556A6
:105300007A4F8091970590E085569A4F0E946530BC
:105310007ACFCDB7DEB762970FB6F894DEBF0FBE77
:10532000CDBF84B7877F84BF0FB6F894A8958091CE
:105330006000886180936000109260000FBE80E87A
:1053400090E00FB6F89480936100909361000FBED7
:1053500085B7806885BF85B7806885BF8EEB97E08D
:105360009093C3018093C2010E9434060E94FF06FD
:105370008091E20084608093E20078948091040838
:105380008823A1F01091E9001F709091EC00892F03
:10539000817090FD80E8182B1092E9008091E80060
:1053A00083FD0E94C7121F701093E90082E084BD44
:1053B00093E095BD9AEF97BD80936E00109287059C
:1053C000109288051092890510928A050E94510E4C
:1053D00080934B010E94510E81110E942C308091CC
:1053E0004B0180914B0195E0811190E090939805DD
:1053F00085E0891B8093970586E60E94FF0987E96F
:105400000E94FF0986EC0E94FF0984E30E94FF09C5
:1054100085E30E94FF0986EF0E94FF0987EF0E9443
:10542000FF0981E30E94FF0983E30E94FF0982E3F1
:105430000E94FF0986E30E94FF09EDE8F5E087E995
:1054400095E0ABE9B5E011921D928E179F07D9F751
:1054500090E080E00E94AC338A3E9E4F11F00E94A3
:10546000930E82E090E00E94A4338093EC070E94A8
:10547000BA0D90938C0580938B0515E6115091F42D
:1054800089E20E94470A8111E2C08AE20E94470A2B
:1054900081110E94930E85E00E94470A882359F0EB
:1054A0000E94C3070E9435288FE39CE90197F1F71A
:1054B00000C00000E3CF87E00E94470A882371F014
:1054C0008BE10E94470A882309F446C39091EC07B8
:1054D000892F8D7F91FF82608093EC076091EC07AC
:1054E00082E090E00E94B23380EE0E94470A882357
:1054F00041F090918B05892F8E7F90FF8160809382
:105500008B0589E30E94470A882341F090918B051F
:10551000892F8D7F91FF826080938B0582EE0E94A0
:10552000470A882341F090918B05892F8B7F92FF4A
:10553000846080938B0586EE0E94470A882341F0A1
:1055400090918B05892F877F93FF886080938B05CF
:1055500083EE0E94470A882341F090918B05892FA2
:105560008F7E94FF806180938B0585E30E94470ABC
:10557000882341F090918B05892F8F7D95FF806264
:1055800080938B0581E30E94470A882341F0909124
:105590008B05892F8F7B96FF806480938B0581E13B
:1055A0000E94470A882341F090918B05892F97FB31
:1055B00087F9805880938B0580918B0590918C059D
:1055C0000E94740E87E20E94470A61E081112BC09D
:1055D0008EE10E94470A62E0811125C08FE10E949E
:1055E000470A64E081111FC080E20E94470A68E018
:1055F000811119C081E20E94470A60E1811113C044
:1056000082E20E94470A60E281110DC083E20E949B
:10561000470A60E4811107C084E20E94470A60E8FB
:10562000811101C060E083E090E00E94B2338DE020
:105630000E94470A61E0811106C08FE00E94470A7C
:10564000882329F060E08EE090E00E94B23383E08E
:1056500090E00E94A433682F70E090E080E00E9408
:10566000B2120E94510E811102C00E9432300E947B
:10567000510E81118EC282E08093D30780E880931F
:10568000AC050E9486306DE070E08CEE99E00E94DF
:10569000620D892BE9F58091D30763E070E081FD0D
:1056A0007DC289EE99E00E94620D892B89F56DE03B
:1056B00070E089ED99E00E94620D892B49F50E9406
:1056C000E307605A75418F4F9F4F6093D7077093E0
:1056D000D8078093D9079093DA07E3EDF5E080E0EF
:1056E00092E0DF019C011D9221503040E1F7F093E0
:1056F000AB05E093AA058FEF9FEF9093D6078093B9
:10570000D50781E08093DE078093DB071092D407F2
:1057100080914B01811106C084EF80934D0185EF8C
:1057200080934C0120914D01A22FA295AF70B0E063
:1057300091963C9191972F7081E090E0BC01022EF0
:1057400001C0660F0A94EAF7462F409543239196CD
:105750004C93919792963C919297362B92963C93CC
:10576000929740914C01E42FE295EF70F0E031A167
:105770004F70042E01C0880F0A94EAF7982F909575
:10578000932391A392A1892B82A390968C9190E070
:1057900002C0959587952A95E2F7817020A130E0A7
:1057A00002C0359527954A95E2F792E020FF90E0F8
:1057B000892B8093A90590914B0181E098279093C4
:1057C000A805891B8093990585E591E09093AE0526
:1057D0008093AD058BE995E05AE0652E680E8091C7
:1057E000040800E112E1853009F410C20E94352856
:1057F000E82E81110E94E307EDEEF7E0ABE9B5E09A
:1058000010E000E0B02EDD9081918D1509F40DC2FD
:105810008D25C12CFF24F3949F2D982309F400C2F9
:105820000E94510E882399F0CF82B886DF2081E054
:1058300009F480E089870E940E118160782F9B8790
:105840008A874F81588569858B850E943327F801A7
:10585000E351F84F8081F826F0828091A905E82F66
:10586000EE0FEE0F90914D01A92FA295AF70B0E011
:1058700090962C9130E09F7002C0359527959A95AF
:10588000E2F72170332790914C01A92FA295AF70B8
:10589000B0E090964C9150E09F7002C055954795AE
:1058A0009A95E2F7CA018170992740FF02C082E011
:1058B00090E0822B8E2B8093A9051091A8058F7004
:1058C000E82FF0E0E755FE4F80819091A705890F02
:1058D0008093A705F12C84306CF0E12FF0E0EB55BC
:1058E000FA4F80818F5F808361E0812F0E940818CA
:1058F000FF24F3948091A7058D3F6CF4E12FF0E035
:10590000EB55FA4F80818150808360E0812F0E94A7
:105910000818FF24F3948091A705082E000C990B1A
:1059200064E070E00E9452338093A705F1100E945A
:10593000CC088091DE078823B1F18091DC0790913B
:10594000DD070E94D407C29708F086C12091D507D1
:105950003091D6072115310509F00DC28091DB0782
:10596000882309F10E94E3070091D7071091D80717
:105970002091D9073091DA07601B710B820B930BD2
:105980006F3F7F4F8F4F9F4770F48091DE078823D2
:1059900051F063E070E082E89AE00E94620D892B8A
:1059A00011F41092DB07E11001C0F1100E94920D7A
:1059B00086E0E5EEF7E0DE01119601900D928A9502
:1059C000E1F7F090E707E090E8071091E907009110
:1059D000EA071092E7071092E8071092E907109281
:1059E000EA078F2D8E2909F448C08091E307909132
:1059F000E4070E94D4079C019091E207992309F4DF
:105A0000B8C228303105C8F19F3F19F09F5F9093CD
:105A1000E207FF2059F00E9481099FEF1F140CF448
:105A200091E0899F802D11248093E707EE2059F0A3
:105A30000E9481099FEF1E140CF491E0899F802D34
:105A400011248093E8073091E7073323B1F02091C8
:105A5000E807222391F045EB3403C0011124992378
:105A600009F45CC29093E70745EB240390011124ED
:105A7000332309F457C23093E807812F802B09F4B0
:105A800048C08091E0079091E1070E94D4079C01F3
:105A90009091DF07992309F467C225363105C8F1D3
:105AA0009F3F19F09F5F9093DF07112359F00E94E9
:105AB0007F099FEF11160CF491E0899F802D11242E
:105AC0008093E907002359F00E947F099FEF101689
:105AD0000CF491E0899F802D11248093EA07309186
