:100000000C941B030C9462030C9462030C94692DF2
:100010000C9462030C9462030C9462030C946203CC
:100020000C9462030C9462030C946C270C942827A4
:100030000C94EA2B0C9462030C9462030C946203FC
:100040000C9462030C9462030C9462030C9462039C
:100050000C9462030C94C62B0C9462030C94620300
:100060000C9462030C9462030C9462030C9462037C
:100070000C9462030C9462030C9462030C9462036C
:100080000C9462030C9462030C9462030C9462035C
:100090000C9462030C9462030C9462030C9462034C
:1000A0000C9462030C9462030C9462030102E061FD
:1000B000630103E0000102E061760103E00000005B
:1000C0000000000000000000000000000000000030
:1000D0000000000000000000000000000000000020
:1000E00000007E0F00D4FFFFFFC700000078000073
:1000F0000000000000002A2B280000000000000083
:1001000000000000000000000029000000002C1E7C
:100110003420212224342627252E362D3738271E39
:100120001F202122232425263333362E37381F045F
:1001300005060708090A0B0C0D0E0F1011121314F7
:1001400015161718191A1B1C1D2F3130232D3504B5
:1001500005060708090A0B0C0D0E0F1011121314D7
:1001600015161718191A1B1C1D2F3130354C005746
:10017000025703570457055706572B6314001A00FC
:100180000800150017002961040016000700090087
:100190000A00E1001D651B00060019000500685DEE
:1001A000E300E20002512C621B010C570B570A5767
:1001B0000957085707572F63130012000C00180047
:1001C0001C00347133000F000E000D000B00E50021
:1001D0003865370036001000110031002845E60070
:1001E0002A432C42AE0029001E001F0020002100DF
:1001F00022002B0014001A00080015001700E00070
:1002000004001600070009000A00E1001D001B00A1
:1002100006001900050042002A00E20004512C00EB
:10022000A800065D2B5D055D045D085D075D2F0080
:10023000130012000C0018001C00340033000F00E3
:100240000E000D000B002A003800370036001000A9
:1002500011003100E700E6002A4328000153460060
:100260003A001F003C003D003E002B045F5D605DD6
:10027000300027023002065D635D36022F00260241
:100280002F02045D075D1B040604190405042B5DA1
:10029000E000010001000100655D440043004200F0
:1002A000410040003F004500560026002500240084
:1002B0005500570027002300220021006300645DE1
:1002C000540020001F001E003600000000005600F1
:1002D0004C01010001530100010001000100010077
:1002E000010001000100F100ED000100F900010032
:1002F000F200EF00EE00F000FA0001000100010042
:1003000001000100010001000100FD004C01FD00A1
:10031000010023082208210820081F081E084B009E
:100320004E0049004D004A004C002A0128004F00B1
:100330005200510050002B04635D665D4F01500177
:10034000675D0100E4004C010100010001000100B3
:100350000100010001000100010001000100010095
:100360000100010001000100010001000100010085
:100370000100010001000100010001000100010075
:100380000100010001000100010001000100010065
:100390000100010001000100010001000100010055
:1003A0000100010001000100010001000100010045
:1003B0000100010001000100010001000100010035
:1003C0000100010001000100090A01000100010013
:1003D0000100010001000100010001000100010015
:1003E00001000100615D625D01000100010001008A
:1003F00001000100010001000100010001000100F5
:100400000100A600A5000100010001000100005C40
:100410000100010001000100010001000100AB002A
:10042000AE00AC00010001000100A900A800AA0074
:10043000010001000100010065000100010000054C
:10044000010502050305040505050006010602066F
:100450000306040605060007010702070307040751
:100460000507000801080208030804080508000938
:10047000010902090309040905090000010002003D
:100480000300040005000001010102010301040151
:100490000501000201020202030204020502000338
:1004A000010302030303040305030004010402041F
:1004B0000304040405040102E201013D0103E2001A
:1004C0000102E00101500103E00102E10102E0014B
:1004D000014F0103E00103E100247B7D003D3E006C
:1004E0002123245078313031210038373166663588
:1004F000303039353161000102E061780103E000FC
:1005000005010902A10185020901A10005091901DE
:10051000290815002501950875018102050109309A
:1005200009311581257F95027508810609381581E5
:10053000257F950175088106050C0A38021581256D
:100540007F950175088106C0C005010980A101855C
:100550000319012AB700150126B70095017510810E
:1005600000C0050C0901A101850419012AA002158A
:100570000126A002950175108100C005010906A1A0
:1005800001050719E029E715002501950875018186
:10059000029501750881010507190029FF1500263C
:1005A000FF009506750881000508190129059505C4
:1005B00075019102950175039101C009023B00028A
:1005C0000100A0FA09040000010301010009211142
:1005D0000100012240000705810308000A09040107
:1005E000000103000000092111010001227B000726
:1005F00005820320000A120110010000000832FCED
:1006000087020100010200010C0353006F00660025
:100610006C00650000001A034A006F00730065005B
:1006200066004100640061006D00630069006B00BA
:1006300000000403090411241FBECFEFDAE0DEBF7F
:10064000CDBF04B603FE27C08091C9069091CA06AB
:10065000A091CB06B091CC068730904BA740B04B11
:10066000D1F41092C9061092CA061092CB061092CD
:10067000CC0614BE84B7877F84BF0FB6F894A895C4
:1006800080916000886180936000109260000FBECE
:10069000E0E0F8E3099512E0A0E0B1E0EAE6FEE56B
:1006A00002C005900D92A43AB107D9F726E0A4EA5A
:1006B000B2E001C01D92A93CB207E1F70E944328B5
:1006C0000C94082F0C9400008D3027E5920708F554
:1006D000823027E5920708F043C08A3223E492076C
:1006E000A9F060F4893F910530F08B3F9105A8F1A6
:1006F0008C32924459F08DE790E00895811527E5FA
:10070000920771F180F585339544A9F78AEF90E05F
:1007100008958B3223E69207C9F370F4893221E6FB
:100720009207A1F38C3222E6920781F384369D452D
:1007300011F784EF91E008958D3125E6920731F3AA
:1007400020F48F329346B9F6E1CF883325E692073D
:10075000E9F28433914779F6D9CF8AE090E00895A1
:1007600088EC90E0089584EB90E00895E8EDF0E0E7
:1007700080818E7F80831092E2001092DA001092C6
:10078000E100A0EEB0E08C9181608C9380818F7746
:10079000808319BCA7EDB0E08C918E7F8C93808113
:1007A0008F7E80831092A40608952091E4003091FA
:1007B000E50095E6A9012091EC00822F817020FFD1
:1007C00006C08091E80080FF06C080E00895209177
:1007D000E80022FD1AC08091B106882389F0853097
:1007E00089F08091EB0085FD0FC02091E4003091ED
:1007F000E50042175307F9F29150E1F684E00895BD
:1008000082E0089583E0089581E00895EF92FF92D9
:100810000F931F93CF937C018B010E94D503C82FA8
:10082000811117C08091E80085FD0BC08091E80020
:100830008E778093E8000E94D503882399F3C82F10
:1008400008C0F70181917F018093F10001501109E7
:1008500049F78C2FCF911F910F91FF90EF90089542
:100860008091B30687FF13C08091E80082FF06C025
:100870008091E8008B778093E80004C08091B106F6
:100880008111F2CF08958091B1068823D9F3809128
:10089000E80080FFF8CF8091E8008E77ECCF982FAA
:1008A0009093E900242F762F50E0891731F0709152
:1008B000EC002091ED005091F00021FD07C09F5FFA
:1008C000973071F78093E90081E008953091EB0053
:1008D0003E7F3093EB003091ED003D7F3093ED0093
:1008E0003091EB0031603093EB007093EC0020937B
:1008F000ED005093F0002091EE0027FDE0CF80E066
:100900000895CF92DF92EF92FF920F931F93CF93B0
:10091000DF93C8EDD0E088818F7E8883E7EDF0E03B
:1009200080818160808384E082BF81E08093A4061F
:1009300088818E7F888302EE10E0F8011082109289
:10094000DA0081EEC82ED12CF601108288818F77D3
:10095000888388818068888388818F7D888319BC9B
:100960001092B1061092B2061092B0061092AF0625
:1009700090EEE92EF12CF70180818B7F80838881B6
:100980008160888342E060E080E00E944F04F601CD
:1009900080818E7F8083F801808181608083808167
:1009A00088608083F70180818E7F80838881806169
:1009B0008883DF91CF911F910F91FF90EF90DF908F
:1009C000CF900895FC018091B9069091BA068617E0
:1009D0009707A0F06115710529F49091E8009E77C2
:1009E0009093E80090E06115710551F4911108C0F1
:1009F0008091E80082FF34C080E00895BC01F2CF0E
:100A00008091B1068823C1F18530C1F18091E80061
:100A100083FD30C08091E80082FDEACF8091E8003C
:100A200080FFE1CF8091F3002091F200382F611513
:100A3000710519F02830310558F091E02830310562
:100A400009F090E02091E8002E772093E800CBCFCA
:100A500081918093F100615071092F5F3F4FE7CF83
:100A60008091B106882341F0853041F08091E80003
:100A700083FFBECF81E0089582E0089583E008956A
:100A800080E008958091A606089587E797E7909300
:100A900001088093000888E19AE00FB6F894A895C1
:100AA000809360000FBE90936000FFCF9C014FB712
:100AB000F89480915F0690916006A0916106B091D4
:100AC00062064FBF821B930B08952FB7F894609175
:100AD0005F067091600680916106909162062FBF5B
:100AE00008952FB7F89480915F0690916006A091C9
:100AF0006106B09162062FBF08959C01FC013296F9
:100B00009FEF80E04191461751F09F3F19F441114A
:100B100001C0982F8F5F8630A9F79F3F09F4089591
:100B2000290F311D97FD3A95F9016283089580914F
:100B30005A06882331F010925A06109259061092E4
:100B400058060895809590915706982390935706DC
:100B500008958091570690915606892B90915506DD
:100B6000892B8093A60280915A06882319F10E944E
:100B700071052091580630915906821B930B883ECF
:100B8000934010F00E9497058091A60290915A061A
:100B9000892B8093A60220E088EA92E0FC01319143
:100BA000CF0131112F5FF2E08E3A9F07B9F7211183
:100BB0000E949705E0917A06F0917B06309731F01C
:100BC0000280F381E02D86EA92E009940895109264
:100BD00054061092530610925206089580915106C1
:100BE0008111109251060895E92FEE0FE90FEE0FD3
:100BF0008E0F982F977086958695869525E0829F13
:100C0000F0011124E75DF94F50E040E080E02191D0
:100C100030E0092E02C0369527950A94E2F721703C
:100C20003327042E01C0220F0A94EAF7822B4F5F6C
:100C30005F4F4530510559F70895E92FEE0FE90F41
:100C4000EE0F8E0F982F977041E001C0440F9A95D8
:100C5000EAF786958695869595E0899FF00111249F
:100C6000E75DF94F30E020E070E05191DF0111972E
:100C7000CB01022E02C0969587950A94E2F7817007
:100C800081958527842385278C932F5F3F4F2530BF
:100C9000310559F7089540916706509168066091B3
:100CA000690670916A06411551056105710529F4BF
:100CB00041E0811140E0842F089504C07695679546
:100CC000579547958A95D2F74170F5CF2091280620
:100CD0009091F70556E0291302C080E0089530E0B6
:100CE000529FF001539FF00D1124E850FA4F71818B
:100CF000761306C07081781303C07281741304C028
:100D00002F5F3F4F2770E7CF81E00895452B39F0E3
:100D1000682381E06F3F09F080E08170089581E0F1
:100D2000FCCF809128069091F705981301C0089593
:100D30008F5F8770FACF882341F080959091560697
:100D40008923809356060C94A9050895882339F0C9
:100D500090915606982B909356060C94A9050895E9
:100D6000882321F00E94A2050C94A90508958823E8
:100D700039F090915706982B909357060C94A9053B
:100D800008950C9465052091B7023091B802281798
:100D9000390771F09093B8028093B702E0917A0618
:100DA000F0917B06309721F00084F185E02D0994C5
:100DB00008952091B5023091B6022817390771F0D5
:100DC0009093B6028093B502E0917A06F0917B068B
:100DD000309721F00680F781E02D09940895E09185
:100DE0007A06F0917B06309721F00190F081E02D9A
:100DF000099480E00895CF93DF93EC0181E0898B23
:100E0000809157069F81892B8093570680915606C3
:100E10009885892B809356060E94A905EA81FB815B
:100E2000309739F06C897D89CE010696DF91CF919C
:100E30000994DF91CF910895EF92FF920F931F9342
:100E4000CF93DF93EC018A85811139C0EB80FC8060
:100E500087E5F81A26E12E9DC0012F9D900D1124E3
:100E6000DC01A25EBE4F1496ED91FC911597309770
:100E700031F054966D917C918C5D9E4F099586E181
:100E80008E9D80018F9D100D1124025E1E4FF80172
:100E900087810E94A205F8018085982F9095809106
:100EA00056068923809356060E94A9051882198642
:100EB0001B861E821D821092E8051092E705DF91C5
:100EC000CF911F910F91FF90EF9008950E947105AF
:100ED0009C019091940680919506982B21F0309377
:100EE0009106209390069091960680919706982BF4
:100EF00021F030938E0620938D06E0917A06F091D2
:100F00007B06309749F082E0809392060480F58159
:100F1000E02D82E996E00994089590E080E00E9437
:100F2000D90690E080E00E94C30610925606109207
:100F300055060E94A90586E0E2E9F6E0DF011D9270
:100F40008A95E9F710928F0610928C061092EE05A2
:100F50000C94660760936706709368068093690631
:100F600090936A060C948D070F931F9341E050E015
:100F700060E070E004C0440F551F661F771F8A951C
:100F8000D2F7CB01BA01609570958095909500914C
:100F90006706109168062091690630916A06602301
:100FA0007123822393231F910F910C94AA07909190
:100FB00054068095892380935406282F277039F48E
:100FC000282F082E000C330B9217130621F4909152
:100FD0006C0692FF07C08595859585950E94B4079C
:100FE0000C94E70508950F931F9341E050E060E0F3
:100FF00070E004C0440F551F661F771F8A95D2F713
:101000008091670690916806A0916906B0916A0682
:101010008A019B01082B192B2A2B3B2BC901B801F4
:101020001F910F910C94AA0790916C0692FD10C02D
:1010300098E0899F90011124622B609354060E94CE
:10104000F3070E947105909353068093520608950A
:101050000C94F30760E070E0CB010C94AA07609356
:101060005B0670935C0680935D0690935E060C941D
:101070008D07409194068D3E59F48091950687FF27
:101080000DC01092950641110BC010928F0608C03A
:101090008E3E81F48091950618169CF3442381F0CE
:1010A0008091960690919706892B09F05AC010926C
:1010B0008C0608958F3E49F447FFF0CF10929406B6
:1010C000809195068111ECCFE0CF803F19F4141682
:1010D000ACF3E4CF90919606893F29F41916F4F603
:1010E00010929606DBCF8A3F19F497FFD7CFF8CF3F
:1010F000909197068B3F29F497FFD0CF10929706D7
:10110000CDCF8C3F19F41916CCF3C8CF9FE0980FC0
:10111000983090F4815F990B21E030E0B90102C072
:10112000660F771F8A95E2F7CB0180959091930621
:10113000892380939306B2CF8D3F31F48091EE05E1
:101140008E7F8093EE05AACF8E3F21F48091EE052D
:101150008D7FF7CF8F3F09F0A1CF8091EE058B7F78
:10116000F0CF08958823B1F19CEF980F913A70F475
:10117000E8EAF2E09191891303C0DF0111971C9214
:1011800092E0EE3AF907B1F70C94A90590E2980FB6
:10119000983050F4877091E001C0990F8A95EAF772
:1011A000892F0E94A205F0CF9BE5980F933020F481
:1011B00090E080E00C94D90698E5980F973120F4E0
:1011C00090E080E00C94C3068D3E20F00E94390828
:1011D0000C94660708959091EE05892F817090FD1B
:1011E0000BC091FD06C092FD06C080918C06811156
:1011F00002C081E0089582E008958091EE0580FDAF
:1012000016C081FD16C082FD16C080918F0688230E
:1012100081F0883280F42AE0829FC001112468E2C4
:1012200070E00E94762E862F672B39F0089582E0B9
:10123000089585E008958AE0089581E008958D3E3F
:1012400031F40E94FD0881958093950608958E3EA5
:1012500019F40E94FD08F8CF8F3E31F40E94FD087A
:101260008195809394060895803F19F40E94FD08AB
:10127000F8CF893F29F40E94EB08809396060895E1
:101280008A3F21F40E94EB088195F7CF8B3F31F420
:101290000E94EB0881958093970608958C3F19F47E
:1012A0000E94EB08F8CF9FE0980F983070F4815FB0
:1012B000990B21E030E001C0220F8A95EAF7809176
:1012C0009306822B8093930608958D3F31F480918D
:1012D000EE0581608093EE0508958E3F21F48091A4
:1012E000EE058260F7CF8F3FB9F78091EE058460FD
:1012F000F1CFCF93C82F882309F456C08CEF8C0F01
:10130000813AF8F4E8EAF2E08EEA92E0DF012D910A
:10131000C21759F08A179B07D1F76C2F86EA92E023
:101320000E947D05CF910C94A9052191C21303C0A1
:10133000DF0111971C928E179F07B9F70E94A9052C
:10134000ECCF80E28C0F883068F4C77021E030E089
:1013500001C0220FCA95EAF780915706822B80932D
:101360005706E0CFEBE5EC0FE33040F4F0E0ED5A48
:10137000FD4F808190E0CF910C94D906E8E5EC0F09
:10138000E73150F4F0E0EE0FFF1FEA5AFD4F808185
:101390009181CF910C94C306CD3E30F08C2F0E94EA
:1013A0001F09CF910C946607CF910895F894E82F08
:1013B000E295EF70F0E031A1282F2F7081E090E0EE
:1013C00001C0880F2A95EAF7982F9095932391A34F
:1013D00092A1892B82A37894089590916B0692FF35
:1013E00006C0282F28712830F9F4877F846093FF86
:1013F00006C0282F28712831F1F4877E846120915E
:101400006C0620FF06C0382F38713830D9F4877F3A
:10141000816021FF06C0282F28712831D1F4877EF2
:10142000816194FD877E0895282F24712430F9F678
:101430008B7F8860DCCF282F2471243101F78B7ECD
:101440008861DDCF382F3171313019F78E7F886098
:10145000E0CF282F2171213121F78E7E8861E1CFE5
:10146000CF93DF93972F70E026E0929F600D711D60
:101470001124FB013CE3839FE00DF11D1124EE0FCD
:10148000FF1FE259FE4FC591D491CE01C238D1055C
:10149000B9F1E8F5C133D10509F499C050F5C93265
:1014A000D10509F48DC0CA32D10509F497C0C11520
:1014B00042E5D40708F0C4C0C11521E5D20708F001
:1014C00032C1C83ED10508F09DC0C03ED10568F5C7
:1014D000C83AD10508F089C0C53AD10508F0FFC067
:1014E000C130D10511F1209709F443C02497E8F4E5
:1014F00040C0C533D10509F45CC0C933D105B9F684
:1015000020916B06237089F080EE90E00EC0C33E00
:10151000D10591F168F4C03ED105F9F0C23ED10584
:1015200031F620916B0622FD20C0DF91CF91089506
:10153000C63ED10561F1C73ED10581F1C43ED1055A
:1015400009F0B5CF20916C0621FFEFCF80916B069B
:1015500084FD0FC087EE90E0E8CF20916B0620FD60
:1015600014C130916C0630FFE0CF83EE90E024FF91
:10157000DCCF90E080E0D9CF20916B0622FD08C13E
:1015800030916C0630FDC0CF24FFCFCFF2CF209139
:101590006B0623FFCACF24FDECCFDCCF20916B0676
:1015A00023FDF9C030916C0631FFEECF84EE90E060
:1015B000BCCF20916B0625FFB8CF89E290E0B5CF74
:1015C00020916B0625FFB1CF85E390E0AECF20914F
:1015D0006B0626FFAACF8AE290E0A7CF20916B0688
:1015E00026FFA3CF81E390E0A0CFCF3BD10508F643
:1015F000C85AD0E0CC0FDD1FCA5ADD4F88819981CF
:10160000946493CFC11530E2D30760F4C11541E073
:10161000D40708F08ACFCE019065CD3ED10508F001
:1016200084CFA7CFC11580E4D80708F4A2CFC11595
:1016300090E5D90708F05BC0CE019F70906A75CF26
:10164000C11526E5D20718F5C11535E5D30708F011
:1016500080C0C11544E5D40708F076C09C2F96954C
:101660009695AE0143705527C115D34508F460C067
:1016700021E030E002C0220F331F4A95E2F740E23A
:10168000949FC0011124822B932B9A684ECFC115D1
:1016900099E5D90770F4C11528E5D20708F063C0B1
:1016A000C11537E5D30708F064CFCE0199279066BE
:1016B0003CCFC1154AE5D40708F45AC0CE01905674
:1016C0008115904208F055CF8D2F8F710E94ED0942
:1016D00090E0982F882788279F718C2B42C0C55A8D
:1016E000D0E0CD5ADD4F888190E090641ECF9E01FE
:1016F000E4E036952795EA95E1F723708C2F8695DF
:101700008695837030E2839FC0011124922BC370B1
:1017100021E030E002C0220F331FCA95E2F7822B8E
:10172000932B9C6802CF9C2F8827816F906AFDCEF7
:1017300021E030E002C0220F331F4A95E2F740E279
:10174000949FC0011124EBCF9C2F8827846F906A4F
:10175000ECCE8C2F0E94ED0990E0982F88278827E7
:101760009F719062E2CE9C2F8827806F906ADDCEB9
:101770008C2F8F700E94ED0934E0D695C7953A956D
:10178000E1F7CF709C2F9069D0CE89E390E0CDCE69
:1017900082EE90E0CACE86EE90E0C7CEBF92CF92A6
:1017A000DF92EF92FF920F931F93CF93DF938C0101
:1017B000C0906706D0906806E0906906F0906A06CF
:1017C00080915B0690915C06A0915D06B0915E06EB
:1017D000C82AD92AEA2AFB2ACFE1D0E0BC2ED701B9
:1017E000C6010C2E04C0B695A795979587950A94C7
:1017F000D2F780FD0EC0219788F7B12C8B2DDF9199
:10180000CF911F910F91FF90EF90DF90CF90BF90FD
:101810000895B8018C2F0E94300A019761F3EECF32
:10182000CF93DF93EC010E94CE0BBE01DF91CF91ED
:101830000C94300A0E94100C292F2F7092959F70E3
:1018400092509E3078F4E92FF0E0E65FF04D0C9472
:101850008A2E803F19F020F4883E20F481E008951C
:10186000843FE1F380E00895883EC0F3813FD1F7E3
:10187000F5CF822F86958695869508951F93CF93F1
:10188000DF9300D000D00F92CDB7DEB749835A83E3
:1018900089819A81662331F1222321F10E94CE0BA6
:1018A000182F682F89819A810E941D068A81E981FB
:1018B000F0E096E0899FE00DF11D11248CE3189F64
:1018C000E00DF11D1124EE0FFF1FE259FE4F85912F
:1018D00094910F900F900F900F900F90DF91CF91F8
:1018E0001F9108950E94F405182FE0CF9C019A954E
:1018F00081159F4150F4832F817031FD826032FD4C
:10190000846033FD8860FB0109940895CF93DF93D1
:10191000EC010E94B208CE01805E910960EB76E096
:10192000089710F06BE976E0CE01DF91CF910C942F
:10193000760CCF93DF93EC01805E910967EB76E044
:10194000089710F066EA76E0CE010E94760C8C2FA4
:10195000DF91CF910C94790980910301833051F08C
:1019600028F4823051F0109203010895843051F030
:101970008530C9F789E290E002C083E390E00E94DD
:10198000860CF1CF88E290E0FACF8091010183309C
:10199000B1F028F4823051F01092010108958430A2
:1019A00051F08530C9F789E290E002C087E290E00B
:1019B0000E94860CF1CF81EE90E00E94860C85E3B8
:1019C00090E0F6CF81EE90E00E94860C80EE90E0F1
:1019D0000E94860C82EE90E00E94860C83EE90E0DE
:1019E0000C94860C80911901833069F0883049F09D
:1019F000823021F48EE290E00E94860C1092190150
:101A000008950E94E20C84E490E0F6CF80911701E3
:101A1000833061F028F4823061F01092170108954C
:101A2000853061F08830C9F70E94E20C83E490E0D1
:101A300002C08DE290E00E94860CEFCF80EE90E035
:101A40000E94990C82EE90E00E94990C83E490E051
:101A50000E94990CE2CF809115018330D1F028F4D7
:101A6000823051F0109215010895853051F0883080
:101A7000C9F70E94E20C0DC080E390E00E94860C42
:101A8000F1CF80EE90E00E94860C82EE90E00E9402
:101A9000860C82E490E0F2CF809113018330D1F084
:101AA00028F4823051F0109213010895853051F0DE
:101AB0008830C9F70E94E20C0DC085E290E00E94D8
:101AC000860CF1CF80EE90E00E94860C82EE90E0D2
:101AD0000E94860C81E490E0F2CF80911101833066
:101AE000D1F028F4823051F0109211010895853020
:101AF00051F08830C9F70E94E20C0DC084E290E0FA
:101B00000E94860CF1CF80EE90E00E94860C82EE5F
:101B100090E00E94860C80E490E0F2CF80910F016B
:101B20008330D1F028F4823051F010920F010895E3
:101B3000853051F08830C9F70E94E20C0DC083E275
:101B400090E00E94860CF1CF80EE90E00E94860C1F
:101B500082EE90E00E94860C8FE390E0F2CF8091BD
:101B60000D018330D1F028F4823051F010920D0134
:101B70000895853051F08830C9F70E94E20C0DC0FD
:101B800082E290E00E94860CF1CF80EE90E00E940D
:101B9000860C82EE90E00E94860C8EE390E0F2CFFD
:101BA00080910B018330D1F028F4823051F01092F3
:101BB0000B010895853051F08830C9F70E94E20C7E
:101BC0000DC081E290E00E94860CF1CF80EE90E0A3
:101BD0000E94860C82EE90E00E94860C8DE390E0DD
:101BE000F2CF809109018330D1F028F4823051F096
:101BF000109209010895853051F08830C9F70E948C
:101C0000E20C0DC080E290E00E94860CF1CF80EEE5
:101C100090E00E94860C82EE90E00E94860C8CE39D
:101C200090E0F2CF809107018330D1F028F4823028
:101C300051F0109207010895853051F08830C9F7AE
:101C40000E94E20C0DC08FE190E00E94860CF1CF63
:101C500080EE90E00E94860C82EE90E00E94860C5E
:101C60008BE390E0F2CF809105018330D1F028F42E
:101C7000823051F0109205010895853051F088307E
:101C8000C9F70E94E20C0DC08EE190E00E94860C24
:101C9000F1CF80EE90E00E94860C82EE90E00E94F0
:101CA000860C8AE390E0F2CF81EE90E00E94990CDE
:101CB00080EE90E00E94990C82EE90E00E94990CD8
:101CC00083EE90E00C94990CFC018081813029F422
:101CD0008285882381F083E00895823029F482850B
:101CE00081110BC084E00895833049F4828581110D
:101CF00006C087E0089582E0089585E0089588E0B1
:101D000008950E94640E80931901833051F0883049
:101D100031F0823049F48EE290E00C94990C0E94EC
:101D2000540E84E490E0F9CF08950E94640E8093ED
:101D300017018330A9F018F4823031F0089585300E
:101D400039F0883081F008958DE290E00C94990C80
:101D500080EE90E00E94990C82EE90E00E94990C37
:101D600083E490E0F3CF0E94540EFACF0E94640EF9
:101D7000809315018330A9F018F4823031F0089572
:101D8000853039F0883081F0089580E390E00C943C
:101D9000990C80EE90E00E94990C82EE90E00E94F7
:101DA000990C82E490E0F3CF0E94540EFACF0E9487
:101DB000640E809313018330A9F018F4823031F05F
:101DC0000895853039F0883081F0089585E290E0FB
:101DD0000C94990C80EE90E00E94990C82EE90E0B9
:101DE0000E94990C81E490E0F3CF0E94540EFACF48
:101DF0000E94640E809311018330A9F018F48230A0
:101E000031F00895853039F0883081F0089584E20A
:101E100090E00C94990C80EE90E00E94990C82EE78
:101E200090E00E94990C80E490E0F3CF0E94540E61
:101E3000FACF0E94640E80930F018330A9F018F44A
:101E4000823031F00895853039F0883081F008957E
:101E500083E290E00C94990C80EE90E00E94990C43
:101E600082EE90E00E94990C8FE390E0F3CF0E9405
:101E7000540EFACF0E94640E80930D018330A9F0B6
:101E800018F4823031F00895853039F0883081F0CF
:101E9000089582E290E00C94990C80EE90E00E940C
:101EA000990C82EE90E00E94990C8EE390E0F3CFC3
:101EB0000E94540EFACF0E94640E80930B0183306F
:101EC000A9F018F4823031F00895853039F0883067
:101ED00081F0089581E290E00C94990C80EE90E0FE
:101EE0000E94990C82EE90E00E94990C8DE390E0A4
:101EF000F3CF0E94540EFACF0E94640E8093090122
:101F00008330A9F018F4823031F00895853039F02B
:101F1000883081F0089580E290E00C94990C80EE76
:101F200090E00E94990C82EE90E00E94990C8CE364
:101F300090E0F3CF0E94540EFACF0E94640E80937B
:101F400007018330A9F018F4823031F0089585300C
:101F500039F0883081F008958FE190E00C94990C6D
:101F600080EE90E00E94990C82EE90E00E94990C25
:101F70008BE390E0F3CF0E94540EFACF0E94640EE0
:101F8000809305018330A9F018F4823031F0089570
:101F9000853039F0883081F008958EE190E00C941E
:101FA000990C80EE90E00E94990C82EE90E00E94E5
:101FB000990C8AE390E0F3CF0E94540EFACF0E946E
:101FC000640E80930301833069F018F4823031F09D
:101FD0000895843051F0853029F0089583E390E02E
:101FE0000C94990C89E290E0FBCF88E290E0F8CF66
:101FF0000E94640E809301018330A1F018F48230B6
:1020000031F00895843051F0853029F0089587E249
:1020100090E00C94990C89E290E0FBCF81EE90E087
:102020000E94990C85E390E0F4CFCF9384E090E098
:102030000E94C62EC82F82E290E00E94C62E982FE2
:102040008C2FCF910895CF93DF9300D00F92CDB70F
:10205000DEB79091B106943019F589837B836A834A
:1020600082E08093E9008FEF9091E800815095FD28
:1020700006C095ED9A95F1F700008111F5CF80919A
:10208000E80085FF0DC050E040E063E070E0CE0165
:1020900001960E9406048091E8008E778093E80004
:1020A0000F900F900F90DF91CF910895BC0184E0C5
:1020B0000C942310BC0183E00C9423109C0182E05B
:1020C0008093E9009FEF8091E800915085FD06C064
:1020D00085ED8A95F1F700009111F5CF8091E80028
:1020E00085FF0CC050E040E066E070E0C9010E944E
:1020F00006048091E8008E778093E8000895CF93DE
:10210000DF93EC0181E08093E9008FEF9091E8008C
:10211000815095FD06C095ED9A95F1F7000081116B
:10212000F5CF8091E80085FF14C050E040E068E002
:1021300070E0CE010E9406048091E8008E778093C3
:10214000E80088E0FE01A7EAB6E001900D928A95CA
:10215000E1F7DF91CF9108951F93CF93DF93182F6D
:10216000CAE0D0E0893311F4C0E5D0E0812F0E94AD
:1021700079098FE99FE00197F1F700C000002197EE
:10218000C1F7812FDF91CF911F910C94B208CF92AC
:10219000DF92EF92FF920F931F93CF93DF936B0128
:1021A000C42FD22FFC0182818823C1F04093E9051E
:1021B0000E9471059093B4028093B302C77081E0CE
:1021C00001C0880FCA95EAF7DF91CF911F910F9157
:1021D000FF90EF90DF90CF900C94B7061091E90537
:1021E00014133DC08091B3029091B4020E94560531
:1021F0007C01C6010E946403E816F90680F5C0E27E
:10220000CD0F1D17B9F080E2810F883040F41770B0
:1022100081E001C0880F1A95EAF70E94B006C83025
:1022200048F481E09D2F977001C0880F9A95EAF7D6
:102230000E94B706802F0E94AC10C830B8F4D77047
:1022400081E001C0880FDA95EAF7DF91CF911F9105
:102250000F91FF90EF90DF90CF900C94B006C77075
:1022600081E001C0880FCA95EAF7EFCFDF91CF91E7
:102270001F910F91FF90EF90DF90CF900895809184
:10228000B202811110C08091D80080618093D80083
:102290008AE18A95F1F700C08091D90080FF0AC0D9
:1022A00081E08093B20281E09091B202913009F016
:1022B00080E0089582E08093B2020E94B6031092FB
:1022C000B106F1CFAF92BF92CF92DF92EF92FF9221
:1022D0000F931F93CF93DF93EC018AE0A82EFE01AA
:1022E0002491222309F494C0213009F03EC0319694
:1022F0008491813031F42296FE0184910E94AC10C9
:1023000007C0823039F42296FE0184910E94790937
:102310002196E5CF833031F42296FE0184910E940C
:10232000B208F6CF843009F071C02296FE012491E4
:1023300090E080E0FE0131962053330B2A303105C6
:1023400048F0019728F3EFE9FFE03197F1F700C07B
:102350000000F7CFA89EA001A99E500D1124C9012D
:10236000840F951F2491EF01E5CFE22FF0E0E251B9
:10237000FF4FB490822F86958695869590E0FC015C
:10238000E252FF4FE4902770F12C022E02C0F59428
:10239000E7940A94E2F731E0E322FF24FC01E253E0
:1023A000FF4FC490D12C022E02C0D594C7940A943A
:1023B000E2F7E1E0CE22DD24FC01E254FF4F04917C
:1023C00010E002C0159507952A95E2F701701127D4
:1023D000E114F10419F081EE0E947909C114D104CD
:1023E00019F086EE0E9479098B2D0E94AC10CD2841
:1023F00019F086EE0E94B208EF2819F081EE0E94D3
:10240000B208012B09F484CF8CE278CFEF0180CFA2
:10241000DF91CF911F910F91FF90EF90DF90CF90C0
:10242000BF90AF900895CF93DF93EC010E94990C79
:102430008FE39CE90197F1F700C00000CE01DF9126
:10244000CF910C94860CCF93C62F811186C084E067
:102450000E944B06811111C083E00E944B06882325
:1024600079F0109257068FE496E0C11102C080E522
:1024700096E00E9413121092570681E0CF910895C2
:1024800082E00E944B068823C9F080915706847031
:10249000CC2361F0882329F082E59BE00E9413128F
:1024A000ECCF85EB90E00E946211E7CF882319F012
:1024B00081E59BE0F3CF8CEA90E0F5CF81E00E94CC
:1024C0004B06882339F082E490E0C111E7CF8EE318
:1024D00090E0E4CF80915706982F9270CC2309F1B9
:1024E000992359F082E00E94B0068CE191E00E94AD
:1024F000131282E00E94B706C0CF85FF03C08FE4AD
:1025000098E0CCCF82FF03C08FE491E0C7CF86FF75
:1025100003C083E293E0C2CF84FDAFCF89E191E0B5
:10252000BDCF992331F082E00E94B0068DE191E0A9
:10253000DECF85FF03C080E598E0B0CF82FF03C007
:1025400080E591E0ABCF86FF03C081E293E0A6CFA8
:1025500084FD93CF86E091E0A1CF813009F08DCF4B
:1025600084E00E944B06882331F0CC2309F48EC00E
:102570008EE491E093CF83E00E944B068823F9F02C
:10258000809157068074CC2369F0811176CF89EA57
:1025900090E00E94131289EA90E00E94131289EAE7
:1025A00090E07CCF811169CF8AEA90E00E941312FB
:1025B0008AEA90E00E9413128AEA90E06FCF82E0EC
:1025C0000E944B06882339F08FE494E0C11166CF56
:1025D00080E594E063CF81E00E944B06882319F0E8
:1025E000CC2351F3DCCF80E00E944B06882309F412
:1025F00044CF80915706982F9270CC2321F19923D4
:1026000059F081EE90E00E94860C8EE091E00E94ED
:1026100013128FE293E042CF82FF0BC082EE90E074
:102620000E94860C8EE091E00E9413128DE091E0F2
:1026300035CF80FF03C08FE292E030CF86FD1DCF03
:1026400083FD62CF95CF992359F081EE90E00E94EF
:10265000860C8EE091E00E94131280E393E01ECF7F
:1026600082FF0BC082EE90E00E94860C8EE091E02B
:102670000E94131280E691E011CF86FDFECE80FF0E
:1026800003C080E392E00ACF83FD5ACF8BE491E050
:1026900005CF6AEE7EEF90E080E00E94F22E60E0CF
:1026A00082E090E00E94D42E60E083E090E00E94FF
:1026B000D42E10925B0610925C0610925D0610926A
:1026C0005E0660E084E090E00E94D42E60E082E24A
:1026D00090E00E94D42E60E085E090E00E94D42E2D
:1026E00060E086E090E00E94D42E6FEF87E090E0FB
:1026F0000E94D42E40E050E0BA0188E090E00E94B1
:10270000E62E60E08DE090E00E94D42E40E050E0A4
:10271000BA0188E190E00E94E62E60E087E190E057
:102720000E94D42E40E050E0BA018CE190E00E947B
:10273000E62E70E060E080E290E00E94F22E40E041
:1027400050E0BA0188E190E00E94E62E40E050E0BF
:10275000BA018FE090E00E94E62E40E050E0BA011E
:1027600083E190E00C94E62ECF93C0916C06C2FBFF
:10277000992790F9981781F080FBC2F9C0936C06F5
:1027800060916B0684E090E00E94D42E6C2F82E270
:1027900090E0CF910C94D42ECF91089510925706CB
:1027A000E8EAF2E086E0DF011D928A95E9F70C94F1
:1027B0008D071F93CF93DF93CDB7DEB7AA970FB6E0
:1027C000F894DEBF0FBECDBF83EB96E02091F10001
:1027D000FC012193CF01F6E08B3B9F07B9F7809175
:1027E000B406833009F46FC0B8F4813009F446C0F0
:1027F000823009F4B0C08091E80083FF7BC28091F1
:10280000B3069091B4069A3008F074C2E92FF0E054
:10281000E85EF04D0C948A2E8A3009F48BC08B3020
:1028200009F46EC0893039F78091B306813219F707
:102830008091B7069091B8060297E8F68091E8007B
:10284000877F8093E8008091E80082FF37C09091F5
:10285000F3008091F200029729F48091F1008B7FC0
:10286000813021F48091F1008093A6068091E800E8
:102870008B778093E8000E943004BDCF8091B3062F
:10288000813A09F0B8CF8091E800877F8093E80013
:102890008091B7069091B806892B61F468E087EAC9
:1028A00096E070E00E94E2048091E8008B778093CC
:1028B000E800A1CF60E090E080E0F3CF8091B10626
:1028C0008111C1CF98CF8091B306813A09F093CF9F
:1028D0008091B7069091B806892B09F08CCF809132
:1028E000E800877F8093E8008091E80080FFFCCFBC
:1028F00080914A028093F1008091E8008E77B9CFF1
:102900008091B306813209F076CF8091B70690911D
:10291000B806892B09F06FCF8091E800877F8093FC
:10292000E8000E9430048091B50680934A020E941C
:10293000CE1361CF8091B306813209F05CCF8091D4
:10294000E800877F8093E8000E9430048091B606FB
:102950008093A50650CF8091B306813A09F04BCF02
:102960008091E800877F8093E8008091E80080FFF5
:10297000FCCF8091A506BECF803899F0823809F04F
:10298000B9C18091B7068F70873008F0B3C18093CA
:10299000E9008091EB0085FB882780F91092E9001F
:1029A00006C08091AF069091B0069111826090911F
:1029B000E800977F9093E8008093F1001092F10077
:1029C0008091E8008E7792C1882309F480C182301B
:1029D00009F090C18091B506811183C18091B7063D
:1029E0008F702FEF280F263008F084C18093E90004
:1029F0002091EB0020FF75C1933031F48091EB0002
:102A000080628093EB006DC19091EB009061909398
:102A1000EB0021E030E001C0220F8A95EAF7209315
:102A2000EA001092EA008091EB008860EACF811101
:102A300061C11091B5061F778091E3008078812BEA
:102A40008093E3008091E800877F8093E8000E94F4
:102A500030048091E80080FFFCCF8091E300806823
:102A60008093E30082E0111183E08093B10642C1BC
:102A70008058823008F03EC18091B5069091B6062C
:102A80008C3D23E09207A1F583E08A838AE2898363
:102A90004FB7F894DE01139620E03EE051E2E32FB9
:102AA000F0E050935700E49120FF03C0E295EF70EF
:102AB0003F5FEF708E2F90E0EA30C0F0C7968D93A5
:102AC0009D932F5F243159F74FBF8091E800877F96
:102AD0008093E8006AE270E0CE0101960E94E20471
:102AE0008091E8008B778093E80004C1C096E7CF1F
:102AF0004091B7065091B806292F3327233031056E
:102B000009F444C078F52130310509F46FC08BE336
:102B100090E0EBEBF5E02230310509F0EBC02091BD
:102B2000E800277F2093E8002091B9063091BA068B
:102B30008217930708F49C0140E02115310509F044
:102B400064C0411162C08091E80082FDC9CF8091CC
:102B5000B106882329F2853019F28091E80083FFBD
:102B6000F2CFBECF21323105A9F12232310509F071
:102B7000C1C04115510509F443C04130510509F068
:102B8000B9C08BE790E0E0E0F5E0C9CF992781304C
:102B90009105C1F0009759F0029709F0ABC0E8E049
:102BA000F6E0E4918E2F90E0E8E0F6E007C0E2E383
:102BB000F6E0E4918E2F90E0E2E3F6E0009709F46E
:102BC00099C0ADCFE6E1F6E0E4918E2F90E0E6E12A
:102BD000F6E0F4CF4115510571F04130510509F08F
:102BE00089C089E090E0E6EEF5E099CF82E190E0DF
:102BF000E6EFF5E094CF89E090E0EDECF5E08FCFE3
:102C000080E490E0EBE7F5E08ACF8091B10688237D
:102C100009F466CF853009F463CF8091E80083FD25
:102C20005FCF8091E80082FD8ECF8091E80080FF29
:102C300084CF9091F3008091F2002115310519F0B5
:102C40008830910550F041E0089709F040E080910C
:102C5000E8008E778093E80070CF44914093F100B4
:102C60003196215031090196E8CF803809F042C0F1
:102C70008091E800877F8093E8008091B20680937E
:102C8000F1009ECE811136C01091B506123090F53C
:102C90008091E800877F8093E8001093B2060E943D
:102CA0003004112311F084E005C08091E30087FD1A
:102CB000FACF81E08093B10642E061EC81E00E94AE
:102CC0004F0442E261EC82E00E944F0413C0809105
:102CD000B506813079F481E0933009F080E080938B
:102CE000B0061092E9008091E800877F8093E800A9
:102CF0000E9430048091E80083FF0AC08091E800C0
:102D0000877F8093E8008091EB0080628093EB00E6
:102D1000AA960FB6F894DEBF0FBECDBFDF91CF915C
:102D20001F9108952F923F924F925F926F927F92E0
:102D30008F929F92AF92BF92CF92DF92EF92FF92CB
:102D40000F931F93CF93DF9300D00F92CDB7DEB7D1
:102D50004C01DC0113964D915C91149711966C9186
:102D600011978C910E94860681110C94482221E0D3
:102D7000F401408151816281738184810E943E0C03
:102D80009B838A83D40112968C91811105C18A811B
:102D90009B8181509545AA81BB818F3F910508F4A5
:102DA0003EC1F401F281F983FF2309F4A8C3AF3FC8
:102DB000B10509F008F461C1AB32BD4509F432C177
:102DC0001092E3028091E60581118EC4A981A111C0
:102DD00010C04A805B8025E042162DE5520609F4BA
:102DE00049C408F008C444E044164DE5540609F40B
:102DF00033C44A805B8023E642162DE5520609F46F
:102E0000A2C508F023C540E644164DE5540609F472
:102E100090C508F0F9C4D201A23EB10509F455C528
:102E2000EFE54E16EDE55E0609F47AC58A819B81D1
:102E300097558F3F910511F008F0B1C520913C02E4
:102E4000022E000C330B2817390714F480933C0230
:102E5000F401228136E1389F7001399FF00C112472
:102E60008701025E1E4FD80150962C935097928195
:102E700016968C911697992309F483C54A805B8036
:102E80001A965C924E9219978F5F16968C930E94B9
:102E90007105D8011E969C938E931D9780915A06BA
:102EA00017968C9317978091560690915706892B09
:102EB00018968C931897ED91FC911197309739F0F3
:102EC00054966D917C91C7018C5D9E4F09954A8007
:102ED0005B805092E8054092E705D40112968C91F0
:102EE000882311F40C9412221092E9054A805B8029
:102EF00022E042162CE5520610F40C942D2236E105
:102F000043163CE5530640F092012B5F3C452930C7
:102F1000310510F00C942D220E94151090936C0630
:102F200080936B064A805B8020E142162CE55206B6
:102F300009F452C608F0D1C548E044164CE55406E1
:102F400009F43CC608F096C594E049169CE559067C
:102F500009F42CC608F076C5B2E04B16BCE55B065A
:102F600009F41EC680916B068260E3E04E16ECE524
:102F70005E0609F418C660916B0640906C064982A3
:102F800084E090E00E94D42E698182E290E00E9469
:102F9000D42E0E94CE134CC080913C028F3F09F486
:102FA000F6CE0EE111E0F12CE12CDD24D3948091DA
:102FB0003C02082E000C990B8E159F050CF4E7CEF1
:102FC000F8018681882329F1818592854A805B807A
:102FD0008415950539F48091E7059091E8058415ED
:102FE0009505B9F0D8011F96DC921F974A805B8047
:102FF0001C965C924E921B9751968C91811103C046
:10300000C8010E94FB06C80106960E941C07109288
:1030100056062FEFE21AF20A0A5E1F4FC8CF35E5B7
:10302000B327BFCE8091E30291E089278093E3022A
:1030300080915406877011F40C944822D4011296A2
:103040008C91882311F40C94482282E00F900F9009
:103050000F90DF91CF911F910F91FF90EF90DF9034
:10306000CF90BF90AF909F908F907F906F905F9028
:103070004F903F902F900C94D7078091E3028823C4
:1030800009F4E9C01092E302A03CB105F0F5A038C4
:10309000B10508F0AAC0A034B10508F070C021E065
:1030A00030E040E050E060E070E080E090E00A2F27
:1030B0000E94902EE091C3022E2BE091C4023E2B81
:1030C000E091C5024E2BE091C6025E2BE091C70253
:1030D0006E2BE091C8027E2BE091C9028E2BE0910D
:1030E000CA029E2B2093C3023093C4024093C502B0
:1030F0005093C6026093C7027093C8028093C902BE
:103100009093CA02BB83AA835DCEAF3FB10509F09D
:1031100030F68D01005C110921E030E040E050E024
:1031200060E070E080E090E00E94902EE091DB0291
:103130002E2BE091DC023E2BE091DD024E2BE09144
:10314000DE025E2BE091DF026E2BE091E0027E2B2F
:10315000E091E1028E2BE091E2029E2B2093DB02B4
:103160003093DC024093DD025093DE026093DF0275
:103170007093E0028093E1029093E202C3CF8D014D
:103180000054110921E030E040E050E060E070E0E0
:1031900080E090E00E94902EE091CB022E2BE091F7
:1031A000CC023E2BE091CD024E2BE091CE025E2B65
:1031B000E091CF026E2BE091D0027E2BE091D10204
:1031C0008E2BE091D2029E2B2093CB023093CC0227
:1031D0004093CD025093CE026093CF027093D00201
:1031E0008093D1029093D2028DCF8D0100581109A6
:1031F00021E030E040E050E060E070E080E090E00E
:103200000E94902EE091D3022E2BE091D4023E2B0F
:10321000E091D5024E2BE091D6025E2BE091D702D1
:103220006E2BE091D8027E2BE091D9028E2BE0919B
:10323000DA029E2B2093D3023093D4024093D5021E
:103240005093D6026093D7027093D8028093D9022C
:103250009093DA0257CFA034B10508F067C0E0912F
:10326000C302F091C4027090C5026090C6025090F3
:10327000C7024090C8023090C9022090CA0221E0E3
:1032800030E040E050E060E070E080E090E00A2F45
:103290000E94902EAE2EA222BF2EB322C72CC42293
:1032A000D62CD522E52CE622F42CF722032D082378
:1032B000122D19230E94A92E09F084CDA03CB1053E
:1032C00008F08EC0A038B10508F0EBC0A034B105FD
:1032D00008F0B9C021E030E040E050E060E070E08C
:1032E00080E090E00A2F0E94902E20953095409526
:1032F000509560957095809590952E233F2347219A
:10330000562165217421832192212093C302309399
:10331000C4024093C5025093C6026093C7027093E3
:10332000C8028093C9029093CA0282CEA038B10528
:10333000E0F4E091CB02F091CC027090CD0260906D
:10334000CE025090CF024090D0023090D102209017
:10335000D20221E030E040E050E060E070E080E048
:1033600090E08D010054110993CFA03CB105E0F429
:10337000E091D302F091D4027090D5026090D60211
:103380005090D7024090D8023090D9022090DA02B3
:1033900021E030E040E050E060E070E080E090E06C
:1033A0008D010058110974CFE091DB02F091DC022D
:1033B0007090DD026090DE025090DF024090E002EB
:1033C0003090E1022090E20221E030E040E050E065
:1033D00060E070E080E090E08D01005C110958CF62
:1033E000AF3FB10511F008F075CF8D01005C1109F8
:1033F00021E030E040E050E060E070E080E090E00C
:103400000E94902E2095309540955095609570952E
:10341000809590952E233F234721562165217421C5
:10342000832192212093DB023093DC024093DD0262
:103430005093DE026093DF027093E0028093E1021A
:103440009093E202F5CD8D010054110921E030E0A6
:1034500040E050E060E070E080E090E00E94902E5C
:1034600020953095409550956095709580959095F4
:103470002E233F2347215621652174218321922148
:103480002093CB023093CC024093CD025093CE02D6
:103490006093CF027093D0028093D1029093D202B6
:1034A000C7CD8D010058110921E030E040E050E027
:1034B00060E070E080E090E00E94902E20953095D2
:1034C0004095509560957095809590952E233F235B
:1034D0004721562165217421832192212093D30213
:1034E0003093D4024093D5025093D6026093D70212
:1034F0007093D8028093D9029093DA0299CDAF3FAE
:10350000B10511F008F05ECCA034B10550F5A090E3
:10351000C302B090C402C090C502D090C602E09031
:10352000C702F090C802F091C902E091CA0221E0FE
:1035300030E040E050E060E070E080E090E00A2F92
:103540000E94902EA222B322C422D522E622F72284
:103550000F2F08231E2F19230E94A92E09F032CC09
:1035600067CDA038B105E0F4A090CB02B090CC02BA
:10357000C090CD02D090CE02E090CF02F090D00269
:10358000F091D102E091D2028D010054110921E0A5
:1035900030E040E050E060E070E080E090E0D0CFCC
:1035A000A03CB105A0F4A090D302B090D402C0908A
:1035B000D502D090D602E090D702F090D802F091D8
:1035C000D902E091DA028D0100581109E0CFA090F4
:1035D000DB02B090DC02C090DD02D090DE02E09011
:1035E000DF02F090E002F091E102E091E2028D0151
:1035F000005C1109CCCF4A805B8027E042162DE5A4
:10360000520609F443C038E043163DE5530609F07D
:10361000F0CB00911A0110911B01C0906706D09069
:103620006806E0906906F0906A060E94CE130E9438
:103630002A082EED35E03B832A834A805B800415FF
:103640001505E9F18A819B810E9492168A819B81EE
:1036500006979B838A83F1CF0E94CE130E942A088B
:1036600084EE92E09093E5058093E40581E08093F9
:10367000E605DECC0E94CE130E942A088EED95E06E
:103680009093E5058093E40582E0F1CF00911C0161
:1036900010911D01C0906706D0906806E090690601
:1036A000F0906A060E94CE130E942A0884EE92E0EF
:1036B0009B838A834A805B800415150559F40E9418
:1036C000CE13C0926706D0926806E0926906F09227
:1036D0006A06AECC8A819B810E949216AA81BB8128
:1036E0001696BB83AA83E6CF2A813B8124503D45B1
:1036F00023303105E0F591E06A807B8026E0621698
:103700002DE5720609F490E0A981A91709F490CC7F
:10371000813029F08230B9F01092E60589CC809191
:10372000E4059091E505B2E0843E9B0729F0FC0199
:1037300036972281211105C090931D0180931C01B1
:10374000EBCFCF01F0CF8091E4059091E505E5E066
:103750008E3D9E0729F0FC0136962281211105C07D
:1037600090931B0180931A01D7CFCF01F0CF813006
:1037700029F1823009F03DCB20911C0130911D01CF
:10378000A091E405B091E505E981E11105C0F5E0FE
:10379000AE3DBF0709F42DCBCD010696281739079A
:1037A00009F427CB86E0F40101900D928A95E1F7A8
:1037B0008091E4059091E505069721C020911A01BA
:1037C00030911B01A091E405B091E505F981F1115B
:1037D00005C042E0A43EB40709F40BCBCD01069727
:1037E0002817390709F405CB86E0F40101900D9202
:1037F0008A95E1F78091E4059091E505069690930E
:10380000E5058093E405F5CA4A805B8021E642160F
:103810002DE5520609F477C032E643163DE553061E
:1038200009F004CB81EE90E00E941312F401828132
:10383000882309F4FBCA80EE94E00E94621180E5BF
:1038400091E00E94131280E590E051C04A805B80B5
:1038500026E642162DE5520609F442C0D0F444E6AD
:1038600044164DE5540609F477C085E648168DE503
:10387000580609F0DBCAF4018281882309F4D6CA0C
:103880008091570682FD78C087EF94E00E94621114
:10389000CDCA4A805B8027E642162DE5520651F1DB
:1038A00038E643163DE5530609F0C0CAD401129626
:1038B0008C91882309F458C080EE90E00E94990C06
:1038C00081EE90E00E94990C06C0D40112968C9172
:1038D000882309F451C082EE90E00E94990CA6CA98
:1038E000F4018281882309F4A1CA82E59FE00E9445
:1038F00013129CCAD40112968C91882309F496CA9B
:1039000081E59FE0F4CF81EE90E00E941312D40194
:1039100012968C91882309F489CA8AEE94E0B6CF76
:10392000D40112968C91882309F480CA8DED94E01D
:10393000ADCFF4018281882309F478CA89ED94E03F
:103940000E94621180CFD40112968C91882309F4D1
:103950006DCA80EC94E09ACFF4018281882309F447
:1039600065CA86EB94E092CF80EE90E00E94860CD0
:1039700081EE90E00E94860C82EE90E00E94860C20
:1039800055CA882309F4A9CA51968C91882309F451
:10399000A4CAC7018C5D9E4F0E941C079ECA4A8024
:1039A0005B8024EF42162CE55206A1F1C8F449EDE4
:1039B00044164CE5540641F18AED48168CE558064C
:1039C000D9F198ED49169CE5590609F086CA06E238
:1039D00021EE41EE68ED7CE5C4010E94C71028CBC2
:1039E0004A805B8026EF42162CE55206F9F0C0F0C3
:1039F00047EF44164CE5540609F06FCA07E225EE7E
:103A000046EE67EF7CE5E8CF07E225EE45EE69ED8F
:103A10007CE5E2CF06E221EE40EE64EF7CE5DCCF10
:103A200007E225EE44EE65EF7CE5D6CF06E221EE17
:103A300042EE66EF7CE5D0CF08E221E045EE6AED8C
:103A40007CE5CACF4A805B8080916B06806126E06E
:103A500042162CE5520609F4A6C080916B068860D8
:103A600037E043163CE5530608F49DC080916B0691
:103A7000806299C04A805B8080916B068D7F2CE0CC
:103A800042162CE5520609F48EC078F480916B063C
:103A90008C604AE044164CE5540609F484C008F4EE
:103AA00091C080916B068E7F7EC04A805B80809142
:103AB0006B06877F2EE042162CE5520609F473C090
:103AC00080916B068B7F3FE043163CE5530608F47C
:103AD0006AC080916B068F7E66C04A805B802CEF47
:103AE00042162CE5520609F465C078F543E1441608
:103AF0004CE5540609F478C090F491E149169CE530
:103B0000590609F46DC0A2E14A16ACE55A0609F05F
:103B100032CA0E94CE1380916B068F7744C04A80D0
:103B20005B8025E142162CE5520609F465C008F4D5
:103B300079C080916C0681604BEF44164CE55406C9
:103B400009F019CA80936C0616CA4A805B8041143A
:103B50002DE5520609F44CC068F480916C068D7F07
:103B60004EEF44164CE5540669F390F180916C06D3
:103B70008360E8CF4A805B8022E042162DE5520642
:103B800009F459C008F444C060E043E044164DE530
:103B9000540609F0F0C98EE090E00E94D42EEBC9E3
:103BA00080916B06816080936B06E5C980916B06FE
:103BB0008460F9CF80916C068260C4CF80916B06DF
:103BC0008064F1CF0E94CE1380916B068068EBCFAA
:103BD00080916C068E7FB6CF80916B068F7DE3CF90
:103BE00080916B068F7BDFCF80916B06837FDBCF6D
:103BF00080916C068C7FA6CF80916B0682FB992703
:103C000090F921E0922790FB82F990FB83F9CBCFCA
:103C100080916C06982F909591708E7F892B90FBE8
:103C200081F990CF0E94CE1390916B06892F97FB5C
:103C300087F98058B8CF61E0AECF85E300C4882310
:103C4000A9F06A807B802BE562162DE5720609F4E7
:103C500082C008F05AC061144CE5740609F46BC0C8
:103C60008FED68168CE5780609F472C0F401828144
:103C7000408051805B824A82882309F470C0C2016F
:103C80000E94CE0B182F682F8A819B810E941D06EF
:103C90006A817B81812F0E94300A8A83192FE82E46
:103CA000D4011296BC91B983F401058102950F707D
:103CB000809154068770C9F0DB2EBB23B9F0892FA1
:103CC000807F803449F09E2D905E983070F0803671
:103CD00019F4F6EFEF1649F082E00E94D7078091C1
:103CE00054068770DD24D3948111D12CC12EC29447
:103CF0005FE0C5226BE0462E4C1408F469C0EC2D41
:103D0000F0E0EE5DF04D0C948A2E4A805B802CE54D
:103D100042162DE5520609F13DE54316530609F01A
:103D2000A5CF80916C0682FB882780F991E08927D6
:103D30000E94B4139BCF0E94CE134FEF84E39CE00C
:103D4000415080409040E1F700C000000E944505CE
:103D50000E9449136DC981E0EBCF80E0E9CF8A81F1
:103D60009B810E94F405182F93CF012F0F70812F94
:103D7000807F11F00295007F59805520C9F0002303
:103D800069F08A81805E883010F0E1100BC080916C
:103D90005706082B009357060E94A9058A810E94A6
:103DA000790916C080915606082B00935606F4CF69
:103DB0008A810E94B208002359F02A81205E2830AF
:103DC00010F0E11055C0802F0E94A2050E94A905A5
:103DD0002C2D2850330B2430310510F40E94EF06AF
:103DE0004980442079F0107F103621F486EF582E58
:103DF000E51441F08091ED05823009F007C383E0BE
:103E00008093ED05DD20B1F08091540680FD12C055
:103E1000D40112961C928595859585950E94F3078D
:103E2000C4010E94921680915406859585958595CA
:103E30000E94B40720E0F4014081518162817381C6
:103E400084810F900F900F90DF91CF911F910F9170
:103E5000FF90EF90DF90CF90BF90AF909F908F90AA
:103E60007F906F905F904F903F902F900C943E0CFE
:103E7000009580915606082300935606A7CF312F50
:103E80003F70F32E812F807F803219F0F29440EF43
:103E9000F422EE2059F041E0E41609F448C06980AC
:103EA000662009F44FC0002351F178CF49804420A7
:103EB00041F1011106C080915A068F290E94B70670
:103EC00087CF013099F480916C0682FD81CF80917B
:103ED0005A06F82AF81609F47BCF0E9471059093D0
:103EE000590680935806F0925A0672CF033019F79C
:103EF0000E94970580915106F812F09251068F2D7D
:103F0000DDCF011106C00E9497058F2D0E94B006DB
:103F10005FCF013041F4809157068F2109F458CFCB
:103F20000E94EE05F0CF033009F452CFECCF598058
:103F3000552021F0063008F04BCFE1CF053008F0D6
:103F400047CFE3CF002309F339E3732EE710C3C152
:103F50002FEF37EE43E0215030404040E1F700C002
:103F600000008A810E94B20833CF812F8695869502
:103F7000837071F0813009F02BCF59808A81912FA5
:103F80009370511002C090E080E00E94C30620CFE1
:103F900049808A81912F9370411002C090E080E0A7
:103FA0000E94D90615CF69808A81662029F00E9477
:103FB0001F090E9466070CCF0E943908FACF812F93
:103FC000837009F069C07980711002CF2A8122952F
:103FD00026952770220F220F4A814F7050E070E023
:103FE00060E0022E04C0440F551F661F771F0A941D
:103FF000D2F74A8080E090E0DC0144FE0FC08FE001
:1040000090E0A0E0B0E004C0880F991FAA1FBB1F7A
:104010002A95D2F780959095A095B095212F269559
:1040200026952370223029F1D8F440905B065090F9
:104030005C0660905D0670905E06213069F0842B0E
:10404000952BA62BB72BBC01CD01642175218621B0
:1040500097210E942F08BCCE44295529662977292B
:104060002A013B01482A592A6A2A7B2AC301B20144
:10407000F0CF842B952BA62BB72B40905B0650904E
:104080005C0660905D0670905E06BC01CD01642503
:10409000752586259725DDCF59808695552011F009
:1040A000812F8170882309F493CE2A812295269549
:1040B0002770220F220F4A814F7050E070E060E0BD
:1040C000022E04C0440F551F661F771F0A94D2F7B3
:1040D0006A8080E090E0DC0164FE0FC08FE090E039
:1040E000A0E0B0E004C0880F991FAA1FBB1F2A954B
:1040F000D2F780959095A095B095212F269526957D
:104100002370223029F1D8F4409067065090680659
:104110006090690670906A06213069F0842B952BB7
:10412000A62BB72BBC01CD016421752186219721D7
:104130000E94AA074DCE44295529662977292A01CC
:104140003B01482A592A6A2A7B2AC301B201F0CFCF
:10415000842B952BA62BB72B4090670650906806B2
:104160006090690670906A06BC01CD0164257525D2
:1041700086259725DDCF012F0F705980552029F016
:10418000802F0E94F3078A8199CE8A810E94B0060F
:10419000802F0E94B4071CCE8A8122EF622EE61483
:1041A00009F459C06E1488F090EF792EE71451F19C
:1041B00021EFE21609F446C04980442009F486C084
:1041C0000111ECCD812F8F7143C033EFE31609F459
:1041D00048C044EFE412F0CF80915106498044205A
:1041E00009F461C00E94A205809154068770843052
:1041F00009F04BC00E94E705812F8F710E94B40720
:10420000D12CE6CD49804420C9F0053008F0E0CD3E
:10421000212F2F7161E070E080E090E004C0660F14
:10422000771F881F991F2A95D2F7409067065090F4
:1042300068066090690670906A0698CF063008F0AC
:10424000C7CDE6CF812F8F715980552009F4A1CFBA
:104250000E94F307BDCD812F8F7169806620C1F365
:1042600098CF7980772071F0212F2F7161E070E075
:1042700080E090E004C0660F771F881F991F2A9581
:10428000D2F756CF0E942A08A3CD033008F0B8CF4A
:10429000212F2F712A83822F0E94F30763E08A81E6
:1042A0000E941408ADCF90915706982B9093570613
:1042B000033040F00E94E7050E94EE0564E0812F84
:1042C0008F71EECF81E00E94D7079ACF002341F093
:1042D000893309F43DCE8FE39CE90197F1F73FCE96
:1042E000812F8F7156CFEA81E05FE73008F061C01F
:1042F000F0E0E25DF04D0C948A2E4980442009F4F0
:1043000067CD8091F00591E0892707C059805092D0
:10431000F0055ECD81E0698086258093F00558CD5B
:10432000798081E07720C9F353CD4980411050CD89
:104330001092F0054DCD59805520C1F082E0809358
:10434000ED0581E08093F0050E9471059093EC05E6
:104350008093EB052091520630915306232B09F4EC
:1043600037CD909353068093520632CD8091ED0560
:10437000823021F481E08093ED052ACD833009F06D
:1043800027CD1092ED051092F0051092EC051092D9
:10439000EB051ECD6980662041F08091EF058823F2
:1043A00009F4AFCF1092EF0513CD053008F010CD12
:1043B000A8CF8091EF050023E1F0882341F08091A0
:1043C000F00591E089278093F0051092EF05798040
:1043D0007110E4CC8FE39CE90197F1F700C0000075
:1043E0008A810E94B20886E0D4011D928A95E9F77D
:1043F000EFCC882309F4ECCC49804110E9CC8091C2
:10440000F00591E089278093F005CCCF813009F049
:10441000F9CC1092ED051092F0051092EC05109277
:10442000EB05F0CC4A805B8026E142162CE5520673
:1044300009F01CCC8091EA058111FFCB89E2E8EA02
:10444000F2E02EEA32E09191891303C0DF01119767
:104450001C922E173F07B9F717C04A805B8026E1F0
:1044600042162CE5520609F0EACB809157068A7A6B
:1044700091E009F490E09093EA0569E2811165E327
:1044800086EA92E00E947D050E94A9050C94181806
:104490000F900F900F90DF91CF911F910F91FF9090
:1044A000EF90DF90CF90BF90AF909F908F907F90D4
:1044B0006F905F904F903F902F900895BF92CF9252
:1044C000DF92EF92FF920F931F93CF93DF93809130
:1044D000F605807F61F48091F305882341F0C09157
:1044E000280686E0B82E8091F7058C130AC0DF916C
:1044F000CF911F910F91FF90EF90DF90CF90BF90E1
:104500000895F090F105E090F205C090F405D09088
:10451000F505A6016E2D8F2D0E948606D0E0811133
:104520003FC0BC9E8001BD9E100D1124F801E850D3
:10453000FA4F51815E1134C040814F1131C08281E8
:1045400081112EC0E380F480EC18FD0820E060911A
:10455000F3057091F4058091F5050E943E0C0E94D0
:104560006403E816F906E0F48091F6058F70806127
:104570008093F605F801E350FA4F80818F708061D7
:10458000808381EF95E00E949216DF91CF911F9179
:104590000F91FF90EF90DF90CF90BF900C94910619
:1045A0002196C770A0CF5F926F927F928F929F9259
:1045B000AF92BF92CF92DF92EF92FF920F931F9331
:1045C000CF93DF93CDB7DEB761970FB6F894DEBF18
:1045D0000FBECDBF8C0185E0F801DE011D96019074
:1045E0000D928A95E1F7D8017C901196EC90119785
:1045F00012966C9081EFA82E85E0B82E8090F4057D
:104600009090F505A4016091F2058091F1050E945A
:10461000860681119BC1F801C380D480F090F30518
:10462000C601881999094C0120E04091F10550918B
:10463000F205FF2009F443C16F2D7091F4058091BC
:10464000F5050E943E0C0E9464035090F605881602
:10465000990608F0F5C04091F4055091F505B09029
:10466000F105A090F205852D807F6A2D09F0A1C08B
:104670008B2D0E948606F62C81112BC0AE1029C00E
:10468000B71027C0611025C0852D8F708061809381
:10469000F60581EF95E00E9492168091F605D8010B
:1046A00015968C938F2D61960FB6F894DEBF0FBED2
:1046B000CDBFDF91CF911F910F91FF90EF90DF90D1
:1046C000CF90BF90AF909F908F907F906F905F90B2
:1046D000089520E04091F1055091F2056091F305B5
:1046E0007091F4058091F5050E943E0C0E946403D0
:1046F0005C01A6016E2D872D0E948606D82EB4EF90
:10470000AB16B1E0BB06D0F081E08625D11080E089
:1047100080FF14C0462D6E2D872D0E9466068823CB
:1047200069F081EF95E00E94921686E0E1EFF5E0F6
:10473000DF011D928A95E9F7F12CB4CF81E086253F
:10474000D11080E0B82FB170CB2E80FF29C0462D4C
:104750006E2D872D0E946606D82E811121C07D8680
:10476000EE868D859E850E94100C292F22952F7034
:10477000223050F0243078F49F7051F0F801958188
:10478000907F31F4FD2C8ECF9F7011F08823D1F3F0
:10479000805E8830B8F3C8010E949216DC2CF2CFFC
:1047A000662009F47FCF8091F60581608093F6053D
:1047B000C3CF8B2D0E948606811115C0AE1013C089
:1047C000B71011C061100FC0D80115965C92C801D6
:1047D0000E94921686E0F801A1EFB5E001900D92DB
:1047E0008A95E1F75FCF7D86EE868D859E850E9456
:1047F0001A0C882309F16620F9F08091F6058032C1
:1048000070F02091F1053091F20538872F831986D9
:10481000DB86CA868C87CE0107960E94921686E0B8
:10482000F801A1EFB5E001900D928A95E1F70E94A1
:104830005E22FF24F39436CFC8010E949216F9CF6E
:10484000852D807F09F46DCF9090F1058090F20561
:104850004091F4055091F505682D892D0E9486063A
:10486000811111C08E100FC097100DC061100BC0C8
:10487000F8015582C8010E94921686E0D5011D926A
:104880008A95E9F70FCF7D86EE868D859E850E94FD
:104890001A0C882389F2662079F28091F60580321D
:1048A00008F4BDCF2091F1053091F2053A832983B8
:1048B0001B82DD82CC828E83CE010196AECF60E07A
:1048C0007091F4058091F5050E943E0C0E946403EE
:1048D0008816990690F6F62C662009F4ADCFD09094
:1048E000F105C090F2054091F4055091F5056C2D4D
:1048F0008D2D0E948606811118C0CE1016C0D710CB
:1049000014C08091F60580FD65CF982F907F09F443
:1049100061CFF8018583903F09F459CF982F907F9C
:10492000905F8F70892B858352CF7D86EE868D8533
:104930009E850E941A0C811172CF8091F6058160CC
:104940008093F605C8010E949216ACCE662009F449
:1049500073CF7D86EE868D859E850E941A0CF82E7B
:10496000882309F469CF86E0F801A1EFB5E0019052
:104970000D928A95E1F78091F1059091F2050E94E0
:10498000100C92959F70963051F4863F41F08091C3
:10499000F00591E089278093F0059093EF050E9440
:1049A0005E2280CEFF920F931F93CF93DF93CDB7FC
:1049B000DEB767970FB6F894DEBF0FBECDBFF62EF9
:1049C0006D8B7E8B8F8B142F052F611110925606E5
:1049D0004E895F89602F812F0E948606811128C031
:1049E00081E090E0012E01C0880F0A94EAF7A02F21
:1049F000B0E0A754BD4F2C913091F005F11002C0EA
:104A0000322F3823332309F47FC0412F50E036E0A2
:104A1000039F400D511D1124440F551FFA01E15C05
:104A2000FB4F0491FA01E25CFB4F1491822B8C93B3
:104A30001A8A198A1B8B0C8B85E0FE017396DE01A6
:104A40001D9601900D928A95E1F70E9471052091C3
:104A5000520630915306821B930B883E934020F000
:104A60008091540682FF9CC00E94710520915806D7
:104A700030915906821B930B883E934010F00E94A0
:104A800097050E9471052091EB053091EC05821B82
:104A9000930B883E934028F08091ED05813009F416
:104AA00076C086E0FE013D96DE01179601900D92DC
:104AB0008A95E1F7CE0107960E94D322811111C099
:104AC00086E0FE013796DE01119601900D928A95DF
:104AD000E1F74A855B8568858F810E948606882379
:104AE000B1F016E0809128069091F70589133CC03B
:104AF00067960FB6F894DEBF0FBECDBFDF91CF91A2
:104B00001F910F91FF9008958095822390CF20915F
:104B1000F70530E0C9010196877099274091280672
:104B20004817190699F096E0929FD001939FB00D17
:104B30001124A850BA4FFE01319601900D929A951A
:104B4000E1F78093F7050E949106CBCF0E94CE1328
:104B50001092F7051092280686E0E1EFF5E0DF01FC
:104B60001D928A95E9F7BDCF819FC001112488501D
:104B70009A4F0E94D322882309F4BACF8091280645
:104B800090E001968770992780932806ABCF10920A
:104B9000ED051092F0051092EC051092EB0581CF17
:104BA00082E00E94D70760CF8F929F92AF92BF9210
:104BB000CF92DF92EF92FF920F931F93CF93DF93E9
:104BC00000D000D00F92CDB7DEB704E812E09DE62A
:104BD000C92E96E0D92E4601F12CAA24A394B12C1B
:104BE000D8018D918D01F894E82FE295EF70F0E0F7
:104BF00021A18F70A50102C0440F551F8A95E2F7CD
:104C0000CA01922F982B91A392A18095892382A308
:104C1000789400C0EEE8F2E030E020E0E12C419131
:104C2000A42FA295AF70B0E090968C9190E04F7059
:104C300002C0959587954A95E2F780FD48C08A2D78
:104C4000022E01C0880F0A94EAF7E82A2F5F3F4F2F
:104C50002630310521F7F801319780810E94D6096D
:104C600050EA5A95F1F7D4018C91E81691F1EC9243
:104C700081E0F82ABFEF8B1A9B0AE2E009381E0791
:104C800009F0AECF10917806FF2029F181E08093E2
:104C9000B0020E9471059093AF028093AE028091A2
:104CA000AE029091AF020E9456050697C0F0E12F28
:104CB000F0E0E358F94FD6018D916D018193B2E791
:104CC000CB16B6E0DB06B9F71092B00208C080E060
:104CD000BCCF80E0CECF8091B0028111E0CF0E94A6
:104CE0003F11E82E60917806882309F4A6C08E0152
:104CF0000F5F1F4F85E0F80111928A95E9F7862F23
:104D000090E0B8018358994F0E94652C811130C002
:104D10008091B1028F5F8093B102863008F443C066
:104D2000E0917706F0E0E358F94FD801CE010696FE
:104D300011921D928A179B07D9F780913C028F3FF1
:104D400009F077C0F11001C0FE2C8F2D0F900F904D
:104D50000F900F900F90DF91CF911F910F91FF90C7
:104D6000EF90DF90CF90BF90AF909F908F9008957D
:104D70001092B102A0917706B0E0A358B94F9E01FE
:104D80002A5F3F4FE12C4D91F80191918F01491716
:104D900031F0AD0141505109FA019083E82E02171C
:104DA000130789F7CACFE12CC8CFC89CF001C99C72
:104DB000F00D1124E25EFE4FA288B388A114B10465
:104DC00029F4818592850E9464035C01C89C80015E
:104DD000C99C100D1124025E1E4FD80116968C91AD
:104DE00016978823C9F01D968D919C910E945605B7
:104DF000A816B90688F4DC9C50011124F8018189B9
:104E0000811105C0C501825E9E4F0E94FB06C5014F
:104E10008C5D9E4F0E941C07D3948D2C912C809109
:104E20003C02082E000C990B881599050CF0BDCF9B
:104E300089CFD12C86E1C82EF0CF70E06358794F2E
:104E40008091770690E08358994F0E94922C7ACFF8
:104E50001F920F920FB60F9211242F933F934F93EF
:104E60005F936F937F938F939F93AF93BF93CF93F2
:104E7000DF93EF93FF93D091E900DF708091EC0016
:104E8000C82FC17080FDC0E81092E9008091F00049
:104E9000877F8093F00078940E94D9131092E900E4
:104EA0008091F00088608093F000CD2BCF70C0938C
:104EB000E900FF91EF91DF91CF91BF91AF919F9169
:104EC0008F917F916F915F914F913F912F910F90B3
:104ED0000FBE0F901F9018951F920F920FB60F9252
:104EE00011242F933F934F935F936F937F938F93EF
:104EF0009F93AF93BF93EF93FF938091E10082FF65
:104F000009C08091E20082FF05C08091E1008B7FA3
:104F10008093E1008091DA0080FF24C08091D80066
:104F200080FF20C08091DA008E7F8093DA0080912C
:104F3000D90080FF9BC080E189BD82E189BD09B4B1
:104F400000FEFDCF81E08093B1068091A40681111F
:104F500009C00E94B6030E9481048091E20084602F
:104F60008093E2008091E10080FF17C08091E20011
:104F700080FF13C08091E2008E7F8093E2008091D9
:104F8000E20080618093E2008091D800806280938B
:104F9000D80019BC85E08093B1068091E10084FFC0
:104FA00029C08091E20084FF25C080E189BD82E1B3
:104FB00089BD89B5982F917080FFFBCF8091D80073
:104FC0008F7D8093D8008091E1008F7E8093E100F7
:104FD0008091E2008F7E8093E2008091E200816008
:104FE0008093E2008091B206882309F445C084E0F2
:104FF0008093B1068091E10083FF27C08091E20099
:1050000083FF23C08091E100877F8093E10082E0ED
:105010008093B1061092B2068091E1008E7F80935A
:10502000E1008091E2008E7F8093E2008091E200B7
:1050300080618093E20042E060E080E00E944F04E3
:105040008091F00088608093F000FF91EF91BF9114
:10505000AF919F918F917F916F915F914F913F9110
:105060002F910F900FBE0F901F90189519BC1092A2
:10507000B1061092A40676CF8091E30087FD93E0FD
:105080009093B106B7CFCDB7DEB760970FB6F8945F
:10509000DEBF0FBECDBF84B7877F84BF0FB6F89445
:1050A000A8958091600088618093600010926000F4
:1050B0000FBE80E890E00FB6F89480936100909363
:1050C00061000FBE85B7806885BF85B7806885BFE2
:1050D00080E495E09093A5028093A4020E94B60319
:1050E0000E9481048091E20084608093E2007894C1
:1050F0008091B1068823A1F01091E9001F70909172
:10510000EC00892F817090FD80E8182B1092E90047
:105110008091E80083FD0E94D9131F701093E9006D
:1051200082E084BD93E095BD9AEF97BD80936E00B9
:10513000109263061092640610926506109266063D
:105140000E943F1180933D020E943F1181110E94F5
:10515000592C80913D0280913D0295E0811190E0B3
:105160009093780685E0891B8093770686E60E94F7
:10517000D60987E90E94D60986EC0E94D60984E305
:105180000E94D60985E30E94D60986EF0E94D609BF
:1051900087EF0E94D60981E30E94D60983E30E942B
:1051A000D60982E30E94D60986E30E94D609EDE67D
:1051B000F6E087E796E0ADE7B6E011921D928E1714
:1051C0009F07D9F790E080E00E94CE2E8A3E9E4F46
:1051D00011F00E94491382E090E00E94C62E809355
:1051E00099060E94151090936C0680936B060E949E
:1051F000D4258FE39CE90197F1F700C000000E94DD
:10520000D42580917D0680FF08C06FEF7FEF90E08E
:1052100080E00E94F22E0E94450583E090E00E940B
:10522000C62E682F70E090E080E00E942F080E9458
:105230003F11811102C00E945F2C80913D028111BB
:1052400006C084EF80933F0285EF80933E02209159
:105250003F02A22FA295AF70B0E091963C9191973A
:105260002F7081E090E0BC01022E01C0660F0A940D
:10527000EAF7462F4095432391964C939197929647
:105280003C919297362B92963C93929740913E0296
:10529000E42FE295EF70F0E031A14F70042E01C0D1
:1052A000880F0A94EAF7982F9095932391A392A1DF
:1052B000892B82A390968C9190E002C0959587955A
:1052C0002A95E2F7817020A130E002C0359527953C
:1052D0004A95E2F792E020FF90E0892B80938B06BD
:1052E00090913D0281E0982790938A06891B8093D4
:1052F000790680E492E090937B0680937A0608E139
:1053000010E020E4C22E8DE796E03AE0D32ED80ECE
:105310008091B106853069F480E1E82E92E1F92EA2
:105320008091B106853009F478C10E94CE130E94A5
:10533000EF060E94D42581110E946505AAE9B6E016
:10534000EDE7F6E0F12CE12C8E2CA1908D918A15E1
:1053500009F49CC18A25912CBB24B3949B2D9823DE
:1053600009F48FC10E943F11882399F09F8288869B
:10537000AB2081E009F480E089870E94710581609B
:10538000782F9B878A874F81588569858B850E94F6
:10539000D224F701E656F94F8081B826B082809179
:1053A0008B06E82FEE0FEE0F90913F02A92FA295EA
:1053B000AF70B0E090962C9130E09F7002C03595B0
:1053C00027959A95E2F72170332790913E02A92FF5
:1053D000A295AF70B0E090964C9150E09F7002C0E3
:1053E000559547959A95E2F7CA018170992740FF34
:1053F00002C082E090E0822B8E2B80938B06F0908F
:105400008A068F70E82FF0E0EC56FD4F8081909176
:105410008906890F8093890620E0843064F0EF2D9F
:10542000F0E0E957F94F80818F5F808361E08F2D35
:105430000E94231221E0809189068D3F64F4EF2DB4
:10544000F0E0E957F94F80818150808360E08F2D33
:105450000E94231221E080918906082E000C990BEE
:1054600064E070E00E94762E8093890621110E94EC
:10547000C10686E0E2E9F6E0DE01119601900D92A8
:105480008A95E1F7B0909406A0909506F090960664
:10549000E090970610929406109295061092960648
:1054A000109297068B2D8A2909F448C080919006A6
:1054B000909191060E9456059C0190918F06992328
:1054C00009F428C128303105C8F19F3F19F09F5FCA
:1054D00090938F06BB2059F00E94FD089FEF1B148C
:1054E0000CF491E0899F802D112480939406AA20CA
:1054F00059F00E94FD089FEF1A140CF491E0899F67
:10550000802D112480939506309194063323B1F0B9
:1055100020919506222391F045EB3403C00111241C
:10552000992309F4CCC09093940645EB2403900191
:105530001124332309F4C7C0309395068F2D8E298B
:1055400009F448C080918D0690918E060E94560500
:105550009C0190918C06992309F4D7C0253631051A
:10556000C8F19F3F19F09F5F90938C06FF2059F080
:105570000E94EB089FEF1F140CF491E0899F802D8F
:10558000112480939606EE2059F00E94EB089FEFBD
:105590001E140CF491E0899F802D112480939706AE
:1055A000309196063323B1F020919706222391F093
:1055B00045EB3403C0011124992309F488C090936A
:1055C000960645EB240390011124332309F483C08C
:1055D000309397068091940690919506892B90912F
:1055E0009606892B90919706892B11F00E946607E9
:1055F00086E0FE013196A2E9B6E001900D928A950F
:10560000E1F70E94EF0690919806891709F480CE81
:105610000E94EF06809398067BCE8091B10684307D
:1056200009F110927C060FB6F894A89500936000DB
:105630000FBEC092600083B7817F846083BF83B751
:10564000816083BF7894889583B78E7F83BF0FB6C0
:10565000F894A89580916000886180936000109212
:1056600060000FBE8091B006882309F459CE0E94D5
:10567000D425EDE7F6E08191811131C0DE12FBCF38
:105680004FCE9394BB0C96E0991268CE2FEFE21A9E
:10569000F20A4AE0E416F10409F056CE8FEF8C8747
:1056A0008D871E860E9471058160782F988B8F8769
:1056B0004C855D856E8588890E94D22470CE81E0FC
:1056C0008093940632CF81E08093950637CF81E0B6
:1056D0008093960676CF81E0809397067BCFE9BCD6
:1056E000F9BC09B400FEFDCF8091D8008F7D809376
:1056F000D8008091E00082608093E0008091E0001B
:1057000081FDFCCF0E94CE130BCE2D32314008F02C
:105710002ACF60CF232B09F0DACE10CF0F931F933F
:105720000E943F11882321F01F910F910C94650571
:105730000E9465050091630610916406209165063C
:1057400030916606600F711F821F931F1F910F918A
:105750000895CF92DF92EF92FF926B017C010E943D
:105760003F1181110EC00E946505C61AD70AE80ACA
:10577000F90AC0926306D0926406E0926506F09240
:105780006606FF90EF90DF90CF90089578941F9277
:105790001FB61F9211248F939F93AF93BF93809155
:1057A0005F0690916006A0916106B0916206019635
:1057B000A11DB11D80935F0690936006A0936106C2
:1057C000B0936206BF91AF919F918F911F901FBEC2
:1057D0001F9018951F921FB61F9211248F939F93AD
:1057E000AF93BF9380917C06811113C080915F06B7
:1057F00090916006A0916106B09162064196A11D4C
:10580000B11D80935F0690936006A0936106B093EC
:105810006206BF91AF919F918F911F901FBE1F9005
:105820001895FF920F931F93CF93DF93D091790632
:105830000D2F10E00957194FFC01C081F80180813C
:10584000C81BFC2E80E01F147CF09C2FC7FD90E04D
:10585000C91BC11114C08823E9F0DF91CF911F91BA
:105860000F91FF900C94C106FA94F80180818F5F2C
:10587000808361E08D2F0E94231281E0E4CFCF5F0F
:10588000F80180818150808360E08D2F0E94231277
:1058900081E0DFCFDF91CF911F910F91FF900895AD
:1058A000E0918A06F0E0E957F94F2081FC0120835E
:1058B000089561E070E08BE492E00C94162D61E0B5
:1058C00070E08BE492E00C941F2DCF93DF93D62FE2
:1058D000C72F90E080E00E94F82D009709F5ED2F8A
:1058E000FC2FDC01A054B94F2C91219301968530F7
:1058F0009105B9F785EC96E00E94112C0E948E2B41
:105900006E5F7F4F8F4F9F4F6093BC067093BD06B5
:105910008093BE069093BF0681E0DF91CF910895FA
:1059200080E0FBCFCF93DF93D62FC72F6091BC06CB
:105930007091BD068091BE069091BF060E94A92B72
:10594000ED2FFC2F90E080E02191DC01A054B94FB5
:105950002C93019685309105B9F785EC96E0DF919F
:10596000CF910C94502C8EE14A9B02C08150E1F7FC
:105970004A9BFECF08955A9880E28A95F1F75A9A89
:105980000895FC013BE03A95F1F720E090E080E0DB
:1059900031E040E14A95F1F7880F4A9B02C08160EF
:1059A000232742E04A95F1F7000040E14A95F1F7DC
:1059B0009F5F6913EECF90E19A95F1F799B132E0CC
:1059C0003A95F1F7000040E14A95F1F792FB9927EB
:1059D00090F992272081920F90830895EF92FF9281
:1059E0000F931F93CF93DF930F92CDB7DEB719823A
:1059F0008C017C01E60EF11C0E151F0561F481E09F
:105A00009981911180E00F90DF91CF911F910F91BB
:105A1000FF90EF9008950E94B32C68E0CE010196AC
:105A20000E94C12CF80181938F01E6CF9093C806A4
:105A30008093C7066093C606529A5A9A0895909327
:105A4000C8068093C7066093C60652985A9AEA9A87
:105A5000E9E6F0E080818F7C808308956150770BC8
:105A600091E001C0990F6A95EAF720E031E09111C9
:105A700008C0222391F05A9A80E28A95F1F75A9849
:105A80000895492F482339F05A9A232740E24A952E
:105A9000F1F79695ECCF5A98F9CF5A98EDCFFF923F
:105AA0000F931F93CF93DF93EC018C01060F111D11
:105AB000C017D10731F4DF91CF911F910F91FF9063
:105AC0000895F9900E94BB2C68E08F2D0E942E2D26
:105AD000EFCF1F920F920FB60F9211240F931F93C7
